:020000040800F2
:10000000D8580020B102000893360008AB30000831
:1000100091360008750600088B56000800000000A5
:10002000000000000000000000000000F1010008D6
:10003000A7070008000000004D020008C53D0008A9
:10004000CB020008CB020008CB020008CB0200085C
:10005000CB020008CB020008CB020008CB0200084C
:10006000CB020008CB020008CB020008ED06000816
:10007000CB020008CB020008CB020008CB0200082C
:10008000CB02000800000000CB020008CB020008F1
:100090001D560008CB020008CB020008CB02000866
:1000A000CB020008CB020008713E0008CB0200081A
:1000B000CB020008CB020008CB020008CB020008EC
:1000C000CB020008CB020008CB020008CB020008DC
:1000D000CB020008CB020008CB020008CB020008CC
:1000E000CB020008CB020008CB020008CB020008BC
:1000F000CB020008CB020008CB0200080000000081
:1001000000000000CB02000800000000CB02000845
:10011000CB02000800000000CB020008CB02000860
:10012000F9060008CB020008CB020008CB02000849
:10013000CB0200080000000000000000CB02000815
:10014000CB020008CB020008000000000000000005
:10015000000000000000000000000000000000009F
:10016000000000000000000000000000CB020008BA
:10017000CB020008000000000000000000000000AA
:1001800000000000CB02000800000000000000009A
:10019000000000000000000000000000000000005F
:1001A0000000000000000000CB020008CB020008A5
:1001B000CB020008CB020008CB02000800000000C0
:1001C00000000000CB02000800000000000000005A
:1001D000CB020008CB020008DFF810D000F09EF838
:1001E00000480047F9560008AFF30080D8580020B7
:1001F0002C4B19680868B0E8F04F80F30988BFF30A
:100200006F8F4FF0000080F31188704700000000EE
:1002100008480068006880F308884FF0000080F309
:10022000148862B661B6BFF34F8FBFF36F8F00DFE4
:1002300000BF00BF08ED00E0DFF80C00016841F4EA
:1002400070010160704700BF88ED00E0EFF30980A6
:10025000BFF36F8F134B1A681EF0100F08BF20ED0D
:10026000108A20E9F04F106009B44FF0500080F37D
:100270001188BFF34F8FBFF36F8F05F011FE4FF062
:10028000000080F3118809BC19680868B0E8F04FD5
:100290001EF0100F08BFB0EC108A80F30988BFF37E
:1002A0006F8F704794000020EFF3058070470000C7
:1002B0000648804706480047FEE7FEE7FEE7FEE700
:1002C000FEE7FEE7FEE7FEE7FEE7FEE7613E000829
:1002D000D901000840EA01039B0703D009E008C9DF
:1002E000121F08C0042AFAD203E011F8013B00F8FB
:1002F000013B521EF9D27047D2B201E000F8012B47
:10030000491EFBD270470022F6E710B513460A4695
:1003100004461946FFF7F0FF204610BD064C074D76
:1003200006E0E06840F0010394E8070098471034C5
:10033000AC42F6D3FFF754FF5C6200087C62000811
:1003400070B58C1810F8015B15F0070301D110F897
:10035000013B2A1106D110F8012B03E010F8016BC4
:1003600001F8016B5B1EF9D12B0705D40023521E47
:100370000DD401F8013BFAE710F8013BCB1A921CAF
:1003800003E013F8015B01F8015B521EF9D5A142AD
:10039000D8D3002070BD00002DE9F843044618A012
:1003A000164600680D460090052921D8DFF85480D4
:1003B0004FF40077F4B1012C1AD10022394640469F
:1003C00001F0F0F88DF800508DF801604FF6FF73E2
:1003D000022269460C4802F04BFC052005F0B2F9F8
:1003E0005CB1012C04D101223946404601F0DAF813
:1003F000BDE8F88300228021E1E701228021F4E7B3
:10040000000A0000000400486C13002010B5846A44
:10041000E16D11F0500F06D0E16DC90625D52046DB
:1004200000F044FC10BDE06D40F40070E065206811
:100430000168090716D502F067FE78B12068C06828
:10044000800400280ADBE06D20F48070E065E06D38
:10045000C00403D4E06D40F00100E065204600F0E8
:1004600023FC10BDC0688007EBE7616D496BBDE8F8
:100470001040084710B5806AC16D41F04001C16568
:10048000016E41F00401016600F010FC10BD10B5D2
:10049000806A00F00AFC10BDF8B504460020009008
:1004A0002068816811F0010F41D18168214A114211
:1004B0002ED18168D5432940491C81601E4880683F
:1004C00000F0E07000020DD51C481D490068B0FB2B
:1004D000F1F0401C00EB4000800000E0401E009066
:1004E0000028FBD101F064F806461BE0816811F09A
:1004F000010F03D181682940491C816001F058F83F
:10050000801B02280ED920680068C043C00709D0AC
:10051000E06D40F01000E065206E40F001002066C4
:100520000120F8BD20680168C943C907DED1002059
:10053000F8BD00003F000080000300509000002044
:10054000400D030008B54FF4FA7005F0FBF846487B
:1005500055210170AA224270BB248470CC27C77039
:1005600000254FF47A736E1C00EB4505AE80B5B2E2
:100570009D42F8D380F8D42780F8D517662580F8F7
:10058000D657772680F8D767384801704270847054
:10059000C77000245FF0020700EB440807EB440C2F
:1005A000A8F804C0641CA4B29C42F5D380F8D427F8
:1005B00080F8D51780F8D65780F8D76705F044FD46
:1005C000DFF8A4802A4EA8F1140800900024012529
:1005D000642004FB00F7284603F01EFB322005F0E0
:1005E000EFFA05EB8501B26807EB410302EB43012B
:1005F000B8F80AC0404621F810CCB8F800C021F87D
:100600000ECCB8F80CC021F80CCCB8F802C021F818
:100610000ACCB8F810C021F808CCB8F80EC021F800
:1006200006CCB0F806C021F804CCB0F804C021F81C
:1006300002CCB0F812C022F813C0B8F80800488005
:100640006D1CEDB20B2DC6D30121684605F0A6FB4B
:10065000641CE4B20A2CBAD305F038F84FF4FB61FD
:10066000706800F02DF8B1E724020020FC0900209A
:1006700000000020FEE700207047002070470000C7
:1006800010B500220449054803F0D9FD0449034888
:1006900003F0CCFD002010BDE82100201819002037
:1006A000E81D002010B50146034803F0BFFD0248D5
:1006B00003F084FD002010BD1819002000207047B1
:1006C000094A10B5D2F8BC22D2F814220AB101208E
:1006D00010BD0A460146044803F0B1FDBDE81040D4
:1006E000014803F016BE000018190020014800F070
:1006F00029BD0000AC120020014800F023BD00001D
:100700000C1300200D4902688A4201D20C4901E015
:100710000B492031D2B21423083AB2FBF3F2436CF6
:1007200002F01F0223F0030319448164044980315D
:10073000C164012191400165704700000804024036
:10074000000802400179074A02EB81024265054A2E
:100750004432491E826501F01F0201219140C165AA
:1007600070470000FC08024030B5D0E913456560D1
:10077000446D14B1D0E91645656090F8444004F02A
:100780001F050124AC40056C6C60046863608368DD
:10079000102B036803D099600068C26030BD9A6076
:1007A0000068C16030BD704772B6FEE72DE9F047C2
:1007B000044690F858009CB00E464FF000090128FE
:1007C00015D0012084F85800002517951895206849
:1007D0004FF0A04840450ED1284F0097384602F010
:1007E0008FFC8246206802F08BFC60B10EE0022094
:1007F0001CB0BDE8F087E06D40F02000E06584F8B3
:1008000058500120F4E7BAF1000F09D0E06D40F034
:100810002000E0654FF0010984F858504846E7E7AA
:100820001748326840F61F71002A826822F460423D
:1008300016D094F8383042EA433273681A43826023
:10084000D8F80820BB6802F0010203F001031A4344
:10085000E2D1B36832681A4383688B431A430BE0D2
:100860008260D8F80820BB6802F0010203F001039F
:100870001A43D1D182688A438260CDE700010050DB
:10088000000300502DE9F84F00270446009790F828
:100890005800DFF8E0930D46B846012811D0012634
:1008A00084F85860206802F027FC60B1E06D40F0E9
:1008B0002000E0655FF0010784F858803846BDE805
:1008C000F88F0220FBE7D5E900210C23206803EA1A
:1008D00091131844036B01F01F014FF01F0C0CFA29
:1008E00001FCC2F3846223EA0C038A4013430363CE
:1008F000206802F001FC8246206802F0F9FB5AEA07
:1009000000003CD1AA6829682068B2F1004F37D0B6
:1009100002F002FC2068416921F000414161206839
:100920006969C268C2F3C102520091402A69042A6F
:1009300031D000EB82002B68026EDFF83CC303F07D
:10094000F84302EA0C020B431A4342F000410166ED
:1009500020682A69A96900EB8200026E22F0807289
:100960000A430266297F22682869012910D00021E4
:1009700002EB8000026E22F000720A4302667DE004
:10098000002202F0C9FB2068416941F00041C5E73F
:100990004FF00071ECE7002102F0A4FB4003206857
:1009A0004FF0000172D002F09DFB90FAA0F0B0FA77
:1009B00080F1286842036ED090FAA0F0B0FA80F07F
:1009C000814204D100221146206802F0B4FB0121CB
:1009D000206802F087FB400320684FF001015DD0E2
:1009E00002F080FB90FAA0F0B0FA80F12868420390
:1009F00059D090FAA0F0B0FA80F0814204D10022E0
:100A00000121206802F097FB0221206802F06AFBB6
:100A1000400320684FF0020148D002F063FB90FAD7
:100A2000A0F0B0FA80F12868420344D090FAA0F018
:100A3000B0FA80F0814204D100220221206802F045
:100A40007AFB0321206802F04DFB400320684FF041
:100A5000030133D002F046FB90FAA0F0B0FA80F127
:100A6000286842032FD090FAA0F0B0FA80F08142BB
:100A700004D100220321206802F05DFB2068816818
:100A800011F0010F22D0ACE000E004E002F02AFBFC
:100A9000C0F384618DE7C0F3846091E702F022FB2C
:100AA000C0F38461A2E7C0F38460A6E702F01AFBFA
:100AB000C0F38461B7E7C0F38460BBE702F012FBC8
:100AC000C0F38461CCE7C0F38460D0E72A7B296857
:100AD00050F8B03FC1F3120C23EA0C0302F0180CDB
:100AE000664A22FA0CF20A4013430360E96849455A
:100AF00077D1286841031CD090FAA0F1B1FA81F1B6
:100B0000491C01F01F0109294FEA403132D8002960
:100B100012D000BF90FAA0F1B1FA81F101F1010108
:100B200001F01F0106FA01F609D100BFC0F384618C
:100B300009E0C0F38461E3E7C0F38461EEE790FA73
:100B4000A0F1B1FA81F101F1010101F01F0146EAC2
:100B5000816102D1C0F3846003E090FAA0F0B0FAA2
:100B600080F000F1010000F01F0000EB400041EABE
:100B7000005132E000290ED090FAA0F1B1FA81F1D3
:100B800001F1010101F01F0106FA01F606D100BFD3
:100B9000C0F3846106E0C0F38461F1E790FAA0F14C
:100BA000B1FA81F101F1010101F01F0146EA816111
:100BB00002D1C0F3846003E090FAA0F0B0FA80F0B4
:100BC00000F1010000F01F002D4A00EB400002EB95
:100BD000005041EA000141F00071AA68206802F06B
:100BE0009BFA28482A6802423FF466AE264881688C
:100BF000264B01F0E0719A4202D0254B9A421CD15B
:100C00000B021AD42268B2F1A04F7FF455AE82686D
:100C100041F4000122F0E0720A4382601D481E493F
:100C20000068B0FBF1F0401C00EB4000800000E0E9
:100C3000401E00900028FBD13EE6184D184BAA42FA
:100C400007D1CD0105D422689A42F5D041F08071D8
:100C500009E0144DAA42EFD14A02EDD422689A422B
:100C6000EAD041F48001826822F0E0720A43826097
:100C700022E6000000007F4000F0FF03FFFF0700B6
:100C8000000020FE0000088000030050000021C387
:100C90001000C09090000020400D0300000052C7DB
:100CA00000010050000084CB70477047704700007F
:100CB000F8B54FF0000504002E46009502D0E06D17
:100CC00010B107E00120F8BD204600F0EBF82666E1
:100CD00084F8586020688168C1F3407119B1816857
:100CE000684A1140816020688168C1F3007189B948
:100CF0008168654A114041F08051816063486449D0
:100D00000068B0FBF1F04000801C00E0401E009045
:100D10000028FBD120688168C1F3007141B9E16D01
:100D200041F01001E165216E41F0010121660125CC
:100D300002F0E2F9E16DC90600D430B1E06D40F097
:100D40001000E06501252846F8BDE06D20F48070B4
:100D500040F00200E0652068806810F0010F11D1BA
:100D60004FF0A04080684B4900F00100896801F015
:100D70000101084306D148486168826822F47C1268
:100D80000A438260E168E06B627F0843A16841EA40
:100D90004231084394F8241040EA0140012904D16B
:100DA000218D3E4A02EB41410843E16A29B101F439
:100DB0007871226B014342EA01002268D168384B06
:100DC00019400143D16020680169626B21F04061E4
:100DD00011430161206802F08BF970BB207F94F809
:100DE0003810800340EA41022168C86844F20203D7
:100DF00098431043C86020690028206801690AD020
:100E000041F480310161206850F8C01F22696FF3FE
:100E10000D01114307E021F480310161206850F891
:100E2000C01F6FF30D01016094F8400001280CD041
:100E30002068016921F001010161606901282068D1
:100E4000016B21F00F0111D013E0D4E91101084327
:100E5000D4E913121143084321680A6940F2FC7374
:100E60009A43104340F001000861E6E7226A521EEF
:100E700011430163E06D20F0020040F00100E065E5
:100E800061E70000C0FFFF5FC0FFFF7F9000002010
:100E9000400D030000010050000300500000FEFF61
:100EA0000740F0FF2DE9F04F97B006461421684641
:100EB000FFF729FA442105A8FFF725FA4FF400416E
:100EC000306800258A035B4F5B4C4FF003084FF0FE
:100ED00080094FF4807A4FF4806BB0F1A04F10D0AE
:100EE000564B984252D1149205A8059101F06AF927
:100EF00008B1FFF759FC3868401C3860012848D019
:100F00004FE0149205A8059101F05CF908B1FFF7D4
:100F10004BFC3868401C3860012807D1E06C40F475
:100F20000050E064E06C00F400501690E06C40F07B
:100F30000100E064E06C00F001001690E06C40F00D
:100F40000200E064E06C444600F0020016900E20BF
:100F50008DE8310069464FF0904000F0F7F90094B9
:100F600069463748CDE9014500F0F0F9364C35487F
:100F700020600520C4E901052020C4E906B04FF433
:100F80004050206220464AE07465A66217B0BDE872
:100F9000F08FE06C40F40050E064E06C00F400502E
:100FA0001690E06C40F00100E064E06C00F001009D
:100FB0001690E06C40F00400E064E06C00F0040087
:100FC0001690E06C40F00200E064E06C444600F0F3
:100FD0000200169031208DE8310069464FF09040B4
:100FE00000F0B4F910208DE831006946174800F090
:100FF000ADF94FF400608DE831006946104800F00B
:10100000A5F9114C1248603420602420C4E9010580
:101010002020C4E906B04FF440502062204604F17D
:101020000C0181E8200600F0EBF80028ACD0FFF7B7
:10103000BBFBA9E71800002000100240000100508F
:101040000004004808000240AC12002000080048DC
:10105000080402402DE9F04104463448174688460A
:10106000806800F01F05206802F046F800285AD179
:1010700094F85800012856D0012084F85800002622
:1010800025B1052D02D0092D00D003E02046FFF741
:1010900003FA18B184F85860BDE8F081E06D40F6BD
:1010A0000161884340F48070E065214920688842EE
:1010B00002D14FF0A04100E00146814200D01DB9AD
:1010C000E06D20F48010E065E06DC00404D5206E72
:1010D00020F00600206600E02666616D1548C862B3
:1010E000616D15480863616D1448486321681C20D0
:1010F000086084F858602068416841F01001416040
:101100002068C16841F00101C16021683B46424648
:101110004031606D00F0D4F821688A68084B1A40AD
:10112000121D8A60B8E70220B6E7000000030050F5
:10113000000100500D0400088F0400087504000829
:10114000C0FFFF7FF0B4016C0C6801680D6890F877
:10115000442002F01F06042202FA06F3234211D0B3
:101160006B070FD50B689B0603D40B6823F00403B1
:101170000B6090F8441001F01F018A40016C4A6036
:10118000016B1DE0022303FA06F727424FF0000C23
:101190004FF0010218D0AF0716D50C68A40605D48D
:1011A0000C6824F00A040C6080F8252090F84410A4
:1011B00001F01F018B40016C4B6080F824C0C16AB4
:1011C00000291AD0F0BC08470823B340234214D0AA
:1011D0002B0712D50B6823F00E030B6090F8441018
:1011E000036C01F01F0102FA01F15960C26380F83B
:1011F000252080F824C0416BE2E7F0BC7047000076
:1012000070B504000CD02B4A21681420914209D2F9
:10121000294A0A44B2FBF0F08000606427480AE0E3
:10122000012070BD234A52420A44B2FBF0F0800014
:101230006064204808382064022084F825000A6889
:1012400047F6F0708243D4E902031843D4E9043529
:101250002B431843A3691843E3691843236A1843CF
:10126000104308602046FFF74DFAA0680025B0F54E
:10127000804F00D16560A16C20790860D4E913012A
:1012800041606068401E032808D82046FFF75AFADC
:10129000606D0560D4E91601416002E06565A565F1
:1012A000E565E563012084F8250084F824500020DA
:1012B00070BD000008040240F8FFFDBF00000240BE
:1012C00070B5044690F82400002501280CD00120B8
:1012D00084F8240094F825600020012E06D084F8BC
:1012E00024000225284670BD022070BD022684F825
:1012F0002560E0632068066826F001060660204647
:10130000FFF732FA206B00282068016802D041F014
:101310000E0106E021F0040101602068016841F03F
:101320000A010160A06C0168C90303D5016841F49A
:1013300080710160606D18B1016841F480710160D5
:101340002068016841F001010160CBE72DE9F04F11
:10135000DFF82092002301260324A9F1040B85B0B5
:101360000F2709F1040AABF1040EFAE006FA03F5BF
:101370002A407CD091F804C00CF0030CBCF1010FA2
:1013800002D0BCF1020F26D1D0F808C0CDF800C0C1
:101390004FEA430C04FA0CF8CDF810C0DDF800C099
:1013A0002CEA080CCDF800C0D1F80C80DDF810C094
:1013B00008FA0CF8DDF800C048EA0C08C0F808800C
:1013C000D0F804C02CEA050C0D79C5F300159D403A
:1013D00045EA0C0545600D79ED43AD070ED0C568B3
:1013E0004FEA430804FA08FC25EA0C05D1F808C0C6
:1013F0000CFA08FC4CEA050CC0F80CC00D7905F09D
:101400000305022D16D1DD0800EB850CCDF808C0D0
:10141000DCF820805D074FEAD56C07FA0CF528EA66
:1014200005080D6905FA0CF5DDF808C045EA080560
:10143000CCF8205005684FEA430CCDF808C004FAF8
:101440000CFC25EA0C0591F804C00CF00308DDF84B
:1014500008C008FA0CF848EA0508C0F800804D6892
:1014600015F4403F7CD0444DD5F860C000E077E0F3
:101470004CF0010CC5F860C02D6E23F0030C05F094
:10148000010500953D4D65440295AD684FEA837CAA
:101490004FEA1C7807FA08FC25EA0C05B0F1904FDA
:1014A00006D0DFF8DCC0604505D14FF0010C20E02C
:1014B0004FF0000C1DE0DFF8CCC0604502D14FF0CA
:1014C000020C16E0DFF8C0C0604502D14FF0030CFB
:1014D0000FE0DFF8B8C0604502D14FF0040C08E01F
:1014E000DFF8ACC0604502D14FF0050C01E04FF0D1
:1014F000060C0CFA08FC4CEA050C029DC5F808C065
:10150000D9F80050CC46D1F8048095435FEAC8284A
:1015100000D51543CCF80050DAF80050D446D1F885
:10152000048095435FEA882800D51543CCF8005025
:10153000DBF80050DC46D1F8048095435FEA883838
:1015400000D51543CCF80050DEF80050F446D1F831
:10155000048095435FEAC83800D51543CCF80050A5
:101560005B1C0A6832FA03F57FF400AF05B0BDE8F2
:10157000F08F00000804014000100240000001400C
:101580000004004800080048000C00480010004813
:1015900000140048426921EA02030A4043EA02417A
:1015A000816170470AB181617047816270470000B4
:1015B000014880687047000084000020024881686C
:1015C00042681144816070478400002010B50024F7
:1015D000032000F09BF80F2000F008F808B1012468
:1015E00001E000F047F8204610BD000030B5054688
:1015F0001B4887B0016E41F480210166006E06A988
:1016000000F48020009001A801F00EF801F02CF801
:101610001449154AB0FBF1F11448491E02604160BB
:1016200040F2E7320021C0E90321816001F0F0FBC4
:10163000040012D10D4801F01DFC04000DD11A2048
:1016400000F036F8102D07D2002229461A2000F0AB
:101650003DF80748056000E0012407B0204630BD92
:101660000010024040420F0000480140D01300200B
:10167000840000200D4808B5016E41F001010166AB
:10168000016E01F001010091816D41F08051816591
:10169000806D002200F0805000900F21901E00F01D
:1016A00015F8BDE8084000F085BD000000100240BC
:1016B000002809DB00F01F02012191404009800051
:1016C00000F1E020C0F8001170470000F0B40E4BAC
:1016D0001B680C46C3F30223C3F10705042D00D990
:1016E0000425191D072901D2002300E0DB1E012675
:1016F00006FA05F1491E214099409E40761E16408B
:101700003143F0BC03F0C2BF0CED00E0064900F02D
:10171000070208684FF6FF03184040EA0220034A18
:1017200010430860704700000CED00E00000FA056F
:1017300001220168C0F8D022002280F8C82231F8C6
:10174000540F40F001000880088840F00200088033
:101750001046704770B50F4D044669B101290AD192
:10176000D4F8D80203F0A1F8607A002803D02868E2
:1017700040F00600286070BD607A28B102F038FBA6
:10178000286820F006002860D4F8D802BDE8704030
:1017900003F023B810ED00E010B50C0607D501F0FA
:1017A000070101EB810100EBC100103005E001EB06
:1017B000810100EBC10000F5A87099B232B101229D
:1017C00002730181190C4181002010BD00220273B7
:1017D000C180F9E701EB810200EBC202D0F8D80228
:1017E000526A02F0D8BE01EB810200EBC202D0F8CF
:1017F000D802D2F8642102F022BF70B504460B066D
:1018000001F0070000EB800104EBC1014FF0010281
:101810004FF0000502D54A74103103E081F85151B0
:1018200001F5A871087094F89002012808D084F896
:101830009022206803F084FB84F89052002070BD51
:10184000022070BD70B5044601F00F00227990426D
:1018500001D9012070BD0B0601F0070000EB8001EB
:1018600004EBC1014FF001024FF0000502D54A74AC
:10187000103103E081F8515101F5A8718D700870A5
:1018800094F89002012808D084F89022206803F090
:10189000F6FB84F89052002070BD022070BD2DE947
:1018A000F04704685FEA42480B788D69B4F85080CD
:1018B0004FF0000C4BF68F7748F2800648F68F7990
:1018C00048F2C00A444428D540F2024808EBC30855
:1018D00034F80840C4F30904A54203D32D1B8D61DD
:1018E00002D00BE0C1F818C0D0F800C03CF823507B
:1018F0003D4085F4005535432CF82350520609D558
:101900000B78056835F8232002EA090242EA0A0248
:1019100025F8232074B30A8927E040F2064808EB33
:10192000C30834F80840C4F30904A54203D32D1BAF
:101930008D6102D00BE0C1F818C0D0F800C03CF8AF
:1019400023503D4085F4005535432CF82350520672
:1019500009D40D78036833F8252002EA090242EA27
:101960000A0223F825202CB14A89496900682346D8
:1019700003F05DFE2046BDE8F0872DE9F0470546FF
:1019800000680C465FEA42681646D1F818C0227813
:10199000B0F8508048F68F774CF280094FF400433E
:1019A0004FF6FF7A4FF00001404472D540F20248F2
:1019B00008EBC20830F80800C0F30900844514D9C8
:1019C000BCEB000CC4F818C010D0760408D5D5F8CC
:1019D00000C03CF822603E4046EA09062CF822602E
:1019E00094F82420012A47D056E1A161607810B113
:1019F000012813D01AE02868B0F85030184400EBE2
:101A0000C200B0F80224C2F30902A0F80224B0F820
:101A1000022442F40042A0F8022407E02868B0F84B
:101A20005030184400EBC200A0F802146278286815
:101A300012B1012A11D018E0B0F8501008442178F2
:101A400000EBC100B0F80614C1F30901A0F80614B8
:101A5000B0F8061441F4004105E0B0F850201044FD
:101A6000227800EBC200A0F8061421782846FFF780
:101A7000B1FE70046ED40FE1626902446261E269F2
:101A80000244E2612669226AB24203D33046111A47
:101A900004E040E084F824100AB110462162617825
:101AA00011B101292BD033E02968B1F8502011443D
:101AB000227801EBC201B1F80224C2F30902A1F8B5
:101AC000022401F202413E2809D94209C60600D18A
:101AD000521E0E8843EA822216430E8018E048B157
:101AE0004208C30700D0521C0B880AEA8222134323
:101AF0000B800DE00A8842F400420A8008E0296861
:101B0000B1F850201144227801EBC201A1F802047F
:101B100083B22289BCE040F2064808EBC20830F8E4
:101B20000800C0F30900844515D3BCEB000CC4F8D1
:101B300018C011D0760408D4D5F800C03CF8226053
:101B40003E4046EA09062CF8226094F82420012A37
:101B500051D0A1E045E0A161607810B1012813D017
:101B60001AE02868B0F85030184400EBC200B0F812
:101B70000224C2F30902A0F80224B0F8022442F4BD
:101B80000042A0F8022407E02868B0F8503018445A
:101B900000EBC200A0F802146278286812B1012A92
:101BA00011D018E0B0F850100844217800EBC100C3
:101BB000B0F80614C1F30901A0F80614B0F8061431
:101BC00041F4004105E0B0F850201044227800EBC9
:101BD000C200A0F8061421782846FFF7FBFD700428
:101BE0005AD421782A6832F82100384040EA0900A6
:101BF00022F8210050E0626902446261E269024415
:101C0000E2612669226AB24203D33046111A216288
:101C100004E00AB11046216284F824106278296831
:101C200012B1012A2AD031E0B1F8502011442278B3
:101C300001EBC201B1F80624C2F30902A1F806249F
:101C400001F206413E2809D94209C60600D1521EBA
:101C50000E8843EA822216430E8017E048B14208FC
:101C6000C30700D0521C0B880AEA822213430B8060
:101C70000CE00A8842F400420A8007E0B1F85020E4
:101C80001144227801EBC201A1F80604628983B2F3
:101C90006169286803F0E6FC21782A6832F821009F
:101CA00048F6BF73184080F0300048F280031843B4
:101CB00022F821000020BDE8F08701F0070101EBC8
:101CC000810100EBC100D0F86C0170472DE9F041B3
:101CD00004460F0601F0070000EB800104EBC10190
:101CE0004FF001064FF0000502D54E74103103E0AD
:101CF00081F8515101F5A871022B08700A61CB706F
:101D000000D10D7194F89002012809D084F89062F6
:101D1000206802F0C7FF284684F89052BDE8F081A1
:101D20000220FBE710B501F0070404EB840100EB8F
:101D3000C101C1E959230022C1F86C2181F8512168
:101D400081F85041006801F5A87103F0EDF9002019
:101D500010BD70B5044601F007002279904201D908
:101D6000012070BD0B064FF000054FF0010206D5B3
:101D700000EB800104EBC1014A74103107E001EB74
:101D8000810104EBC10181F8515101F5A8718A70FC
:101D9000087094F89002012808D084F890222068F6
:101DA00003F0A9F984F89052002070BD022070BDA4
:101DB00010B501F0070404EB840100EBC101C1E997
:101DC0000923012281F834200B630023CB624A747B
:101DD00001F8104F006803F0A7F9002010BD10B5FE
:101DE0000446006803F020FC010404D52046BDE849
:101DF000104001F04FBC41050ED5206830F8441F5B
:101E000021F480610180204600F008F92046BDE8F9
:101E10001040002100F02EB9410405D5206830F8AB
:101E2000441F21F480417DE0810405D5206830F80D
:101E3000441F21F4005175E0C1041FD5206830F81B
:101E4000401F21F004010180206830F8401F21F07C
:101E50000801018094F8C802012806D1002084F806
:101E6000C80201462046FFF775FC204600F0EAF85C
:101E7000206830F8441F21F4805153E0010512D549
:101E8000206830F8401F41F008010180206830F8D8
:101E9000441F21F400610180206830F8401F41F0A8
:101EA000040101800AE0010629D5206830F8441FAA
:101EB00021F08001018094F8C80218B1204600F09A
:101EC00009F910BD206830F8401F41F0040101807D
:101ED000206830F8401F41F008010180012084F89B
:101EE000C8022068B0F854003C2101EA9000C4F810
:101EF000CC022046BDE810400121FFF72BBC810534
:101F000009D5206830F8441F21F400710180204673
:101F100000F0ACF810BDC005FCD5206830F8441FB7
:101F200021F48071018010BD70B5040004D094F8D4
:101F30009102002510B106E0012070BD84F8905296
:101F4000204600F03FF8032084F89102206803F057
:101F50008EF8002001260BE000EB800104EBC101AC
:101F60004E740874CD740D624D62401CC0B28D6217
:101F700021798142F0D8002012E000BF00EB8001FF
:101F800004EBC10181F8515181F8500181F853519E
:101F9000C1F86051C1F86451401CC0B2C1F8685129
:101FA00021798142EAD894E8070003F057F82573B5
:101FB00084F89162A07A012802D12046FFF7B8FB8D
:101FC000002070BD10B592B0044644216846FEF76B
:101FD0009AF91049206888421AD1401400900020D4
:101FE0000D90684600F0EEF808B1FEF7DDFB0A48F8
:101FF000816D41F400018165806D002200F40000D4
:10200000119005211420FFF761FB1420FFF750FB0E
:1020100012B010BD005C00400010024070B50446D4
:1020200040790125022801D0FEF7BEFB2946D4F8ED
:10203000D80202F0ECFBD4F8D802BDE8704002F000
:102040009FBB000010B50446407A30B106480168D5
:1020500021F00601016001F0CBFED4F8D802BDE802
:10206000104002F0BABB000010ED00E0D0F8D8023A
:1020700002F0BDBB10B5044690F8900201280AD0CA
:10208000012084F890022173206803F0E4FA002014
:1020900084F8900210BD022010BDD0F8D82200F5BF
:1020A0002671104602F0BFBB10B5044690F89002AE
:1020B00001280CD0012084F89002206803F0A5FAD2
:1020C000206802F0C4FF002084F8900210BD0220B6
:1020D00010BD000010B50446D0F8D80202F0E5FBB0
:1020E000607A002804D00348016841F006010160CD
:1020F00010BD000010ED00E02B492C4B0A68322186
:102100004A432B4940B1B0F5007F086829D020F43C
:10211000C06040F480602CE00868C0F341200228D1
:1021200004D051F8800F20F4807022E0D1F88000B4
:1021300020F48070C1F88000086820F4C06040F48A
:1021400000700860B2FBF3F0401C00E0401E4A69DA
:10215000520501D50028F9D1486940050AD5032068
:102160007047C0F34120022806D051F8800F40F498
:102170008070086000207047D1F8800040F48070C3
:10218000C1F88000086820F4C06040F40070086066
:10219000B2FBF3F0401C00E0401E4A695205DBD55B
:1021A0000028F9D1D8E700009000002040420F003D
:1021B000007000400248816841F4804181607047AE
:1021C000007000402DE9F8430446006800269D4D4C
:1021D00000035ED5A86D0027C00008D4A86D40F0AC
:1021E0008050A865A86D012700F080500090DFF8AE
:1021F0005892D9F8001041F48071C9F80010FFF727
:10220000D7F9804606E000BFFFF7D2F9A0EB08003F
:1022100002282BD8D9F80000C005F5D5D5F89000D4
:1022200010F4407014D0216C814211D0D5F8900088
:10223000D5F8901020F4407041F48031C5F890102A
:10224000D5F8901021F48031C5F89010C5F89000B1
:10225000C00711D0FFF7ACF9804641F2883907E09A
:10226000FFF7A6F9A0EB0801494501D903260BE0C9
:10227000D5F890008007F3D5D5F89000216C20F4B4
:1022800040700843C5F890001FB1A86D20F0805041
:10229000A8652078C00707D0D5F88800616820F0CD
:1022A00003000843C5F888002078800707D5D5F8D3
:1022B0008800A16820F00C000843C5F88800207849
:1022C000400707D5D5F88800E16820F030000843C2
:1022D000C5F888002078000707D5D5F8880021695F
:1022E00020F0C0000843C5F888002078800607D594
:1022F000D5F88800616920F440600843C5F888007B
:102300002078400607D5D5F88800A16920F4405010
:102310000843C5F888002078000607D5D5F888005E
:10232000E16920F440400843C5F888002088C005D2
:1023300007D5D5F88800216A20F440300843C5F855
:1023400088002088800507D5D5F88800616A20F4C8
:1023500040200843C5F88800208840050FD5D5F8EF
:102360008800A16A20F440100843C5F88800A06ADC
:10237000B0F5801F03D1E86840F48010E860208841
:1023800000050FD5D5F88800E16A20F44000084325
:10239000C5F88800E06AB0F5800F03D1E86840F422
:1023A0008010E8602088C0040FD5D5F88800216B24
:1023B00020F040700843C5F88800206BB0F1807FA2
:1023C00003D1E86840F48010E86020884FF0006195
:1023D00080040ED5D5F88800626B20F04060104371
:1023E000C5F88800606B884203D1E86840F480102B
:1023F000E860208840040ED5D5F88800A26B20F054
:1024000040601043C5F88800A06B884203D1E8689B
:1024100040F48010E860208800040FD5D5F88800CB
:10242000E16B20F040500843C5F88800E06BB0F144
:10243000805F03D1E86840F48030E8603046BDE852
:10244000F883000000100240007000402DE9F047C2
:102450000E4605004FF0000725D0DFF8AC81D8F814
:10246000000000F00F00B0420CD2D8F8001021F0AC
:102470000F013143C8F80010D8F8000000F00F0039
:10248000B04210D12968614CC80741F2883A5AD04D
:102490006868DFF87C91032808D0022820682DD0D6
:1024A000400500282CDB0120BDE8F0872068800172
:1024B000F9D5E06800F00302E068C0F30310401CA7
:1024C000032A19D0534A00BFB2FBF0F0E268C2F30E
:1024D00006225043E268C2F34162521C5200B0FB34
:1024E000F2F0484517D9A06810F0F00F0CD088071B
:1024F00011D5A86840B10EE0474AE5E78003D0E770
:1025000000F0C4F8484506D9A06820F0F00040F07B
:102510008000A0608027A068696820F0030008435D
:10252000A060FFF745F8814606E000BFFFF740F8DE
:10253000A0EB090151453AD8A068696800F00C0089
:10254000B0EB810FF2D12868810714D5400703D57D
:10255000A06840F4E060A0602878000705D5A06876
:1025600020F4605040F4E060A060A068A96820F00A
:10257000F000084304E0802F03D1A06820F0F000B1
:10258000A060D8F80010404601F00F01B14216D902
:10259000016821F00F0131430160FFF709F8074698
:1025A00007E000BFFFF704F8C11B514501D9032024
:1025B0007AE7D8F8000000F00F00B042F2D1287896
:1025C000400705D5A068E96820F4E0600843A060F2
:1025D0002878000706D5A068296920F4605040EAF1
:1025E000C100A06000F052F8A1680C4AC1F30311C9
:1025F000515C01F01F01C8400949086009480068A2
:10260000BDE8F047FEF7F2BF002002400010024094
:1026100000B4C4040024F40000127A002062000810
:1026200090000020840000200F2202600C4A936872
:1026300003F003034360936803F0F003836093683F
:1026400003F4E063C36092684FF4E06303EAD202EC
:1026500002610448006800F00F0008607047000045
:1026600000100240002002400548064900688968C1
:10267000054AC1F3C221515C01F01F01C8407047F7
:10268000900000200010024030620008184910B588
:102690008868C0F381021748012A0BD08A6843106A
:1026A000C2F38102022A06D08A68C2F38102032A99
:1026B00003D0002010BD184610BDCA6802F0030404
:1026C000CA68C2F30312521C032C02D0B0FBF2F012
:1026D00001E0B3FBF2F0CA68C968C2F306225043B6
:1026E000C1F34161491C4900B0FBF1F010BD00008D
:1026F000001002400024F4002DE9F84304007AD0D1
:102700002078F84DC00747D0A868E96800F00C00B1
:1027100001F003010C2802D0082817D001E003299A
:1027200014D06068B0F5803F17D0B0F5A02F2868AE
:1027300017D020F480302860286820F4802028609A
:102740006068E0B1FEF734FF064614E028688003B5
:1027500022D560680028D2D01EE0286840F480307E
:10276000EDE740F480202860F7E700BFFEF720FF88
:10277000801B642870D828688003F7D50CE0FEF72A
:1027800017FF064605E000BFFEF712FF801B642816
:10279000F0D828688003F7D4207880074CD5A86843
:1027A000E96800F00C0001F003010C2802D00428B5
:1027B0000DD001E002290AD0E068002828682BD05B
:1027C00040F480702860FEF7F3FE064619E02868A2
:1027D000400502D5E068002891D06868217C20F08F
:1027E000FE4040EA01606860BF480068FEF7FEFEF8
:1027F000002800D120E072E1FEF7DAFE801B0228FB
:10280000B8D828684005F7D56868217C20F0FE40DC
:1028100040EA016068600FE020F480702860FEF7F5
:10282000C7FE064605E000BFFEF7C2FE801B022879
:10283000A0D828684005F7D42078000729D560691A
:102840000028D5F8940013D040F00100C5F894009A
:10285000FEF7AEFE064606E090E000BFFEF7A8FEDB
:10286000801B022886D8D5F894008007F6D510E0A2
:1028700020F00100C5F89400FEF79AFE064604E039
:10288000FEF796FE801B022878D8D5F894008007C2
:10289000F6D42078400761D5A86D0026C00008D482
:1028A000A86D40F08050A865A86D012600F080500A
:1028B00000908E480168C90511D40168804641F432
:1028C00080710160FEF774FE074604E0FEF770FEBB
:1028D000C01B022852D8D8F80000C005F6D5A06861
:1028E000012815D00528D5F8900016D020F0010059
:1028F000C5F89000D5F8900020F00400C5F89000CD
:10290000A06841F28838B8B1FEF752FE07460EE0E3
:10291000D5F8900040F00100F0E740F00400C5F861
:102920009000F5E7FEF744FEC11B414526D8D5F8D7
:1029300090008007F6D50CE0FEF73AFE074604E06B
:10294000FEF736FEC11B414518D8D5F89000800728
:10295000F6D41EB1A86D20F08050A86520788006BE
:1029600029D5A0690028D5F8980013D040F00100BF
:10297000C5F89800FEF71CFE064606E075E000BFAD
:10298000FEF716FE801B02286FD8D5F89800800746
:10299000F6D510E020F00100C5F89800FEF708FE1B
:1029A000064604E0FEF704FE801B02285DD8D5F839
:1029B00098008007F6D4E069F0B3A968C1F38101FB
:1029C00003295DD00228286820F08070286003D099
:1029D000FEF7EEFD04464BE0FEF7EAFD064604E096
:1029E000FEF7E6FD801B02283FD828688001F7D457
:1029F000F4E908016FF00F0202EB01110843218A8C
:102A00005204490802EB4151A26841EA02210843FD
:102A1000217D4FF07E42490802EB41610843217B52
:102A200040EAC160E968324A11400843E86028681A
:102A300040F08070286000E05EE0E86840F0807060
:102A4000E860FEF7B5FD044605E000BFFEF7B0FD07
:102A5000001B022809D828688001F7D54CE000BF88
:102A6000FEF7A6FD001B022802D90320BDE8F8836B
:102A700028688001F4D4E8681E490840E8603BE01B
:102A80000128F3D0E868226A00F00301914226D1C0
:102A9000616A00F0F0020901103991421FD1A26A67
:102AA00000F4FE41B1EB022F19D194F82C2000F074
:102AB0007841B1EBC26F12D1218E00F4C0024908F7
:102AC0004905A1F50011914209D194F8341000F0A4
:102AD000C06049084906A1F1007181420CD0012073
:102AE000C4E7000000100240840000200070004095
:102AF0000C809F01FCFFEEFE0020B7E770B50400DC
:102B000009D0606A002540B125616561A56294F82D
:102B10005D0040B10CE0012070BD6068B0F5827FBF
:102B2000F4D0E561F2E784F85C50204600F05CF8F0
:102B3000022084F85D002068016821F040010160F6
:102B4000E1684FF4E062914201D9002001E04FF4C6
:102B50008050B1F5706F02D0914200D0A562A1887B
:102B6000228901F4827102F404421143227C02F0B2
:102B700002021143227D02F001021143228B02F472
:102B800000721143227F02F03802114394F8202092
:102B900002F080021143228D02F400521143226898
:102BA0001160A169042202EA114194F8242000F482
:102BB000805002F01002114394F8342002F0080211
:102BC0001143A28902F470621143014320684160FD
:102BD0002068C16921F40061C1612566012084F883
:102BE0005D00002070BD000070B586B00446142161
:102BF0006846FDF788FB1B492068884230D11A4897
:102C0000016E41F480510166016E01F4805105911D
:102C1000C16C41F00101C164C16C01F00101059179
:102C2000C16C41F00201C164C06C022500F00200D9
:102C30000590C02000900024CDE901540526CDE97F
:102C4000034669464FF09040FEF780FB0820009055
:102C5000CDE90154CDE9034669460448FEF776FB09
:102C600006B070BD00300140001002400004004872
:102C70002DE9F84F044690F85C000026984615466A
:102C80008A4601280CD0012784F85C70FEF790FC7E
:102C9000814694F85D00B346012804D00226ACE0DA
:102CA0000220BDE8F88FBAF1000F79D0002D77D05F
:102CB000032084F85D00C4F860B0C4F838A0A5878C
:102CC000E587C4F840B0A4F844B0A4F846B0C4F80E
:102CD00050B0C4F84CB0A068B0F5004F09D12068DE
:102CE000016821F0400101602068016841F48041E1
:102CF000016020680168490603D4016841F0400181
:102D00000160E068B0F5E06F606828D908B1012D76
:102D10001FD1A06B21680088C86006E02068816828
:102D2000890709D5A16B0988C160A06B801CA063CD
:102D3000E08F401EE0870CE0FEF73AFCA0EB0901B3
:102D4000414503D3B8F1FF3F03D006E0B8F1000FCF
:102D500003D0E08F0028E1D13BE003264BE008B12F
:102D6000012D33D1E08F0128A06B03D921680088A1
:102D7000C8600FE021680078087314E0E08725E060
:102D800020688168890714D5E18F0129A16B08D9D2
:102D90000988C160A06B801CA063E08F801EEDE7F6
:102DA00027E009780173A06B401CA063E08F401EF0
:102DB000E4E7FEF7FDFBA0EB0901414503D3B8F1C1
:102DC000FF3F03D0C9E7B8F1000FC6D0E08F00285D
:102DD000D6D14A464146204600F027FE08B12020C1
:102DE0002066A06818B92068C16880680090206ECD
:102DF00008B1012601E084F85D7084F85CB03046CB
:102E00004FE770477047704770477047704770478B
:102E100010B5040003D094F83D0010B107E0012084
:102E200010BD002084F83C00204600F022F802206B
:102E300084F83D00211D206801F020F8012084F86D
:102E4000480084F83E0084F83F0084F8400084F88D
:102E5000410084F8420084F8430084F8440084F878
:102E6000450084F8460084F8470084F83D000020BF
:102E700010BD704790F83D10012901D00120704726
:102E8000022180F83D100168CA6842F00102CA6060
:102E90000068104988420ED0B0F1804F0BD00E4927
:102EA000884208D00D49884205D00D49884202D099
:102EB0000C49884207D181680B4A1140062906D087
:102EC000B1F5803F03D0016841F0010101600020AD
:102ED00070470000002C0140000400400008004042
:102EE00000340140004001400700010070472DE917
:102EF000F04104460068C66805694FF00007A9075D
:102F000013D5B10711D5F91E016101202077206882
:102F100080698007204602D0FFF7E8FF04E000F058
:102F2000B7F8204600F0B5F82777680716D5700780
:102F300014D521686FF00400086102202077206812
:102F4000806910F4407F204602D0FFF7CFFF04E0F5
:102F500000F09EF8204600F09CF82777280715D54A
:102F6000300713D521686FF008000861042020772E
:102F70002068C0698007204602D0FFF7B7FF04E051
:102F800000F086F8204600F084F82777E80616D58A
:102F9000F00614D521686FF0100008610820207732
:102FA0002068C06910F4407F204602D0FFF79EFFE2
:102FB00004E000F06DF8204600F06BF82777E80792
:102FC00008D0F00706D021686FF0010008612046A4
:102FD00000F060F8280601D4A80408D5300606D50C
:102FE00021686FF4025008612046FFF70BFFE805E7
:102FF00008D5300606D521686FF480700861204638
:10300000FFF7FFFE680608D5700606D521686FF049
:1030100040000861204600F047F8A80608D5B00631
:1030200006D521686FF0200008612046FFF7EBFE0F
:10303000E80208D5F00206D521686FF48010086117
:103040002046FFF7E2FEA80208D5B00206D52168A7
:103050006FF4001008612046FFF7D6FE680208D51D
:10306000700206D521686FF4800008612046FFF7E2
:10307000CDFE28020AD5300208D521686FF4000081
:1030800008612046BDE8F041FFF7C1BEBDE8F08110
:103090007047704700680349884201D1FEF78EBA35
:1030A00070470000004801407047FEE7F0B500237C
:1030B0000A24302537261F4611E000BFB4EB107FED
:1030C00002D905EB107C01E006EB107C01F813C07F
:1030D00001EB430C00015B1C8CF80170DBB29342E6
:1030E000ECD3F0BD00EB8100006E00F0F8407047BB
:1030F0008068C0F3C00070478068C0F380007047EC
:103100008068C0F380007047C06810F4406F01D041
:103110000020704701207047042303EAD15310B503
:1031200018444369C1F3045107248C40A3438A40E7
:103130001343436110BD00EB8100016E21F000419B
:1031400011430166704700002DE9F0430268224BED
:10315000224D234E234C4FF08049984207D04845DA
:1031600005D0A84203D0B04201D0A04203D14F689D
:1031700022F070023A431C4FDFF870C0DFF8708015
:1031800098420DD048450BD0A84209D0B04207D094
:10319000A04205D0B84203D0604501D0404503D1DC
:1031A000CD6822F440722A4302608A68C2620A88AB
:1031B0008262984207D0A04205D0B84203D0604551
:1031C00001D0404501D109690163416941F0010124
:1031D00041610020BDE8F083002C01400004004064
:1031E000000800400034014000400140004401401C
:1031F0000048014008B502F027FF064D4FF4005487
:10320000009021462846FEF7C5F96421684602F081
:10321000C5FDF6E70008004830B58BB000240894DF
:103220000994202168460A94FDF76DF833484FF061
:10323000A041042501604FF44031C0E901148561CB
:103240000121C460C0E9044104774177052202628C
:1032500080F82440C462046380F83810C46380F8A6
:103260004040FDF725FD08B1FDF79EFA08A9234867
:103270000894FDF79BFA08B1FDF796FA20480090F4
:103280000620019002907F200594CDE90305694650
:103290001A48FDF7F7FA08B1FDF786FA19480090C9
:1032A0000C20019069461548FDF7ECFA08B1FDF7CE
:1032B0007BFA154800901220019069460F48FDF7EF
:1032C000E1FA08B1FDF770FA10480090182001905B
:1032D00069460A48FDF7D6FA08B1FDF765FA0C48C9
:1032E00000904FF48070019069460448FDF7CAFAD7
:1032F000002801D0FDF758FA0BB030BDD4110020E2
:10330000001060320080F03E1000C0100800900CE9
:103310000400600830B589B020216846FCF7F3FF4F
:1033200030482F49002401604FF44031C0E90114B6
:10333000042585610121C460C0E904410477417717
:103340000522026280F82440C462046380F83810C9
:10335000C46380F84040FDF7ABFC08B1FDF724FAE8
:10336000214800900620019002907F200594CDE92D
:10337000030569461B48FDF785FA08B1FDF714FA05
:103380001A4800900C20019069461648FDF77AFA19
:1033900008B1FDF709FA164800901220019069461D
:1033A0001048FDF76FFA08B1FDF7FEF911480090DB
:1033B0001820019069460B48FDF764FA08B1FDF743
:1033C000F3F90D4800904FF480700190694605486C
:1033D000FDF758FA002801D0FDF7E6F909B030BD35
:1033E00000010050401200200040C03A2000F014BC
:1033F000002090360000524702003004154808B5FE
:10340000816C41F004018164816C01F00401009140
:10341000816C41F001018164816C01F00101009136
:10342000816C41F002018164806C002200F0020096
:10343000009005210B20FEF749F90B20FEF738F923
:10344000002205213820FEF741F9BDE80840382068
:10345000FEF72EB90010024010B590B014221149A9
:103460006846FCF737FF0021684602F077F90E4CFA
:103470000C491422E060143105A8FCF72BFF002151
:1034800005A802F06BF907492061142228310AA827
:10349000FCF720FF00210AA802F060F9606110B07B
:1034A00010BD0000E4610008000000202DE9F04399
:1034B00087B014216846FCF726FF3148C16C41F003
:1034C0000401C164C16C01F004010591C16C41F0BB
:1034D0002001C164C16C01F020010591C16C41F073
:1034E0000101C164C16C01F001010591C16C41F0A1
:1034F0000201C164C06C234F00F00200059001225C
:103500004FF401513846FEF74DF8DFF87C804FF25A
:103510008465012229464046FEF744F84FF4E066F0
:103520004FF09049012231464846FEF73BF84FF4F0
:1035300000500124CDE900040020CDE90240694695
:103540003846FDF703FFCDE90054032569464046A0
:10355000CDE90245FDF7FAFE4020CDE900046946B9
:103560003846CDE90245FDF7F1FECDE90064694634
:103570004846CDE90245FDF7E9FE07B0BDE8F08316
:10358000001002400008004800040048124810B52E
:10359000104901604FF48271416000214FF4E062F4
:1035A000C0E902124FF400720161C0E9051238222D
:1035B000C0E9072107224162C0E90A12016308211C
:1035C0004163FFF79BFA002803D0BDE81040FDF7E8
:1035D000EBB810BD003001406C13002010B586B070
:1035E00014216846FCF78FFE1148816D41F02001DF
:1035F0008165806D0F4C00F020000590A720ADF88C
:103600000000002001904FF6FF70029069462046AE
:10361000FFF79AFD206820F080002060606806496E
:1036200008406060A06820F08000A06006B010BD77
:1036300000100240001400408FFFFFFD10B5002273
:103640000F49104800F082FF08B1FDF7ADF80E49B0
:103650000C4801F052F908B1FDF7A6F80B490948EA
:1036600000F0C0FD08B1FDF79FF8064801F0C0F971
:10367000002803D0BDE81040FDF796B810BD00004B
:103680001C00002018190020D80100207000002024
:10369000FEE7FEE72DE9F84F044640F68F7A40F248
:1036A000064B48F60F784FF00009B5E1B0F844102A
:1036B00011F00F053AD030F8256031047DD530F88F
:1036C000251001EA0A0141F0800120F8251005EBE0
:1036D000850004EBC00797F85C0107F5A877002880
:1036E0006CD0F87802286AD03978226832F8210044
:1036F00048F68F73184048F2C003184322F821009F
:103700003878D4F800C03CF820104904BCF85010B8
:1037100001EB0C027ED540F2024101EBC000105AD1
:103720008005800D009076D03A89D0E0C9062AD471
:10373000018801EA080141F400410180206804F198
:103740001005B0F85010227C014440F2024000EB1A
:10375000C200085AC0F30900E062616A084460626E
:1037600000212046FEF736F8207B00289DD0A8696E
:1037700000289AD1207B40F080012068A0F84C10EE
:1037800084F80C9048E1018804F5A8750A051ED557
:10379000B0F850102A7801440BEBC200085A04F527
:1037A0002671C0F30903EB61EA88206801F03FFF4E
:1037B0002168088800EA0A0002E0A4E068E077E0F7
:1037C00040F0800008802046FEF767FC24E10904F1
:1037D000D8D5018801EA0A0141F080010180206802
:1037E000B0F850100A1828780BEBC000105A830567
:1037F0009B0DEB610DD0696959B1EA88206801F031
:1038000016FFE96968690844686100212046FDF7F0
:10381000EAFF01E053E051E0206801880A05B1D4D5
:10382000C1F301310329ADD0B0F850100844B0F80D
:103830000614C1F30901A0F80614296900F2064034
:103840003E2909D94A09C90600D1521E01884FF400
:10385000004343EA822209E0B1B14A08C90700D017
:10386000521C01884FF6FF7303EA82221143018044
:10387000216808884BF68F72104080F4405048F25F
:10388000800210430880C7E0018841F40041EEE760
:103890002068B0F850103B780A180BEBC301515A5E
:1038A0008905890D009117D0FA887969009B11E08C
:1038B000324639462046FDF7F2FF00900CE00BEB54
:1038C000C000105A8005800D009005D07A8903460B
:1038D0006046796901F0ABFEF96900980844F86127
:1038E0007969009808447861B86918B13969009815
:1038F000814204D939782046FDF775FF03E0394647
:10390000206801F011FC30062DD505EB850004EB95
:10391000C001206830F8252002EA080242F4004283
:1039200020F82520C87C103101281DD0F0056FD467
:103930002268B2F8500083180A7840F2024000EB87
:10394000C200185A8A69C0F30900824258D9121A73
:103950008A6157D04A6902444A61CA691044C86101
:10396000206801F0E1FB57E0C1F818900A7B484657
:103970001AB3720622D54A7812B1012A14D041E056
:103980002068B0F8502010440A7800EBC200B0F86C
:103990000224C2F30902A0F80224B0F8022442F47F
:1039A0000042A0F802242DE02268B2F850301A44F8
:1039B0000B7802EBC302A2F8020423E04B782268E2
:1039C00013B1012B13D01DE0B2F8500010440A7857
:1039D00000EBC200B0F80624C2F30902A0F80624E6
:1039E000B0F8062442F40042A0F806240AE0B2F837
:1039F00050301A440B7802EBC302A2F8060401E02F
:103A0000C1F8189009782046FDF7E4FE04E0FFE7CE
:103A100032462046FDF7B1FF2068B0F84410090493
:103A20003FF544AE0020BDE8F88FF8B515460E46C8
:103A30000B460092044600224FF4C05100F01AF8E1
:103A400088B93346002280212046009500F082F894
:103A500048B9334600224FF4C0612046009500F07B
:103A600009F8002804D0206E40F0200020660320D2
:103A7000F8BD00002DE9FE4F4FF0000A98461746AA
:103A80000E4604460C9D8DF804A0FDF791FD411BE8
:103A9000A8EB0105FDF78CFD814620684FF4C06B53
:103AA0000C3002902A480068C0EBC00000EB800098
:103AB000000D6843009043E05E4506D12FB902989F
:103AC00000788DF804009DF80400B8F1FF3F37D06E
:103AD000FDF76EFDA0EB0900A84203D215B10098D6
:103AE00058B32BE02068416821F0E0014160606834
:103AF000B0F5827F0BD1A068B0F5004F02D0B0F5D1
:103B0000806F04D12068016821F040010160A06A43
:103B1000B0F5005F09D12068016821F4005101600F
:103B20002068016841F400510160012084F85D00C3
:103B300084F85CA00320BDE8FE8F0025401E0090A5
:103B4000206880683040B842B6D10020F3E700001A
:103B5000900000202DE9F8431E4691468846044611
:103B6000089DFDF725FD401B351AFDF721FD074691
:103B700025480068C0F3CB30684338E0701C37D06C
:103B8000FDF716FDC01BA84203D215B1009860B323
:103B90002CE02068416821F0E00141606068B0F5E8
:103BA000827F0BD1A068B0F5004F02D0B0F5806FD6
:103BB00004D12068016821F040010160A06AB0F5DD
:103BC000005F09D12068016821F40051016020687C
:103BD000016841F400510160012084F85D0000207B
:103BE00084F85C000320BDE8F8830025401E0090A7
:103BF0002068816838EA010004D000214945BDD120
:103C00000020F0E70121F9E79000002001784078DA
:103C100041EA00207047000070B54FF080642049F1
:103C20002314204D4FF090420B280BD2DFE800F018
:103C30000A060B0F151B1F23272C31004FF40050D1
:103C40000860946170BD93614FF0007003E04FF421
:103C500000709061C003906170BD4FF480709061FE
:103C60008003286070BD402028600C6070BD0B6030
:103C70004FF4802011E00420086040070DE04FF46D
:103C800000400860400308E04FF480500860800462
:103C900003E04FF480400860C003086070BD00007E
:103CA0001804004818080048ADF5806D4FF4806492
:103CB00021466846FCF727FB4FF09045012221463C
:103CC0002846FDF76FFC012251022846FDF76AFCE9
:103CD000012211022846FDF765FC012240213448EB
:103CE000FDF760FC2146334C01222046FDF75AFCCB
:103CF000012204212046FDF755FC0122D103204674
:103D0000FDF750FC012211032046FDF74BFC012278
:103D100091032046FDF746FC012251032046FDF7A2
:103D200041FC052204210120FCF736FB322205214B
:103D30000120FCF731FB322204210020FCF72CFB90
:103D4000322202210120FCF727FB32220021012030
:103D5000FCF722FB322203210120FCF71DFB01218D
:103D600032220846FCF718FB002132220846FCF7F5
:103D700013FB322202210020FCF70EFB322201212C
:103D80000020FCF709FB322203210020FCF704FB92
:103D9000052209490948FDF75DF9074905220A315D
:103DA0000748FDF757F9642001F0CCFCFBE7000061
:103DB000000800480004004810020020D411002030
:103DC0004012002010B5502080F31188BFF34F8FB0
:103DD000BFF36F8F02F03EF918B104494FF08050E5
:103DE0000860002080F3118810BD000004ED00E0A1
:103DF00000B593B038216846FCF785FA14210EA867
:103E0000FCF781FA0020FEF777F9222000904FF4AA
:103E1000807003904020049001200690022004212D
:103E2000CDE908015521CDE90A1007900C900D90BD
:103E30006846FEF761FC08B172B6FEE70F200E90EF
:103E400003200F90002010901190129004210EA8D2
:103E5000FEF7FCFA002801D072B6FEE713B000BDF1
:103E60000248016841F470010160704788ED00E08C
:103E70000148FFF73CB80000D01300202DE9F043C3
:103E80000268264B264D274E274C4FF0804998421A
:103E900007D0484505D0A84203D0B04201D0A04287
:103EA00003D122F070074A683A43204FDFF880C000
:103EB000DFF8808098420DD048450BD0A84209D049
:103EC000B04207D0A04205D0B84203D0604501D02F
:103ED000404503D122F44075CA682A434D6922F057
:103EE00080022A4302608A68C2620A68826298423B
:103EF00007D0A04205D0B84203D0604501D040456C
:103F000001D109690163012141610169C90703D038
:103F1000016921F001010161BDE8F083002C01403D
:103F2000000400400008004000340140004001400F
:103F3000004401400048014010B50A46024903A070
:103F400000F0D4FA004810BDE81B00204344432091
:103F5000436F6E66696700002DE9F0410C46D0F8AA
:103F6000C422D0F8BC12E9B104EB840600EB86054C
:103F70000027AB693BB102EBC602126AB3FBF2F653
:103F800002FB163282B1C1F81472D0F8C002036984
:103F90002BB1D1F80802224601F5047198470020A0
:103FA000BDE8F0810320FBE700231A462146AF61FC
:103FB00000F084FCF3E770B5D0F8BC4205466CB164
:103FC00000F073FBC4F80C02D5F8C012D4F8040258
:103FD000CA6804F503719047002070BD032070BDCE
:103FE00070B50446812100F0CDFA00252587012116
:103FF000204600F0C7FAA4F878518221204600F04C
:10400000C1FAA4F84C50A4F84E50D4F8BC0248B100
:10401000D4F8C00204F52F7440688047206800F08F
:104020003CFE2560002070BD1220088000487047CB
:104030004000002010B5D0F8BC4284B1D0F8C012C6
:1040400059B194F80002FF2807D08B6894F8012238
:1040500021469847FF2084F80002002010BD03206D
:1040600010BD00000A2101800048704700010020B7
:104070004321018000487047500100204321018006
:10408000004870470C010020432101800048704720
:10409000940100202DE9F04704464FF4077000F02A
:1040A000FDFD05004FF0000735D0C4F8BC52207C60
:1040B0004FF010084FF40079012680B3402302220C
:1040C0008121204600F047FB268740230222012160
:1040D000204600F040FBA4F87861A4F84E80082345
:1040E00003228221204600F036FBA4F84C60D4F86D
:1040F000C00200688047C5F81472C5F81872207CA9
:10410000D5F80422A8B140230121204600F02FFB5E
:104110000020BDE8F0870220C4F8BC72F9E7FFE791
:104120004B4602228121204600F015FB26874B4694
:10413000CCE74B46E8E7000010B50A46024903A069
:1041400000F0D4F9004810BDE81B00204344432090
:10415000496E746572666163650000000420088022
:10416000004870473C00002010B50A46024903A0F1
:1041700000F0BCF9004810BDE81B002053544D6905
:1041800063726F656C656374726F6E696373000050
:1041900010B50A46024903A000F0A8F9004810BD76
:1041A000E81B002053544D333220566972747561F8
:1041B0006C20436F6D506F727400000010B5D0F822
:1041C000BC1251B1027C002AD1F8042207D040234E
:1041D000012100F0CCFA002010BD032010BD4FF4E7
:1041E0000073F5E719B1C0F8C01200207047032032
:1041F0007047000010B51A2008800A480168001DA9
:104200000468001D0068081809D008220649FEF756
:104210004DFF0549042210312046FEF747FF0248B2
:10422000801E10BD9075FF1F56000020D0F8BC0204
:1042300018B1C0F804120020704703207047D0F86E
:10424000BC0228B1C0F81022C0F808120020704744
:10425000032070472DE9FC410646D0F8BC720020CF
:104260000C468DF80000ADF80400054637B1207803
:1042700010F0600128D0202944D102E00320BDE8DD
:10428000FC81E288C2B1000660780AD5D6F8C01277
:104290008B6839469847E288072A00D907223946B1
:1042A00028E087F80002A07987F80102E288394601
:1042B000304600F06CF82AE0D6F8C0126078002290
:1042C0008B682146984722E0607830B101281ED0E3
:1042D0000A2809D00B2815D110E096F89C02032873
:1042E00010D1022201A905E096F89C02032809D109
:1042F00001226946304600F064F808E096F89C0216
:10430000032804D02146304600F036F8032528461D
:10431000B5E710B5D0F8BC12012219B1D1F81432AA
:1043200013B10FE0032010BD0122C1F81422D1F80F
:104330001022C262D1F81032D1F80822812100F097
:10434000BDFA0022104610BD10B5D0F8B8220AB14F
:1043500052689047002010BD134610B50A46002150
:1043600000F005FA002010BD134610B50A460021E2
:1043700000F0A4FA002010BD10B50446802100F022
:1043800082FA2046BDE81040002100F07CBA10B54A
:104390000323C0F89432C0F858211346C0F85C21BA
:1043A0000A46002100F0E3F9002010BD10B50521F8
:1043B000C0F8941200231A46194600F0D8F90020DC
:1043C00010BD10B50223C0F8943282611346C26159
:1043D0000A46002100F072FA002010BD10B5042139
:1043E000C0F8941200231A46194600F067FA00201C
:1043F00010BDF8B504460020ADF8000048880D4611
:10440000010A062947D006DC01290FD0022912D063
:10441000032962D11DE0072946D00F295DD1D4F8C8
:10442000B402C26920E0694690473BE0D4F8B41278
:10443000207C0A68F7E7207C02260028D4F8B8021E
:1044400005D0C16A684688470146467036E0816AF1
:10445000F8E7C0B2062840D2DFE800F003090D11EA
:104460001519D4F8B4024268B2B3207CDBE7D4F863
:10447000B4028268F8E7D4F8B402C268F4E7D4F86A
:10448000B4020269F0E7D4F8B4024269ECE7D4F868
:10449000B4028269E8E7207CF0B9D4F8B802416B35
:1044A00068468847014609E0207CA8B9D4F8B802DC
:1044B000016B68468847014607204870EA888AB140
:1044C000BDF8000040B1824200D90246ADF800209C
:1044D0002046FFF776FFF8BDFFE729462046FFF7A5
:1044E0004BFFF8E72046FFF779FFF4E770B50023AC
:1044F00000281ED00025044602E06D1CEDB2641CAD
:104500002678002EF9D1022404EB45041480127899
:10451000CA545B1C0322CA5400245B1C06E0CA5424
:104520005B1CDAB28C54521CD3B2401C0278002AB5
:10453000F5D170BD01004FF0000004D0012901D079
:10454000022901D0032070470120704778B1002371
:10455000C0F8B832C0F8C032C0F8CC3209B1C0F8E7
:10456000B412012180F89C12027000F0A3B803205D
:10457000704710B5D0F8C402FDF764F9BDE81040EB
:10458000FFF7D8BF10B5D0F8C402FDF736F9BDE883
:104590001040FFF7CFBF70B51646044621B194F81E
:1045A0009C02032841D048E0D4F8941204F114008E
:1045B0000025022932D1D0E902318B4206D95A1A9C
:1045C000826031462046FFF7CFFE0FE0994214D1BA
:1045D0004068884211D3D4F8981288420DD2002244
:1045E00011462046FFF7C0FEC4F8985200231A4631
:1045F0001946204600F0BBF810E094F89C0203280E
:1046000005D1D4F8B802C16809B120468847802195
:10461000204600F038F92046FFF7C8FE94F8A002C3
:1046200001280AD184F8A05207E0D4F8B802426900
:104630001AB120469047002800D1002070BD10B567
:104640001346044621B194F89C02032823D02AE0A3
:10465000D4F8941204F5AA70032924D1D0E90212E7
:1046600091420AD98A1A8260C068824200D3024607
:1046700019462046FFF770FE15E094F89C020328C7
:1046800005D1D4F8B802016909B12046884720460F
:10469000FFF7A4FE07E0D4F8B80282691AB12046F9
:1046A0009047002800D1002010BDD0F8C402FDF7CB
:1046B00004BB000010B51E490446C1F8D802C0F87A
:1046C000C4121C4808600820087102204871C87193
:1046D0000020087248728872C8720846FDF724FCF0
:1046E00008B1FCF761F80022D4F8C402182311467F
:1046F00004F53174FDF750F858230022802120681A
:10470000FDF74AF8C023002281212068FDF744F814
:104710004FF48873002201212068FDF73DF84FF423
:104720008073002282212068FDF736F8002010BD3A
:104730003C160020005C00400A0601F07F01D0F822
:10474000C40201EB810100EBC10001D5807C704700
:1047500090F85201704710B51C461346D0F8C402B9
:104760002246FDF7B3FABDE81040FFF7E3BE10B5EF
:10477000D0F8C402FDF7D6FABDE81040FFF7DABE64
:1047800070B50125044680F89C520020C4F89402BC
:104790006060C4F8A402D4F8B802E0B1D4F8BC1246
:1047A00021B1426812B100212046904700224023E7
:1047B00011462046FFF7CFFF4026A4F86451334648
:1047C000002280212046C4F86061FFF7C4FFA58461
:1047D0000020266270BD032070BD90F89C12042951
:1047E00003D190F89D1280F89C120020704710B5FC
:1047F000D0F8B81221B190F89C22032A02D004E02C
:10480000032010BDC96901B18847002010BD0174A3
:104810000020704710B5D0F8C402FDF72BFCBDE8AE
:104820001040FFF787BE70B5044600F2AA20054687
:1048300000F04DF80120C4F89402B4F8B002C4F8B6
:10484000980294F8AA0210F01F010AD001290ED094
:10485000022912D000F080012046BDE8704000F02F
:1048600012B829462046BDE8704000F0C3B829467A
:104870002046BDE8704000F0E7B929462046BDE873
:10488000704000F041B910B5D0F8C402FDF761FAEC
:10489000BDE81040FFF74EBE10B5D0F8C402FDF7DA
:1048A00003FCBDE81040FFF745BE90F89C1280F86D
:1048B0009D12042180F89C120020704710B5D0F89A
:1048C000C402FDF775FABDE81040FFF733BE70B5BE
:1048D000054611F8010B2870087868704C1C2046BA
:1048E000FFF794F96880A41C2046FFF78FF9A88091
:1048F000A01CFFF78BF9E88070BD38B50446002096
:10490000ADF8000049B1C4F8B812C96A19B16846D7
:104910008847C4F8CC02002038BD032038BD0246C9
:104920000320D2F8B832002B02D01B68104618477B
:10493000704700002DE9F0410F462C4E8978002584
:1049400004463170012906D939462046FFF714FD87
:104950000320BDE8F08194F89C0202280CD00328C3
:104960001DD039462046FFF707FD31782046FFF776
:10497000EBFC03252846ECE799B320466160FFF77E
:10498000CEFF050004D039462046FFF7F5FCF1E7DD
:104990002046FFF723FD032084F89C02EAE74FF04E
:1049A0000208C1B1606888421BD0C1B22046FFF73F
:1049B000CBFC317820466160FFF7B1FF050010D0D5
:1049C00039462046FFF7D8FC21792046FFF7BCFC8A
:1049D00084F89C82CEE784F89C8220466160FFF7D1
:1049E000B3FC2046FFF7FAFCC4E70000FC000020FF
:1049F000FFF752BF2DE9F0410A78002512F060025E
:104A000008D0202A01D0402A71D1D0F8B82292686B
:104A1000904731E04B78002201260A2B67D2DFE86D
:104A200003F0415E6658660805662D29FFF7E1FC34
:104A30005FE004468888D8B9C888C8B94888802803
:104A400016D200F07F0794F89C02032810D084F857
:104A50009E7239462046FFF7DDFE2046FFF7BEFC7A
:104A60001FB1022084F89C0243E084F89C6240E07D
:104A700020463CE0FFF75EFF05463AE0CB88012B7D
:104A800035D190F89C32012B04D0022B02D0032B9D
:104A90002DD104E08260012200F1080116E001221C
:104AA000011D13E090F89C22012A03D0022A01D0B4
:104AB000032A1CD1CA88022A19D1C660D0F8A412D0
:104AC00009B10321C160022200F10C01FFF779FC5A
:104AD0000FE0498801290CD1C0F8A46211E090F8D8
:104AE0009C32012B08D0022B06D0032B04D0FFF7F9
:104AF00043FC2846BDE8F08149880129F9D1C0F876
:104B0000A422FFF76BFCF4E72DE9F0410D460446C3
:104B100028780026097910F060000BD0202801D0F9
:104B200040286DD1D4F8B8022946826820469047C3
:104B3000064686E06878A8B3012822D003287CD1F5
:104B400094F89C02022802D0032876D10BE00029B9
:104B500073D0802971D02046FFF795FE8021204632
:104B6000FFF791FE6DE0688838B931B1802904D033
:104B7000E88810B92046FFF786FE2046FFF72EFC96
:104B80005FE094F89C020228E1D0032855D16888A0
:104B9000A8BB480602D02046FFF7EBFC2046FFF7F3
:104BA0001DFCBFE7FFE794F89C020027022802D013
:104BB000032842D111E009B180293ED1080601F055
:104BC0007F0000EB800004EB800101D5143101E08F
:104BD00001F5AA7102220F602BE0080601F00F0018
:104BE00000EB800004EB80000BD5808C40B101F01D
:104BF0007F0000EB800004EB800514350CE020E022
:104C00001BE0B0F86401C0B101F07F0000EB800050
:104C100004EB800505F5AA7541B1802906D0204630
:104C2000FFF78AFD10B10120286000E02F6002220A
:104C300029462046FFF7C5FB03E029462046FFF73B
:104C40009BFB3046BDE8F08170B50646087800242D
:104C50000D4610F0600003D0202801D0402817D165
:104C600096F89C02012803D0022801D003280FD116
:104C7000287901280CD8D6F8B802826830469047C7
:104C80000446E888204306D13046FFF7A7FB02E040
:104C90003046FFF771FB204670BD704700487047F3
:104CA0001C1400202DE9F0470C78002630F8243041
:104CB00048F68F121340CA78002A78D0012A7CD097
:104CC000022A02D0032A75D0012648F2800213433B
:104CD00020F824300D7830F8253048F68F742340C2
:104CE0002B43134320F825300D7B48F2C00948F6CA
:104CF000BF734CF2800A4BF68F77EDB3CD7891F805
:104D000000C0022D30F82C507DD048F68F6805EA9F
:104D10000805154320F82C50B0F8505091F800C009
:104D2000054405EBCC05B1F808C02CF0010CA5F842
:104D300000C4B0F8505091F800C0054405EBCC0514
:104D4000B1F80AC02CF0010CA5F804C44D78002D70
:104D50007ED00D7830F825C05FEA4C4C07D530F88E
:104D600025C00CEA040C4CEA0A0C20F825C091F886
:104D700000C030F82C5000E022E06D0606D530F877
:104D80002C50254045EA090520F82C50CC780D78A8
:104D9000012C30F8254004EA03047CD084F0200381
:104DA000134320F82530C1E001E006E002E043F4BF
:104DB00000738AE743F4C06387E743F4806384E7C2
:104DC0004D784DB3B0F850500F78054405EBC7054A
:104DD000CF8827F00107A5F800740F7830F8275026
:104DE0006D0606D530F82750254045EA090520F81C
:104DF0002750CC78012C07D00C7830F824101940BB
:104E000081F0200104E064E00C7830F824101940AF
:104E1000114320F8241090E0B0F850300D7803448E
:104E200003EBC503CD8825F00105A3F80454B0F8C1
:104E300050300D78034403EBC503B3F80654C5F3B3
:104E40000905A3F806540D6903F206433E2D00E060
:104E500045E00BD94FEA551CED0601D1ACF1010C30
:104E60001D884FF4004848EA8C2C0BE035B34FEA1C
:104E7000550CED0701D00CF1010C1D884FF6FF78A1
:104E800008EA8C2C45EA0C051D800D7830F8253099
:104E90005B0408D500E046E030F82530234043EAC3
:104EA0000A0320F82530097861B130F821303B4001
:104EB00083F40053134320F821303EE01D8845F46D
:104EC0000045E1E70188394081F4405111430180F8
:104ED00033E0254048F2801845EA08051AE791F8C2
:104EE00000C030F82C506D0406D530F82C50254009
:104EF00045EA0A0520F82C5091F800C030F82C50F3
:104F00006D0606D530F82C50254045EA090520F8F5
:104F10002C500D7830F825403C4084F44054144324
:104F200020F8254070E7144320F825400B7830F82E
:104F300023103940114320F823103046BDE8F08794
:104F40002DE9F04391F80C804F780A7848F6BF7C41
:104F50004BF68F7948F2800348F2C0054CF2800688
:104F600048F68F74B8F1000F28D0002F30F8227067
:104F70004FEA474748D0002F05DA30F82270274023
:104F8000374320F822700A7830F822707F0605D562
:104F900030F8227027402F4320F822700D7830F827
:104FA00025202240324320F825200C7830F8242098
:104FB00002EA0C021A4320F824201AE07FB130F8EC
:104FC0002260760605D530F8226026402E4320F870
:104FD00022600A7830F8221001EA0C010EE030F865
:104FE00022506D0405D530F822502540354320F875
:104FF00022500A7830F8221001EA0901194320F8FA
:1050000022100020BDE8F083002F05DA30F822706E
:105010002740374320F822700A7830F8226076065D
:1050200005D530F8226026402E4320F822600E7805
:1050300030F8262022402A4320F826200C7830F829
:10504000242002EA09021A4320F82420C1E730F89C
:10505000581F41F40041018000207047012120F8D1
:10506000401F00210180818001820846704730F88E
:10507000401F4BF68072914301800020704730B58D
:105080000A7BB2BB4A7848F68F7548F28004C2B1F9
:105090000B7830F82320520607D530F823202A4019
:1050A00048F2C0052A4320F82320CA78012A20D0DC
:1050B0000A7830F8221048F6BF73194081F02001B9
:1050C00014E00A7830F822305B0407D530F822303B
:1050D0002B404CF280052B4320F822300A7830F820
:1050E00022104BF68F73194081F44051214320F870
:1050F0002210002030BD10B54A780978002A48F205
:10510000800330F8212005D048F6BF74224082F099
:10511000100204E04BF68F74224082F480521A434E
:1051200020F82120002010BD2DE9F0470D464B78D6
:10513000097B04464FF0000948F68F7248F2800A56
:105140004FF400474FF6FF78012B09D000296FD0AC
:10515000E87802286DD001286CD00120BDE8F087E6
:10516000AE692869864200D9064691B1E9780229DC
:105170001ED0286A801B2862287834F8201049063F
:10518000B4F85010214401EBC00073D5A0F80664B8
:1051900016E1B3B2EA882046696900F063FAB4F810
:1051A00050002978204400EBC100A0F802640DE112
:1051B000296A814277D9297834F82100104048F2D1
:1051C0008012104324F82100286A801B2862287866
:1051D00034F820104906697871D511B101292AD017
:1051E00030E0B4F85010214401EBC000B0F80614D0
:1051F000C1F30901A0F8061400F206403E2E07D9BB
:105200007109F20600D1491E028847EA812107E0B0
:105210004EB17108F20700D0491C028808EA8121CA
:105220000A4302800EE0018841F40041018009E058
:10523000F1E020E195E1B4F85020111901EBC00034
:10524000A0F806646A89B3B22046696900F00AFAD8
:105250006869304468612969286A884202D9801BDC
:10526000286202E00646C5F82090687818B1012847
:105270002BD032E02FE0B4F850002978204400EB26
:10528000C100B0F80214C1F30901A0F8021400F241
:1052900002403E2E08D97109F20600D1491E02884B
:1052A00047EA812108E0A1E056B17108F20700D079
:1052B000491C028808EA81210A4302800DE00EE0C1
:1052C000018841F40041018007E0B4F850002978DA
:1052D000204400EBC100A0F802642A8971E011B1FA
:1052E000012927D02DE0B4F85010214401EBC00073
:1052F000B0F80214C1F30901A0F8021400F2024050
:105300003E2E07D97109F20600D1491E028847EAEC
:10531000812107E04EB17108F20700D0491C0288D4
:1053200008EA81210A4302800BE0018841F4004130
:10533000018006E0B4F85010214401EBC000A0F851
:1053400002642A89B3B22046696900F08BF9686962
:10535000304468612969286A884202D9801B286222
:1053600002E00646C5F82090687810B1012836D0D2
:1053700026E0B4F850002978204400EBC100B0F8D2
:105380000614C1F30901A0F8061400F206403E2EEF
:1053900007D97109F20600D1491E028847EA812126
:1053A00007E04EB17108F20700D0491C028808EAF4
:1053B00081210A43028003E0018841F40041018019
:1053C0006A89B3B22046696900F04CF9297834F84B
:1053D000210048F6BF72104080F030000FE1B4F8B1
:1053E00050100819297800EBC100CFE62A7834F86C
:1053F000220048F68F63184040EA0A0024F8220091
:10540000B4F850002A78204400EBC2008BB2A0F818
:1054100002342A89D6E7A9692869814202D9091A82
:10542000A96102E00846C5F81890B4F850102A782F
:10543000214401EBC201B1F80624C2F30902A1F82C
:10544000062401F206413E287DD94209C00600D15A
:10545000521E088847EA82220AE0088840F4004089
:1054600007E04208C00700D0521C088808EA8222E0
:1054700010430880BBE033BBB4F8500029782044C7
:1054800000EBC100B0F80214C1F30901A0F8021446
:10549000296900F202403E2907D94B09C90600D10B
:1054A0005B1E018847EA832307E041B14B08C90727
:1054B00000D05B1C018808EA8323194302E00188BD
:1054C00041F400410180687810B1012828D030E013
:1054D000B4F850002978204400EBC100B0F806145D
:1054E000C1F30901A0F80614296900F206403E291B
:1054F00007D94B09C90600D15B1E018847EA8323FF
:1055000007E041B14B08C90700D05B1C018808EADD
:105510008323194302E0018841F40041018008E03F
:10552000B4F850100819297800EBC100298AA0F8B6
:105530000614E869C0B3297834F82100430401D582
:10554000430605D400E046E044F2400318424ED141
:1055500034F82100104048F2C002104324F8210022
:1055600045E0A9692869814202D9091AA96102E0C6
:105570000846C5F8189013BBB4F850102A78214497
:1055800001EBC201B1F80224C2F30902A1F802241E
:1055900001F202413E2808D94209C30600D1521E39
:1055A0000B8847EA822208E021E078B14208C3076D
:1055B00000D0521C0B8808EA822213430B806978C2
:1055C00000293FF42EAF012909D010E00A8842F4E7
:1055D00000420A80F3E700287FF443AF3DE7B4F8C8
:1055E000502011192A7801EBC201A1F8060429788C
:1055F00034F821004BF68F72104080F4405040EA9E
:105600000A0024F821000020A8E50021A0F8441099
:105610004BF68071A0F84010002070470148FCF75D
:10562000DEBB00003C160020B0F84400704710B507
:1056300010445C0800F5806008D030F8022B01F8B7
:10564000012B120A01F8012B641EF6D1DA0701D0F2
:105650000088087010BD11B98021A0F84C100020FE
:105660007047000010B55B1C10445B0800F58060BB
:105670000AD000BF11F8012B11F8014B42EA0422B5
:1056800020F8022B5B1EF5D110BDFEE70907090EBD
:10569000002804DB00F1E02080F80014704700F0DF
:1056A0000F0000F1E02080F8141D704702E008C8E8
:1056B000121F08C1002AFAD170477047002001E08C
:1056C00001C1121F002AFBD1704700000848017871
:1056D00041B100230749037001F5FB6223B1C0E922
:1056E000011270470123F5E7C0E90121704700006E
:1056F0000000002024020020FBF768FFFEF778FB83
:10570000FDF7D4FEFDF77AFEFDF798FFFDF73EFFAB
:10571000FDF782FDFDF7FEFDFDF760FF0548002166
:105720004162016841F001010160FDF795FE00F062
:1057300010F8FEE70014004001460020842900D044
:10574000C81C704710B500B9012000F001FB002013
:1057500010BD10B500F068FB002010BD3EB504463A
:105760000D46B0F90800FFF7E7FF02A9CDE90001F7
:10577000208A2B4682B2D4E9001000F039FC0128BF
:1057800001D000203EBD02983EBD00002DE9F04151
:10579000184C0F460546E6682068001D00F01AFA0E
:1057A00038B9206890F82C10012088402169814385
:1057B0002161681C07D137B12168BDE8F0410E486E
:1057C000091D00F040BA20683544B54245602168A3
:1057D00005D2A06BBDE8F041091D00F01CBA606B5A
:1057E000091D00F018FAA06A854200D2A562BDE842
:1057F000F081000094000020C42600202DE9F04133
:10580000054600F02DFA2E4CA068401CA0602068D0
:105810002C4F10B1606940B32DE02560A0680128CD
:1058200029D1002606EB860007EB800000F0E5F9A1
:10583000761C072EF6D323488C3000F0DEF9214881
:10584000A03000F0DAF91F48B43000F0D6F91D4856
:10585000C83000F0D2F91B48DC3000F0CEF919480E
:105860008C3060631430A06305E02068E96AC06A88
:10587000884200D82560606A401C6062E96A0120A5
:10588000226988401043206101EB810007EB800012
:10589000291D00F0D8F900F003FA606900280CD047
:1058A0002068E96AC06A884207D207494FF08050F1
:1058B0000860BFF34F8FBFF36F8FBDE8F08100002A
:1058C00094000020E825002004ED00E010B5044617
:1058D000006B00F0F9F92046BDE8104000F0F4B983
:1058E00010484FF42051420706D0C01D0D4920F04A
:1058F0000700411AC1F520510B4A00230144C2E9B7
:1059000000030839183A21F0070111604B600B6061
:105910000B1AC0E9001393604FF0004053605061D0
:1059200070470000D8260020E8000020144E154CD7
:10593000A6F1C8074FF08058DFF84C9012E000BF86
:1059400000F08EF9F068C568281D00F043F9A068E2
:10595000401EA0606068401E606000F0A1F928460B
:10596000FFF7B4FF60680028EAD138680128F9D948
:10597000C9F80080BFF34F8FBFF36F8FF2E70000CD
:10598000B02600209400002004ED00E02DE9F0474F
:105990009A46DDE9098481466FF00303206B03EB2F
:1059A00082021044089E20F00707780707D0502095
:1059B00080F31188BFF34F8FBFF36F8FFEE7002591
:1059C00061B1002023180A5C83F834200A5C12B10C
:1059D000401C1028F6D384F8435001E084F834507A
:1059E000072E00D30626E662C4E91165201D00F0EB
:1059F0000FF904F1180000F00BF92461C6F107005B
:105A00006462A061E56484F85050524649463846C5
:105A100000F0C0F82060B8F1000F01D0C8F80040D5
:105A2000BDE8F08730B5114900E011460A688242AE
:105A3000FBD34B685C18844203D14068184448602B
:105A4000084643681C18944209D1084C183C246845
:105A5000A24209D052681A4442600A681268026081
:105A6000814200D0086030BD0460F9E7E800002002
:105A70000648416B096829B1416BC968C968496822
:105A8000816270474FF0FF31FAE700009400002078
:105A900008484068401C4FF0500080F3118804D043
:105AA000BFF34F8FBFF36F8FFEE7BFF34F8FBFF38F
:105AB0006F8FFEE7F00000202DE9F041054600273A
:105AC00000F0E6F9324E306808B9FFF709FF706957
:105AD00005424ED1C5B3083568070ED005F0070062
