:020000040800F2
:10000000A07B0020B10200089B3B0008633500087C
:10001000993B0008590500082F5E00080000000009
:10002000000000000000000000000000F1010008D6
:10003000AF060008000000004D0200086141000802
:10004000CB020008CB020008CB020008CB0200085C
:10005000CB020008CB020008CB020008CB0200084C
:10006000CB020008CB020008CB020008D105000833
:10007000DD050008CB020008CB020008CB02000817
:10008000CB020008CB020008CB020008CB0200081C
:10009000C15D0008CB020008CB020008CB020008BB
:1000A000CB020008CB020008CB020008CB020008FC
:1000B000CB020008CB020008CB020008CB020008EC
:1000C000CB020008CB020008CB020008CB020008DC
:1000D000CB020008CB020008CB020008CB020008CC
:1000E000CB020008CB020008CB020008CB020008BC
:1000F000CB020008CB020008CB020008CB020008AC
:10010000CB020008CB020008CB020008CB0200089B
:10011000CB020008CB020008CB020008CB0200088B
:10012000E9050008F505000801060008CB020008F3
:10013000CB020008CB020008CB020008CB0200086B
:10014000CB020008CB020008CB020008CB0200085B
:10015000CB020008CB020008CB020008CB0200084B
:10016000CB020008CB020008CB020008CB0200083B
:10017000CB020008CB020008FD410008CB020008BA
:10018000CB020008CB020008CB020008CB0200081B
:10019000CB02000800000000CB020008CB020008E0
:1001A000CB020008CB020008CB020008CB020008FB
:1001B000CB020008CB020008CB020008CB020008EB
:1001C000CB020008CB020008CB020008CB020008DB
:1001D000CB020008CB020008DFF810D000F09EF838
:1001E000004800479D5E0008AFF30080A07B002020
:1001F0002C4B19680868B0E8F04F80F30988BFF30A
:100200006F8F4FF0000080F31188704700000000EE
:1002100008480068006880F308884FF0000080F309
:10022000148862B661B6BFF34F8FBFF36F8F00DFE4
:1002300000BF00BF08ED00E0DFF80C00016841F4EA
:1002400070010160704700BF88ED00E0EFF30980A6
:10025000BFF36F8F134B1A681EF0100F08BF20ED0D
:10026000108A20E9F04F106009B44FF0500080F37D
:100270001188BFF34F8FBFF36F8F06F00BFE4FF067
:10028000000080F3118809BC19680868B0E8F04FD5
:100290001EF0100F08BFB0EC108A80F30988BFF37E
:1002A0006F8F704798000020EFF3058070470000C3
:1002B0000648804706480047FEE7FEE7FEE7FEE700
:1002C000FEE7FEE7FEE7FEE7FEE7FEE7ED4100089A
:1002D000D901000840EA01039B0703D009E008C9DF
:1002E000121F08C0042AFAD203E011F8013B00F8FB
:1002F000013B521EF9D27047D2B201E000F8012B47
:10030000491EFBD270470022F6E710B513460A4695
:1003100004461946FFF7F0FF204610BD064C074D76
:1003200006E0E06840F0010394E8070098471034C5
:10033000AC42F6D3FFF754FF047C0008247C00088D
:1003400070B58C1810F8015B15F0070301D110F897
:10035000013B2A1106D110F8012B03E010F8016BC4
:1003600001F8016B5B1EF9D12B0705D40023521E47
:100370000DD401F8013BFAE710F8013BCB1A921CAF
:1003800003E013F8015B01F8015B521EF9D5A142AD
:10039000D8D3002070BD10B5846AE16D11F0500F04
:1003A00006D0E16DC90625D5204600F033FD10BD0D
:1003B000E06D40F40070E06520680168090716D51B
:1003C00003F010F978B12068C068800400280ADBC7
:1003D000E06D20F48070E065E06DC00403D4E06D52
:1003E00040F00100E065204600F094FC10BDC068BC
:1003F0008007EBE7616D496BBDE81040084710B519
:10040000806AC16D41F04001C165016E41F0040197
:10041000016600F0FFFC10BD10B5806A00F0BAFC68
:1004200010BD000070B50446006881688268C1F3A1
:10043000400112F0010F28D039BB816801F00D0195
:10044000012914D18168124A1140891C81602168F8
:100450000320086001F024FA054612E001F020FABA
:10046000401B02280DD920688068C00709D0E06DC4
:1004700040F01000E065206E40F001002066012091
:1004800070BD20688068C007E8D1002070BD000002
:10049000C0FFFF7FF8B50446002000902068816807
:1004A00011F0010F4AD18168254A114237D1816884
:1004B000D5432940491C81602068B0F1A04F02D08B
:1004C0002049884201D1204800E02048806800F09F
:1004D000E07000020DD51E481E490068B0FBF1F027
:1004E000401C00EB4000800000E0401E009000280F
:1004F000FBD101F0D5F906461BE0816811F0010F30
:1005000003D181682940491C816001F0C9F9801B31
:1005100002280ED920680068C043C00709D0E06DEA
:1005200040F01000E065206E40F0010020660120E0
:10053000F8BD20680168C943C907DED10020F8BDB5
:100540003F000080000100500003005000070050F1
:1005500094000020400D0300FEE7002070470020BB
:100560007047000010B500220449054804F039FA2C
:100570000449034804F02CFA002010BDC82E0020C6
:10058000F8210020C826002010B50146034804F0D9
:100590001FFA024804F0E4F9002010BDF821002001
:1005A00000207047094A10B5D2F8BC22D2F81422B4
:1005B0000AB1012010BD0A460146044804F011FAB0
:1005C000BDE81040014804F076BA0000F821002090
:1005D000014800F02FBF0000381A0020014800F049
:1005E00029BF0000981A0020014800F023BF000036
:1005F000F81A0020014800F01DBF0000581B002021
:10060000014800F017BF0000B81B00200D49026828
:100610008A4201D20C4901E00B492031D2B21423A5
:10062000083AB2FBF3F2436C02F01F0223F003031B
:100630001944816404498031C164012191400165FC
:100640007047000008040240000802400179074A90
:1006500002EB81024265054A4432491E826501F07F
:100660001F0201219140C16570470000FC08024053
:1006700030B5D0E913456560446D14B1D0E9164535
:10068000656090F8444004F01F050124AC40056CFF
:100690006C60046863608368102B036803D0996002
:1006A0000068C26030BD9A600068C16030BD7047AC
:1006B00072B6FEE7F8B500260446009690F858009A
:1006C0000D4601280BD0012084F858002046FFF782
:1006D000A9FE0100E06D04D040F010002AE00220E5
:1006E000F8BD20F4885040F00200E0652068826880
:1006F000134B1A4005F080431A4342F000428260D7
:10070000104A20680EE0009B5B1C0093934209D3C3
:10071000E06D20F0020040F01000E06584F85860C1
:100720000120F8BD8368DB0FEDD1E06D20F0020001
:1007300040F00100E06584F858600846F8BD00000C
:10074000C0FFFF3F02DE04002DE9F04F044690F8A1
:1007500058009BB00F464FF0000B012812D001202B
:1007600084F8580000261796189620684FF0A04885
:10077000DFF81C91DFF81CA1474D404506D1284603
:10078000009508E002201BB0BDE8F08F48450AD173
:100790005046CDF800A002F021FF0090206802F042
:1007A0001DFF40B109E0E06D40F02000E06584F8F5
:1007B00058600120E7E7009850B1E06D40F020005C
:1007C000E0654FF0010B00BF84F858605846DAE747
:1007D00020684146884201D0A84201D12F4800E05C
:1007E0002F48D7F800C02F4B40F61F72BCF1000F06
:1007F0002DD0D0F808C094F838802CF4604C4CEA26
:10080000483CD7F804804CEA080CC0F808C0D4F87B
:1008100000C08C4501D0AC4504D18968AB6801F0BB
:10082000010109E0D9F80810DAF8085001F00101D7
:1008300005F001059B68294303F001031943C3D167
:10084000BB68396819438368934319431DE087687F
:1008500027F46047876027688F4201D0AF4204D1F8
:100860008968AB6801F0010109E0D9F80810DAF8ED
:10087000085001F0010105F001059B68294303F0D0
:1008800001031943A0D18168914381609CE7000076
:10089000000400500005005000010050000300500B
:1008A00000070050000600502DE9F84F00270446CD
:1008B000009790F85800DFF81C840D46B9460128CF
:1008C00011D0012684F85860206802F083FE60B1E0
:1008D000E06D40F02000E0655FF0010784F858907B
:1008E0003846BDE8F88F0220FBE7D5E900210C234C
:1008F000206803EA91131844036B01F01F014FF0C5
:100900001F0C0CFA01FCC2F3846223EA0C038A4038
:1009100013430363206802F05DFE8246206802F004
:1009200055FE5AEA00003CD1AA6829682068B2F155
:10093000004F37D002F05EFE2068416921F000418F
:10094000416120686969C268C2F3C10252009140E6
:100950002A69042A31D000EB82002B68026EDFF88E
:1009600078C303F0F84302EA0C020B431A4342F047
:100970000041016622682869A96902EB8000026EC5
:1009800022F080720A430266297F226828690129C1
:1009900010D0002102EB8000026E22F000720A43A8
:1009A00002667DE0002202F025FE2068416941F0E8
:1009B0000041C5E74FF00071ECE7002102F000FEB6
:1009C000400320684FF0000172D002F0F9FD90FA68
:1009D000A0F0B0FA80F1286842036ED090FAA0F03F
:1009E000B0FA80F0814204D100221146206802F062
:1009F00010FE0121206802F0E3FD400320684FF063
:100A000001015DD002F0DCFD90FAA0F0B0FA80F1B7
:100A10002868420359D090FAA0F0B0FA80F08142E1
:100A200004D100220121206802F0F3FD0221206898
:100A300002F0C6FD400320684FF0020148D002F0EA
:100A4000BFFD90FAA0F0B0FA80F12868420344D0CC
:100A500090FAA0F0B0FA80F0814204D10022022185
:100A6000206802F0D6FD0321206802F0A9FD4003B2
:100A700020684FF0030133D002F0A2FD90FAA0F0FD
:100A8000B0FA80F1286842032FD090FAA0F0B0FAB3
:100A900080F0814204D100220321206802F0B9FDD8
:100AA0002068816811F0010F22D0ACE000E004E082
:100AB00002F086FDC0F384618DE7C0F3846091E7A6
:100AC00002F07EFDC0F38461A2E7C0F38460A6E774
:100AD00002F076FDC0F38461B7E7C0F38460BBE742
:100AE00002F06EFDC0F38461CCE7C0F38460D0E710
:100AF0002A7B296850F8B03FC1F3120C23EA0C039B
:100B000002F0180C754A22FA0CF20A4013430360F3
:100B1000E968414577D1286841031CD090FAA0F1DB
:100B2000B1FA81F1491C01F01F0109294FEA403156
:100B300032D8002912D000BF90FAA0F1B1FA81F1A9
:100B400001F1010101F01F0106FA01F609D100BF10
:100B5000C0F3846109E0C0F38461E3E7C0F384611A
:100B6000EEE790FAA0F1B1FA81F101F1010101F093
:100B70001F0146EA816102D1C0F3846003E090FA6C
:100B8000A0F0B0FA80F000F1010000F01F0000EBCF
:100B9000400041EA005132E000290ED090FAA0F165
:100BA000B1FA81F101F1010101F01F0106FA01F62C
:100BB00006D100BFC0F3846106E0C0F38461F1E7B1
:100BC00090FAA0F1B1FA81F101F1010101F01F01E8
:100BD00046EA816102D1C0F3846003E090FAA0F09C
:100BE000B0FA80F000F1010000F01F003C4A00EB79
:100BF000400002EB005041EA000141F00071AA6898
:100C0000206802F0F7FC37482B6803423FF466AED9
:100C100021684FF0A04C3448344E354D614501D029
:100C2000A94201D1024600E032469268DFF8C48052
:100C300002F0E072434503D0DFF8BC80434521D188
:100C40005FEA02281ED4614506D02C4B99427FF4FE
:100C500045AEA94200D0304642F40001826822F03D
:100C6000E0720A438260264826490068B0FBF1F032
:100C7000401C00EB4000800000E0401E0090002877
:100C8000FBD12BE6DFF8808043450FD15FEAC21825
:100C90000CD4A94202D11D4B9942F2D0614502D039
:100CA000A94200D0304642F080710CE0DFF860804D
:100CB0004345E6D15302E4D4A942E2D0614500D0D5
:100CC000304642F48001826822F0E0720A4382607A
:100CD00004E6000000007F4000F0FF03FFFF070074
:100CE000000020FE000008800003005000070050B4
:100CF00000010050000021C31000C0900006005009
:100D000094000020400D0300000052C70005005071
:100D1000000084CB08B50021009117494B691749A1
:100D2000884202D16A46022117E01549884202D161
:100D30006A46082111E01349884202D16A462021FF
:100D40000BE01149884202D16A46802105E00F4933
:100D5000884210D16A464FF40071184606F06CF9CB
:100D60000098002807D00A494FF080500860BFF370
:100D70004F8FBFF36F8F08BD000000201C180020AC
:100D800088180020F418002060190020CC190020D9
:100D900004ED00E008B50021009117494B6917499F
:100DA000884202D16A46012117E01549884202D1E2
:100DB0006A46042111E01349884202D16A46102193
:100DC0000BE01149884202D16A46402105E00F49F3
:100DD000884210D16A464FF48071184606F02CF90B
:100DE0000098002807D00A494FF080500860BFF3F0
:100DF0004F8FBFF36F8F08BD000000201C1800202C
:100E000088180020F418002060190020CC19002058
:100E100004ED00E070470000F8B54FF00005040055
:100E20002E46009502D0E06D10B107E00120F8BD1C
:100E3000204600F009F9266684F858602068816829
:100E4000C1F3407119B18168734A11408160206813
:100E50008168C1F3007189B98168704A114041F01D
:100E6000805181606E486F490068B0FBF1F040002E
:100E7000801C00E0401E00900028FBD120688168A3
:100E8000C1F3007141B9E16D41F01001E165216EDE
:100E900041F001012166012502F09CFBE16DC906CC
:100EA00000D430B1E06D40F01000E0650125284627
:100EB000F8BDE06D20F4807040F00200E06520682D
:100EC000816811F0010F27D14FF0A043564A984294
:100ED00001D0904204D19968966801F001010AE0BE
:100EE00052498968524E01F00101B66806F00106C8
:100EF0003143504EB66806F0010631430CD198429A
:100F000001D0904201D14C4800E04C4861688268B1
:100F100022F47C120A438260E168E06B627F08433E
:100F2000A16841EA4231084394F8241040EA0140A4
:100F3000012904D1218D424A02EB41410843E16A73
:100F400029B101F47871226B014342EA0100226861
:100F5000D1683C4B19400143D16020680169626B44
:100F600021F0406111430161206802F02FFB70BB4A
:100F7000207F94F838102268800340EA4100D1684D
:100F800044F2020399430143D1602069002820689C
:100F900001690AD041F480310161206850F8C01F16
:100FA00022696FF30D01114307E021F480310161E3
:100FB000206850F8C01F6FF30D01016094F84000E5
:100FC00001280CD02068016921F0010101616069EC
:100FD00001282068016B21F00F0111D013E0D4E942
:100FE00011010843D4E913121143084321680A6927
:100FF00040F2FC739A43104340F001000861E6E7B9
:10100000226A521E11430163E06D20F0020040F09D
:101010000100E0654BE70000C0FFFF5FC0FFFF7FFE
:1010200094000020400D0300000100500004005017
:10103000000500500006005000030050000700505B
:101040000000FEFF0740F0FF2DE9F04F9BB0074680
:10105000142115A8FFF757F954216846FFF753F9F3
:101060004FF400423868002591039C4E9C4C4FF091
:1010700003094FF0800A4FF480784FF4806BB0F191
:10108000A04F10D0974B984270D1684600921191B2
:1010900001F010FA08B1FFF70BFB3068401C30601C
:1010A00001283AD041E068460092119101F002FA1D
:1010B00008B1FFF7FDFA3068401C3060012807D105
:1010C000E06C40F40050E064E06C00F400501A90D2
:1010D000E06C40F00100E064E06C179500F0010066
:1010E0001A900C20CDE9150915A94FF0904000F099
:1010F000A5FA7E4C7C4820600520C4E9010520202B
:10110000C4F81480C4E906B0C0012062204666E03D
:101110007C65A7621BB0BDE8F08FE06C40F4005026
:10112000E064E06C00F400501A90E06C40F00100C4
:10113000E064E06C179500F001001A906020CDE9A2
:10114000150915A94FF0904000F078FA6648674CF1
:101150001430603420602420C4E90105C4E9035A36
:101160002020C4E90705204672E0FFE7604B9901A3
:10117000CA03984236D168461292009101F09AF95A
:1011800008B1FFF795FA7068401C7060012807D11C
:10119000E06C40F48040E064E06C00F480401A9021
:1011A000E06C40F00200E064E06C179500F0020093
:1011B0001A900120CDE9150915A94E4800F03EFA14
:1011C0004A4C4D48C03420602520C4E90105202048
:1011D000C4F81480C4E906B0000220622046C4E9C5
:1011E000035A37E0454B98423CD168461292009131
:1011F00001F060F908B1FFF75BFA7068401C70609D
:10120000012807D1E06C40F48040E064E06C00F419
:1012100080401A90E06C40F00200E064E06C1795AA
:1012200000F002001A904FF48050CDE9150915A97D
:10123000304800F003FA3048314C1430206026204A
:10124000C4E90105C4E9035A2020C4E90705204682
:10125000C4E9058B00F04CF900283FF459AFFFF7C3
:1012600027FA55E7274B98427FF454AF684612920D
:10127000009101F01FF908B1FFF71AFA7068401CDD
:101280007060012807D1E06C40F48040E064E06CBD
:1012900000F480401A90E06C40F00100E064E06CE3
:1012A000CDF8548000F00100CDE916951A9046461D
:1012B00015A94FF0904000F0C1F90F48104C2830AC
:1012C000603420602720C4E9010520206661C4E95C
:1012D00006B04FF440502062204680E718000020FE
:1012E000001002400001005008000240381A00209F
:1012F00000040050000400480804024000050050AB
:10130000581B0020000600502DE9F04704460068F5
:101310004FF0A0483D4F91468A46404501D0B84223
:1013200001D13B4900E03B49896801F01F0502F00B
:1013300051F9002868D194F85800012864D00120A0
:1013400084F8580034492068884201D1012000E027
:101350000020401E28424FF0000605D0052D03D086
:10136000092D01D0012003E02046FFF793F818B1C2
:1013700084F85860BDE8F087E06D40F6016188436D
:1013800040F48070E0652068B84201D1414605E034
:101390002249884201D1224900E00146814200D021
:1013A0001DB9E06D20F48010E065E06DC00404D547
:1013B000206E20F00600206600E02666616D194868
:1013C000C862616D18480863616D184848632168F8
:1013D0001C20086084F858602068416841F01001C2
:1013E00041602068C16841F00101C16021684B463D
:1013F00052464031606D00F0DBF821688A680C4B82
:101400001A40121D8A60B5E70220B3E700010050C0
:101410000003005000070050000600500005005077
:10142000000400509703000819040008FF03000897
:10143000C0FFFF7FF0B4016C0C6801680D6890F884
:10144000442002F01F06042202FA06F3234211D0C0
:101450006B070FD50B689B0603D40B6823F00403BE
:101460000B6090F8441001F01F018A40016C4A6043
:10147000016B1DE0022303FA06F727424FF0000C30
:101480004FF0010218D0AF0716D50C68A40605D49A
:101490000C6824F00A040C6080F8252090F84410B1
:1014A00001F01F018B40016C4B6080F824C0C16AC1
:1014B00000291AD0F0BC08470823B340234214D0B7
:1014C0002B0712D50B6823F00E030B6090F8441025
:1014D000036C01F01F0102FA01F15960C26380F848
:1014E000252080F824C0416BE2E7F0BC7047000083
:1014F00070B504000CD02B4A21681420914209D207
:10150000294A0A44B2FBF0F08000606427480AE0F0
:10151000012070BD234A52420A44B2FBF0F0800021
:101520006064204808382064022084F825000A6896
:1015300047F6F0708243D4E902031843D4E9043536
:101540002B431843A3691843E3691843236A1843DC
:10155000104308602046FFF759F8A0680025B0F551
:10156000804F00D16560A16C20790860D4E9130137
:1015700041606068401E032808D82046FFF766F8DF
:10158000606D0560D4E91601416002E06565A565FE
:10159000E565E563012084F8250084F824500020E7
:1015A00070BD000008040240F8FFFDBF00000240CB
:1015B00070B5044690F82400002501280CD00120C5
:1015C00084F8240094F825600020012E06D084F8C9
:1015D00024000225284670BD022070BD022684F832
:1015E0002560E0632068066826F001060660204654
:1015F000FFF73EF8206B00282068016802D041F018
:101600000E0106E021F0040101602068016841F04C
:101610000A010160A06C0168C90303D5016841F4A7
:1016200080710160606D18B1016841F480710160E2
:101630002068016841F001010160CBE72DE9F04F1E
:10164000DFF82092002301260324A9F1040B85B0C2
:101650000F2709F1040AABF1040EFAE006FA03F5CC
:101660002A407CD091F804C00CF0030CBCF1010FAF
:1016700002D0BCF1020F26D1D0F808C0CDF800C0CE
:101680004FEA430C04FA0CF8CDF810C0DDF800C0A6
:101690002CEA080CCDF800C0D1F80C80DDF810C0A1
:1016A00008FA0CF8DDF800C048EA0C08C0F8088019
:1016B000D0F804C02CEA050C0D79C5F300159D4047
:1016C00045EA0C0545600D79ED43AD070ED0C568C0
:1016D0004FEA430804FA08FC25EA0C05D1F808C0D3
:1016E0000CFA08FC4CEA050CC0F80CC00D7905F0AA
:1016F0000305022D16D1DD0800EB850CCDF808C0DE
:10170000DCF820805D074FEAD56C07FA0CF528EA73
:1017100005080D6905FA0CF5DDF808C045EA08056D
:10172000CCF8205005684FEA430CCDF808C004FA05
:101730000CFC25EA0C0591F804C00CF00308DDF858
:1017400008C008FA0CF848EA0508C0F800804D689F
:1017500015F4403F7CD0444DD5F860C000E077E000
:101760004CF0010CC5F860C02D6E23F0030C05F0A1
:10177000010500953D4D65440295AD684FEA837CB7
:101780004FEA1C7807FA08FC25EA0C05B0F1904FE7
:1017900006D0DFF8DCC0604505D14FF0010C20E039
:1017A0004FF0000C1DE0DFF8CCC0604502D14FF0D7
:1017B000020C16E0DFF8C0C0604502D14FF0030C08
:1017C0000FE0DFF8B8C0604502D14FF0040C08E02C
:1017D000DFF8ACC0604502D14FF0050C01E04FF0DE
:1017E000060C0CFA08FC4CEA050C029DC5F808C072
:1017F000D9F80050CC46D1F8048095435FEAC82858
:1018000000D51543CCF80050DAF80050D446D1F892
:10181000048095435FEA882800D51543CCF8005032
:10182000DBF80050DC46D1F8048095435FEA883845
:1018300000D51543CCF80050DEF80050F446D1F83E
:10184000048095435FEAC83800D51543CCF80050B2
:101850005B1C0A6832FA03F57FF400AF05B0BDE8FF
:10186000F08F000008040140001002400000014019
:101870000004004800080048000C00480010004820
:1018800000140048426921EA02030A4043EA024187
:10189000816170470AB181617047816270470000C1
:1018A0000148806870470000880000200248816875
:1018B00042681144816070478800002010B5002400
:1018C000032000F09BF80F2000F008F808B1012475
:1018D00001E000F047F8204610BD000030B5054695
:1018E0001B4887B0016E41F480110166006E06A9A5
:1018F00000F48010009001A801F04AF801F068F8A7
:101900001449154AB0FBF1F11448491E02604160C8
:1019100040F2E7320021C0E90321816001F005FBBC
:10192000040012D10D4801F091FB04000DD14E20AE
:1019300000F036F8102D07D2002229464E2000F084
:101940003DF80748056000E0012407B0204630BD9F
:101950000010024040420F0000500140B01C002027
:10196000880000200D4808B5016E41F001010166B4
:10197000016E01F001010091816D41F0805181659E
:10198000806D002200F0805000900F21901E00F02A
:1019900015F8BDE8084000F085BD000000100240C9
:1019A000002809DB00F01F0201219140400980005E
:1019B00000F1E020C0F8001170470000F0B40E4BB9
:1019C0001B680C46C3F30223C3F10705042D00D99D
:1019D0000425191D072901D2002300E0DB1E012682
:1019E00006FA05F1491E214099409E40761E164098
:1019F0003143F0BC04F01CBA0CED00E0064900F0E5
:101A0000070208684FF6FF03184040EA0220034A25
:101A100010430860704700000CED00E00000FA057C
:101A200001220168C0F8D022002280F8C82231F8D3
:101A3000540F40F001000880088840F00200088040
:101A40001046704770B50F4D044669B101290AD19F
:101A5000D4F8D80203F0FBFA607A002803D0286893
:101A600040F00600286070BD607A28B102F085FB66
:101A7000286820F006002860D4F8D802BDE870403D
:101A800003F07DBA10ED00E010B50C0607D501F0AB
:101A9000070101EB810100EBC100103005E001EB13
:101AA000810100EBC10000F5A87099B232B10122AA
:101AB00002730181190C4181002010BD00220273C4
:101AC000C180F9E701EB810200EBC202D0F8D80235
:101AD000526A03F032B901EB810200EBC202D0F886
:101AE000D802D2F8642103F07CB970B504460B0625
:101AF00001F0070000EB800104EBC1014FF001028F
:101B00004FF0000502D54A74103103E081F85151BD
:101B100001F5A871087094F89002012808D084F8A3
:101B20009022206803F0DEFD84F89052002070BD02
:101B3000022070BD70B5044601F00F00227990427A
:101B400001D9012070BD0B0601F0070000EB8001F8
:101B500004EBC1014FF001024FF0000502D54A74B9
:101B6000103103E081F8515101F5A8718D700870B2
:101B700094F89002012808D084F89022206803F09D
:101B800050FE84F89052002070BD022070BD2DE9F7
:101B9000F04704685FEA42480B788D69B4F85080DA
:101BA0004FF0000C4BF68F7748F2800648F68F799D
:101BB00048F2C00A444428D540F2024808EBC30862
:101BC00034F80840C4F30904A54203D32D1B8D61EA
:101BD00002D00BE0C1F818C0D0F800C03CF8235088
:101BE0003D4085F4005535432CF82350520609D565
:101BF0000B78056835F8232002EA090242EA0A0256
:101C000025F8232074B30A8927E040F2064808EB40
:101C1000C30834F80840C4F30904A54203D32D1BBC
:101C20008D6102D00BE0C1F818C0D0F800C03CF8BC
:101C300023503D4085F4005535432CF8235052067F
:101C400009D40D78036833F8252002EA090242EA34
:101C50000A0223F825202CB14A89496900682346E5
:101C600004F0B7F82046BDE8F0872DE9F0470546B7
:101C700000680C465FEA42681646D1F818C0227820
:101C8000B0F8508048F68F774CF280094FF400434B
:101C90004FF6FF7A4FF00001404472D540F20248FF
:101CA00008EBC20830F80800C0F30900844514D9D5
:101CB000BCEB000CC4F818C010D0760408D5D5F8D9
:101CC00000C03CF822603E4046EA09062CF822603B
:101CD00094F82420012A47D056E1A161607810B120
:101CE000012813D01AE02868B0F85030184400EBEF
:101CF000C200B0F80224C2F30902A0F80224B0F82E
:101D0000022442F40042A0F8022407E02868B0F858
:101D10005030184400EBC200A0F802146278286822
:101D200012B1012A11D018E0B0F8501008442178FF
:101D300000EBC100B0F80614C1F30901A0F80614C5
:101D4000B0F8061441F4004105E0B0F8502010440A
:101D5000227800EBC200A0F8061421782846FFF78D
:101D6000B1FE70046ED40FE1626902446261E269FF
:101D70000244E2612669226AB24203D33046111A54
:101D800004E040E084F824100AB110462162617832
:101D900011B101292BD033E02968B1F8502011444A
:101DA000227801EBC201B1F80224C2F30902A1F8C2
:101DB000022401F202413E2809D94209C60600D197
:101DC000521E0E8843EA822216430E8018E048B164
:101DD0004208C30700D0521C0B880AEA8222134330
:101DE0000B800DE00A8842F400420A8008E029686E
:101DF000B1F850201144227801EBC201A1F802048D
:101E000083B22289BCE040F2064808EBC20830F8F1
:101E10000800C0F30900844515D3BCEB000CC4F8DE
:101E200018C011D0760408D4D5F800C03CF8226060
:101E30003E4046EA09062CF8226094F82420012A44
:101E400051D0A1E045E0A161607810B1012813D024
:101E50001AE02868B0F85030184400EBC200B0F81F
:101E60000224C2F30902A0F80224B0F8022442F4CA
:101E70000042A0F8022407E02868B0F85030184467
:101E800000EBC200A0F802146278286812B1012A9F
:101E900011D018E0B0F850100844217800EBC100D0
:101EA000B0F80614C1F30901A0F80614B0F806143E
:101EB00041F4004105E0B0F850201044227800EBD6
:101EC000C200A0F8061421782846FFF7FBFD700435
:101ED0005AD421782A6832F82100384040EA0900B3
:101EE00022F8210050E0626902446261E269024422
:101EF000E2612669226AB24203D33046111A216296
:101F000004E00AB11046216284F82410627829683E
:101F100012B1012A2AD031E0B1F8502011442278C0
:101F200001EBC201B1F80624C2F30902A1F80624AC
:101F300001F206413E2809D94209C60600D1521EC7
:101F40000E8843EA822216430E8017E048B1420809
:101F5000C30700D0521C0B880AEA822213430B806D
:101F60000CE00A8842F400420A8007E0B1F85020F1
:101F70001144227801EBC201A1F80604628983B200
:101F80006169286803F040FF21782A6832F821004F
:101F900048F6BF73184080F0300048F280031843C1
:101FA00022F821000020BDE8F08701F0070101EBD5
:101FB000810100EBC100D0F86C0170472DE9F041C0
:101FC00004460F0601F0070000EB800104EBC1019D
:101FD0004FF001064FF0000502D54E74103103E0BA
:101FE00081F8515101F5A871022B08700A61CB707C
:101FF00000D10D7194F89002012809D084F8906204
:10200000206803F021FA284684F89052BDE8F08158
:102010000220FBE710B501F0070404EB840100EB9C
:10202000C101C1E959230022C1F86C2181F8512175
:1020300081F85041006801F5A87103F047FC0020C9
:1020400010BD70B5044601F007002279904201D915
:10205000012070BD0B064FF000054FF0010206D5C0
:1020600000EB800104EBC1014A74103107E001EB81
:10207000810104EBC10181F8515101F5A8718A7009
:10208000087094F89002012808D084F89022206803
:1020900003F003FC84F89052002070BD022070BD54
:1020A00010B501F0070404EB840100EBC101C1E9A4
:1020B0000923012281F834200B630023CB624A7488
:1020C00001F8104F006803F001FC002010BD10B5AE
:1020D0000446006803F07AFE010404D52046BDE8FA
:1020E000104001F05BBD41050ED5206830F8441F5B
:1020F00021F480610180204600F008F92046BDE807
:102100001040002100F02EB9410405D5206830F8B8
:10211000441F21F480417DE0810405D5206830F81A
:10212000441F21F4005175E0C1041FD5206830F828
:10213000401F21F004010180206830F8401F21F089
:102140000801018094F8C802012806D1002084F813
:10215000C80201462046FFF775FC204600F0EAF869
:10216000206830F8441F21F4805153E0010512D556
:10217000206830F8401F41F008010180206830F8E5
:10218000441F21F400610180206830F8401F41F0B5
:10219000040101800AE0010629D5206830F8441FB7
:1021A00021F08001018094F8C80218B1204600F0A7
:1021B00009F910BD206830F8401F41F0040101808A
:1021C000206830F8401F41F008010180012084F8A8
:1021D000C8022068B0F854003C2101EA9000C4F81D
:1021E000CC022046BDE810400121FFF72BBC810541
:1021F00009D5206830F8441F21F400710180204681
:1022000000F0ACF810BDC005FCD5206830F8441FC4
:1022100021F48071018010BD70B5040004D094F8E1
:102220009102002510B106E0012070BD84F89052A3
:10223000204600F03FF8032084F89102206803F064
:10224000E8FA002001260BE000EB800104EBC1015D
:102250004E740874CD740D624D62401CC0B28D6224
:1022600021798142F0D8002012E000BF00EB80010C
:1022700004EBC10181F8515181F8500181F85351AB
:10228000C1F86051C1F86451401CC0B2C1F8685136
:1022900021798142EAD894E8070003F0B1FA257366
:1022A00084F89162A07A012802D12046FFF7B8FB9A
:1022B000002070BD10B596B0044654216846FEF764
:1022C00022F81049206888421AD14014009000205A
:1022D0000F90684600F0EEF808B1FEF7E9F90A48F9
:1022E000816D41F400018165806D002200F40000E1
:1022F000159005211420FFF761FB1420FFF750FB18
:1023000016B010BD005C00400010024070B50446DD
:1023100040790125022801D0FEF7CAF92946D4F8F0
:10232000D80202F046FED4F8D802BDE8704002F0B0
:10233000F9BD000010B50446407A30B10648016886
:1023400021F00601016001F018FFD4F8D802BDE8C1
:10235000104002F014BE000010ED00E0D0F8D802EA
:1023600002F017BE10B5044690F8900201280AD07A
:10237000012084F890022173206803F03EFD0020C4
:1023800084F8900210BD022010BDD0F8D82200F5CC
:102390002671104602F019BE10B5044690F890025E
:1023A00001280CD0012084F89002206803F0FFFC83
:1023B000206803F01EFA002084F8900210BD02206D
:1023C00010BD000010B50446D0F8D80202F03FFE60
:1023D000607A002804D00348016841F006010160DA
:1023E00010BD000010ED00E02B492C4B0A68322193
:1023F0004A432B4940B1B0F5007F086829D020F44A
:10240000C06040F480602CE00868C0F341200228DE
:1024100004D051F8800F20F4807022E0D1F88000C1
:1024200020F48070C1F88000086820F4C06040F497
:1024300000700860B2FBF3F0401C00E0401E4A69E7
:10244000520501D50028F9D1486940050AD5032075
:102450007047C0F34120022806D051F8800F40F4A5
:102460008070086000207047D1F8800040F48070D0
:10247000C1F88000086820F4C06040F40070086073
:10248000B2FBF3F0401C00E0401E4A695205DBD568
:102490000028F9D1D8E700009400002040420F0046
:1024A000007000400248816841F4804181607047BB
:1024B000007000402DE9F843044600680026BB4D3B
:1024C00000035ED5A86D0027C00008D4A86D40F0B9
:1024D0008050A865A86D012700F080500090DFF8BB
:1024E000D092D9F8001041F48071C9F80010FFF7BC
:1024F000D7F9804606E000BFFFF7D2F9A0EB08004D
:1025000002282BD8D9F80000C005F5D5D5F89000E1
:1025100010F4407014D0216D814211D0D5F8900094
:10252000D5F8901020F4407041F48031C5F8901037
:10253000D5F8901021F48031C5F89010C5F89000BE
:10254000C00711D0FFF7ACF9804641F2883907E0A7
:10255000FFF7A6F9A0EB0801494501D903260BE0D6
:10256000D5F890008007F3D5D5F89000216D20F4C0
:1025700040700843C5F890001FB1A86D20F080504E
:10258000A8652078C00707D0D5F88800616820F0DA
:1025900003000843C5F888002078800707D5D5F8E0
:1025A0008800A16820F00C000843C5F88800207856
:1025B000400707D5D5F88800E16820F030000843CF
:1025C000C5F888002078000707D5D5F8880021696C
:1025D00020F0C0000843C5F888002078C00607D561
:1025E000D5F88800616920F440700843C5F8880078
:1025F0002078800607D5D5F88800A16920F44060CE
:102600000843C5F888002078400607D5D5F888002B
:10261000E16920F440500843C5F88800207800069E
:1026200007D5D5F88800216A20F440400843C5F852
:1026300088002088C00507D5D5F88800616A20F495
:1026400040300843C5F888002068800307D5D5F8D6
:102650009C00A16A20F003000843C5F89C00208874
:10266000800507D5D5F88800E16A20F440200843AA
:10267000C5F88800208840050FD5D5F88800216B63
:1026800020F440100843C5F88800206BB0F5801F87
:1026900003D1E86840F48010E860208800050FD579
:1026A000D5F88800616B20F440000843C5F8880025
:1026B000606BB0F5800F03D1E86840F48010E860EB
:1026C0002088C0040FD5D5F88800A16B20F0407099
:1026D0000843C5F88800A06BB0F1807F03D1E8689B
:1026E00040F48010E86020884FF0006180040ED52F
:1026F000D5F88800E26B20F040601043C5F88800F0
:10270000E06B884203D1E86840F48010E8602088DC
:1027100040040ED5D5F88800226C20F040601043AC
:10272000C5F88800206C884203D1E86840F4801026
:10273000E860208800040FD5D5F88800616C20F08F
:1027400040500843C5F88800606CB0F1805F03D149
:10275000E86840F48030E8602068C0030FD5D5F801
:102760008800A16C20F040400843C5F88800A06CA8
:10277000B0F1804F03D1E86840F48030E860206811
:1027800040030FD5D5F89C00E16C20F440100843BD
:10279000C5F89C00E06CB0F5001F03D1E86840F478
:1027A0008010E8603046BDE8F88300000010024069
:1027B000007000402DE9F0470E4605004FF000077D
:1027C00025D0DFF8AC81D8F8000000F00F00B0424F
:1027D0000CD2D8F8001021F00F013143C8F80010D6
:1027E000D8F8000000F00F00B04210D12968614C09
:1027F000C80741F2883A5AD06868DFF87C9103280C
:1028000008D0022820682DD0400500282CDB0120AC
:10281000BDE8F08720688001F9D5E06800F0030288
:10282000E068C0F30310401C032A19D0534A00BFCC
:10283000B2FBF0F0E268C2F306225043E268C2F352
:102840004162521C5200B0FBF2F0484517D9A06813
:1028500010F0F00F0CD0880711D5A86840B10EE039
:10286000474AE5E78003D0E700F0C4F8484506D9B9
:10287000A06820F0F00040F08000A0608027A068F1
:10288000696820F003000843A060FFF709F881465B
:1028900006E000BFFFF704F8A0EB090151453AD864
:1028A000A068696800F00C00B0EB810FF2D12868D5
:1028B000810714D5400703D5A06840F4E060A0600C
:1028C0002878000705D5A06820F4605040F4E06047
:1028D000A060A068A96820F0F000084304E0802F01
:1028E00003D1A06820F0F000A060D8F800104046A6
:1028F00001F00F01B14216D9016821F00F013143F7
:102900000160FEF7CDFF074607E000BFFEF7C8FFF6
:10291000C11B514501D903207AE7D8F8000000F027
:102920000F00B042F2D12878400705D5A068E968C9
:1029300020F4E0600843A0602878000706D5A0686E
:10294000296920F4605040EAC100A06000F052F80C
:10295000A1680C4AC1F30311515C01F01F01C8408A
:102960000949086009480068BDE8F047FEF7B6BFAE
:10297000002002400010024000B4C4040024F4000F
:1029800000127A00C87B0008940000208800002014
:102990000F2202600C4A936803F0030343609368BC
:1029A00003F0F0038360936803F4E063C36092680C
:1029B0004FF4E06303EAD20202610448006800F0C9
:1029C0000F00086070470000001002400020024025
:1029D0000548064900688968054AC1F3C221515C6F
:1029E00001F01F01C8407047940000200010024011
:1029F000D87B0008184910B58868C0F381021748D1
:102A0000012A0BD08A684310C2F38102022A06D041
:102A10008A68C2F38102032A03D0002010BD184641
:102A200010BDCA6802F00304CA68C2F30312521C44
:102A3000032C02D0B0FBF2F001E0B3FBF2F0CA6865
:102A4000C968C2F306225043C1F34161491C4900E1
:102A5000B0FBF1F010BD0000001002400024F400B3
:102A60002DE9F84304007AD02078F84DC00747D00C
:102A7000A868E96800F00C0001F003010C2802D0FE
:102A8000082817D001E0032914D06068B0F5803F12
:102A900017D0B0F5A02F286817D020F48030286018
:102AA000286820F4802028606068E0B1FEF7F8FE16
:102AB000064614E02868800322D560680028D2D03A
:102AC0001EE0286840F48030EDE740F48020286064
:102AD000F7E700BFFEF7E4FE801B642870D8286883
:102AE0008003F7D50CE0FEF7DBFE064605E000BFED
:102AF000FEF7D6FE801B6428F0D828688003F7D440
:102B0000207880074CD5A868E96800F00C0001F037
:102B100003010C2802D004280DD001E002290AD0BC
:102B2000E068002828682BD040F480702860FEF709
:102B3000B7FE064619E02868400502D5E06800287F
:102B400091D06868217C20F0FE4040EA0160686016
:102B5000BF480068FEF7C2FE002800D120E072E105
:102B6000FEF79EFE801B0228B8D828684005F7D5DE
:102B70006868217C20F0FE4040EA016068600FE058
:102B800020F480702860FEF78BFE064605E000BF4B
:102B9000FEF786FE801B0228A0D828684005F7D4DF
:102BA0002078000729D560690028D5F8940013D053
:102BB00040F00100C5F89400FEF772FE064606E0FC
:102BC00090E000BFFEF76CFE801B022886D8D5F887
:102BD00094008007F6D510E020F00100C5F89400BD
:102BE000FEF75EFE064604E0FEF75AFE801B022852
:102BF00078D8D5F894008007F6D42078400761D5BE
:102C0000A86D0026C00008D4A86D40F08050A865CB
:102C1000A86D012600F0805000908E480168C9051B
:102C200011D40168804641F480710160FEF738FEDE
:102C3000074604E0FEF734FEC01B022852D8D8F83D
:102C40000000C005F6D5A068012815D00528D5F8E4
:102C5000900016D020F00100C5F89000D5F8900043
:102C600020F00400C5F89000A06841F28838B8B19F
:102C7000FEF716FE07460EE0D5F8900040F0010082
:102C8000F0E740F00400C5F89000F5E7FEF708FE15
:102C9000C11B414526D8D5F890008007F6D50CE039
:102CA000FEF7FEFD074604E0FEF7FAFDC11B4145B5
:102CB00018D8D5F890008007F6D41EB1A86D20F082
:102CC0008050A8652078800629D5A0690028D5F80D
:102CD000980013D040F00100C5F89800FEF7E0FD21
:102CE000064606E075E000BFFEF7DAFD801B02280D
:102CF0006FD8D5F898008007F6D510E020F00100D5
:102D0000C5F89800FEF7CCFD064604E0FEF7C8FDC6
:102D1000801B02285DD8D5F898008007F6D4E069BA
:102D2000F0B3A968C1F3810103295DD002282868A6
:102D300020F08070286003D0FEF7B2FD04464BE01F
:102D4000FEF7AEFD064604E0FEF7AAFD801B022852
:102D50003FD828688001F7D4F4E908016FF00F022A
:102D600002EB01110843218A5204490802EB415148
:102D7000A26841EA02210843217D4FF07E424908C2
:102D800002EB41610843217B40EAC160E968324AB5
:102D900011400843E860286840F08070286000E037
:102DA0005EE0E86840F08070E860FEF779FD044678
:102DB00005E000BFFEF774FD001B022809D8286853
:102DC0008001F7D54CE000BFFEF76AFD001B02282A
:102DD00002D90320BDE8F88328688001F4D4E868AC
:102DE0001E490840E8603BE00128F3D0E868226A09
:102DF00000F00301914226D1616A00F0F00209015E
:102E0000103991421FD1A26A00F4FE41B1EB022FAA
:102E100019D194F82C2000F07841B1EBC26F12D197
:102E2000218E00F4C00249084905A1F50011914224
:102E300009D194F8341000F0C06049084906A1F1A6
:102E4000007181420CD00120C4E700000010024054
:102E500088000020007000400C809F01FCFFEEFE07
:102E60000020B7E77047704770477047704770475A
:102E7000F0B590F83C20012A43D0012580F83C5061
:102E8000022280F83D2003685A689C681E4E1F4F3E
:102E9000DFF87CC0B34203D0BB4201D0634504D10C
:102EA00022F4700E4A6842EA0E02DFF868E002EA95
:102EB0000E02D1F800E04EEA020EC3F804E0026808
:102EC000B24212D0B2F1804F0FD0134B9A420CD0C5
:102ED000124B9A4209D0124B9A4206D0BA4204D001
:102EE000104B9A4201D0624504D1896824F08003D6
:102EF0001943916080F83D50002180F83C1008464D
:102F0000F0BD0220F0BD0000002C01400034014063
:102F1000005001408FFFFFFD00040040000800400A
:102F2000000C004000400140704710B5040003D081
:102F300094F83D0010B107E0012010BD002084F896
:102F40003C00204600F022F8022084F83D00211DBC
:102F5000206801F059F9012084F8480084F83E0007
:102F600084F83F0084F8400084F8410084F842006F
:102F700084F8430084F8440084F8450084F846004F
:102F800084F8470084F83D00002010BD08B50C4AC5
:102F900001680C48914207D1816D41F002018165C1
:102FA000806D00F0020009E0074A914207D1816D6F
:102FB00041F010018165806D00F01000009008BDA7
:102FC00000040040001002400010004090F83D1046
:102FD000012901D001207047022180F83D100068CE
:102FE0001249884214D0B0F1804F11D01049884264
:102FF0000ED0104988420BD00F49884208D00F49A3
:10300000884205D00E49884202D00E49884207D135
:1030100081680D4A1140062906D0B1F5803F03D0E2
:10302000016841F00101016000207047002C01405F
:103030000004004000080040000C00400034014043
:1030400000400140005001400700010090F83D1091
:10305000012901D001207047022180F83D1001684C
:10306000CA6842F00102CA6000681349884214D05D
:10307000B0F1804F11D0114988420ED010498842DA
:103080000BD01049884208D00F49884205D00F491B
:10309000884202D00E49884207D181680D4A11400A
:1030A000062906D0B1F5803F03D0016841F0010147
:1030B0000160002070470000002C01400004004027
:1030C00000080040000C0040003401400040014076
:1030D000005001400700010070B5044690F83C0024
:1030E000002501281CD0012684F83C60022084F8C9
:1030F0003D0022689068334B184020F47F40906078
:103100000868B0F5005F2ED016DC402849D009DCF5
:10311000D0B1102818D0202816D0302849D113E07B
:10312000022070BD50282AD0602830D070280FD0DF
:10313000B0F5805F3DD13DE010F00F0F39D10111A6
:10314000A1F58031072934D822680146104625E0D0
:10315000CB68D1E90121206801F0C8F820688168B6
:1031600041F0770109E0CB68D1E90121206801F045
:10317000BDF82068816841F4804181601AE0CA6826
:103180004968206801F086FA5021206806E0CA6884
:103190004968206801F08FFA6021206801F0B0F8DA
:1031A00008E0CA684968206801F074FA4021206884
:1031B000F4E7012584F83D60002084F83C002846AF
:1031C00070BD000088FFCEFF70472DE9F041044636
:1031D0000068C66805694FF00007A90713D5B10755
:1031E00011D5F91E016101202077206880698007D0
:1031F000204602D0FFF7E8FF04E000F0E1F82046A7
:1032000000F0A3F92777680716D5700714D5216851
:103210006FF004000861022020772068806910F4B4
:10322000407F204602D0FFF7CFFF04E000F0C8F84F
:10323000204600F08AF92777280715D5300713D5DF
:1032400021686FF008000861042020772068C069B9
:103250008007204602D0FFF7B7FF04E000F0B0F887
:10326000204600F072F92777E80616D5F00614D547
:1032700021686FF010000861082020772068C0697D
:1032800010F4407F204602D0FFF79EFF04E000F0DC
:1032900097F8204600F059F92777E80708D0F0079B
:1032A00006D021686FF001000861204600F04EF959
:1032B000280601D4A80408D5300606D521686FF485
:1032C000025008612046FFF7CEFDE80508D530061C
:1032D00006D521686FF4807008612046FFF7C2FDB3
:1032E000680608D5700606D521686FF040000861B1
:1032F000204600F035F9A80608D5B00606D52168A5
:103300006FF0200008612046FFF7AEFDE80208D507
:10331000F00206D521686FF4801008612046FFF79F
:10332000A5FDA80208D5B00206D521686FF40010EB
:1033300008612046FFF799FD680208D5700206D59E
:1033400021686FF4800008612046FFF790FD280295
:103350000AD5300208D521686FF4000008612046C4
:10336000BDE8F041FFF7E0BDBDE8F08110B586B0E3
:10337000044614216846FCF7C6FF0E4920688842BF
:1033800016D10D48C16C41F00201C164C06C6946A0
:1033900000F0020005901020009012200190002003
:1033A000029003200390022004900448FEF746F99F
:1033B00006B010BD000400400010024000040048A8
:1033C000704770B5044690F83C0000260D46012871
:1033D0000BD0012084F83C000C2A4AD007DC82B1D3
:1033E000042A20D0082A06D131E0022070BD102A1C
:1033F00053D0142A63D00126002084F83C003046C4
:1034000070BD206800F086FF2068816941F00801E6
:1034100081612068816921F00401816120688169EE
:103420002A69114311E0206800F0CAFF2068816911
:1034300041F4006181612068816921F480618161CA
:10344000206881692A6941EA02218161D4E7206804
:1034500001F006F82068C16941F00801C1612068E7
:10346000C16921F00401C1612068C1692A69114361
:1034700011E0206801F044F82068C16941F400615E
:10348000C1612068C16921F48061C1612068C1699E
:103490002A6941EA0221C161AEE7206801F080F8A3
:1034A0002068016D41F0080101652068016D21F07F
:1034B000040101652068016D2A69114311E020684B
:1034C00001F0AAF82068016D41F4006101652068EF
:1034D000016D21F4806101652068016D2A6941EA6E
:1034E0000221016588E710B5040003D094F83D007F
:1034F00010B107E0012010BD002084F83C002046F8
:1035000000F022F8022084F83D00211D206800F020
:103510007BFE012084F8480084F83E0084F83F00D8
:1035200084F8400084F8410084F8420084F84300A5
:1035300084F8440084F8450084F8460084F8470085
:1035400084F83D00002010BD7047704700680349B3
:10355000884201D1FEF7AAB970470000005001402F
:103560007047FEE7F0B500230A24302537261F46B2
:1035700011E000BFB4EB107F02D905EB107C01E035
:1035800006EB107C01F813C001EB430C00015B1C3F
:103590008CF80170DBB29342ECD3F0BD08B504F0B7
:1035A0002BF9064D4FF40054009021462846FEF7B3
:1035B00069F96421684603F039FBF6E70008004822
:1035C00000EB8100006E00F0F84070478068C0F3A7
:1035D000C00070478068C0F3800070478068C0F307
:1035E00080007047C06810F4406F01D00020704721
:1035F00001207047042303EAD15310B518444369EE
:10360000C1F3045107248C40A3438A401343436110
:1036100010BD00EB8100016E21F0004111430166F5
:103620007047000030B58BB0002408940994202125
:1036300068460A94FCF767FE24484FF0A041042531
:1036400001604FF44031C0E9011485610121C4607B
:10365000C0E90441047744770222026280F82440E2
:103660004FF4B462C2628A02026380F83810C46305
:1036700080F84040FDF7D0FB08B1FDF719F808A924
:1036800012480894FDF760F808B1FDF711F81048EA
:10369000009006200190072002907F200594CDE93C
:1036A000030569460948FDF7FFF808B1FDF700F882
:1036B000084800900C20019069460448FDF7F4F892
:1036C000002801D0FCF7F4FF0BB030BD1C1800201F
:1036D0000800900C1000C01030B589B02021684659
:1036E000FCF711FE21482049002401604FF44031CD
:1036F000C0E90114042585610121C460C0E90441C9
:10370000047744770222026280F824404FF4B462C6
:10371000C2628A02026380F83810C46380F84040B5
:10372000FDF77AFB08B1FCF7C3FF114800900620B3
:103730000190072002907F200594CDE9030569469A
:103740000A48FDF7B1F808B1FCF7B2FF094800904C
:103750000C20019069460548FDF7A6F8002801D025
:10376000FCF7A6FF09B030BD00010050881800200A
:10377000002090360800900C30B58BB000240894DF
:103780000994202168460A94FCF7BDFD1F481E4994
:10379000042501604FF44031C0E90114C4600461A4
:1037A000C0E90545047744770121016280F824408F
:1037B0004FF4B462C2628A02026380F83810C463B4
:1037C00080F84040FDF728FB08B1FCF771FF08A91D
:1037D0000E480894FCF7B8FF08B1FCF769FF0C48E5
:1037E000009006200190072002907F200594CDE9EB
:1037F000030569460548FDF757F8002801D0FCF796
:1038000057FF0BB030BD000000040050F41800203A
:103810000010603230B589B020216846FCF773FD96
:103820001B481A49002401604FF44031C0E90114DB
:10383000C46004250461C0E905450477447701218B
:10384000016280F824404FF4B462C2628A020263CB
:1038500080F83810C46380F84040FDF7DDFA08B105
:10386000FCF726FF0B4800900620019007200290ED
:103870007F200594CDE9030569460548FDF714F856
:10388000002801D0FCF714FF09B030BD000500503E
:10389000601900200800900C30B589B020216846DE
:1038A000FCF731FD1B481A4900240160C901C0E939
:1038B0000114C46004250461C0E905450477447718
:1038C0000121016280F824404FF4B462C2628A028E
:1038D000026380F83810C46380F84040FDF79CFA1A
:1038E00008B1FCF7E5FE0C48009006200190072087
:1038F00002907F200594CDE9030569460548FCF751
:10390000D3FF002801D0FCF7D3FE09B030BD000082
:1039100000060050CC19002002003004214808B5F0
:10392000816C41F004018164816C01F0040100911B
:10393000816C41F001018164816C01F00101009111
:10394000816C41F002018164806C002200F0020071
:10395000009005210B20FEF731F80B20FEF720F830
:10396000002205210C20FEF729F80C20FEF718F89C
:10397000002205213820FEF721F83820FEF710F844
:10398000002205213920FEF719F83920FEF708F842
:10399000002205213A20FEF711F8BDE808403A2040
:1039A000FDF7FEBF0010024010B50A4A00210A4888
:1039B00002F034FB094C074A0021E0602432084839
:1039C00002F02CFB20610348483002F0B2FA60613B
:1039D00010BD0000707B00083D3F00080000002083
:1039E0009D35000830B587B014216846FCF78BFC84
:1039F0001948C16C41F00401C164C16C01F00401BB
:103A00000591C16C41F02001C164C16C01F020013D
:103A10000591C16C41F00101C164C16C01F001016B
:103A20000591C16C41F00201C164C06C012200F03B
:103A300002000A4D5403059021462846FDF72AFF4F
:103A400001210020CDE90210CDE900416946284658
:103A5000FDF7F4FD07B030BD00100240000800483B
:103A600030B58FB000240794089409940A940B94FD
:103A70000C941C2168460D94FCF745FC1E481D491A
:103A8000012502C040F2513132C0802140F8104976
:103A900081611948FFF749FA08B1FCF709FE4FF4B4
:103AA0008050079007A91448FFF716FB08B1FCF7F0
:103AB000FFFD1148FFF717FD08B1FCF7F9FD0B9466
:103AC0000BA90D480D94FFF7D3F908B1FCF7F0FDF1
:103AD00060200090CDE90154002269460648049414
:103AE000FFF76FFC08B1FCF7E3FD0348FFF73EFC6E
:103AF0000FB030BD00040040181C00203EB500246B
:103B00000F48009401940D4902940160A921C0E975
:103B100001146321C16080218161FFF706FA08B1B9
:103B2000FCF7C6FD20200090694602940448FFF788
:103B30009FF9002801D0FCF7BBFD3EBD00100040FE
:103B4000641C002010B500220F49104801F0D0F885
:103B500008B1FCF7ADFD0E490C4801F0A0FA08B120
:103B6000FCF7A6FD0B49094800F00EFF08B1FCF771
:103B70009FFD064801F00EFB002803D0BDE8104071
:103B8000FCF796BD10BD000020000020F8210020A9
:103B9000F401002074000020FEE7FEE72DE9F84F55
:103BA000044640F68F7A40F2064B48F60F784FF005
:103BB0000009B5E1B0F8441011F00F053AD030F823
:103BC000256031047DD530F8251001EA0A0141F065
:103BD000800120F8251005EB850004EBC00797F85D
:103BE0005C0107F5A87700286CD0F87802286AD025
:103BF0003978226832F8210048F68F73184048F26D
:103C0000C003184322F821003878D4F800C03CF8EB
:103C100020104904BCF8501001EB0C027ED540F294
:103C2000024101EBC000105A8005800D009076D053
:103C30003A89D0E0C9062AD4018801EA080141F492
:103C400000410180206804F11005B0F85010227C7A
:103C5000014440F2024000EBC200085AC0F30900E0
:103C6000E062616A0844606200212046FDF72AFF95
:103C7000207B00289DD0A86900289AD1207B40F0A5
:103C800080012068A0F84C1084F80C9048E101886D
:103C900004F5A8750A051ED5B0F850102A7801441D
:103CA0000BEBC200085A04F52671C0F30903EB615F
:103CB000EA88206802F08DF82168088800EA0A0086
:103CC00002E0A4E068E077E040F080000880204651
:103CD000FEF75BFB24E10904D8D5018801EA0A015B
:103CE00041F0800101802068B0F850100A1828784F
:103CF0000BEBC000105A83059B0DEB610DD0696979
:103D000059B1EA88206802F064F8E96968690844F2
:103D1000686100212046FDF7DEFE01E053E051E03E
:103D2000206801880A05B1D4C1F301310329ADD05F
:103D3000B0F850100844B0F80614C1F30901A0F817
:103D40000614296900F206403E2909D94A09C90624
:103D500000D1521E01884FF4004343EA822209E059
:103D6000B1B14A08C90700D0521C01884FF6FF7351
:103D700003EA822211430180216808884BF68F7282
:103D8000104080F4405048F2800210430880C7E0A1
:103D9000018841F40041EEE72068B0F850103B780C
:103DA0000A180BEBC301515A8905890D009117D0F0
:103DB000FA887969009B11E0324639462046FDF7C2
:103DC000E6FE00900CE00BEBC000105A8005800D61
:103DD000009005D07A8903466046796901F0F9FFC1
:103DE000F96900980844F861796900980844786195
:103DF000B86918B139690098814204D939782046E8
:103E0000FDF769FE03E03946206801F05FFD3006EA
:103E10002DD505EB850004EBC001206830F8252086
:103E200002EA080242F4004220F82520C87C103142
:103E300001281DD0F0056FD42268B2F85000831815
:103E40000A7840F2024000EBC200185A8A69C0F3B7
:103E50000900824258D9121A8A6157D04A6902442D
:103E60004A61CA691044C861206801F02FFD57E01B
:103E7000C1F818900A7B48461AB3720622D54A78D0
:103E800012B1012A14D041E02068B0F8502010444B
:103E90000A7800EBC200B0F80224C2F30902A0F8CD
:103EA0000224B0F8022442F40042A0F802242DE0DB
:103EB0002268B2F850301A440B7802EBC302A2F821
:103EC000020423E04B78226813B1012B13D01DE0CC
:103ED000B2F8500010440A7800EBC200B0F8062493
:103EE000C2F30902A0F80624B0F8062442F4004206
:103EF000A0F806240AE0B2F850301A440B7802EB1E
:103F0000C302A2F8060401E0C1F81890097820461F
:103F1000FDF7D8FD04E0FFE732462046FDF7A5FE99
:103F20002068B0F8441009043FF544AE0020BDE815
:103F3000F88F0178407841EA0020704708B57A4848
:103F4000FFF744F8794855210170AA224270BB243A
:103F50008470CC25C57000264FF42F73771C00EBBE
:103F60004606B780BEB29E42F8D380F87C2580F822
:103F70007D15662780F87E75772680F87F656C480A
:103F8000017042708470C5700024022500EB440863
:103F900005EB440CA8F804C0641CA4B29C42F5D301
:103FA00080F87C2580F87D1580F87E7580F87F6527
:103FB0007F216048FCF77EFB7F215F48FCF77AFB9E
:103FC0007F215E48FCF776FB7F215D48FCF772FBA2
:103FD0007F215C48FCF76EFB642001F07EFF4FF40C
:103FE000C874224658495348FDF78EF9224657496E
:103FF0005148FDF789F9C82255495048FDF784F921
:10400000C82254494E48FDF77FF9C82252494D480D
:10401000FDF77AF903F0F0FB4C4DDFF83CB14F4C63
:1040200040F2551ACDF800004FF0FF330022990DF1
:10403000606901F094FF514608422ED0424BDFF8F0
:1040400010C1DFF81081A6680020D94606EB4002B7
:1040500039F81070978038F81070A2F8CC703CF8DE
:104060001070A2F8947103EB80077F88A2F85C724D
:1040700035F82070A2F8247305EB80077F88A2F83A
:10408000EC7333F82070A2F8B474401C80B264283A
:10409000DCD3606901F02EFF39E040F2AA2E10EA6D
:1040A0000E0F34D0284ADFF8A880DFF8A890D4F8A3
:1040B000087000200BEB4001B1F8C83007EB40015D
:1040C0008B8009EB4003B3F8C830A1F8CC3008EB83
:1040D0004003B3F8C830A1F8943102EB8006B6F87B
:1040E0009231A1F85C3205EB8003B3F890C1A1F8DE
:1040F00024C3B3F89231A1F8EC33B6F89031A1F8AB
:10410000B434401C80B26428D4D37146C1E701F0B6
:10411000AFFE4FF4B0616068FCF744FA0A216846CC
:1041200002F084FD80E70000641C00201C0D0020CC
:104130009C1200201C18002088180020F418002071
:1041400060190020CC1900202C0200204C05002012
:104150006C080020FC0900208C0B002000000020CF
:1041600010B54FF0E020006903F038FB012803D0C0
:10417000BDE8104003F066B810BD00B593B038211B
:104180006846FCF7C0F814210EA8FCF7BCF8002024
:10419000FEF72AF9222000904FF48070039040200F
:1041A00004900120069002200421CDE90801552148
:1041B000CDE90A1007900C900D906846FEF750FC70
:1041C00008B172B6FEE70F200E9003200F9000207A
:1041D00010901190129004210EA8FEF7EBFA00281F
:1041E00001D072B6FEE713B000BD000002480168BE
:1041F00041F470010160704788ED00E00148FEF76E
:10420000E4BF0000B01C00202DE9F04F02682E4BE7
:104210002E4E2F4FDFF8BCC02F4C304D4FF0804B4F
:1042200098420BD0584509D0B04207D0B84205D0CB
:10423000604503D0A04201D0A84204D122F070080A
:104240004A6842EA0802DFF89880DFF89890DFF8C1
:1042500098A0984211D058450FD0B0420DD0B84226
:104260000BD0604509D0A04207D0404505D0484555
:1042700003D0504501D0A84203D122F44076CA6849
:1042800032434E6922F08002324302608A68C26281
:104290000A688262984209D0A04207D0404505D002
:1042A000484503D0504501D0A84201D109690163B6
:1042B000012141610169C90703D0016921F00101B0
:1042C0000161BDE8F08F0000002C014000040040B7
:1042D00000080040000C0040003401400050014044
:1042E00000400140004401400048014010B584688E
:1042F00042EA032224F47F440A432243826010BD31
:104300008268034B1A400A4342F0070181607047FC
:104310008FFFCFFF2DE9F047056A026A22F0010204
:104320000262436882691F4C25F0020522400C6836
:1043300022F0030214438A681C4E2A431A4D1C4F74
:10434000DFF870C0DFF87090DFF870A0A84209D0E5
:10435000B04207D0B84205D0604503D0484501D0EF
:10436000504506D122F00808CA6842EA080222F045
:104370000402A84209D0B04207D0B84205D0604537
:1043800003D0484501D0504505D14D6923F4407311
:104390001D438B692B43436084614968416302621A
:1043A000BDE8F0878FFFFEFF002C01400034014084
:1043B00000400140004401400048014000500140DD
:1043C000F0B5056A026A22F010020262426883694F
:1043D0001C4C1E4E23400C6823F4407343EA042413
:1043E00025F020038D681A4F43EA0513164DA842A5
:1043F00003D0B04201D0B84207D1D1F80CC023F0AD
:10440000800343EA0C1323F04003A8420CD0B042CF
:104410000AD0104DA84207D00F4DA84204D00F4D2E
:10442000A84201D0B84207D14D6922F4406242EA65
:1044300085028D6942EA8502426084614968816330
:104440000362F0BDFF8FFFFE002C014000340140ED
:10445000005001400040014000440140004801403C
:10446000F0B5056A026A22F4807202624368C2698A
:104470001C4C1E4E22400C6822F00302144325F40B
:1044800000728D681A4F42EA0522174DA84203D0E8
:10449000B04201D0B84207D1D1F80CC022F400627A
:1044A00042EA0C2222F48062A8420CD0B0420AD028
:1044B000104DA84207D0104DA84204D00F4DA8427D
:1044C00001D0B84207D14D6923F4405343EA0513A4
:1044D0008D6943EA05134360C4614968C1630262A0
:1044E000F0BD00008FFFFEFF002C014000340140B2
:1044F000005001400040014000440140004801409C
:10450000F0B5056A026A22F4805202624268C36909
:104510001C4C1E4E23400C6823F4407343EA0424D1
:1045200025F400538D681A4F43EA0533164DA8420F
:1045300003D0B04201D0B84207D1D1F80CC023F467
:10454000004343EA0C3323F48043A8420CD0B0422A
:104550000AD0104DA84207D00F4DA84204D00F4DED
:10456000A84201D0B84207D14D6922F4404242EA44
:1045700085128D6942EA85124260C461496801640E
:104580000362F0BDFF8FFFFE002C014000340140AC
:1045900000500140004001400044014000480140FB
:1045A00030B5056A026A22F4803202624268036D05
:1045B000124C23400C681C4325F400330D8943EA58
:1045C00005430F4DA8420ED00E4DA8420BD00E4D04
:1045D000A84208D00D4DA84205D00D4DA84202D0EA
:1045E0000C4DA84204D14D6922F4803242EA0522E2
:1045F0004260046549688164036230BD8FFFFEFF3D
:10460000002C0140003401400040014000440140C2
:10461000004801400050014030B5046A026A22F4AB
:10462000801202624268036D134D24F400142B4083
:104630000D6843EA05230D8944EA05540F4DA8424D
:104640000ED00F4DA8420BD00E4DA84208D00E4DF3
:10465000A84205D00D4DA84202D00D4DA84204D16C
:104660004D6922F4802242EA85224260036549684E
:10467000C164046230BD0000FF8FFFFE002C0140CA
:104680000034014000400140004401400048014026
:104690000050014010B5036A046A24F0010404626A
:1046A000846924F0F00444EA021423F00A020A4365
:1046B0008461026210BD10B5036A046A24F010041C
:1046C0000462846923F0A00324F4704444EA0232B3
:1046D00043EA01118261016210BD000010B50A4673
:1046E000024903A000F0D4FA004810BDC8240020FD
:1046F00043444320436F6E66696700002DE9F04133
:104700000C46D0F8C422D0F8BC12E9B104EB840600
:1047100000EB86050027AB693BB102EBC602126ACB
:10472000B3FBF2F602FB163282B1C1F81472D0F874
:10473000C00203692BB1D1F80802224601F50471C9
:1047400098470020BDE8F0810320FBE700231A46CC
:104750002146AF6100F084FCF3E770B5D0F8BC42AD
:1047600005466CB100F073FBC4F80C02D5F8C0121A
:10477000D4F80402CA6804F503719047002070BDA4
:10478000032070BD70B50446812100F0CDFA0025EC
:1047900025870121204600F0C7FAA4F8785182212C
:1047A000204600F0C1FAA4F84C50A4F84E50D4F8BA
:1047B000BC0248B1D4F8C00204F52F7440688047A9
:1047C000206800F03CFE2560002070BD12200880AB
:1047D000004870474400002010B5D0F8BC4284B1B6
:1047E000D0F8C01259B194F80002FF2807D08B68A6
:1047F00094F8012221469847FF2084F80002002007
:1048000010BD032010BD00000A2101800048704740
:104810001C01002043210180004870476C010020EA
:104820004321018000487047280100204321018076
:1048300000487047B00100202DE9F04704464FF4CE
:10484000077000F0FDFD05004FF0000735D0C4F8FB
:10485000BC52207C4FF010084FF40079012680B341
:10486000402302228121204600F047FB2687402377
:1048700002220121204600F040FBA4F87861A4F850
:104880004E80082303228221204600F036FBA4F844
:104890004C60D4F8C00200688047C5F81472C5F8AF
:1048A0001872207CD5F80422A8B1402301212046AB
:1048B00000F02FFB0020BDE8F0870220C4F8BC7296
:1048C000F9E7FFE74B4602228121204600F015FB65
:1048D00026874B46CCE74B46E8E7000010B50A4672
:1048E000024903A000F0D4F9004810BDC8240020FC
:1048F00043444320496E746572666163650000003D
:1049000004200880004870474000002010B50A4687
:10491000024903A000F0BCF9004810BDC8240020E3
:1049200053544D6963726F656C656374726F6E6921
:104930006373000010B50A46024903A000F0A8F90D
:10494000004810BDC824002053544D33322056690E
:10495000727475616C20436F6D506F72740000004B
:1049600010B5D0F8BC1251B1027C002AD1F8042253
:1049700007D04023012100F0CCFA002010BD032015
:1049800010BD4FF40073F5E719B1C0F8C012002054
:10499000704703207047000010B51A2008800A48AD
:1049A0000168001D0468001D0068081809D008226D
:1049B0000649FEF7D7FD0549042210312046FEF7CF
:1049C000D1FD0248801E10BD9075FF1F5A000020C7
:1049D000D0F8BC0218B1C0F80412002070470320C0
:1049E0007047D0F8BC0228B1C0F81022C0F80812F5
:1049F00000207047032070472DE9FC410646D0F89F
:104A0000BC7200200C468DF80000ADF8040005468D
:104A100037B1207810F0600128D0202944D102E07D
:104A20000320BDE8FC81E288C2B1000660780AD5A7
:104A3000D6F8C0128B6839469847E288072A00D911
:104A40000722394628E087F80002A07987F801029A
:104A5000E2883946304600F06CF82AE0D6F8C012F9
:104A6000607800228B682146984722E0607830B158
:104A700001281ED00A2809D00B2815D110E096F87D
:104A80009C02032810D1022201A905E096F89C029D
:104A9000032809D101226946304600F064F808E095
:104AA00096F89C02032804D02146304600F036F8E0
:104AB00003252846B5E710B5D0F8BC12012219B17C
:104AC000D1F8143213B10FE0032010BD0122C1F858
:104AD0001422D1F81022C262D1F81032D1F8082283
:104AE000812100F0BDFA0022104610BD10B5D0F8AB
:104AF000B8220AB152689047002010BD134610B585
:104B00000A46002100F005FA002010BD134610B53A
:104B10000A46002100F0A4FA002010BD10B504469A
:104B2000802100F082FA2046BDE81040002100F00C
:104B30007CBA10B50323C0F89432C0F8582113464C
:104B4000C0F85C210A46002100F0E3F9002010BD06
:104B500010B50521C0F8941200231A46194600F03A
:104B6000D8F9002010BD10B50223C0F8943282613C
:104B70001346C2610A46002100F072FA002010BDFF
:104B800010B50421C0F8941200231A46194600F00B
:104B900067FA002010BDF8B504460020ADF800000B
:104BA00048880D46010A062947D006DC01290FD0A6
:104BB000022912D0032962D11DE0072946D00F290E
:104BC0005DD1D4F8B402C26920E0694690473BE069
:104BD000D4F8B412207C0A68F7E7207C022600286B
:104BE000D4F8B80205D0C16A6846884701464670C5
:104BF00036E0816AF8E7C0B2062840D2DFE800F06C
:104C000003090D111519D4F8B4024268B2B3207C1F
:104C1000DBE7D4F8B4028268F8E7D4F8B402C268DB
:104C2000F4E7D4F8B4020269F0E7D4F8B4024269B8
:104C3000ECE7D4F8B4028269E8E7207CF0B9D4F854
:104C4000B802416B68468847014609E0207CA8B954
:104C5000D4F8B802016B68468847014607204870BF
:104C6000EA888AB1BDF8000040B1824200D902460C
:104C7000ADF800202046FFF776FFF8BDFFE7294694
:104C80002046FFF74BFFF8E72046FFF779FFF4E7F0
:104C900070B5002300281ED00025044602E06D1CDC
:104CA000EDB2641C2678002EF9D1022404EB4504F1
:104CB00014801278CA545B1C0322CA5400245B1C63
:104CC00006E0CA545B1CDAB28C54521CD3B2401CAE
:104CD0000278002AF5D170BD01004FF0000004D029
:104CE000012901D0022901D003207047012070471B
:104CF00078B10023C0F8B832C0F8C032C0F8CC3266
:104D000009B1C0F8B412012180F89C12027000F0C1
:104D1000A3B80320704710B5D0F8C402FCF70AFF0F
:104D2000BDE81040FFF7D8BF10B5D0F8C402FCF7BB
:104D3000DCFEBDE81040FFF7CFBF70B51646044655
:104D400021B194F89C02032841D048E0D4F8941291
:104D500004F114000025022932D1D0E902318B423E
:104D600006D95A1A826031462046FFF7CFFE0FE07F
:104D7000994214D14068884211D3D4F898128842DD
:104D80000DD2002211462046FFF7C0FEC4F898520B
:104D900000231A461946204600F0BBF810E094F8AC
:104DA0009C02032805D1D4F8B802C16809B1204695
:104DB00088478021204600F038F92046FFF7C8FEDA
:104DC00094F8A00201280AD184F8A05207E0D4F890
:104DD000B80242691AB120469047002800D100204D
:104DE00070BD10B51346044621B194F89C02032807
:104DF00023D02AE0D4F8941204F5AA70032924D110
:104E0000D0E9021291420AD98A1A8260C0688242AD
:104E100000D3024619462046FFF770FE15E094F8CD
:104E20009C02032805D1D4F8B802016909B12046D3
:104E300088472046FFF7A4FE07E0D4F8B80282694D
:104E40001AB120469047002800D1002010BDD0F8AC
:104E5000C402FDF7AAB8000010B51E490446C1F807
:104E6000D802C0F8C4121C4808600820087102204B
:104E70004871C8710020087248728872C87208466A
:104E8000FDF7CAF908B1FBF713FC0022D4F8C402FD
:104E90001823114604F53174FCF7F6FD582300225F
:104EA00080212068FCF7F0FDC023002281212068CA
:104EB000FCF7EAFD4FF48873002201212068FCF71B
:104EC000E3FD4FF48073002282212068FCF7DCFDB3
:104ED000002010BD1C1F0020005C00400A0601F0ED
:104EE0007F01D0F8C40201EB810100EBC10001D5C4
:104EF000807C704790F85201704710B51C461346ED
:104F0000D0F8C4022246FDF759F8BDE81040FFF77B
:104F1000E3BE10B5D0F8C402FDF77CF8BDE8104040
:104F2000FFF7DABE70B50125044680F89C520020D8
:104F3000C4F894026060C4F8A402D4F8B802E0B1E6
:104F4000D4F8BC1221B1426812B10021204690472A
:104F50000022402311462046FFF7CFFF4026A4F849
:104F600064513346002280212046C4F86061FFF777
:104F7000C4FFA5840020266270BD032070BD90F898
:104F80009C12042903D190F89D1280F89C120020F5
:104F9000704710B5D0F8B81221B190F89C22032ABE
:104FA00002D004E0032010BDC96901B18847002088
:104FB00010BD01740020704710B5D0F8C402FDF791
:104FC000D1F9BDE81040FFF787BE70B5044600F286
:104FD000AA20054600F04DF80120C4F89402B4F868
:104FE000B002C4F8980294F8AA0210F01F010AD087
:104FF00001290ED0022912D000F080012046BDE820
:10500000704000F012B829462046BDE8704000F01C
:10501000C3B829462046BDE8704000F0E7B92946EC
:105020002046BDE8704000F041B910B5D0F8C40288
:10503000FDF707F8BDE81040FFF74EBE10B5D0F8F9
:10504000C402FDF7A9F9BDE81040FFF745BE90F88E
:105050009C1280F89D12042180F89C120020704759
:1050600010B5D0F8C402FDF71BF8BDE81040FFF7FB
:1050700033BE70B5054611F8010B287008786870CA
:105080004C1C2046FEF755FF6880A41C2046FEF706
:1050900050FFA880A01CFEF74CFFE88070BD38B51B
:1050A00004460020ADF8000049B1C4F8B812C96A3E
:1050B00019B168468847C4F8CC02002038BD0320E7
:1050C00038BD02460320D2F8B832002B02D01B684C
:1050D00010461847704700002DE9F0410F462C4E4E
:1050E0008978002504463170012906D939462046C1
:1050F000FFF714FD0320BDE8F08194F89C0202281C
:105100000CD003281DD039462046FFF707FD317823
:105110002046FFF7EBFC03252846ECE799B3204631
:105120006160FFF7CEFF050004D039462046FFF747
:10513000F5FCF1E72046FFF723FD032084F89C02ED
:10514000EAE74FF00208C1B1606888421BD0C1B2E3
:105150002046FFF7CBFC317820466160FFF7B1FFB6
:10516000050010D039462046FFF7D8FC21792046AB
:10517000FFF7BCFC84F89C82CEE784F89C82204632
:105180006160FFF7B3FC2046FFF7FAFCC4E70000BC
:1051900018010020FFF752BF2DE9F0410A780025E1
:1051A00012F0600208D0202A01D0402A71D1D0F834
:1051B000B8229268904731E04B78002201260A2BF2
:1051C00067D2DFE803F0415E6658660805662D2960
:1051D000FFF7E1FC5FE004468888D8B9C888C8B901
:1051E0004888802816D200F07F0794F89C02032894
:1051F00010D084F89E7239462046FFF7DDFE204627
:10520000FFF7BEFC1FB1022084F89C0243E084F843
:105210009C6240E020463CE0FFF75EFF05463AE036
:10522000CB88012B35D190F89C32012B04D0022B76
:1052300002D0032B2DD104E08260012200F108018D
:1052400016E00122011D13E090F89C22012A03D0F0
:10525000022A01D0032A1CD1CA88022A19D1C660A9
:10526000D0F8A41209B10321C160022200F10C019F
:10527000FFF779FC0FE0498801290CD1C0F8A4623E
:1052800011E090F89C32012B08D0022B06D0032BA2
:1052900004D0FFF743FC2846BDE8F0814988012986
:1052A000F9D1C0F8A422FFF76BFCF4E72DE9F04137
:1052B0000D46044628780026097910F060000BD0CE
:1052C000202801D040286DD1D4F8B8022946826840
:1052D00020469047064686E06878A8B3012822D089
:1052E00003287CD194F89C02022802D0032876D1AE
:1052F0000BE0002973D0802971D02046FFF795FE7E
:1053000080212046FFF791FE6DE0688838B931B101
:10531000802904D0E88810B92046FFF786FE204691
:10532000FFF72EFC5FE094F89C020228E1D00328EE
:1053300055D16888A8BB480602D02046FFF7EBFC91
:105340002046FFF71DFCBFE7FFE794F89C0200270B
:10535000022802D0032842D111E009B180293ED1B0
:10536000080601F07F0000EB800004EB800101D50E
:10537000143101E001F5AA7102220F602BE008064A
:1053800001F00F0000EB800004EB80000BD5808C57
:1053900040B101F07F0000EB800004EB8005143584
:1053A0000CE020E01BE0B0F86401C0B101F07F0028
:1053B00000EB800004EB800505F5AA7541B180295A
:1053C00006D02046FFF78AFD10B10120286000E0DA
:1053D0002F60022229462046FFF7C5FB03E029463D
:1053E0002046FFF79BFB3046BDE8F08170B50646CE
:1053F000087800240D4610F0600003D0202801D06A
:10540000402817D196F89C02012803D0022801D029
:1054100003280FD1287901280CD8D6F8B802826861
:10542000304690470446E888204306D13046FFF7CF
:10543000A7FB02E03046FFF771FB204670BD7047C6
:1054400000487047FC1C00202DE9F0470C7800262E
:1054500030F8243048F68F121340CA78002A78D0EA
:10546000012A7CD0022A02D0032A75D0012648F2F4
:105470008002134320F824300D7830F8253048F6A8
:105480008F7423402B43134320F825300D7B48F2C3
:10549000C00948F6BF734CF2800A4BF68F77EDB324
:1054A000CD7891F800C0022D30F82C507DD048F610
:1054B0008F6805EA0805154320F82C50B0F85050C5
:1054C00091F800C0054405EBCC05B1F808C02CF0FC
:1054D000010CA5F800C4B0F8505091F800C0054484
:1054E00005EBCC05B1F80AC02CF0010CA5F804C4FA
:1054F0004D78002D7ED00D7830F825C05FEA4C4CF9
:1055000007D530F825C00CEA040C4CEA0A0C20F848
:1055100025C091F800C030F82C5000E022E06D0664
:1055200006D530F82C50254045EA090520F82C50C6
:10553000CC780D78012C30F8254004EA03047CD0A7
:1055400084F02003134320F82530C1E001E006E099
:1055500002E043F400738AE743F4C06387E743F44F
:10556000806384E74D784DB3B0F850500F78054410
:1055700005EBC705CF8827F00107A5F800740F7861
:1055800030F827506D0606D530F82750254045EAFB
:10559000090520F82750CC78012C07D00C7830F87A
:1055A0002410194081F0200104E064E00C7830F808
:1055B00024101940114320F8241090E0B0F8503026
:1055C0000D78034403EBC503CD8825F00105A3F84E
:1055D0000454B0F850300D78034403EBC503B3F81E
:1055E0000654C5F30905A3F806540D6903F20643F2
:1055F0003E2D00E045E00BD94FEA551CED0601D1E8
:10560000ACF1010C1D884FF4004848EA8C2C0BE0EB
:1056100035B34FEA550CED0701D00CF1010C1D8894
:105620004FF6FF7808EA8C2C45EA0C051D800D78B2
:1056300030F825305B0408D500E046E030F825302E
:10564000234043EA0A0320F82530097861B130F895
:1056500021303B4083F40053134320F821303EE0D7
:105660001D8845F40045E1E70188394081F4405147
:105670001143018033E0254048F2801845EA0805CF
:105680001AE791F800C030F82C506D0406D530F8B8
:105690002C50254045EA0A0520F82C5091F800C00E
:1056A00030F82C506D0606D530F82C50254045EAD0
:1056B000090520F82C500D7830F825403C4084F442
:1056C0004054144320F8254070E7144320F8254047
:1056D0000B7830F823103940114320F8231030465E
:1056E000BDE8F0872DE9F04391F80C804F780A78F7
:1056F00048F6BF7C4BF68F7948F2800348F2C0052C
:105700004CF2800648F68F74B8F1000F28D0002FB5
:1057100030F822704FEA474748D0002F05DA30F8BA
:1057200022702740374320F822700A7830F8227020
:105730007F0605D530F8227027402F4320F82270CD
:105740000D7830F825202240324320F825200C78AF
:1057500030F8242002EA0C021A4320F824201AE030
:105760007FB130F82260760605D530F822602640F9
:105770002E4320F822600A7830F8221001EA0C014A
:105780000EE030F822506D0405D530F82250254047
:10579000354320F822500A7830F8221001EA090136
:1057A000194320F822100020BDE8F083002F05DA0D
:1057B00030F822702740374320F822700A7830F8FA
:1057C0002260760605D530F8226026402E4320F868
:1057D00022600E7830F8262022402A4320F8262026
:1057E0000C7830F8242002EA09021A4320F8242019
:1057F000C1E730F8581F41F4004101800020704794
:10580000012120F8401F002101808180018208468B
:10581000704730F8401F4BF68072914301800020A2
:10582000704730B50A7BB2BB4A7848F68F7548F2AC
:105830008004C2B10B7830F82320520607D530F827
:1058400023202A4048F2C0052A4320F82320CA78A2
:10585000012A20D00A7830F8221048F6BF73194088
:1058600081F0200114E00A7830F822305B0407D57B
:1058700030F822302B404CF280052B4320F82230A8
:105880000A7830F822104BF68F73194081F440519A
:10589000214320F82210002030BD10B54A78097845
:1058A000002A48F2800330F8212005D048F6BF7462
:1058B000224082F0100204E04BF68F74224082F402
:1058C00080521A4320F82120002010BD2DE9F04716
:1058D0000D464B78097B04464FF0000948F68F725D
:1058E00048F2800A4FF400474FF6FF78012B09D0A9
:1058F00000296FD0E87802286DD001286CD00120F3
:10590000BDE8F087AE692869864200D9064691B1A4
:10591000E97802291ED0286A801B2862287834F88A
:1059200020104906B4F85010214401EBC00073D593
:10593000A0F8066416E1B3B2EA882046696900F06F
:1059400063FAB4F850002978204400EBC100A0F8B5
:1059500002640DE1296A814277D9297834F821005F
:10596000104048F28012104324F82100286A801B5E
:105970002862287834F820104906697871D511B169
:1059800001292AD030E0B4F85010214401EBC000C6
:10599000B0F80614C1F30901A0F8061400F206409D
:1059A0003E2E07D97109F20600D1491E028847EA46
:1059B000812107E04EB17108F20700D0491C02882E
:1059C00008EA81210A4302800EE0018841F4004187
:1059D000018009E0F1E020E195E1B4F850201119CF
:1059E00001EBC000A0F806646A89B3B22046696979
:1059F00000F00AFA6869304468612969286A8842B7
:105A000002D9801B286202E00646C5F8209068781B
:105A100018B101282BD032E02FE0B4F850002978DB
:105A2000204400EBC100B0F80214C1F30901A0F852
:105A3000021400F202403E2E08D97109F20600D18C
:105A4000491E028847EA812108E0A1E056B17108A9
:105A5000F20700D0491C028808EA81210A4302802B
:105A60000DE00EE0018841F40041018007E0B4F848
:105A700050002978204400EBC100A0F802642A8974
:105A800071E011B1012927D02DE0B4F85010214464
:105A900001EBC000B0F80214C1F30901A0F8021430
:105AA00000F202403E2E07D97109F20600D1491ECC
:105AB000028847EA812107E04EB17108F20700D061
:105AC000491C028808EA81210A4302800BE0018810
:105AD00041F40041018006E0B4F85010214401EB8C
