:020000040800F2
:10000000184B0020E10100082F2E0008792B000872
:100010002D2E00089F0F0008974E000800000000DA
:10002000000000000000000000000000490100087E
:1000300011100008000000008D010008753600084E
:10004000FB010008FB010008FB010008FB010008A0
:10005000FB010008FB010008FB010008FB01000890
:10006000FB010008FB010008FB010008FB01000880
:10007000FB010008FB010008FB010008FB01000870
:10008000FB010008FB010008FB010008FB01000860
:10009000214E0008FB010008FB010008FB010008DD
:1000A000FB010008FB010008FB010008FB01000840
:1000B000FB010008FB010008FB010008FB01000830
:1000C000FB010008FB010008FB010008FB01000820
:1000D000FB010008FB010008FB010008FB01000810
:1000E000FB010008FB010008FB010008FB01000800
:1000F000FB010008FB010008FB010008FB010008F0
:10010000FB010008FB010008FB010008FB010008DF
:10011000FB010008FB010008FB0100081D37000877
:10012000FB010008FB010008FB010008FB010008BF
:10013000DFF810D000F0A2FC00480047B5580008D6
:10014000AFF30080184B0020224B19680868B0E814
:10015000F00F80F30988BFF36F8F4FF0000080F33A
:1001600011884EF00D0E7047000000000648006830
:10017000006880F3088862B661B6BFF34F8FBFF3A3
:100180006F8F00DF00BF00BF08ED00E0EFF30980D4
:10019000BFF36F8F0F4B1A6820E9F00F106008B59E
:1001A0004FF0500080F31188BFF34F8FBFF36F8F74
:1001B00006F074FC4FF0000080F31188BDE80840A1
:1001C00019680868B0E8F00F80F30988BFF36F8FF3
:1001D000704700BF90010020EFF3058070470000DA
:1001E0000648804706480047FEE7FEE7FEE7FEE7D1
:1001F000FEE7FEE7FEE7FEE7FEE7FEE71937000849
:1002000031010008202A04DB203A21FA02F0002103
:10021000704721FA02F3D040C2F120029140084316
:100220001946704740EA01039B0703D009E008C95B
:10023000121F08C0042AFAD203E011F8013B00F8AB
:10024000013B521EF9D27047D2B201E000F8012BF7
:10025000491EFBD270470022F6E710B513460A4646
:1002600004461946FFF7F0FF204610BD421C10F867
:10027000011B0029FBD1801A7047F0B480EA01020B
:10028000D40F4200B2EB410F02D20246084611469B
:100290004A0042D0C30DDDB2C1F3C752AD1A202DC2
:1002A00035DAC1F3160141F4000204B15242C5F13E
:1002B000200602FA06F12A411044B3EBD05F23D0A6
:1002C000C4B1012DA0EBC35009DCF0BC4FF00042DB
:1002D00002EAC352DBB200F5000000F014BB40009C
:1002E00000F1807000EBC350A0F1807040EAD17043
:1002F000490009E0490841EAC071A0EBC35000F58C
:100300000000400800EBC350F0BC00F0F3BA6142BB
:10031000012202EB4101001BF6E7F0BC704781F0BF
:100320000041AAE780F00040A7E780EA010210B58B
:1003300002F00043400022D04A001FD0010E01EB22
:100340001261C0F35600C2F3560240F4000042F4BA
:100350000002A0FB022000047F39140400D0401CDE
:1003600050EA124001D44000491EC2B20C0604EB10
:10037000D010401C4008802A02D003E0002010BDAD
:1003800020F00100002900DA0020184310BD30B42D
:1003900080EA010202F0004530F0004221F0004006
:1003A00013D090B1C30DD40DC2F31601C0F31600E3
:1003B000E41A41F4000140F400027D34914201D37B
:1003C000641C00E04900002C02DA30BC00207047B9
:1003D0004FF400000023914201D3891A03434008DF
:1003E0004FEA4101F7D151B1914202D14FF00041A2
:1003F00005E002D24FF0010101E06FF0010103EBD3
:10040000C450284430BC00F075BA2DE9FE4F804638
:1004100081EA0300C00F0C46009021F0004123F058
:100420000045B8EB0200A94105D24046214690465E
:100430001C460B46024623F00040104347D0270DD0
:10044000C7F30A00C3F30A510290401A01904028F2
:100450006BDAC3F3130040F4801B0098924620B17E
:100460000023D2EB030A63EB0B0B01985946C0F152
:100470004002504600F01DFA06460D4650465946C9
:10048000019A00F025FA10EB08006141002487EA88
:10049000115284EAE7731A4340D0009A62B3019A7A
:1004A000012A4FEA075215DC001B61EB02014FF0F5
:1004B000004202EA0752CDE90042001C41F58011DA
:1004C00032462B4600F05CFA03B0BDE8F08F4046A0
:1004D0002146F9E7001B61EB0201001C41F5801386
:1004E00000185B412018A2F5001747EB030140EA12
:1004F000D570B6196D4111E06D084FEA360645EA30
:10050000C0754FEA0752001B61EB0201001C41F568
:10051000801149084FEA30000019514132462B46FC
:1005200003B0BDE8F04F00F01CBA00980122400073
:100530000023D0EB020263EBE073009821464FEA00
:10054000E074B8EB000061EB0401E9E783F00043DD
:100550005BE781F0004158E72DE9FE4F81EA030493
:1005600004F0004421F0004100944FF0000B23F010
:10057000004350EA01045ED052EA03045BD0C3F3A7
:100580000A54C1F30A552C44A4F2F3340194A0FB9D
:100590000254C1F3130141F48011C3F3130343F474
:1005A000801301FB024400FB034E840A970A44EACD
:1005B000815447EA8357A4FB076802958D0A05FB1F
:1005C00007854FEA932C04FB0C542705029D4FEA44
:1005D000065847EA1637B5EB08056EEB070C870E91
:1005E000920E47EA811742EA8312A7FB0201B6EB9B
:1005F0000B0164EB00042B0D43EA0C335E1844EB53
:100600001C50DA465146E7FB0201C5F313044FEADA
:100610000B3343EA14534FEA0432019C43EA0603C6
:10062000A4F10C040294009CCDE900B400F0A8F9F8
:1006300003B0BDE8F08F00200146F9E72DE9F04D49
:1006400081EA030404F0004B21F0004514464FF00A
:10065000000A23F0004150EA050220D054EA0102CA
:100660001DD0C5F30A570246C5F31303C1F31300A7
:10067000C1F30A5640F4801543F48013A7EB060833
:10068000101BD64608F2FD3873EB050002D308F1C3
:10069000010801E092185B41B8F1000F03DA002075
:1006A0000146BDE8F08D00204FF4801106468446D7
:1006B0000EE0171B73EB050705D3121B63EB050355
:1006C00006434CEA010C49084FEA300092185B419E
:1006D00050EA0107EDD152EA030012D082EA040089
:1006E00083EA0501084305D0101BAB4106D2012265
:1006F000002306E000224FF0004302E06FF0010209
:1007000053101AEB06004CEB085110EB0A0041EBBA
:100710000B01BDE8F04D00F024B970B521F00043A5
:1007200003430CD0C1F30A550024D5EB040564EB58
:100730000403D617AD1AB34102DB0020014670BD99
:10074000201841EB025170BDC10F80EAE0700844EF
:10075000CA079623002100F0D6B80EB5C10F80EA73
:10076000E0700844CA07002140F233438DE80E00D0
:100770000A460B4600F004F903B000BD0EB540F286
:10078000334102910021CDE900110A460B4600F0E9
:10079000F7F803B000BD00F0004230F000400AD08E
:1007A000C10D01F56071C0F3160042EA0151C208A3
:1007B00040071143704700200146704730B5041EC2
:1007C00071F1000404DB4FF00044404264EB01018E
:1007D000141E73F1000405DB1C464FF00043524227
:1007E00063EB04038B4208BF824230BD01F000433B
:1007F00030B421F0004150EA010206D00A0DA2F502
:100800006072C1F31301002A02DC30BC0020704783
:10081000440F44EAC104C100E01830BC00EBC250F0
:1008200000F068B830B50B460146002020220124B4
:1008300009E021FA02F59D4205D303FA02F5491BAE
:1008400004FA02F52844151EA2F10102F1DC30BDC4
:100850002DE9F05F0546002092469B4688460646F5
:10086000814640241BE02846414647462246FFF782
:10087000C9FC53465A46C01A914110D31146184636
:10088000224600F016F82D1A67EB01084F46224663
:100890000120002100F00DF817EB00094E41201E49
:1008A000A4F10104DFDC484631462A464346BDE850
:1008B000F09F202A04DB203A00FA02F10020704762
:1008C0009140C2F1200320FA03F31943904070478E
:1008D000202A06DBCB17203A41FA02F043EAE07304
:1008E00006E041FA02F3D040C2F1200291400843F1
:1008F000194670470029A8BF7047401C490008BF2F
:1009000020F00100704710B4B0FA80FC00FA0CF03F
:1009100050EA010404BF10BC704749B1CCF1200477
:1009200021FA04F411FA0CF118BF01212143084304
:10093000A3EB0C01CB1D4FEA00614FEA102042BF30
:10094000002010BC704700EBC35010440029A4BF26
:1009500010BC7047401C490008BF20F0010010BCCB
:10096000704710B5141E73F1000408DA401C41F101
:10097000000192185B411A4301D120F0010010BD23
:100980002DE9F04D92469B4611B1B1FA81F202E099
:10099000B0FA80F220329046FFF78BFF04460F46F4
:1009A00040EA0A0041EA0B0153465A46084313D075
:1009B000114653EA010019D0C8F140025046FFF732
:1009C00021FC05460E46504659464246FFF771FF48
:1009D000084305D0012004E020463946BDE8F08DEB
:1009E0000020054346EAE0762C4337430A98630526
:1009F000E40AA0EB08000022FD0A44EA47540A304A
:100A000002D500200146E9E7010510196941DDE939
:100A1000084500196941BDE8F04DA2E7C1F30A524B
:100A2000C1F3130140F2FF3341F480119A4202DA1C
:100A300000200146704740F233439A42A2F233420B
:100A400002DC5242FFF7DEBBFFF733BF30B5041EB6
:100A500071F1000404DB4FF00044404264EB0101FB
:100A6000141E73F1000405DB1C464FF00043524294
:100A700063EB0403994208BF904230BD064C074D1A
:100A800006E0E06840F0010394E80700984710345E
:100A9000AC42F6D3FFF750FBF46E0008146F000869
:100AA0002DE9F04D00231A461B1A8A4103DB002072
:100AB0000146BDE8F08DC1F30A52C1F3130141F4C0
:100AC00080154FF0000BD10702D100186D41521E66
:100AD0000027044640F2FF11384601EB620A3E4609
:100AE0008046024600204FF48011FFF78BFBC219AD
:100AF0007141BB1846EB0100B4EB030C75EB000C25
:100B000004D3E41A65EB000517460E46241908F1D4
:100B100001006D4180463428E3DDF91946EB0600FB
:100B2000091BA84103D24FF0FF32134601E0002217
:100B300013461BEB070046EB0A51BDE8F04DFFF7EB
:100B400010BF70B58C1810F8015B15F0070301D1C8
:100B500010F8013B2A1106D110F8012B03E010F820
:100B6000016B01F8016B5B1EF9D12B0705D4002343
:100B7000521E0DD401F8013BFAE710F8013BCB1AE5
:100B8000921C03E013F8015B01F8015B521EF9D5DA
:100B9000A142D8D3002070BD10B50446B622E02192
:100BA00000F0D3F90A2000F037FA204600F04AF8A6
:100BB00068B9A07A58280AD1204600F011F830B957
:100BC000032305220221204600F0E1F908B10120AB
:100BD00010BD20460122BDE81040022100F0D0B92E
:100BE00010B586B0044618236A46882100F08CF9B7
:100BF00010B1012006B010BDBDF80000A081BDF805
:100C00000200E081BDF804002082BDF80600608289
:100C1000BDF80800A082BDF80A00E082BDF80C0013
:100C20002083BDF80E006083BDF81000A083BDF8DE
:100C30001200E083BDF814002084BDF81600608423
:100C40000020D7E738B5044601236A46D02100F0DA
:100C50005BF99DF80010A17238BD00002DE9F04F3E
:100C60008BB00446062309AAF72100F04DF90028AD
:100C70007ED19DF824009DF82510000340EA011064
:100C80009DF8261040EA111007909DF827009DF866
:100C90002810000340EA01109DF82910A28940EABB
:100CA0001110C110A1EB4201C2EB2010B4F90E30BB
:100CB0004043B4F9102059430013C912504301EBCB
:100CC000A03505EB8500803000126562FFF73CFD22
:100CD0008449FFF75CFBA0622846FFF73EFD4FF01A
:100CE000FF32FFF71AFD00227F4BFFF72FFC05466E
:100CF0000E46B4F91C00FFF730FD80460F462A4629
:100D0000334610461946FFF727FC42463B46FFF79D
:100D100023FC6FF00E02FFF700FD07468946B4F989
:100D20001A00FFF71AFD2A463346FFF715FC012289
:100D3000FFF7F3FC3A464B46FFF767FB82468946CE
:100D4000B4F91800FFF709FD1022FFF7E6FC07468B
:100D500088466FF0010250464946FFF7DEFC3A46EE
:100D60004346FFF752FB82468B46B4F9140000E07D
:100D70003BE0FFF7F2FC2A463346FFF7EDFB074660
:100D80008946B4F91600FFF7E8FC2A463346FFF718
:100D9000E3FB2A463346FFF7DFFB6FF012052A46D6
:100DA000FFF7BBFC3A464B46FFF72FFB2A46FFF7FF
:100DB000B4FC80460E46608AFFF7E0FC07460D460D
:100DC0006FF00E0240463146FFF7A7FC0022474B6A
:100DD000FFF71BFB3A462B46FFF7BEFB00220546FA
:100DE0000E461346FFF7EAFC03D101200BB0BDE825
:100DF000F08F0798FFF7B1FC00223D4BFFF7A9FBEE
:100E000080460F466FF00B0250465946FFF785FCAF
:100E100042463B46FFF79DFB0022364BFFF79CFB0B
:100E20002A463346FFF70AFC05460E46B4F922006F
:100E3000FFF793FC2A463346FFF78EFB2A463346DC
:100E4000FFF78AFB6FF01E02FFF767FC83460191F4
:100E5000B4F92000FFF781FC2A463346FFF77CFBFC
:100E60006FF00E02FFF759FC80460F46B4F91E00E2
:100E7000FFF773FC81468A4642463B465846019935
:100E8000FFF7C3FA4A465346FFF7BFFA6FF0030273
:100E9000FFF743FC2A463346FFF7B7FAFFF7A6FCF5
:100EA0001049FFF774FAE062FFF775FC0022124B5D
:100EB000FFF7C4FB4FF0C042104B04F045FD002289
:100EC0000A4BFFF746FB00220D4BFFF745FBFFF7F0
:100ED0008DFC20630B49E06AFFF759FAE0620020BD
:100EE00084E700000000C8420040EF400000F03FEF
:100EF00000003041006AB84000AA8F40955BC83FAF
:100F000040A5E54000002041F8B5044641F08000CE
:100F10008DF8000016461D4621890022606800F009
:100F200091F9642301226946206801F033FB6423B0
:100F30002A463146206801F083FA054621890122BC
:100F4000606800F07FF92846F8BD38B5044601F026
:100F50007F008DF800008DF8012021890022606853
:100F600000F070F9642302226946206801F012FB48
:100F7000054621890122606800F064F9284638BDE1
:100F8000520142EA8101CAB2F521FFF7DEBF4901F1
:100F900041EA82011943CAB2F421FFF7D6BFFEE746
:100FA000002070470020704710B500220449054812
:100FB00002F0FAFC0449034802F0F0FC002010BDE6
:100FC0002C0F0020680600202C0B002010B50146D5
:100FD000034802F0E3FC024802F0C4FC002010BD0C
:100FE00068060020094A10B5D2F8B822D2F81422B7
:100FF0000AB1012010BD0A460146044802F0D4FCA3
:10100000BDE81040014802F02DBD00006806002038
:10101000704772B6FEE7000070B5044600F018F99C
:101020000546601C02D004480078044400F010F922
:10103000401BA042FAD370BD0C0000202DE9F84FF0
:10104000DFF8C8910024A9F1040B23460F2709F10A
:10105000040AABF1040ED1E00125A54006EA050221
:10106000AA4276D1DFF8A8C14E68A6EB0C08664507
:101070002BD00DDC032E34D005DC36B3012E19D075
:10108000022E2FD11BE0112E16D0122E2AD119E0DC
:10109000B8F5881F19D006DCB8F5803F15D0B8F533
:1010A000801F1FD111E0B8F5001F0ED0B8F5041F46
:1010B00018D10AE0CB6815E0CB681B1D12E0CB68A5
:1010C00008330FE0CB680C330CE08B682BB1012B9D
:1010D0004FF0080303D0456104E0042302E00561FA
:1010E00000E00023FF2A01D8064601E000F10406D3
:1010F0004FEA840501D9A5F12005D6F8008007FA4A
:1011000005FC28EA0C0803FA05F548EA0508C6F8C4
:1011100000804D68ED0070D53E4DAE6946F0010689
:10112000AE61AD6924F0030605F0010500953A4D66
:1011300006EB050CDCF80850A607360F07FA06F890
:1011400025EA0805DFF8D480404503D14FF00008B8
:1011500025E052E0DFF8C880404502D14FF0010899
:101160001DE0DFF8C080404502D14FF0020816E0D4
:10117000DFF8B480404502D14FF003080FE0DFF8FC
:10118000AC80404502D14FF0040808E0DFF8A080B1
:10119000404502D14FF0050801E04FF0060808FA7B
:1011A00006F848EA0508CCF808804D68D9F80060D0
:1011B000ED024D4601D5164300E096432E604D6882
:1011C000DAF80060AD02554601D5164300E09643BB
:1011D0002E604D68DBF80060AD035D4601D5164317
:1011E00000E096432E604D68DEF80060ED03754622
:1011F00001D5164300E096432E60641C0A6816462B
:10120000E2407FF429AFBDE8F88F000008040140F8
:1012100000001110001002400000014000080140D1
:10122000000C014000100140001401400018014072
:10123000001C0140C26821EA02030A4043EA02415D
:10124000016170470AB1016170470904FBE70000C2
:1012500001488068704700000C0000200248816847
:1012600002781144816070470C000020074810B5D7
:10127000016841F010010160032000F0A7F80F2081
:1012800000F006F800F050F8002010BD00200240E9
:1012900030B505461F4887B0C16941F02001C161E2
:1012A000C06906A900F02000009001A800F050FEDF
:1012B0000498B0B100F06CFE40001749174AB0FB2B
:1012C000F1F11748491E0260416040F2E732002107
:1012D000C0E903218160816101F009FB040003D0B2
:1012E00015E000F055FEE8E70D4801F02FFB040083
:1012F0000DD1372000F03CF8102D07D200222946EE
:10130000372000F043F80748056000E0012407B0EB
:10131000204630BD0010024040420F000014004043
:1013200020060020100000200F4808B5816941F018
:1013300001018161816901F001010091C16941F000
:101340008051C161C069002200F0805000900F21DF
:10135000901E00F01BF80548416821F0E06141F063
:101360000071416008BD0000001002400000014013
:10137000002809DB00F01F02012191404009800094
:1013800000F1E020C0F8001170470000F0B40E4BEF
:101390001B680C46C3F30223C3F10705042D00D9D3
:1013A0000425191D072901D2002300E0DB1E0126B8
:1013B00006FA05F1491E214099409E40761E1640CE
:1013C0003143F0BC03F090BD0CED00E0064900F0A5
:1013D000070208684FF6FF03184040EA0220034A5C
:1013E00010430860704700000CED00E00000FA05B3
:1013F00010B50C0607D501F0070101EB810100EBE8
:10140000C100103005E001EB810100EBC10000F5E7
:10141000A87099B232B1012202730181190C418185
:10142000002010BD00220273C180F9E7704701EB74
:10143000810200EBC202D0F8D402526A02F0C1BCB1
:1014400001EB810200EBC202D0F8D402D2F8642191
:1014500002F01ABD70B504460B0601F0070000EB60
:10146000800104EBC1014FF001024FF0000502D5ED
:101470004A74103103E081F8515101F5A8710870E8
:1014800094F89002012808D084F89022206803F094
:101490005BF984F89052002070BD022070BD70B5D9
:1014A000044601F00F002279904201D9012070BD5D
:1014B0000B0601F0070000EB800104EBC1014FF0C7
:1014C00001024FF0000502D54A74103103E081F8A3
:1014D000515101F5A8718D70087094F8900201289F
:1014E00008D084F89022206803F0CBF984F8905259
:1014F000002070BD022070BD2DE9F05F04685FEA36
:10150000424C0B788D69B4F850C04FF000064BF692
:101510008F7948F2800A48F68F7B48F2C00E4FF46C
:1015200080672AD54FF0020808EBC308C44407EBD4
:101530004C07E45BC4F30904A54203D32D1B8D6162
:1015400001D00BE08E61066836F8235005EA0905E4
:1015500085F4005545EA0A0526F82350520609D5B8
:101560000D78036833F8252002EA0B0242EA0E02E6
:1015700023F8252084B30A8929E04FF0060808EBF8
:10158000C308C44407EB4C07E45BC4F30904A54259
:1015900003D32D1B8D6101D00BE08E61066836F8F8
:1015A000235005EA090585F4005545EA0A0526F8A1
:1015B0002350520609D40B78056835F8232002EA37
:1015C0000B0242EA0E0225F823202CB14A89496910
:1015D0000068234603F02EFC2046BDE8F09F2DE96D
:1015E000F05F054600680C465FEA426C16468B6960
:1015F0002278B0F850C048F68F774CF280094FF44B
:10160000004B4FF6FF7E4FF4806A4FF0000172D519
:101610004FF0020808EBC208E0440AEB480C30F82F
:101620000C00C0F30900834211D91B1AA3610FD02B
:10163000730407D52E6836F822303B4043EA09038D
:1016400026F8223094F82420012A47D052E1A161E3
:10165000607810B1012813D01AE02868B0F8503033
:10166000184400EB0210B0F80424C2F30902A0F8F9
:101670000424B0F8042442F40042A0F8042407E053
:101680002868B0F85030184400EB0210A0F8041499
:101690006278286812B1012A11D018E0B0F8501011
:1016A0000844217800EB0110B0F80C14C1F30901D3
:1016B000A0F80C14B0F80C1441F4004105E0B0F8A7
:1016C00050201044227800EB0210A0F80C1421786E
:1016D0002846FFF7ACFE700472D40BE16269024445
:1016E0006261E2690244E2612369226A9A4203D399
:1016F0001846111A04E03EE084F824100AB110469E
:101700002162617811B1012929D031E02968B1F84D
:1017100050201144227801EB0211B1F80424C2F3E5
:101720000902A1F8042401F204413E2807D9420924
:10173000C30600D1521E0B884BEA822207E048B153
:101740004208C30700D0521C0B880EEA82221343C2
:101750000B800DE00A8842F400420A8008E0296804
:10176000B1F850201144227801EB0211A1F80404D1
:1017700083B22289BAE04FF0060808EBC208E044C1
:101780000AEB480C30F80C00C0F30900834211D377
:101790001B1AA3610FD0730407D42E6836F82230C9
:1017A0003B4043EA090326F8223094F82420012A1A
:1017B00051D09FE0A161607818B1012814D01BE0DE
:1017C0003FE02868B0F85030184400EB0210B0F841
:1017D0000424C2F30902A0F80424B0F8042442F45B
:1017E0000042A0F8042407E02868B0F850301844FC
:1017F00000EB0210A0F804146278286812B1012AE4
:1018000011D018E0B0F850100844217800EB011016
:10181000B0F80C14C1F30901A0F80C14B0F80C14C2
:1018200041F4004105E0B0F850201044227800EB6C
:101830000210A0F80C1421782846FFF7F8FD700478
:1018400058D42278296831F82200384040EA09004B
:1018500021F822004EE0626902446261E2690244BA
:10186000E2612369226A9A4203D31846111A21625F
:1018700004E00AB11046216284F8241062782968D5
:1018800012B1012A28D02FE0B1F85020114422785B
:1018900001EB0211B1F80C24C2F30902A1F80C24E7
:1018A00001F20C413E2807D94209C30600D1521E5D
:1018B0000B884BEA822207E048B14208C30700D0F8
:1018C000521C0B880EEA822213430B800CE00A881C
:1018D00042F400420A8007E0B1F850201144227817
:1018E00001EB0211A1F80C04628983B261692868D6
:1018F00003F0BEFA2278296831F8220048F6BF7357
:10190000184080F0300048F28003184321F822008C
:101910000020BDE8F09F01F0070101EB810100EB21
:10192000C100D0F86C0170472DE9F04104460F0664
:1019300001F0070000EB800104EBC1014FF001064C
:101940004FF0000502D54E74103103E081F851517B
:1019500001F5A871022B08700A61CB7000D10D71DE
:1019600094F89002012809D084F89062206802F06F
:101970009BFD284684F89052BDE8F0810220FBE7E9
:1019800010B501F0070404EB840100EBC101C1E9CB
:1019900059230022C1F86C2181F8512181F850416E
:1019A000006801F5A87102F0C1FF002010BD70B5FC
:1019B00004460D4601F007002179884201D9012033
:1019C00070BD29064FF000064FF0010206D500EB6E
:1019D000800104EBC1014A74103107E005EB850179
:1019E00004EBC10181F8516101F5A8718A7008709A
:1019F00094F89002012807D084F89022206802F021
:101A00007CFF680702D006E0022070BD04F5267155
:101A1000206802F034FF84F89062002070BD10B599
:101A200001F0070404EB840100EBC101C1E90923C3
:101A3000012281F834200B630023CB624A7401F841
:101A4000104F006802F072FF002010BD1FB5044661
:101A5000006803F0EBF9010403D5204601F0E8F932
:101A60001FBD41050DD5206830F8441F21F4806169
:101A70000180204600F000F90021204600F017F90F
:101A80001FBD410405D5206830F8441F21F4804172
:101A900074E0810405D5206830F8441F21F400511A
:101AA0006CE0C10414D5206830F8401F21F0040117
:101AB0000180206830F8401F21F008010180204695
:101AC00000F0EDF8206830F8441F21F4805155E013
:101AD000010540D5D4F800200020694632F82030B6
:101AE00021F81030401CC0B20828F7D332F8400F5C
:101AF00040F001001080206830F8402F22F00102F1
:101B000002802068B0F844205205FBD530F8442FFD
:101B100022F4806202800020236831F8102023F82C
:101B20002020401CC0B20828F6D3206830F8401F9F
:101B300041F008010180206830F8441F21F4006161
:101B40000180206830F8401F41F0040101802046E8
:101B500000F0E0F81FBD810509D5206830F8441F6A
:101B600021F400710180204600F09DF81FBDC005E2
:101B7000FCD5206830F8441F21F4807101801FBD1E
:101B80002DE9F041040004D094F89102002518B129
:101B900007E00120BDE8F08184F89052204600F073
:101BA0004DF8032084F891026571206802F060FE10
:101BB00094E80F0002F0C6FD022698BB00212068C1
:101BC00003F04EF970BB002001270BE000EB800111
:101BD00004EBC1014F740874CD740D624D62401C5A
:101BE000C0B28D6221798142F0D8002012E000BF9E
:101BF00000EB800104EBC10181F8515181F85001E3
:101C000081F85351C1F86051C1F86451401CC0B211
:101C1000C1F8685121798142EAD894E80F0002F0B6
:101C20001EFE10B184F89162B3E7657384F8917277
:101C3000206802F012FE0020ACE7000008B5006842
:101C40000B49884212D10B48C16941F40001C161BE
:101C5000C069002200F40000009005211420FFF765
:101C600095FBBDE808401420FFF782BB08BD0000CB
:101C7000005C00400010024070B5044680790125E8
:101C8000022801D0FFF7C5F92946D4F8D40202F0A2
:101C9000E3F9D4F8D402BDE8704002F09FB9D0F85F
:101CA000D40202F0C3B9D0F8D40202F0C9B910B519
:101CB000044690F8900201280AD0012084F890028E
:101CC0006173206803F0CEF8002084F8900210BD04
:101CD000022010BDD0F8D42200F52671104602F083
:101CE000C7B910B5044690F89002012810D0012021
:101CF00084F89002206803F08AF801212046FFF75B
:101D000095FB206802F0A7FD002084F8900210BD2A
:101D1000022010BD10B50446D0F8D40202F0E7F955
:101D2000A07A002804D00348016841F00601016050
:101D300010BD000010ED00E02DE9F84305460078E5
:101D4000354CC00754D0E0690026C00008D4E069D3
:101D500040F08050E061E069012600F08050009082
:101D60002E480168C90512D40168804641F480718B
:101D70000160FFF76DFA074605E000BFFFF768FA5C
:101D8000C01B642823D8D8F80000C005F6D5206A07
:101D900010F4407021D0A98801F4407181421CD018
:101DA000206A1F49012220F440700A6000220A6064
:101DB0002062C00711D0FFF74BFA074641F288387E
:101DC00008E000BFFFF744FAC11B414502D90320D8
:101DD000BDE8F883206A8007F4D5206A696820F49A
:101DE0004070084320621EB1E06920F08050E0613D
:101DF0002878800705D56068A96820F4404008432A
:101E000060602878C00605D56068696920F48000A4
:101E1000084360600020DBE70010024000700040D3
:101E2000400442422DE9F0470F46050061D0434E81
:101E3000306800F00700B84209D2306820F007008F
:101E400038433060306800F00700B84251D128684C
:101E50003B4C810712D5400703D5606840F4E06031
:101E600060602878000703D5606840F460506060C7
:101E70006068A96820F0F000084360602878C00717
:101E800028D06868012810D02168022810D089075E
:101E900000292EDA616821F0030101436160FFF738
:101EA000D7F9804641F288390DE021688903EFE7D0
:101EB0008901EDE7FFF7CCF9A0EB0801494502D90C
:101EC0000320BDE8F0876068696800F00C00B0EBA3
:101ED000810FEFD1306800F00700B8420BD93068AD
:101EE00020F0070038433060306800F00700B84247
:101EF00001D00120E5E72878400705D56068E9684A
:101F000020F4E060084360602878000706D5606828
:101F1000296920F4605040EAC100606000F048F890
:101F20006168084AC1F30311515CC8400649086062
:101F300006480068FFF7ACF90020C2E70020024025
:101F400000100240366E000818000020100000202B
:101F50000F2202600C4A536803F003034360536886
:101F600003F0F0038360536803F4E063C3605268D6
:101F70004FF4E06303EAD20202610448006800F013
:101F80000700086070470000001002400020024077
:101F90000448054900684968044AC1F30221515CBC
:101FA000C84070471800002000100240466E00082C
:101FB0000E4A51680E4801F00C03042B11D0082B77
:101FC0000FD10C48C1F38343C903C05C0AD55168E3
:101FD000084AC1F34041921E515C054A5043B0FB90
:101FE000F1F0704704494843704700000010024078
:101FF00000127A00266E000800093D002DE9F84F16
:10200000040070D02078C04DC00749D06868C0F384
:102010008100012807D06868C0F38100022809D137
:102020006868C00306D52868800339D56068002831
:10203000E7D035E06068B0F5803F0BD010B1B0F567
:10204000A02F11D0286820F480302860286820F460
:10205000802002E0286840F480302860606890B1F9
:10206000FFF7F6F806460AE0286840F4802028606A
:10207000F0E700BFFFF7ECF8801B642873D82868EE
:102080008003F7D50CE0FFF7E3F8064605E000BF54
:10209000FFF7DEF8801B6428F0D828688003F7D4A7
:1020A00020789A4E80074FF001094FF0000839D58B
:1020B000686810F00C0F07D06868C0F38100022830
:1020C00009D16868C00306D42868800714D5206940
:1020D000012808D110E02069B0B1C6F80090FFF7E0
:1020E000B7F8074605E00AE1FFF7B2F8C01B02287F
:1020F000C4D828688007F7D52868616920F0F800FF
:1021000040EAC10028600DE0C6F80080FFF7A0F8A3
:10211000074604E0FFF79CF8C01B022823D8286874
:102120008007F7D4207800072CD57948A169D9B168
:10213000C0F80090FFF78CF8074604E0FFF788F836
:10214000C01B02280FD8686A8007F7D571484FF482
:10215000FA510068B0FBF1F0009000BF0098411EFA
:102160000091FAD20EE080E0C0F80080FFF770F82E
:10217000074604E0FFF76CF8C01B022875D8686AB0
:102180008007F7D42078400760D5E8690027C000B1
:1021900008D4E86940F08050E861E869012700F060
:1021A000805000905C480168C90513D401688346DB
:1021B00041F480710160FFF74BF8824606E000BFF2
:1021C000FFF746F8A0EB0A0064284ED8DBF80000C1
:1021D000C005F5D5E06801280AD008B1052813D05C
:1021E000286A20F001002862286A20F0040002E03A
:1021F000286A40F001002862E06841F2883B98B10B
:10220000FFF726F882460BE0286A40F004002862B7
:10221000EEE700BFFFF71CF8A0EB0A0159455AD8BA
:10222000286A8007F6D50CE0FFF712F8824605E031
:10223000FFF70EF8A0EB0A0159454CD8286A800731
:10224000F6D41FB1E86920F08050E861E06988B3F6
:102250006968C1F38101022944D00228C6F8608070
:1022600004D0FEF7F5FF044638E034E0FEF7F0FF57
:10227000074604E0FEF7ECFFC01B02282BD82868B5
:102280008001F7D4206AB0F5803F05D16868A16865
:1022900020F4003008436860D4E908010843696805
:1022A00021F4741108436860C6F86090FEF7D0FF0F
:1022B000044606E025E000BFFEF7CAFF001B022827
:1022C00009D828688001F7D51BE000BFFEF7C0FFE2
:1022D000001B022802D90320BDE8F88F286880017E
:1022E000F4D40EE00128F7D06868226A00F4803147
:1022F000914204D1616A00F47010884201D001203B
:10230000EAE70020E8E70000001002400000424237
:1023100080044242180000200070004070B50400A4
:1023200009D0606A002540B125616561A56294F815
:10233000510040B10CE0012070BD6068B0F5827FB3
:10234000F4D0E561F2E784F85050204600F040F800
:10235000022084F851002068016821F040010160EA
:10236000A088218900F4827001F404410843A18906
:1023700001F400610843217C01F002010843217D42
:1023800001F001010843218B01F400710843217F12
:1023900001F03801084394F8201001F0800108434F
:1023A000218D01F40051084321680860A0690421CF
:1023B00001EA1040216848602068C16921F4006189
:1023C000C1616565012084F85100002070BD0000E6
:1023D00030B585B000240094019402940394006801
:1023E0001449884223D11448816941F480518161A4
:1023F000816901F480510491816941F00401816196
:1024000080690E4D00F004000490A020009002208E
:1024100001900320039069462846FEF70FFE4020F6
:10242000CDE90004694628460294FEF707FE05B090
:1024300030BD0000003001400010024000080140A3
:102440002DE9F84F044690F851001D4616460F46F8
:10245000012838D160684FF00408B0F5827F01D1BF
:10246000A06830B3FEF7F4FE8246002F75D0002E30
:1024700073D094F85000012825D04FF0010984F85A
:10248000509084F851804FF00008C4F85480A7633E
:10249000A687E687C4F83080A4F83480A4F8368094
:1024A000C4F84080C4F84480A068B0F5004F0CD058
:1024B00015E084F85180009313460A46204600F048
:1024C0001CF9BDE8F88F0220FBE72068016821F0C5
:1024D000400101602068016821F4804101602068AA
:1024E0000168490603D4016841F040010160E068D9
:1024F000C0B134E020688168C90709D0007BA16BB6
:102500000870A06B401CA063E08F401EE08709E0CC
:10251000FEF79EFEA0EB0A00A84202D3681C01D081
:1025200032E085B3E08F0028E4D11BE020688168A9
:10253000C90709D0C068A16B0880A06B801CA0638C
:10254000E08F401EE0870AE0FEF782FEA0EB0A0063
:10255000A84203D3681C02D016E012E09DB1E08FC0
:102560000028E3D152462946204600F034FE08B147
:102570002020606584F8519084F85080606D0028B8
:102580009FD001209DE7FFE784F8519084F85080A8
:10259000032096E72DE9F84F984616468A460446EA
:1025A000FEF756FE814694F8510001281ED1BAF17B
:1025B000000F73D0002E71D094F85000012815D070
:1025C000012784F85070032084F8510000256565C8
:1025D000C4F830A0A686E686A563A587E58765646E
:1025E0002564A068B0F5004F03D00CE00220BDE8E0
:1025F000F88F2068016821F04001016020680168BF
:1026000041F48041016020680168490603D40168F3
:1026100041F040010160E068B0F5006F606803D0F0
:1026200048B3012E27D047E008B1012E1FD1206BFF
:1026300021680088C86006E020688168890709D59C
:10264000216B0988C160206B801C2063E08E401ED6
:10265000E0860CE0FEF7FCFDA0EB0901414503D349
:10266000B8F1FF3F03D035E0B8F1000F32D0E08E73
:102670000028E1D123E0206B21680078087306E090
:102680002068816889070AD5216B09780173206B5E
:10269000401C2063E08E401EE0860DE02BE0FEF73C
:1026A000D7FDA0EB0901414503D3B8F1FF3F03D0AB
:1026B00010E0B8F1000F0DD0E08E0028E0D14A46BE
:1026C0004146204600F0B5FD08B120206065A068B5
:1026D00030B109E084F8517084F85050032086E747
:1026E0002068C1688068009084F8517004F8505FD9
:1026F00060680028F3D0012079E72DE9FF4F81B011
:102700001D46934604464FF001090E9EFEF7A0FDBC
:10271000074694F851006168012806D0B1F5827F20
:102720003CD1A168C9BB042838D10298002871D0D7
:10273000BBF1000FFBD0002DF9D094F85000012818
:102740002CD04FF0010A84F850A094F851000428CE
:1027500002D0052084F851004FF00008C4F85480DE
:10276000C4F838B0E587A58702992163E586A58678
:10277000C4F84080C4F8448020680168490603D446
:10278000016841F040010160E068B0F5006F6068E9
:1027900008D0F0B3012D49D081E0FFE7022005B059
:1027A000BDE8F08F08B1012D39D1206B2168008878
:1027B000C860206B801C2063E08E401EE0862EE007
:1027C0002068816889070FD5E18E69B1B9F1010FE1
:1027D0000AD1216B0988C160206B801C2063E08EC8
:1027E000401EE0864FF0000920688168C9070CD0C0
:1027F000E18F51B1C068A16B0880A06B801CA06301
:10280000E08F401EE0874FF00109FEF721FDC01B5D
:1028100001E00BE067E0B04201D3701C50D1E08EC4
:102820000028CDD1E08F0028CAD13EE0206B21687E
:1028300000780873206B401C2063E08E401EE08609
:102840002DE02068816889070FD5E18E69B1B9F163
:10285000010F0AD1216B09780173206B401C2063A2
:10286000E08E401EE0864FF0000920688168C907AD
:102870000CD0E18F51B1C068A16B0870A06B401CF7
:10288000A063E08F401EE0874FF00109FEF7E0FCF7
:10289000C01BB04202D3701C01D011E086B1E08EA3
:1028A0000028CED1E08F0028CBD13A4631462046D1
:1028B00000F0BFFC50B12020606584F8508012E029
:1028C00084F851A084F85080032068E7A06818B904
:1028D0002068C1688068009084F851A084F8508016
:1028E000606D0028F1D0012059E77047704710B59E
:1028F000040003D094F83D0010B107E0012010BDA2
:10290000002084F83C00204600F01EF8022084F8E5
:102910003D00211D206800F007FF012084F84600DB
:1029200084F83E0084F83F0084F8400084F84100B9
:1029300084F8420084F8430084F8440084F8450099
:1029400084F83D00002010BD7047000090F83D1055
:10295000012901D001207047022180F83D10016853
:10296000CA6842F00102CA6000680E4988420ED06F
:102970000D4988420BD0B0F1804F08D00B498842F6
:1029800005D00B49884202D00A49884204D18168A7
:1029900001F00701062903D0016841F0010101603F
:1029A00000207047002C014000340140000400402A
:1029B00000080040000C004070472DE9F04104463B
:1029C0000068C66805694FF00007A90713D5B1076D
:1029D00011D5F91E016101202077206880698007E8
:1029E000204602D0FFF7E8FF04E000F07EF8204622
:1029F00000F07CF82777680716D5700714D5216892
:102A00006FF004000861022020772068806910F4CC
:102A1000407F204602D0FFF7CFFF04E000F065F8CA
:102A2000204600F063F82777280715D5300713D51F
:102A300021686FF008000861042020772068C069D1
:102A40008007204602D0FFF7B7FF04E000F04DF802
:102A5000204600F04BF82777E80616D5F00614D587
:102A600021686FF010000861082020772068C06995
:102A700010F4407F204602D0FFF79EFF04E000F0F4
:102A800034F8204600F032F82777E80708D0F0073E
:102A900006D021686FF001000861204600F028F898
:102AA000280608D5300606D521686FF08000086139
:102AB0002046FFF71AFF680608D5700606D521687C
:102AC0006FF040000861204600F01CF8A8060AD507
:102AD000B00608D521686FF0200008612046BDE8E7
:102AE000F041FFF703BFBDE8F08170477047000079
:102AF00000680349884201D1FEF7B0BB704700006F
:102B000000140040704770B504460D460069FDF79B
:102B1000B4FBE168FDF703FCA168FDF706FCC4E91E
:102B2000035010F1FF4F00D3002070BD2DE9F0419C
:102B300015460A4604460F49C4E900251046FDF72C
:102B4000F4FB01464FF07E573846FDF720FC064661
:102B500029463846FDF71BFC01463046FDF78DFB44
:102B600001463046FDF713FCA0600020E0602061C4
:102B7000BDE8F081DA0FC940FEE70000F0B50023A0
:102B80000A24302537261F4611E000BFB4EB107F22
:102B900002D905EB107C01E006EB107C01F813C0B4
:102BA00001EB430C00015B1C8CF80170DBB293421B
:102BB000ECD3F0BD2DE9F04186680F46044631465E
:102BC0004FF07E50FDF7ABFBE168FDF7AEFB05462D
:102BD00039463046FDF7A9FB2946FDF74EFBE0607C
:102BE000BDE8F0812DE9F04115460A4604460F493B
:102BF000C4E900251046FDF798FB01464FF07E57CB
:102C00003846FDF7C4FB064629463846FDF7BFFBAC
:102C1000054601463046FDF730FB01462846FDF7E4
:102C2000B6FBA0600020E060BDE8F081DA0FC9408B
:102C300008B5104D002401212846FEF7FBFA0221B9
:102C40002846FEF7F7FA04212846FEF7F3FA082192
:102C50002846FEF7EFFA642002F03FFE641CE4B25F
:102C60000A2CE8D303F0F4FF00900A21684603F031
:102C700091FEFAE70010014010B58EB01C220B49FE
:102C80006846FDF7CFFA0021684602F032FE084C94
:102C900006491C2260601C3107A8FDF7C3FA002119
:102CA00007A802F026FEA0600EB010BDEC6D000873
:102CB000000000202DE9F04186B000200090019036
:102CC000029003902E48816941F020018161816961
:102CD00001F020010491816941F010018161816955
:102CE00001F010010491816941F004018161816961
:102CF00001F004010491816941F00801816180695A
:102D0000DFF8808000F0080004900122FF21404697
:102D1000FEF798FA1C4E012204213046FEF792FA83
:102D20001A4F0122FF213846FEF78CFA7F2001243A
:102D3000CDE9000402200325CDE90205694640469D
:102D4000FEF77CF90420CDE9000469463046CDE960
:102D50000245FEF773F9FF20CDE9000469463846C5
:102D6000CDE90245FEF76AF98020CDE90004694605
:102D70004046CDE90245FEF761F906B0BDE8F081B5
:102D8000001002400010014000080140000C01400A
:102D9000104810B50E4901604FF482714160002166
:102DA0008160C1604FF400720161C0E905123822F0
:102DB000C0E90721416281620A21C162FFF7AEFAD0
:102DC000002803D0BDE81040FEF723B910BD000075
:102DD00000300140C805002010B500220F491048FE
:102DE00000F0C8FF08B1FEF714F90E490C4801F0D5
:102DF000A4F908B1FEF70DF90B49094800F0C6FD2A
:102E000008B1FEF706F9064801F0ECF9002803D0F6
:102E1000BDE81040FEF7FDB810BD00001C0000200A
:102E200068060020580100206C000020FEE7FEE745
:102E30002DE9F84F044640F68F7B48F60F794FF4A2
:102E400080684FF0000ABDE1B0F8441011F00F05A2
:102E500039D030F8256031047ED530F8251001EAEC
:102E60000B0141F0800120F8251005EB850004EBF3
:102E7000C00797F85C0107F5A87700286DD0F878AF
:102E800002286BD03978226832F8210048F68F7317
:102E9000184048F2C003184322F82100397820680E
:102EA00030F82120B0F8503052047DD5022202EBD8
:102EB000C1015A1808EB4201415A8905890D009158
:102EC00073D03A89DDE0C9062BD4018801EA0901F3
:102ED00041F400410180206804F11005B0F8503041
:102EE000217C022202EBC1015A1808EB4201405A30
:102EF000C0F30900E062616A084460620021204674
:102F0000FEF795FA607B00289DD0A86900289AD129
:102F1000607B216840F08000A1F84C0084F80DA08F
:102F200050E1018804F5A8750A0521D5B0F85020B4
:102F30002B78062101EBC3010A4408EB4201405AF9
:102F400004F52671C0F30903EB61EA88206801F0FB
:102F500071FF2068018802E0AEE06EE07EE001EAE9
:102F60000B0141F0800101802046FEF7B3FE29E10C
:102F70000904D5D5018801EA0B0141F080010180E7
:102F80002068B0F850202B78062101EBC3010A44D9
:102F900008EB4201405A83059B0DEB6110D0696933
:102FA00071B1EA88206801E05FE05DE001F042FF76
:102FB000E96968690844686100212046FEF740FA23
:102FC000216808880205ABD4C0F301300328A7D0DC
:102FD000B1F850000844B0F80C14C1F30901A0F88E
:102FE0000C142A6900F20C403E2A09D95109D20674
:102FF00000D1491E02884FF4004343EA812109E0D1
:10300000B2B15108D20700D0491C02884FF6FF73B5
:1030100003EA81210A430280216808884BF68F72F7
:10302000104080F4405048F2800210430880C9E00C
:10303000018841F400410180EEE72068B0F850209B
:103040003B78062101EBC3010A4408EB4201415AD7
:103050008905890D009118D0FA8812E03246394668
:103060002046FEF749FA00900FE0062202EBC1016C
:103070005A1808EB4201415A8905890D009104D084
:103080007A897969009B01F0D5FEF86900990844B6
:10309000F8617969009808447861B86918B13969AC
:1030A0000098814204D939782046FEF7C9F903E037
:1030B0003946206801F03AFC30062ED505EB850034
:1030C00004EBC001206830F8252002EA090242F42E
:1030D000004220F82520C87C103101281ED0F005C0
:1030E0006CD42068B0F850300D78022202EBC50293
:1030F0001A4408EB4202805A8A69C0F309008242EE
:1031000055D9121A8A6154D04A6902444A61CA697F
:103110001044C861206801F009FC53E0C1F818A010
:10312000087B524608B3700620D5487810B10128B4
:1031300012D03AE02068B0F8502010440A7800EB32
:103140000210B0F80424C2F30902A0F80424B0F875
:10315000042442F4004206E02068B0F850301844DD
:103160000B7800EB0310A0F804241EE04B782068D5
:1031700013B1012B11D018E0B0F8502010440A7898
:1031800000EB0210B0F80C24C2F30902A0F80C24E2
:10319000B0F80C2442F4004205E0B0F85030184476
:1031A0000B7800EB0310A0F80C24097802E0C1F8BA
:1031B00018A0E9B22046FEF73AF903E0324620466D
:1031C000FEF70DFA2068B0F8441009043FF53CAE54
:1031D0000020BDE8F88FF8B5044640684FF48273CC
:1031E000984217D1A0684FF48065B0F5004F01D028
:1031F000A8420FD12068066826F040060660606885
:10320000984207D1A068A84204D100920B46002240
:10321000012103E000920B4600228021204600F0AD
:1032200023F8002804D0606D40F020006065032082
:10323000F8BDF8B515460E460B460092044601222D
:10324000022100F011F840B93346002280212046C7
:10325000009500F009F8002804D0606D40F02000CF
:1032600060650320F8BD00002DE9F8431E46914635
:1032700088460446089DFDF7EBFF401B351AFDF715
:10328000E7FF074625480068C0F3CB30684338E0C5
:10329000701C37D0FDF7DCFFC01BA84203D215B16C
:1032A000009860B32CE02068416821F0E0014160A3
:1032B0006068B0F5827F0BD1A068B0F5004F02D0F6
:1032C000B0F5806F04D12068016821F040010160F1
:1032D000A06AB0F5005F09D12068016821F40051AF
:1032E00001602068016841F400510160012084F808
:1032F0005100002084F850000320BDE8F883002529
:10330000401E00902068816838EA010004D0002146
:103310004945BDD10020F0E70121F9E71800002060
:10332000ADF58C6DFFF758FD4FF480610EA8FCF7EA
:1033300092FFAE4DAE49AC480122C5E900012A8199
:1033400005F134060222C6E90001328105F1680761
:103350000422C7E9000105F19C083A81C8F8000081
:10336000A448C8F80400A8F808204FF4FA740DE047
:10337000A1A10EA801F090FD0EA8FCF777FF81B285
:103380000EA8FDF72FFE204602F0A7FA9748FDF79A
:1033900003FC0028ECD10DE09CA10EA801F07CFDFF
:1033A0000EA8FCF763FF81B20EA8FDF71BFE2046B6
:1033B00002F093FA8D483430FDF7EEFB0028EBD194
:1033C0000DE097A10EA801F067FD0EA8FCF74EFFD7
:1033D00081B20EA8FDF706FE204602F07EFA834871
:1033E0006830FDF7D9FB0028EBD10DE091A10EA8C4
:1033F00001F052FD0EA8FCF739FF81B20EA8FDF7CF
:10340000F1FD204602F069FA78489C30FDF7C4FBD4
:103410000028EBD1754C5520183CAA212070617012
:10342000BB22A270CC22E270217560756620A07567
:103430007720E075A4F150018348C86008624863B2
:10344000DFF808A2DFF80892886452464946A4F1E2
:103450009000FFF7C7FBA4F1800052464946CDF823
:103460005404FFF7BFFBA4F1700052464946CDF863
:103470005004FFF7B7FBA4F1600052464946CDF86F
:103480004C04FFF7AFFBDFF8CC9152464946A4F15C
:103490005000FFF74BFBA4F13C0052464946CDF8E3
:1034A0004804FFF743FBA4F1280052464946CDF8F3
:1034B0004404FFF73BFBA4F1140052464946CDF803
:1034C0004004FFF733FB03F0C3FBCDF85804474833
:1034D000FDF7C4FB45483430FDF7C0FB4348683076
:1034E000FDF7BCFB41489C30FDF7B8FB3F48C16A83
:1034F0006838FFF708FB3D4C183C606004F14C0055
:10350000C16ADDF84804FFF7FEFAA06004F180000C
:10351000C16ADDF84404FFF7F6FA04F1B405E0608F
:10352000E96ADDF84004FFF7EEFA2061A4F19000AB
:103530006168FFF73FFB6060A168DDF85404FFF7A6
:1035400039FBA060E168DDF85004FFF733FBE06071
:103550002169DDF84C04FFF72DFB2061FDF71BF915
:1035600082468B46E068FDF716F90A908946A06806
:10357000FDF711F9804609916068FDF70CF90646E0
:103580000F46E86AFDF707F9CDE9040104F1800070
:10359000C06AFDF700F9054604F14C000391C06ACA
:1035A000FDF7F9F8044611480191C06AFDF7F3F8F8
:1035B0000DF1180C029500948CE8C0010DF12C0C53
:1035C00002468CE8000E0B4623A10EA801F064FC15
:1035D000064818211838FDF705FD14210DF58B60FC
:1035E00003F0D8F973E70000C8050020F8040020B4
:1035F000000C01400008014064657631B3F5CABC97
:10360000BBAFCAA7B0DC0D0A0000000064657632CB
:10361000B3F5CABCBBAFCAA7B0DC0D0A00000000FE
:1036200064657633B3F5CABCBBAFCAA7B0DC0D0A7C
:103630000000000064657634B3F5CABCBBAFCAA70E
:10364000B0DC0D0A000000000000C8420000484243
:1036500000002041CDCC4C3E25662C25662C2566ED
:103660002C25662C25662C25662C25662C25660DBA
:103670000A00000010B5502080F31188BFF34F8F6F
:10368000BFF36F8F03F0EAFA18B104494FF080508E
:103690000860002080F3118810BD000004ED00E0F8
:1036A00070B596B028216846FCF7D5FD14210AA80C
:1036B000FCF7D1FD18210FA8FCF7CDFD0224012055
:1036C00010260094CDE9040600254FF42010CDE922
:1036D000085007946846FEF791FC08B172B6FEE701
:1036E0000AA90F2081E831004FF48060CDE90D0573
:1036F00001210AA8FEF796FB08B172B6FEE74FF467
:1037000080000F9614900FA8FEF716FB002801D03A
:1037100072B6FEE716B070BD704700000148FFF7B3
:103720004CB9000020060020F0B50268204C214D65
:10373000214E224F224B4FF0804CA04209D098429C
:1037400007D0604505D0A84203D0B04201D0B842AE
:1037500004D122F0700E4A6842EA0E02A04209D05B
:10376000984207D0604505D0A84203D0B04201D0AE
:10377000B84203D122F44075CA682A434D6922F049
:1037800080022A4302608A68C2620A688262A0429A
:1037900001D0984201D109690163012141610169A8
:1037A000C90703D0016921F001010161F0BD0000EA
:1037B000002C01400004004000080040000C0040C4
:1037C000003401402DE9F041D0F8C032D0F8B822E1
:1037D000CAB101EB810500EB85040026E7693FB122
:1037E00003EBC5031B6AB7FBF3F503FB157323B1AA
:1037F000C2F814620020BDE8F08100231A46E66199
:1038000000F07EFCF6E70220F5E770B50546D0F83B
:10381000B84200F07AFBC4F80C02D5F8B80248B1FF
:10382000D5F8BC12D4F80402CA6804F503719047B5
:10383000002070BD022070BD70B5044600268121B5
:1038400000F0B6FA002501212046E56200F0B0FA4A
:1038500082212046C4F86C5100F0AAFA2564D4F8FD
:10386000B80248B1D4F8BC0204F52E744068804711
:10387000206800F014FE2560304670BD10B5D0E918
:10388000AE4159B194F80002FF2807D08B6894F834
:10389000012221469847FF2084F80002002010BD35
:1038A0000A210180004870478000002043210180E8
:1038B00000487047D0000020432101800048704735
:1038C0008C00002043210180004870471401002033
:1038D0002DE9F04104460026007C4FF400770125D5
:1038E00090B3402302228121204600F062FB402356
:1038F000E56202220121204600F05BFB082303223F
:1039000082212046C4F86C5100F053FB4FF407703D
:10391000256400F0C5FDC4F8B802F8B10546D4F836
:10392000BC02006880470020C5F81402C5F81802E0
:10393000207CD5F8042298B140230121204600F0D4
:1039400044FB3046BDE8F081FFE73B46022281217F
:10395000204600F02EFB3B46E562CAE70126F0E771
:103960003B46EAE710B5D0F8B81269B1027C002AEC
:10397000D1F8042205D04023012100F026FB0020CD
:1039800010BD4FF40073F7E7022010BD024602207D
:10399000002902D00020C2F8BC127047D0F8B8024B
:1039A000C0F8041200207047D0F8B802C0F8102206
:1039B000C0F80812002070472DE9FC410546D0F8F8
:1039C000B87200208DF80000ADF8040006460878B3
:1039D0000C4610F0600121D020293BD1E288AAB129
:1039E0000006607807D5D5F8BC128B683946984731
:1039F000E288394626E087F80002A07987F80102BC
:103A0000E2883946284600F06AF828E0D5F8BC126A
:103A1000607800228B682146984720E0607820B1CA
:103A20000A2809D00B2815D110E095F89C0203282C
:103A300010D1022201A905E095F89C02032809D1C2
:103A400001226946284600F064F808E095F89C02D7
:103A5000032804D02146284600F036F802263046D6
:103A6000BDE8FC8110B5D0F8B812A1B1D1F814228C
:103A70000AB1012010BD0122C1F81422D1F8102290
:103A80000263B1F8102293B2D1F80822812100F02C
:103A900037FB002010BD022010BD10B5D0F8B422B5
:103AA00052689047002010BD134610B50A46002109
:103AB00000F08BFA002010BD134610B50A46002115
:103AC00000F01EFB002010BD10B50446802100F060
:103AD000FCFA2046BDE81040002100F0F6BA10B50F
:103AE0000323C0F85C21C0F89432C0F8602113466B
:103AF0000A46002100F069FA002010BD10B505212A
:103B00000023C0F894121A46194600F05EFA00200D
:103B100010BD10B50223C261C0F894320262134690
:103B20000A46002100F0ECFA002010BD10B5042177
:103B30000023C0F894121A46194600F0E1FA00205A
:103B400010BD000010B50A46024903A000F0E2F8DB
:103B5000004810BD2C09002043444320436F6E668B
:103B60006967000012200880004870473C00002070
:103B700010B50A46024903A000F0CCF8004810BD79
:103B80002C09002043444320496E746572666163CA
:103B900065000000042008800048704738000020BD
:103BA00010B50A46024903A000F0B4F8004810BD61
:103BB0002C09002053544D6963726F656C65637402
:103BC000726F6E696373000010B50A46024903A064
:103BD00000F0A0F8004810BD2C09002053544D33CC
:103BE00032205669727475616C20436F6D506F722C
:103BF0007400000010B51A2008800A480168001DF2
:103C00000468001D0068081809D008220649FEF75C
:103C1000B5FF0549042210312046FEF7AFFF0248E8
:103C2000801E10BDE8F7FF1F52000020F8B50446C3
:103C30000020ADF8000048880D46010A082948D246
:103C4000DFE801F04704091747473C45D4F8B012B4
:103C5000207C0A6819E0207C02260028D4F8B402EF
:103C600005D0C16A68468847014646703EE0816AD1
:103C7000F8E7C0B206282CD2DFE800F0030A1014DF
:103C8000181CD4F8B002426805E0694690471CE071
:103C9000D4F8B0028268E2B1207CF6E7D4F8B00232
:103CA000C268F8E7D4F8B0020269F4E7D4F8B002C9
:103CB0004269F0E7D4F8B0028269ECE7207C40B9B1
:103CC000D4F8B402416B6846884701460EE0207C78
:103CD00020B129462046FFF7F7FEF8BDD4F8B4021C
:103CE000016B68468847014607204870BDF8000010
:103CF00048B1EA8852B1824200D90246ADF80020AC
:103D00002046FFF706FFE8880028E6D12046FFF7A7
:103D10000DFFF8BD70B5002300281ED00446002515
:103D200002E06D1CEDB2641C2678002EF9D102244D
:103D300004EB450414801278CA545B1C0322CA5455
:103D400000245B1C06E0CA545B1CDAB28C54521C83
:103D5000D3B2401C0278002AF5D170BD01004FF0AB
:103D6000000004D0012901D0022901D002207047AF
:103D70000120704710B580B1D0F8B43213B10023E0
:103D8000C0F8B43209B1C0F8B012012180F89C1219
:103D9000027000F0BFF8002010BD022010BD10B569
:103DA000D0F8C002FDF77BFBBDE81040FFF7D6BF9F
:103DB00010B5D0F8C002FDF74DFBBDE81040FFF78D
:103DC000CDBF2DE9F0411746044651B1D4F8B402F5
:103DD00042691AB194F89C02032851D00220BDE830
:103DE000F081D4F89432002504F11400022B03D0A2
:103DF000042B3AD0C3B33CE0D0E903639E4207D919
:103E0000F11AC1608AB239462046FFF755FE12E02A
:103E10008068B0FBF3F103FB110199B9984211D30B
:103E2000D4F8981288420DD2002211462046FFF79E
:103E300043FEC4F8985200231A461946204600F063
:103E4000C4F816E0D4F8B402C16829B194F89C0211
:103E5000032801D1204688478021204600F035F90B
:103E60002046FFF74BFE04E0FFE78021204600F0EC
:103E70002CF994F8A002012804D184F8A05201E0A2
:103E8000204690470020AAE770B51546044649B180
:103E9000D4F8B40282691AB194F89C02032830D095
:103EA000022070BDD4F8941204F5AA70032902D040
:103EB00005291ED027E0D0E903218A420BD9531AE5
:103EC000C3600846834200D303469AB2294620467F
:103ED000FFF7EAFD17E0D4F8B402016929B194F8BC
:103EE0009C02032801D1204688472046FFF71EFE8A
:103EF00009E000200146C4F89402204600F0E5F8ED
:103F000001E020469047002070BDD0F8C002FDF7C8
:103F100002BD000010B504461C481D49C0F8D4423B
:103F2000C4F8C002016008210171022181710021E1
:103F30008172C1720173FDF723FE08B1FDF769F8C4
:103F40000022D4F8C0021823114604F53074FDF79E
:103F50004FFA5823002280212068FDF749FAC02338
:103F6000002281212068FDF743FA4FF48873002274
:103F700001212068FDF73CFA4FF480730022822172
:103F80002068FDF735FA002010BD00004C15002018
:103F9000005C00400A0601F07F01D0F8C00201EB8E
:103FA000810100EBC10001D5807C704790F852017F
:103FB000704710B51C461346D0F8C0022246FDF7E4
:103FC000B3FCBDE81040FFF7C9BE10B5D0F8C00281
:103FD000FDF7D6FCBDE81040FFF7C0BE70B500226B
:103FE000044640231146FFF7E4FF40260125C4F8AC
:103FF00064613346002280212046C4F85851FFF7FF
:10400000D8FF6662A56184F89C520020C4F894022F
:104010006060C4F8A402D4F8B80228B1D4F8B4029D
:104020000021426820469047002070BD90F89C1205
:10403000042903D190F89D1280F89C12002070474B
:1040400010B590F89C12032904D1D0F8B412C969B4
:1040500001B18847002010BD01740020704710B5E1
:10406000D0F8C002FDF723FEBDE81040FFF776BE92
:1040700070B5044600F52A70054600F04AF80120A4
:10408000C4F89402B4F8AE02C4F8980294F8A802F6
:1040900010F01F010AD001290DD0022910D000F024
:1040A0008001204600F011F8002070BD294620460E
:1040B00000F09DF8F8E72946204600F0C9F9F3E73B
:1040C0002946204600F01CF9EEE710B5D0F8C002F2
:1040D000FDF76DFCBDE81040FFF740BE10B5D0F80D
:1040E000C002FDF7FEFDBDE81040FFF737BE90F8B7
:1040F0009C1280F89D12042180F89C1200207047C9
:1041000010B5D0F8C002FDF78AFCBDE81040FFF7FB
:1041100025BE0A7802704A7842708A78CB7802EB22
:10412000032242800A794B7902EB032282808A794A
:10413000C97902EB0121C18070470246002011B10C
:10414000C2F8B41270470220704710B5D0F8B422FC
:1041500002241AB11268904700B90024204610BD0D
:1041600070B50E461E4D897804462970012931D854
:1041700094F89C0202280BD003280FD03146204629
:10418000FFF7A2FC29782046BDE87040FFF785BC08
:10419000D9B10320616084F89C0209E071B16068C4
:1041A000884212D0C1B22046FFF777FC29786160BF
:1041B0002046FFF7CAFF02280CD006E0022084F850
:1041C0009C0220466160FFF768FC2046BDE8704015
:1041D000FFF7ACBC31462046BDE87040FFF774BC29
:1041E0007C00002010B5FFF779FF002010BD2DE9FD
:1041F000F0410A78002612F0600208D0202A01D08F
:10420000402A70D1D0F8B422926890476DE04B7884
:10421000002201250A2B66D2DFE803F0405D6557D6
:10422000650805652C29FFF701FD5EE004468888D6
:10423000D8B9C888C8B94888802816D200F07F0746
:1042400094F89C02032810D084F89E7239462046C8
:10425000FFF705FF2046FFF769FC1FB1022084F835
:104260009C0242E084F89C523FE020463BE0FFF78E
:1042700077FF3AE0CB88012B35D190F89C32012BA7
:1042800004D0022B02D0032B2DD104E08260012246
:1042900000F1080116E00122011D13E090F89C22B4
:1042A000012A03D0022A01D0032A1CD1CA88022A7B
:1042B00019D1C560D0F8A41209B10321C16002224E
:1042C00000F10C01FFF725FC0FE0498801290CD112
:1042D000C0F8A45211E090F89C32012B08D0022BB8
:1042E00006D0032B04D0FFF7EFFB3046BDE8F0818A
:1042F00049880129F9D1C0F8A422FFF717FCF4E797
:104300002DE9F0410A46044610780027097910F09B
:1043100060030AD0202B01D0402B50D1D4F8B40236
:1043200011468368204698478FE0C0F3411001286A
:1043300006D05078D0B301282AD003283FD107E017
:10434000D4F8B402114683682046BDE8F04118470E
:1043500094F89C02022802D0032872D10AE071B3BB
:1043600080296ED02046FFF7B0FE80212046FFF75F
:10437000ACFE6AE0508838B931B1802904D0D088C9
:1043800010B92046FFF7A1FE2046FFF7CFFB5CE007
:1043900094F89C020228E2D0032852D1508898BB9E
:1043A0004806F1D02046FFF7FAFCEDE7FFE794F866
:1043B0009C020026022803D0032842D112E040E0EC
:1043C00009B180293DD1080601F07F0000EB800093
:1043D00004EB800101D5143101E001F5AA7102223C
:1043E0000E602AE0080601F00F0000EB800004EBED
:1043F00080000AD5806920B301F07F0000EB8000C7
:1044000004EB800514350BE01FE0D0F85801C0B173
:1044100001F07F0000EB800004EB800505F5AA7534
:1044200041B1802906D02046FFF7B4FD10B101202C
:10443000286000E02E60022229462046FFF769FB33
:1044400003E011462046FFF73FFB3846BDE8F08108
:1044500070B5054608780C4610F0600003D020289F
:1044600001D0402816D195F89C02012803D00228DB
:1044700001D003280ED1207901280BD8D5F8B40239
:10448000826828469047E188014306D12846FFF715
:104490004DFB02E02846FFF717FB002070BD704778
:1044A000004870472C1300202DE9F0470C780026B7
:1044B00030F8243048F68F121340CA78002A78D09A
:1044C000012A7CD0022A02D0032A75D0012648F2A4
:1044D0008002134320F824300D7830F8253048F658
:1044E0008F7423402B43134320F825300D7B48F273
:1044F000C00948F6BF734CF2800A4BF68F77EDB3D4
:10450000CD7891F800C0022D30F82C507DD048F6BF
:104510008F6805EA0805154320F82C50B0F8505074
:1045200091F800C0054405EB0C15B1F808C02CF05B
:10453000010CA5F800C4B0F8505091F800C0054433
:1045400005EB0C15B1F80AC02CF0010CA5F808C455
:104550004D78002D7ED00D7830F825C05FEA4C4CA8
:1045600007D530F825C00CEA040C4CEA0A0C20F8F8
:1045700025C091F800C030F82C5000E022E06D0614
:1045800006D530F82C50254045EA090520F82C5076
:10459000CC780D78012C30F8254004EA03047CD057
:1045A00084F02003134320F82530C1E001E006E049
:1045B00002E043F400738AE743F4C06387E743F4FF
:1045C000806384E74D784DB3B0F850500F780544C0
:1045D00005EB0715CF8827F00107A5F800740F78C1
:1045E00030F827506D0606D530F82750254045EAAB
:1045F000090520F82750CC78012C07D00C7830F82A
:104600002410194081F0200104E064E00C7830F8B7
:1046100024101940114320F8241090E0B0F85030D5
:104620000D78034403EB0513CD8825F00105A3F8AD
:104630000854B0F850300D78034403EB0513B3F879
:104640000C54C5F30905A3F80C540D6903F20C438F
:104650003E2D00E045E00BD94FEA551CED0601D197
:10466000ACF1010C1D884FF4004848EA8C2C0BE09B
:1046700035B34FEA550CED0701D00CF1010C1D8844
:104680004FF6FF7808EA8C2C45EA0C051D800D7862
:1046900030F825305B0408D500E046E030F82530DE
:1046A000234043EA0A0320F82530097861B130F845
:1046B00021303B4083F40053134320F821303EE087
:1046C0001D8845F40045E1E70188394081F44051F7
:1046D0001143018033E0254048F2801845EA08057F
:1046E0001AE791F800C030F82C506D0406D530F868
:1046F0002C50254045EA0A0520F82C5091F800C0BE
:1047000030F82C506D0606D530F82C50254045EA7F
:10471000090520F82C500D7830F825403C4084F4F1
:104720004054144320F8254070E7144320F82540F6
:104730000B7830F823103940114320F8231030460D
:10474000BDE8F087002070472DE9F04391F80C8018
:104750004F780A7848F6BF7C4BF68F7948F2800391
:1047600048F2C0054CF2800648F68F74B8F1000F8D
:1047700028D0002F30F822704FEA474748D0002F4A
:1047800005DA30F822702740374320F822700A7883
:1047900030F822707F0605D530F8227027402F436D
:1047A00020F822700D7830F825202240324320F87E
:1047B00025200C7830F8242002EA0C021A4320F855
:1047C00024201AE07FB130F82260760605D530F853
:1047D000226026402E4320F822600A7830F822100A
:1047E00001EA0C010EE030F822506D0405D530F8D6
:1047F00022502540354320F822500A7830F8221004
:1048000001EA0901194320F822100020BDE8F083D5
:10481000002F05DA30F822702740374320F8227045
:104820000A7830F82260760605D530F822602640F6
:104830002E4320F822600E7830F8262022402A43AA
:1048400020F826200C7830F8242002EA09021A43C6
:1048500020F82420C1E70020704700207047012184
:1048600020F8401F002101808180018208467047A6
:1048700030F8401F21F43F410180002070470020A4
:10488000704730B50A7BB2BB4A7848F68F7548F25C
:104890008004C2B10B7830F82320520607D530F8D7
:1048A00023202A4048F2C0052A4320F82320CA7852
:1048B000012A20D00A7830F8221048F6BF73194038
:1048C00081F0200114E00A7830F822305B0407D52B
:1048D00030F822302B404CF280052B4320F8223058
:1048E0000A7830F822104BF68F73194081F440514A
:1048F000214320F82210002030BD10B54A780978F5
:10490000002A48F2800330F8212005D048F6BF7411
:10491000224082F0100204E04BF68F74224082F4B1
:1049200080521A4320F82120002010BD2DE9F047C5
:104930000D464B78097B04464FF0000948F68F720C
:1049400048F2800A4FF400474FF6FF78012B09D058
:1049500000296FD0E87802286DD001286CD00120A2
:10496000BDE8F087AE692869864200D9064691B154
:10497000E97802291ED0286A801B2862287834F83A
:1049800020104906B4F85010214401EB001073D5F3
:10499000A0F80C6416E1B3B2EA882046696900F019
:1049A00067FAB4F850002978204400EB0110A0F811
:1049B00004640DE1296A814277D9297834F821000D
:1049C000104048F28012104324F82100286A801B0E
:1049D0002862287834F820104906697871D511B119
:1049E00001292AD030E0B4F85010214401EB001026
:1049F000B0F80C14C1F30901A0F80C1400F20C403B
:104A00003E2E07D97109F20600D1491E028847EAF5
:104A1000812107E04EB17108F20700D0491C0288DD
:104A200008EA81210A4302800EE0018841F4004136
:104A3000018009E0F1E020E195E1B4F8502011197E
:104A400001EB0010A0F80C646A89B3B220466969D2
:104A500000F00EFA6869304468612969286A884262
:104A600002D9801B286202E00646C5F820906878CB
:104A700018B101282BD032E02FE0B4F8500029788B
:104A8000204400EB0110B0F80414C1F30901A0F8B0
:104A9000041400F204403E2E08D97109F20600D138
:104AA000491E028847EA812108E0A1E056B1710859
:104AB000F20700D0491C028808EA81210A430280DB
:104AC0000DE00EE0018841F40041018007E0B4F8F8
:104AD00050002978204400EB0110A0F804642A89D2
:104AE00071E011B1012927D02DE0B4F85010214414
:104AF00001EB0010B0F80414C1F30901A0F804148C
:104B000000F204403E2E07D97109F20600D1491E79
:104B1000028847EA812107E04EB17108F20700D010
:104B2000491C028808EA81210A4302800BE00188BF
:104B300041F40041018006E0B4F85010214401EB3B
:104B40000010A0F804642A89B3B22046696900F015
:104B50008FF96869304468612969286A884202D9F6
:104B6000801B286202E00646C5F82090687810B1E4
:104B7000012836D026E0B4F850002978204400EB14
:104B80000110B0F80C14C1F30901A0F80C1400F2E4
:104B90000C403E2E07D97109F20600D1491E028849
:104BA00047EA812107E04EB17108F20700D0491CA5
:104BB000028808EA81210A43028003E0018841F467
:104BC000004101806A89B3B22046696900F050F95A
:104BD000297834F8210048F6BF72104080F0300088
:104BE0000FE1B4F850100819297800EB0110CFE656
:104BF0002A7834F8220048F68F63184040EA0A0009
:104C000024F82200B4F850002A78204400EB021067
:104C10008BB2A0F804342A89D6E7A96928698142B1
:104C200002D9091AA96102E00846C5F81890B4F83B
:104C300050102A78214401EB0211B1F80C24C2F380
:104C40000902A1F80C2401F20C413E287DD9420949
:104C5000C00600D1521E088847EA82220AE008886E
:104C600040F4004007E04208C00700D0521C08880A
:104C700008EA822210430880BBE033BBB4F850003E
:104C80002978204400EB0110B0F80414C1F30901A5
:104C9000A0F80414296900F204403E2907D94B0901
:104CA000C90600D15B1E018847EA832307E041B1B2
:104CB0004B08C90700D05B1C018808EA832319430D
:104CC00002E0018841F400410180687810B10128B8
:104CD00028D030E0B4F850002978204400EB0110CF
:104CE000B0F80C14C1F30901A0F80C14296900F202
:104CF0000C403E2907D94B09C90600D15B1E01882B
:104D000047EA832307E041B14B08C90700D05B1C89
:104D1000018808EA8323194302E0018841F4004135
:104D2000018008E0B4F850100819297800EB011050
:104D3000298AA0F80C14E869C0B3297834F8210056
:104D4000430401D5430605D400E046E044F24003A5
:104D500018424ED134F82100104048F2C0021043EE
:104D600024F8210045E0A9692869814202D9091A7D
:104D7000A96102E00846C5F8189013BBB4F85010BA
:104D80002A78214401EB0211B1F80424C2F309028C
:104D9000A1F8042401F204413E2808D94209C306BF
:104DA00000D1521E0B8847EA822208E021E078B148
:104DB0004208C30700D0521C0B8808EA8222134322
:104DC0000B80697800293FF42EAF012909D010E04B
:104DD0000A8842F400420A80F3E700287FF443AFD8
:104DE0003DE7B4F8502011192A7801EB0211A1F81F
:104DF0000C04297834F821004BF68F72104080F4AF
:104E0000405040EA0A0024F821000020A8E50021D3
:104E1000A0F844104FF43F41A0F840100020704724
:104E20000148FCF713BE00004C150020B0F8440008
:104E30007047000010B500EB42005C0800F5806090
:104E400009D000BF30F8042B01F8012B120A01F839
:104E5000012B641EF6D1DA0701D00088087010BD5E
:104E60000020704711B98021A0F84C100020704735
:104E700010B55B1C00EB42005B0800F5806009D0B8
:104E800011F8012B11F8014B42EA042220F8042BFF
:104E90005B1EF5D110BDFEE70FB4084B10B504A999
:104EA00002AA039800F07EF9044602A9002000F04F
:104EB000FCFC204610BC5DF814FB0000AB58000859
:104EC000490050EAC12018BF04204A0D18BF40F025
:104ED000010040F2FF72B2EB515F08BF40F00200E8
:104EE000012808BF052070470907090E002804DBC8
:104EF00000F1E02080F80014704700F00F0000F18E
:104F0000E02080F8141D70472DE9F0414F1E00EBA2
:104F1000C7010446D1E9000115461E4637F00602D6
:104F20000DD02A463346FBF717FB7F1E04EBC70361
:104F3000D3E90023FBF769FA37F00602F1D1022F1B
:104F400025D0042F13D0062F18BFBDE8F0812A46C4
:104F50003346FBF701FBD4E90A23FBF756FA2A464E
:104F60003346FBF7F9FAD4E90823FBF74EFA2A4651
:104F70003346FBF7F1FAD4E90623FBF746FA2A4653
:104F80003346FBF7E9FAD4E90423FBF73EFA2A4655
:104F90003346FBF7E1FAD4E90223FBF736FA2A4657
:104FA0003346FBF7D9FAD4E90023BDE8F041FBF71B
:104FB0002CBA00000022134610460149FBF73EBB05
:104FC0000000F03FFBF721BA0022134610461146BD
:104FD000FBF734BB40F2013200204FF0E041FBF719
:104FE0009CBB0000024A00201107FBF796BB0000A3
:104FF00001FDFFFF02E008C8121F08C1002AFAD114
:1050000070477047002001E001C1121F002AFBD148
:10501000704700000149086070470000F801002057
:105020002DE9FF5F82B00021DDE90430020DDDF8DB
:1050300040B0034318D044F61050A2F2FF3242436E
:105040001514119801281FD0A5EB0B00401C5FEA36
:10505000000A4FF000064E4FDFF83891B046504638
:1050600015D5CAF1000413E0119801244AA30128C0
:1050700001D16FEA0B010298119AC0E90031C0E931
:10508000024206B0BDE8F09FCBF10000DFE7044626
:105090000021404A491842EB0450CDE9001012E0CB
:1050A000E00707D032463B4640464946FBF754FAF4
:1050B0008046894632463B4610461946FBF74CFA75
:1050C00006460F466410002CEAD1DDE90401DDE953
:1050D0000023BAF1000F06DAFBF73EFA42464B46D0
:1050E000FBF73AFA05E0FBF7A9FA42464B46FBF715
:1050F000A5FA04460E460022284BFBF7A7FC03D86E
:105100004FF0FF30014607E00022254B2046314694
:10511000FBF77BF9FBF782FC102409E0002C0ADB8B
:105120000A220023FBF794FB039B30321A55641EBE
:1051300050EA0102F2D1641C039AC4F11103144431
:10514000119A012A03D0012208430DD10AE0084335
:1051500004D000204FF0110B119072E7A3EB0B0568
:105160006D1E0DE05B4504DD4FF0000205F1010509
:1051700004E003DA4FF00002A5F10105002AECD0AB
:1051800002981199C0E90231C0E9004579E70000B1
:10519000000014400000F03F300000000000F04329
:1051A0000000E03F2DE9FF4F95B09A46884606463D
:1051B0000025EEE1252877D100242746F94A012170
:1051C000039400E0044316F8013F203B01FA03F08A
:1051D0001042F7D130782A2811D06FF02F033078A1
:1051E000A0F13002092A16D8039A44F0020402EB17
:1051F000820203EB42021044761C0390EFE758F85A
:10520000042B0392002A03DA504244F40054039022
:1052100044F00204761C30782E2816D116F8010FBF
:1052200044F004042A280DD06FF02F023078A0F14A
:105230003003092B09D807EB870302EB4303C71898
:10524000761CF3E758F8047B761C30786C280FD076
:1052500006DC4C2817D068280DD06A2814D104E049
:10526000742810D07A280FD10DE044F400140AE01D
:1052700044F4801401E044F440147278824202D174
:1052800004F58014761C761C307866280BD013DC6D
:10529000582877D009DC002875D04528F6D0462854
:1052A000F4D047281AD193E118E0632835D0642858
:1052B00079D0652812D18BE1702873D008DC67287B
:1052C000F1D069286FD06E280DD06F2806D1ACE0E0
:1052D00073282CD0752874D0782853D0524617994B
:1052E00090476D1C54E1C4F30250022809D00328F2
:1052F0000DD0D8F8001004280DD00D6008F1040876
:1053000046E1D8F80010EA17C1E90052F6E7D8F8EC
:1053100000100D80F2E70D70F0E718F8041B8DF80F
:10532000001000208DF80100EB46012003E058F842
:1053300004BB4FF0FF3061074FF0000102D40DE0D5
:1053400009F101018946B9420FDA8145F8DB1BF802
:1053500009100029F4D108E009F1010189468142D0
:10536000FADB1BF809100029F6D103985346A0EB8D
:10537000090721463846179A00F080FA284400EBC6
:10538000090507E044E008E10DE01BF8010B524677
:1053900017999047B9F10109F7D25346214638468B
:1053A000179AF2E039E00A21C4F302524FF0000BE1
:1053B0000091022A06D058F8040BC117032A09D01D
:1053C0000AE023E008F1070020F00702F2E80201FA
:1053D000904605E000B2C117042A01D140B2C117BE
:1053E000002906DA0A460021404261EB02012D2223
:1053F00002E0220504D52B228DF80420012203E0CF
:10540000E20701D02022F7E7914657E00A2100E0A9
:1054100010214FF0000B00910BE010214FF0000B1A
:1054200044F004040827009103E008204FF0000B2B
:105430000090C4F30252022A05D058F8040B002150
:10544000032A08D008E008F1070020F00702F2E87C
:105450000201904603E080B2042A00D1C0B24FF0AE
:10546000000922072AD53278702A07D0DDF800C05B
:105470008CF0100C5CEA0B0C05D00EE040228DF88D
:105480000420012208E050EA010306D030238DF801
:1054900004308DF8052002229146009B83F008031A
:1054A00053EA0B030AD150EA010201D1620705D584
:1054B00030228DF804204FF001097F1E3278582ADF
:1054C00004D039A20C920CAA02920BE03BA2F9E79D
:1054D0005B46009AFBF7BCF90C9B9B5C029A521E40
:1054E0000292137050EA0102F2D1029804A9081A3C
:1054F00000F1200B600702D524F4803400E001277E
:105500005F4502DDA7EB0B0000E0002000EB0B0184
:10551000009003984944401A0390E00306D4534690
:105520002146179A039800F0A9F90544002706E0E0
:1055300001A85246C05D179990476D1C7F1C4F45CE
:10554000F6DBE0030CD553462146179A039800F08A
:1055500095F9054404E030205246179990476D1C98
:105560000099481E00900029F5DC08E00298029995
:1055700052460078491C0291179990476D1CBBF167
:105580000001ABF1010BF1DC5BE100F065F90544D2
:10559000761C307800287FF40DAE19B02846BDE89F
:1055A000F08F0000092801003031323334353637AE
:1055B000383961626364656600000000303132335F
:1055C00034353637383941424344454600000000FF
:1055D000600700D4062708F1070020F00700F0E874
:1055E0000223804603F0004C5FEA0C0001D097A034
:1055F00009E0200501D596A005E0E00701D095A0BF
:1056000001E0AFF24C001390307823F0004365289E
:105610000CD006DC452809D046281DD047287FD16C
:105620003BE0662818D067287AD136E00021112F98
:1056300001DB112000E0781CCDE9000104A90CA8D1
:10564000FFF7EEFCDDE90D010C9A4FF0000B07F1BE
:105650000109109200914EE04FF000400097CDE913
:10566000011004A90CA8FFF7DBFCDDE90D020C9B7F
:105670000F994FF0000B91461093009211B9791CCD
:1056800000EB0109B7EB090003D4C0F1FF3B07F1C0
:105690000109A9EB0700019042E0012F00DA012780
:1056A0000021112F01DD112000E03846CDE9000175
:1056B00004A90CA8FFF7B4FCDDE90D010C9A0091D8
:1056C0004FF0000BB946109221070FD4009A4A45BB
:1056D00003DA914601E0A9F10109B9F1010F05DDF5
:1056E000109AA9F10101515C3029F4D0B84202DAD4
:1056F00010F1040F03DA0121CDE9011010E00028B8
:1057000003DC8344A9EB000102E0411C494500DDB4
:105710008946A0EB0B00401C01904FF00040029026
:10572000200705D40198484502DB4FF0FF30019077
:1057300000208DF84B0002980DF14B07B0F1004F9F
:1057400025D002200C902B200D90029800280CDA16
:10575000404202902D200D9007E00A210298FBF7AD
:1057600061F83031029007F8011D0C99481E0C9029
:105770000029F2DC02980028EFD1791E0D980870FC
:10578000307800F0200040F0450007F8020D11A825
:10579000C01BC01D02901398007800B1012000EBDF
:1057A0000901019801EBE071029801440398401A45
:1057B000401E0390E00306D453462146179A0398EF
:1057C00000F05CF805441398007818B15246179918
:1057D00090476D1CE00323D553462146179A039842
:1057E00000F04CF805441BE0BBF1000F07DB00980C
:1057F000584504DD1098179910F80B0001E017992F
:1058000030205246904701980BF1010B401E05F1E4
:105810000105019004D12E205246179990476D1C26
:10582000B9F10001A9F10109DEDC05E017F8010B6F
:105830005246179990476D1C0299481E0290002904
:10584000F4DC53462146179A03989EE62D0000008B
:105850002B000000200000002DE9F0410446002547
:105860001E461746880404D405E039462020B04778
:105870006D1C641EF9D52846BDE8F0812DE9F04184
:10588000044600251E469046C80301D5302700E097
:105890002027880404D505E041463846B0476D1CF2
:1058A000641EF9D52846BDE8F0810A68531C0B60D8
:1058B00010707047FBF7DAFCFDF7F2FEFDF7FAF91E
:1058C000FDF766FAFDF7D8F900F00EF8FEE701469D
:1058D0000020842900D0C81C704710B500B90120F1
:1058E00001F032F8002010BD10B501F099F8002049
:1058F00010BD7FB50D4604464169B0F9080081B17D
:10590000A16971B1FFF7E3FFD4E905128DE8070043
:10591000D4E900102B46226901F06FF9039004B01E
:1059200070BDFFF7D4FF03A9CDE90001208A2B4603
:1059300082B2D4E9001001F033F9012801D000202F
:10594000EDE70398EBE700002DE9F04D1D460C460E
:1059500098B0174621F0004123F00043002814BFFF
:105960004FF0010C4FF0000C0CEB440CFE4A0CEB1A
:1059700002064FEA620C66452BD33E0018BF012693
:1059800006EB45061644F94A964222D3F84A53EAF2
:10599000070C02D0944205D148B918B00020114636
:1059A000BDE8F08D002808BF4FF0000C01D04FF08B
:1059B000010C0CEB440212F5001F0AD8002F14BF93
:1059C0004FF0010C4FF0000C0CEB450212F5001FDC
:1059D00007D918B03A462B462146BDE8F04DFFF7EF
:1059E000F1BA0022DFF88CA3002CB8BF534526DAA9
:1059F000DFF884C36345A8BF022220DADFF870C352
:105A00009C451CDCDFF874C30CEB235CBCF1140F69
:105A100008DDCCF1340627FA06FC0CFA06F6BE4285
:105A20000DD108E05FB9CCF1140623FA06FC0CFA9C
:105A300006F69E4203D10CF00102C2F1020251EAC5
:105A4000000C19D1002D17DA002C18BF022A01D042
:105A5000012A07D00220FFF7DDFA18B0BDE8F04DAB
:105A6000FFF7A8BA0220FFF7D5FAFFF7A3FA18B09C
:105A700081F00041BDE8F08DB7F1000C6CD15345C9
:105A800025D104F1804212F5801201BF00280020C8
:105A9000B74918B008BFBDE8F08DB548884207DCAB
:105AA000002DA1BF6046294618B0BDE8F08D07E083
:105AB000281E05DA80F0004118B06046BDE8F08D80
:105AC000AF497944D1E9000118B0BDE8F08DDFF8A5
:105AD000A0C2634525D1002D1FDA19B1514512D15D
