:020000040800F2
:10000000201F0120B1020008994E0008A7450008F2
:10001000954E0008C9050008418500080000000051
:10002000000000000000000000000000F1010008D6
:1000300091070008000000004D0200084557000825
:10004000CB020008CB020008CB020008CB0200085C
:10005000CB020008CB020008CB020008CB0200084C
:10006000CB020008CB020008CB020008990600086A
:10007000A9060008CB020008CB020008CB0200084A
:10008000CB020008CB020008CB020008CB0200081C
:1000900099840008CB020008CB020008CB020008BC
:1000A000CB020008CB020008E5570008CB0200088D
:1000B000CB020008CB020008CB020008CB020008EC
:1000C000CB020008CB020008CB020008CB020008DC
:1000D000CB020008CB020008CB020008CB020008CC
:1000E000CB020008CB020008CB020008CB020008BC
:1000F000CB020008CB020008CB020008CB020008AC
:10010000CB020008CB020008CB020008CB0200089B
:10011000CB020008CB020008CB020008CB0200088B
:10012000B9060008C9060008D9060008CB02000875
:10013000CB020008CB020008CB020008CB0200086B
:10014000CB020008CB020008CB020008CB0200085B
:10015000CB020008CB020008CB020008CB0200084B
:10016000CB020008CB020008CB020008CB0200083B
:10017000CB020008CB020008CB020008CB0200082B
:10018000CB020008CB020008CB020008CB0200081B
:10019000CB02000800000000CB020008CB020008E0
:1001A000CB020008CB020008CB020008CB020008FB
:1001B000CB020008CB020008CB020008CB020008EB
:1001C000CB020008CB020008CB020008CB020008DB
:1001D000CB020008CB020008DFF810D000F09EF838
:1001E00000480047E9850008AFF30080201F012088
:1001F0002C4B19680868B0E8F04F80F30988BFF30A
:100200006F8F4FF0000080F31188704700000000EE
:1002100008480068006880F308884FF0000080F309
:10022000148862B661B6BFF34F8FBFF36F8F00DFE4
:1002300000BF00BF08ED00E0DFF80C00016841F4EA
:1002400070010160704700BF88ED00E0EFF30980A6
:10025000BFF36F8F134B1A681EF0100F08BF20ED0D
:10026000108A20E9F04F106009B44FF0500080F37D
:100270001188BFF34F8FBFF36F8F09F06BFC4FF006
:10028000000080F3118809BC19680868B0E8F04FD5
:100290001EF0100F08BFB0EC108A80F30988BFF37E
:1002A0006F8F7047AC010020EFF3058070470000AE
:1002B0000648804706480047FEE7FEE7FEE7FEE700
:1002C000FEE7FEE7FEE7FEE7FEE7FEE7D1570008A0
:1002D000D901000840EA01039B0703D009E008C9DF
:1002E000121F08C0042AFAD203E011F8013B00F8FB
:1002F000013B521EF9D27047D2B201E000F8012B47
:10030000491EFBD270470022F6E710B513460A4695
:1003100004461946FFF7F0FF204610BD064C074D76
:1003200006E0E06840F0010394E8070098471034C5
:10033000AC42F6D3FFF754FFC8AD0008E8AD0008A3
:1003400070B58C1810F8015B15F0070301D110F897
:10035000013B2A1106D110F8012B03E010F8016BC4
:1003600001F8016B5B1EF9D12B0705D40023521E47
:100370000DD401F8013BFAE710F8013BCB1A921CAF
:1003800003E013F8015B01F8015B521EF9D5A142AD
:10039000D8D3002070BD70B50546AC6AE06D00F0A2
:1003A000500098BBE06D40F40070E0652068006884
:1003B00000F00800A8B1206804F066F910B32068C6
:1003C000C06800F40050E8B9E06D20F48070E0658A
:1003D000E06D00F48050A8B9E06D40F00100E065E8
:1003E00010E02068C06800F0020058B9E06D20F409
:1003F0008070E065E06D00F4805018B9E06D40F069
:100400000100E065204600F0CFFD0CE0FFE7E06D65
:1004100000F0100018B1204600F05EFE03E0606DB1
:10042000416B2846884770BD70B50546AC6AE06DE3
:1004300040F04000E065206E40F004002066204659
:1004400000F04AFE70BD70B50446A56A284600F06B
:10045000F7FD70BD70B50446206804F0F7F8064655
:10046000206804F0F8F898B396BB2068806800F024
:100470000D0001280AD1206881681A4A1140891CA0
:10048000816000BF03202168086009E0E06D40F052
:100490001000E065206E40F001002066012070BD74
:1004A00001F074FC054614E001F070FC401B0228CA
:1004B0000FD92068806800F0010050B1E06D40F075
:1004C0001000E065206E40F0010020660120E6E7A4
:1004D00005E02068806800F001000028E4D10020D9
:1004E000DDE70000C0FFFF7F38B504460020009024
:1004F000206804F0B0F8002858D1206880682C49A2
:10050000084048B1E06D40F01000E065206E40F01A
:1005100001002066012038BD206804F077F82168CA
:10052000B1F1A04F03D0234A2168914201D1224961
:1005300000E02249084604F071F800F4000080B1A0
:100540001F4800681F49B0FBF1F0401C00EB400061
:100550008000009002E00098401E00900098002863
:10056000F9D101F013FC05461AE0206804F073F895
:1005700010B9206804F04AF801F008FC401B02287A
:100580000ED92068006800F0010048B9E06D40F025
:100590001000E065206E40F0010020660120BAE7FF
:1005A0002068006800F001000028DED00020B2E7DB
:1005B0003F00008000010050000300500007005081
:1005C00094000020400D030000BFFEE70346042B0B
:1005D00015D007DC7BB1012B0ED0022B0DD0032BE5
:1005E00012D10BE0202B0BD0212B0AD0222B09D0CB
:1005F000232B09D107E008E007E006E005E004E06E
:1006000003E002E001E000E000BF00BF002070470F
:100610000020704710B500220449054805F097FDF9
:100620000449034805F088FD002010BD481D002046
:10063000781000204815002070B504460D4621466C
:10064000034805F079FD024805F044FD002070BD27
:100650007810002010B503460C460021084610BD56
:100660002DE9F04104460D4600260A48D0F8BC7238
:10067000D7F8140210B10120BDE8F0812A462146C6
:10068000044805F064FD034805F0FDFD06463046CC
:10069000F2E700007810002010B5024801F036F9AA
:1006A00010BD0000B808002010B5024801F02EF976
:1006B00010BD00001809002010B5024801F026F90D
:1006C00010BD00007809002010B5024801F01EF9A5
:1006D00010BD0000D809002010B5024801F016F93D
:1006E00010BD0000380A002030B50E4D0468AC4241
:1006F00001D20D4901E00C4920310B460478083C39
:100700001425B4FBF5F2446CA40803EB8404846460
:10071000054C8034C46402F01F050124AC4004651C
:1007200030BD0000080402400008024001794A1E62
:10073000064B03EB82024265044A403282654A1E40
:1007400002F01F0301229A40C2657047000902406F
:1007500030B5D0E913546C60446D14B1D0E916542F
:100760006C6090F8444004F01F050124AC40056C17
:100770006C60046863608468102C04D10468A26013
:100780000468E16003E00468A1600468E26030BDD1
:10079000704772B600BFFEE770B50A480468001DD6
:1007A0000568001D0668344454B1082206492046F5
:1007B00003F0FBFE042204491031284603F0F5FE45
:1007C00070BD00009075FF1F5A000020F8B5044668
:1007D0000D460020009000BF94F85800012801D178
:1007E0000220F8BD012084F8580000BF2046FFF722
:1007F00031FE06468EBBE06D20F4885040F00200CA
:10080000E065206881681B4A114005F0804242F093
:1008100000421143816000BF13E00098401C00902B
:100820001549009888420CD3E06D20F0020040F09A
:100830001000E06500BF002084F8580000BF0120D0
:10084000CFE720688168C90F0029E6D1E06D20F06C
:10085000020040F00100E06504E0FFE7E06D40F0D9
:100860001000E06500BF002084F8580000BF30464B
:10087000B7E70000C0FFFF3F02DE04002DE9F043B0
:100880009BB004460E464FF00008306800B100BF30
:1008900000BF94F85800012803D102201BB0BDE826
:1008A000F083012084F8580000BF002017901890B2
:1008B0002068B0F1A04F02D15848009008E0584994
:1008C0002068884202D15748009001E00020009043
:1008D000009850B9E06D40F02000E06500BF0020B6
:1008E00084F8580000BF0120D8E7009803F0C7FE45
:1008F0000746206803F0C3FE00287DD1002F7FD17A
:100900002068B0F1A04F03D044492068884201D14B
:10091000454800E0454805463068D8B394F83800AB
:10092000716841EA4030A96821F460410843A86039
:100930002068B0F1A04F03D038492068884201D127
:10094000394800E03948384988420AD14FF0A04080
:1009500003F086FE8146314803F082FE49EA00003A
:100960000DE02F4803F07CFE81462E4803F078FE10
:1009700049EA00092E4803F073FE49EA0000E0BB93
:10098000B16830680843A96840F61F729143084374
:10099000A8603BE0FFE7A86820F46040A8602068FA
:1009A000B0F1A04F03D01D492068884201D11E48F4
:1009B00000E01E481C4988420AD14FF0A04003F0D5
:1009C0004FFE8146154803F04BFE49EA00000DE05A
:1009D000134803F045FE8146124803F041FE49EA00
:1009E0000009134803F03CFE49EA000028B9A86852
:1009F00040F61F71884301E002E007E0A86005E0CF
:100A0000E06D40F02000E0654FF0010800BF0020DD
:100A100084F8580000BF404640E700000001005045
:100A20000004005000050050000300500007005073
:100A3000000600502DE9F84F05460C464FF0000A1D
:100A400000200090FE49E068884200D000E000BF2E
:100A500000BF95F85800012802D10220BDE8F88FA8
:100A6000012085F8580000BF286803F003FE002825
:100A70007DD12968D4E9002001F1300CC0F3012BAD
:100A80000CEB8B03D3F800C000F01F0E4FF01F0BD0
:100A90000BFA0EFB2CEA0B0C00F01F0BC2F3846E5A
:100AA0000EFA0BFE4CEA0E0CC3F800C000BF28681B
:100AB00003F0E0FD8146286803F0C3FD8046B9F1EC
:100AC000000F64D1B8F1000FFBD1A068B0F1004F66
:100AD0000AD121680022286803F0E8FD4FF00041A8
:100AE000286803F008FE08E0A2682168286803F07F
:100AF000DDFD0021286803F0FEFD60692968C968F2
:100B0000C1F3C101490000FA01F7206904283FD070
:100B100028682268216900F1600C0CEB8103D3F88E
:100B200000C0DFF820B30CEA0B0C02F0F84B4BF0DE
:100B3000004B4BEA070B4CEA0B0CC3F800C000BF9C
:100B40002868A269216900F1600C0CEB8103D3F8DD
:100B500000C02CF0807C4CEA020CC3F800C000BF3F
:100B60002868227F2169012A02D1520601E0F6E1BC
:100B70000022134600F1600C0CEB8102D2F800C099
:100B80002CF0007C4CEA030CC2F800C000BFA7E0C8
:100B90000021286803F04CFDC0F3120030B9002199
:100BA000286803F045FDC0F3846007E00021286851
:100BB00003F03EFD90FAA0F0B0FA80F02168C1F396
:100BC000120119B92168C1F3846104E0216891FA26
:100BD000A1F1B1FA81F1884204D1002211462868BE
:100BE00003F07EFD0121286803F022FDC0F312000E
:100BF00030B90121286803F01BFDC0F3846007E0D1
:100C00000121286803F014FD90FAA0F0B0FA80F0FA
:100C10002168C1F3120119B92168C1F3846104E0AC
:100C2000216891FAA1F1B1FA81F1884204D1002240
:100C30000121286803F054FD0221286803F0F8FC24
:100C4000C0F3120030B90221286803F0F1FCC0F3B0
:100C5000846007E00221286803F0EAFC90FAA0F023
:100C6000B0FA80F02168C1F3120119B92168C1F30B
:100C7000846104E0216891FAA1F1B1FA81F188421E
:100C800004D100220221286803F02AFD03212868EC
:100C900003F0CEFCC0F3120030B90321286803F042
:100CA000C7FCC0F3846007E00321286803F0C0FCA0
:100CB00090FAA0F0B0FA80F02168C1F3120119B9DE
:100CC0002168C1F3846104E0216891FAA1F1B1FACD
:100CD00081F1884204D100220321286803F000FD3D
:100CE000286803F0B8FC002870D12868E268216801
:100CF000D0F8B0C0C1F312032CEA030C02F0180BB9
:100D0000514B23FA0BF30B404CEA030CC0F8B0C074
:100D100000BF4B49E068884258D12368C3F31203EF
:100D20001BB92368C3F3846304E0236893FAA3F335
:100D3000B3FA83F35B1C03F01F03092B3ED823682F
:100D4000C3F312031BB92368C3F3846304E023686D
:100D500093FAA3F3B3FA83F35B1C03F01F034FF082
:100D6000010C0CFA03FC2368C3F312031BB92368BC
:100D7000C3F3846304E0236893FAA3F3B3FA83F321
:100D80005B1C03F01F034CEA836C2368C3F312035C
:100D90001BB92368C3F3846304E0236893FAA3F3C5
:100DA000B3FA83F35B1C03F01F0303EB43034FF021
:100DB000000B4BEA03534CEA03033FE02368C3F301
:100DC000120323B92368C3F3846305E042E0236878
:100DD00093FAA3F3B3FA83F35B1C03F01F034FF002
:100DE000010C0CFA03FC2368C3F312031BB923683C
:100DF000C3F3846304E0236893FAA3F3B3FA83F3A1
:100E00005B1C03F01F034CEA836C2368C3F31203DB
:100E10001BB92368C3F3846304E0236893FAA3F344
:100E2000B3FA83F35B1C03F01F030A3B03EB43039A
:100E30004FF0007B4BEA03534CEA0303194605E0ED
:100E400000007F4000F0FF03FFFF0700A268286852
:100E500003F02CFC484920680840002842D029684B
:100E6000B1F1A04F03D0454A2968914201D14449CC
:100E700000E04449084603F0D1FB06464249206899
:100E8000884203D04149206888422CD106F40000F2
:100E900048BB2868B0F1A04F03D03D49286888427C
:100EA00063D12A68B2F1A04F03D0344B2A689A422A
:100EB00001D1334A00E0334A104646F4000103F002
:100EC00009FC344800683449B0FBF1F0401C00EBE9
:100ED00040008000009002E00098401E00900098C2
:100EE0000028F9D141E02D49206888421BD106F045
:100EF0008070C0B921492868884203D128492868F0
:100F0000884232D02A68B2F1A04F03D01B4B2A6826
:100F10009A4201D11A4A00E01A4A104646F08071FE
:100F200003F0D8FB21E01F49206888421DD106F458
:100F30008000D0B911492868884216D02A68B2F1D9
:100F4000A04F03D00B462A689A4201D10C4A00E018
:100F50000C4A104646F4800103F0BCFB05E0E86D46
:100F600040F02000E8654FF0010A00BF002085F83E
:100F7000580000BF504671E5000008800001005095
:100F80000003005000070050000021C31000C09073
:100F90000006005094000020400D0300000052C7DE
:100FA00000050050000084CB38B5044600200090B6
:100FB0001C4805681C48844205D16A46022128461F
:100FC00008F006FF23E01948844205D16A4608214B
:100FD000284608F0FDFE1AE01548844205D16A460D
:100FE0002021284608F0F4FE11E01248844205D181
:100FF0006A468021284608F0EBFE08E00E4884424D
:1010000005D16A464FF40071284608F0E1FE0098C9
:1010100038B14FF0805009490860BFF34F8FBFF3DC
:101020006F8F38BD080000209C06002008070020B4
:1010300074070020E00700204C08002004ED00E0C9
:1010400038B50446002000901C4805681C488442BE
:1010500005D16A460121284608F0BAFE23E0194866
:10106000844205D16A460421284608F0B1FE1AE000
:101070001548844205D16A461021284608F0A8FE8A
:1010800011E01248844205D16A464021284608F002
:101090009FFE08E00E48844205D16A464FF48071F5
:1010A000284608F095FE009838B14FF08050094965
:1010B0000860BFF34F8FBFF36F8F38BD080000206B
:1010C0009C0600200807002074070020E00700208D
:1010D0004C08002004ED00E0704700002DE9F843C3
:1010E00004464FF000080020009014B90120BDE82C
:1010F000F883606920B194F82400012800D100BF72
:10110000E06D30B9204600F045F90020206684F8F3
:10111000580020688168C1F3407131B1206881684E
:10112000914A1140816000BF00BF206803F09DFA22
:10113000B0B9206881688D4A114041F080518160CA
:1011400000BF8B4800688B49B0FBF1F0401C4000A9
:10115000009002E00098401E009000980028F9D10D
:10116000206803F082FA48B9E06D40F01000E065B5
:10117000206E40F0010020664FF00108206803F067
:1011800079FA0646E06D00F0100000287ED1002EAE
:10119000FCD1E06D20F4807040F00200E065206832
:1011A00003F059FA88BB2068B0F1A04F03D0724910
:1011B0002068884201D1714800E071486F49884237
:1011C0000AD14FF0A04003F046FA81466A4803F086
:1011D00042FA49EA00000DE06A4803F03CFA814611
:1011E000694803F038FA49EA0009684803F033FA1D
:1011F00049EA000048B92268B2F1A04F03D05E4B23
:1012000022689A4202D15D4A01E009E05C4A104638
:101210006168826822F47C120A43826000BF00BFCA
:10122000607FE16B41EA4030E1680843A168084310
:1012300094F8241040EA014594F82400012803D1D1
:10124000208D401E45EA4045E06A28B1A08D00F49B
:101250007870216B084305432068C0684C490840FA
:1012600028432168C8602068006920F04060616BF5
:10127000084321680861206803F0E3F90746EEBBE4
:10128000E7BB207F002141EA803100E064E094F870
:10129000380041EA40052068C06844F202018843F2
:1012A00028432168C860206980B12068006940F443
:1012B0008030216808612068D0F8C0006FF30D000D
:1012C000216908432168C1F8C0000DE02068006969
:1012D00020F48030216808612068D0F8C0006FF3E6
:1012E0000D002168C1F8C00094F84000012813D116
:1012F000606C40F00101A06C084300E012E0E16C7A
:101300000843216D08432168096940F2FC7291434A
:1013100008432168086105E02068006920F00100A9
:10132000216808616069012809D12068006B20F0FC
:101330000F00216A491E08432168086305E0206800
:10134000006B20F00F0021680863E06D20F00200C0
:1013500040F00100E06505E0E06D40F01000E06560
:101360004FF001084046C2E6C0FFFF5FC0FFFF7FAD
:1013700094000020400D03000001005000030050C5
:101380000007005000040050000500500006005007
:101390000740F0FF10B59CB00446142117A8FEF7D3
:1013A000B2FF542102A8FEF7AEFF2068B0F1A04FB3
:1013B0006ED14FF4004002908003139002A801F018
:1013C0008DFD08B1FFF7E5F9EB480068401CEA49DC
:1013D00008600846006801280DD100BFE748C06CCE
:1013E00040F40050E549C8640846C06C00F4005061
:1013F000019000BF00BF00BFE048C06C40F001009A
:10140000DE49C8640846C06C00F00100019000BFCE
:1014100000BF00BF0846C06C40F00200C864084628
:10142000C06C00F00200019000BF00BF02201790C6
:10143000032018900020199017A94FF0904000F059
:10144000AFFB02201790032018900020199017A9D5
:10145000CB4800F0A5FBCB48CB490860052048608D
:101460000021C9488160C16080210161490041615A
:10147000890081612021C161C901016200F0C6FAC1
:1014800008B1FFF786F900BFBF486065846270E16C
:10149000BE492068884257D1C00102908003139052
:1014A00002A801F01BFD08B1FFF773F9B24800680C
:1014B000401CB14908600846006801280DD100BFF2
:1014C000AE48C06C40F40050AC49C8640846C06CDB
:1014D00000F40050019000BF00BF00BFA748C06CDF
:1014E00040F00100A549C8640846C06C00F0010046
:1014F000019000BF00BFA02017900320189000208B
:10150000199017A94FF0904000F04AFB9D48143005
:101510009F4908602420486000219D488160C16087
:101520008021016149004161890081612021C161FF
:101530000021016200F06AFA08B1FFF72AF900BF42
:1015400093486065846214E192492068884256D1CC
:1015500080010290C003149002A801F0BFFC08B102
:10156000FFF717F98C480068401C8B490860084653
:10157000006801280DD100BF8048C06C40F4804055
:101580007E49C8640846C06C00F48040019000BFEA
:1015900000BF00BF7948C06C40F002007749C864C2
:1015A0000846C06C00F00200019000BF00BF4FF47D
:1015B00000501790032018900020199017A9704828
:1015C00000F0EEFA75487649086025204860002151
:1015D00073488160C16080210161490041618900D7
:1015E00081612021C1610021016200F00FFA08B180
:1015F000FFF7CFF800BF6A4860658462B9E06949C7
:101600002068884257D14FF480300290C003149074
:1016100002A801F063FC08B1FFF7BBF85E48006860
:10162000401C5D4908600846006801280DD100BFD4
:101630005248C06C40F480405049C8640846C06CB1
:1016400000F48040019000BF00BF00BF4B48C06C59
:1016500040F002004949C8640846C06C00F002002E
:10166000019000BF00BF881417900320189000203D
:10167000199017A9424800F093FA484814304A4993
:10168000086026204860002147488160C1608021B1
:10169000016149004161890081612021C16100210E
:1016A000016200F0B3F908B1FFF773F800BF3E48DC
:1016B000606584625DE03D492068884259D14FF4FD
:1016C00080300290C003149002A801F007FC08B11A
:1016D000FFF75FF830480068401C2F490860084653
:1016E000006801280DD100BF2448C06C40F4804040
:1016F0002249C8640846C06C00F48040019000BFD5
:1017000000BF00BF1D48C06C40F001001B49C86409
:101710000846C06C00F00100019000BF00BF8815B2
:101720001790032018900020199017A94FF09040AF
:1017300000F036FA194828301D4908602720486013
:1017400000211B488160C160802101614900416125
:10175000890081612021C1614FF44051016200F094
:1017600055F908B1FFF715F800BF114860658462AC
:1017700000BF1CB010BD0000180000200010024087
:101780000004004808000240B80800200001005092
:1017900018090020000400501C000020080402402A
:1017A0007809002000050050D809002000060050EC
:1017B000380A00202DE9F04104460F469046216882
:1017C000B1F1A04F03D0484A2168914201D1474965
:1017D00000E04749084602F026FF0646206802F06E
:1017E00049FF00287CD100BF94F85800012802D19D
:1017F0000220BDE8F081012084F8580000BF3D4977
:101800002068884201D1012000E0002020B91EB1EB
:10181000052E01D0092E5DD12046FEF765FE054656
:10182000002D52D1E06D40F60161884340F4807094
:10183000E0652D492068884202D14FF0A04006E0C3
:101840002D492068884201D12C4800E02068216899
:10185000884200D01EB9E06D20F48010E065E06D94
:1018600000F4805020B1206E20F00600206601E0D8
:10187000002020662248616DC8622248616D0863BD
:101880002148616D48631C202168086000BF00206A
:1018900084F8580000BF2068406840F010002168BC
:1018A00048602068C06840F001002168C860226874
:1018B00002F1400143463A46606D00F00FF90546DB
:1018C000206802F0EBFE0CE00AE000BF002084F884
:1018D000580006E0012500BF002084F8580000E011
:1018E0000225284685E70000000100500003005053
:1018F0000007005000060050000500500004005092
:1019000097030008470400082904000870B504463E
:10191000206C05682068066894F8440000F01F01F8
:10192000042088402840E0B106F00400C8B12068D7
:10193000006800F0200028B92068006820F004004A
:101940002168086094F8440000F01F0104208840DA
:10195000216C4860206B002856D02046216B8847B8
:1019600052E094F8440000F01F0102208840284013
:1019700018B306F0020000B32068006800F02000F1
:1019800040B92068006820F00A0021680860012042
:1019900084F8250094F8440000F01F0102208840DC
:1019A000216C486000BF002084F8240000BFE06A7A
:1019B00050B32046E16A884726E094F8440000F0DE
:1019C0001F01082088402840F0B106F00800D8B177
:1019D0002068006820F00E002168086094F8440038
:1019E00000F01F0101208840216C48600120E06365
:1019F00084F8250000BF002084F8240000BF606B3D
:101A000010B12046616B884770BD000070B5044678
:101A10000CB9012070BD2F49206888420BD22E4995
:101A20002068401A1421B0FBF1F0800060642A485D
:101A3000083820640AE027492068401A1421B0FBC6
:101A4000F1F080006064234808382064022084F8A4
:101A500025002068056847F6F0708543D4E9020147
:101A600008432169084361690843A1690843E169A2
:101A70000843216A08430543206805602046FEF7B5
:101A800033FEA068B0F5804F01D10020606020795E
:101A9000A16C0860D4E913104860606860B16068A8
:101AA000042809D82046FEF741FE0020616D086039
:101AB000D4E91610486003E000206065A065E06589
:101AC0000020E063012084F82500002084F8240031
:101AD00000BF9FE708040240080002402DE9F041E2
:101AE00004460D4616461F464FF0000800BF94F806
:101AF0002400012802D10220BDE8F081012084F8F1
:101B0000240000BF94F8250001283FD1022084F86A
:101B100025000020E0632068006820F001002168B3
:101B200008603B46324629462046FEF711FE206BF0
:101B300030B12068006840F00E00216808600BE0BA
:101B40002068006820F004002168086020680068B0
:101B500040F00A0021680860A06C006800F4803042
:101B600028B1A06C006840F48070A16C0860606DC2
:101B700028B1606D006840F48070616D0860206875
:101B8000006840F001002168086006E000BF002006
:101B900084F8240000BF4FF002084046ACE7000084
:101BA00078B502460B460021CAE001268E401D682A
:101BB00005EA0604002C73D01D7905F00305012DFC
:101BC00004D01D7905F00305022D13D190684E0055
:101BD0000325B540A8434E00DD68B540284390601A
:101BE000506801258D40A8431D79C5F300158D402F
:101BF000284350601D7905F00305032D09D0D068F6
:101C00004E000325B540A8434E009D68B5402843CB
:101C1000D0601D7905F00305022D13D1CE0802F125
:101C2000200555F826004D07EE0E0F25B540A843B8
:101C30004E07F60E1D69B5402843CE0802F1200577
:101C400045F8260010684E000325B540A8431D79CD
:101C500005F003054E00B540284310605D6805F4AB
:101C60004035002D6BD000BF384D2D6E45F001057D
:101C7000364E356635462D6E05F00105009500BFE0
:101C800000BF4FEAB6358E0855F826008D072E0F97
:101C90000F25B540A843B2F1904F02D100251AE0BC
:101CA0004DE02B4DAA4201D1012514E0294DAA4255
:101CB00001D102250FE0284DAA4201D103250AE0F7
:101CC000264DAA4201D1042505E0254DAA4201D1A5
:101CD000052500E006258E07360FB5402843214D27
:101CE0008E0845F82600204D2868A0435D6805F45D
:101CF000801505B120431C4D28602D1D2868A04388
:101D00005D6805F4001505B12043174D2D1D2860B1
:101D1000154D2D1F2868A0435D6805F4003505B1F9
:101D20002043114D2D1F28602D1F2868A0435D689A
:101D300005F4803505B120430B4D083D2860491C52
:101D40001D68CD40002D7FF430AF78BD00100240FB
:101D50000004004800080048000C0048001000483B
:101D600000140048080001400804014010B5426911
:101D700021EA020302EA010443EA0443836110BD3D
:101D80000AB1816100E0816270470000014800688B
:101D90007047000088000020034800680349096874
:101DA0000844014908607047880000209000002026
:101DB00010B50024032000F0D1F8052000F008F849
:101DC00008B1012401E000F051F8204610BD0000E8
:101DD000F0B587B0044600260027002500BF1E4846
:101DE000006E40F480201C4908660846006E00F42E
:101DF0008020009000BF00BF01A902A801F08CFB69
:101E000001F0B2FB06461548B6FBF0F0471E144839
:101E10001449086040F2E7311248C1604760002170
:101E20000161816001F01FFF054695B90D4801F081
:101E3000CFFF05466DB91A2000F03EF8102C07D2EE
:101E4000002221461A2000F04BF80748046000E009
:101E50000125284607B0F0BD0010024040420F00A7
:101E600000480140300B00208C00002008B500BF66
:101E70001048006E40F001000E4908660846006EEA
:101E800000F00100009000BF00BF00BF0846806D59
:101E900040F0805088650846806D00F080500090CA
:101EA00000BF00BF00220F21901E00F019F801F0C2
:101EB0000BF808BD001002400146084600280DDB63
:101EC00000BF00BF00F01F0301229A4043099B009E
:101ED00003F1E023C3F8002100BF00BF00BF70473B
:101EE0002DE9F05F80460D46164606F02BFB0746AF
:101EF00039462A46334601F00700C0F1070ABAF115
:101F0000040F02D94FF0040A01E0C0F1070AD146DC
:101F100000F1040ABAF1070F02D24FF0000A01E003
:101F2000A0F1030AD4464FF0010A0AFA09FAAAF10D
:101F3000010A0AEA020A0AFA0CFA4FF0010B0BFA3C
:101F40000CFBABF1010B0BEA030B4AEA0B04214635
:101F5000404606F0FFFABDE8F09F000000BF00F029
:101F60000702064B19684FF6FF031940044B0B4359
:101F700043EA0221014B196000BF70470CED00E0FD
:101F80000000FA05024611680120C2F8D0020020C4
:101F900082F8C80231F8540F40F001000880088828
:101FA00040F0020021F854090020704770B5044643
:101FB0000D4615B1012D1CD10EE0607A38B103F049
:101FC000CCFB0D48006820F006000B490860D4F8EF
:101FD000D80204F08DFD0CE0D4F8D80204F01DFE08
:101FE000607A28B10448006840F0060002490860A1
:101FF00000BF00BF70BD000010ED00E070B50546E9
:102000000C4604F08000802808D104F0070000EBA3
:10201000800605F1100000EBC60105E004EB840624
:1020200005F5A87000EBC6011AB900200873CB8033
:1020300004E0012008730B81180C4881002070BD5A
:1020400070B504460D4605EB850304F1100101EB64
:10205000C3014A692946D4F8D80204F0C1FB70BD17
:1020600070B504460D4605EB850304F5A87101EB38
:10207000C3014A692946D4F8D80204F022FC70BD95
:1020800070B504460E4606F0800080280AD106F09E
:10209000070000EB800104F1100000EBC1050120F6
:1020A000687009E006F0070000EB800104F5A870F5
:1020B00000EBC1050020687006F00700287000BF23
:1020C00094F89002012801D1022070BD012084F80B
:1020D000900200BF2946206805F0C9FA00BF002021
:1020E00084F8900200BF00BFEFE770B504460E46CB
:1020F00006F00F002179884201D9012070BD06F059
:10210000800080280AD106F0070000EB800104F16E
:10211000100000EBC1050120687009E006F007001F
:1021200000EB800104F5A87000EBC1050020687089
:102130000020A87006F00700287000BF94F89002F5
:10214000012801D10220D9E7012084F8900200BFC4
:102150002946206805F0E6FB00BF002084F89002C5
:1021600000BF00BFCAE72DE9F04105460C461746FF
:1021700007F4804000284FD02868B0F8501020782D
:1021800001EBC000801C296801F58061405AC0F352
:102190000906A069B04203D3A069801BA06101E0D9
:1021A0000020A061A069A8B900BF22785200296868
:1021B00031F812104BF68F7201EA020080F40050E1
:1021C00040F4004141F0800123785B002A6822F846
:1021D000131000BF07F04000A8B100BF00BF227875
:1021E0005200296831F8121048F68F7201EA020095
:1021F00040F4004141F0C00123785B002A6822F8D6
:10220000131000BF00BF002E54D0228961693346ED
:10221000286806F04DF94DE02868B0F85010207895
:1022200001EBC000801D296801F58061405AC0F3B0
:102230000906A069B04203D3A069801BA06101E038
:102240000020A061A069A8B900BF227852002968C7
:1022500031F812104BF68F7201EA020080F4005040
:1022600040F4004141F0800123785B002A6822F8A5
:10227000131000BF07F04000A8B900BF00BF2278CC
:102280005200296831F8121048F68F7201EA0200F4
:1022900040F4004141F0C00123785B002A6822F835
:1022A000131000BF00BF2EB16289616933462868F0
:1022B00006F0FEF83046BDE8F0812DE9F04705460E
:1022C0000C46904608F0400000287ED02868B0F800
:1022D0005010207801EBC000801C296801F5806156
:1022E000405AC0F30907A069B84203D9A069C01BCE
:1022F000A06101E00020A061A069002866D100BFB4
:102300006078B8B900BF29682A68B2F85020114433
:102310002278022303EBC20201F58063D01800BFCC
:102320000288C2F309020280028842F4004202805D
:1023300000BF12E0607801280FD100BF28682A682A
:10234000B2F8502010442278022303EBC20200F5B9
:102350008063D11800220A8000BF00BF00BF296837
:102360006078F8B900BF2B68D5F800C0BCF850C041
:10237000634494F800C04FF0060909EBCC0C03F558
:1023800080690CEB090000BFB0F800C0CCF3090C69
:10239000A0F800C0B0F800C04CF4004CA0F800C099
:1023A00000BF0FE0607801280CD12868B0F8500019
:1023B00001442078062303EBC00001F58063C218B6
:1023C0000020108000BF217801E0B0E01CE028462A
:1023D000FFF736FE08F48040002814D000BF00BF8D
:1023E00022785200296831F8121048F68F7201EAFB
:1023F000020040F4004141F4814123785B002A68E7
:1024000022F8131000BFCFE108F48040A8B100BF4C
:1024100000BF22785200296831F8121048F68F72F6
:1024200001EA020040F4004141F4814123785B005D
:102430002A6822F8131000BF00BF94F82400012876
:10244000E1D1606938446061E0693844E061216944
:10245000206A884204D32669206A801B20620BE030
:10246000206A20B93E46002084F8240004E00020C1
:1024700084F82400266A206200BF6078E0BB00BFB9
:102480002A682968B1F850100A442178022303EB26
:10249000C10102F580631944084600BF0388C3F3F5
:1024A000090303803E2E10D900BF710906F01F03F7
:1024B00003B9491E03884FF4004C4CEA812C1FFAE3
:1024C0008CFC43EA0C03038014E026B9038843F430
:1024D000004303800EE000BF710806F0010303B162
:1024E000491C03884FF6FF7C0CEA812C43EA0C035D
:1024F000038000BF00BF12E0FFE7607801280ED123
:1025000000BF28682A68B2F85020104422780223BD
:1025100003EBC20200F58063D1180E8000BF00BF3C
:10252000B3B222896169286805F0ECFF3CE12868B4
:10253000B0F85010207801EBC000801D296801F52B
:102540008061405AC0F30907A069B84203D3A0696B
:10255000C01BA06101E00020A061A06900287ED11D
:1025600000BF6078B8B900BF29682A68B2F8502067
:1025700011442278022303EBC20201F58063D018D4
:1025800000BF0288C2F309020280028842F40042BE
:10259000028000BF12E0607801280FD100BF2868D8
:1025A0002A68B2F8502010442278022303EBC202BA
:1025B00000F58063D11800220A8000BF00BF00BF71
:1025C00029686078F8B900BF2B68D5F800C0BCF85E
:1025D00050C0634494F800C04FF0060909EBCC0CDE
:1025E00003F580690CEB090000BFB0F800C0CCF324
:1025F000090CA0F800C0B0F800C04CF4004CA0F8E2
:1026000000C000BF0FE0607801280CD12868B0F846
:10261000500001442078062303EBC00001F58063DD
:10262000C2180020108000BF21782846FFF708FD5F
:1026300008F48040002816D100BF00BF2278520065
:10264000296831F8121048F68F7201EA020040F44E
:10265000004141F4814123785B002A6800E003E0F7
:1026600022F8131000BF9FE008F48040A8B900BF13
:1026700000BF22785200296831F8121048F68F7294
:1026800001EA020040F4004141F4814123785B00FB
:102690002A6822F8131000BF00BF94F82400012814
:1026A0007DD1606938446061E0693844E061216946
:1026B000206A884204D32669206A801B20620BE0CE
:1026C000206A20B93E46002084F8240004E0266AEF
:1026D0000020206284F8240000BF2A686078A8BB2C
:1026E00000BFD5F800C02968B1F850108C4421789B
:1026F0004FF0060909EBC1010CF580694944084611
:1027000000BFB0F80090C9F30909A0F800903E2E70
:1027100014D900BF710906F01F09B9F1000F00D1EB
:10272000491EB0F800904FF4004A4AEA812A1FFA85
:102730008AFA49EA0A09A0F800901BE03EB9B0F80D
:10274000009049F40049A0F8009013E014E000BFA5
:10275000710806F00109B9F1000F00D0491CB0F86A
:1027600000904FF6FF7A0AEA812A49EA0A09A0F89E
:10277000009000BF00BF0EE0607801280BD12868F0
:10278000B0F8500002442078062101EBC00002F5A9
:10279000806143181E8000BFB3B2628900E003E08D
:1027A0006169286805F0AEFE00BF227852002968F2
:1027B00031F8121048F6BF7201EA020080F01000F2
:1027C00080F0200040F4004141F0800223785B005B
:1027D000296821F8132000BF0020BDE8F0870246D9
:1027E00001F0070000EB800302F5A87000EBC300C6
:1027F000C06970472DE9F04705460E4690461F46D2
:102800004FF0000906F0800080280AD106F007008A
:1028100000EB800105F1100000EBC10401206070A5
:1028200009E006F0070000EB800105F5A87000EB59
:10283000C1040020607006F007002070C4F810800A
:10284000E770022F01D10020207100BF95F890029F
:10285000012802D10220BDE8F087012085F890020E
:1028600000BF2146286804F0ADFC00BF002085F8B9
:10287000900200BF4846EEE72DE9F04105460E46BE
:102880001746984606F0070000EB800105F5A87092
:1028900000EBC1046761C4F818800020E06160703B
:1028A00006F0070020702146286805F0D6F80020C1
:1028B000BDE8F08170B504460E4606F007002179A8
:1028C000884201D9012070BD06F0800080280AD11D
:1028D00006F0070000EB800104F1100000EBC105D9
:1028E0000120687007E006EB860104F5A87000EB94
:1028F000C105002068700120A87006F0070028704C
:1029000000BF94F89002012801D10220DBE70120EA
:1029100084F8900200BF2946206805F070F800BFD7
:10292000002084F8900200BF00BFCCE72DE9F04101
:1029300005460E4690461F4606F0070000EB800154
:1029400005F1100000EBC104C4F81480A761012058
:1029500084F8240027620020E0610120607006F006
:10296000070020702146286805F077F80020BDE8B0
:10297000F08170B50446206805F096FD054605F423
:102980000040B0F5004F03D1204602F087FA70BD39
:1029900005F48060B0F5806F10D12068B0F8440075
:1029A0004FF6FF3108402168A1F84400204600F0AE
:1029B00083F90021204600F0ACF9E8E705F48040F7
:1029C000B0F5804F09D12068B0F844004BF6FF7194
:1029D00008402168A1F84400D9E705F40050B0F59B
:1029E000005F09D12068B0F844004DF6FF7108403F
:1029F0002168A1F84400CAE705F48050B0F5805F73
:102A000029D12068B0F840004FF6FB7108402168DA
:102A1000A1F840002068B0F840004FF6F771084078
:102A20002168A1F8400094F8C802012806D10020CE
:102A300084F8C80200212046FFF7B8FA204600F0CB
:102A40004DF92068B0F844004EF6FF710840216847
:102A5000A1F844009BE705F40060B0F5006F1CD1BD
:102A60002068B0F8400040F008002168A1F840005C
:102A70002068B0F844004FF2FF7108402168A1F8C7
:102A800044002068B0F8400040F004002168A1F83C
:102A90004000204600F07AF979E705F080008028B0
:102AA0002FD12068B0F844004FF67F7108402168AC
:102AB000A1F8440094F8C802F8B92068B0F84000C2
:102AC00040F004002168A1F840002068B0F8400000
:102AD00040F008002168A1F84000012084F8C802F5
:102AE0002068B0F8540000F0F0008008C4F8CC0270
:102AF00001212046FFF75AFA02E0204600F046F98D
:102B000045E705F40070B0F5007F0CD12068B0F8FF
:102B100044004FF6FF5108402168A1F844002046C8
:102B200000F0F0F833E705F48070B0F5807F09D14C
:102B30002068B0F844004FF6FF6108402168A1F812
:102B4000440024E700BF22E770B504460CB9012019
:102B500070BD94F8910228B9002084F890022046B4
:102B600000F078F8032084F89102206804F0D0FE89
:102B700000252AE0012105EB850204F1100000EB9D
:102B8000C200417005EB850104F1100000F83150DE
:102B9000002105EB850200EBC200C17005EB850248
:102BA00004F1100000EBC200016105EB850204F1A5
:102BB000100000EBC200416105EB850204F110003A
:102BC00000EBC2008161681CC5B22079A842D1DC4B
:102BD00000252AE0002105EB850204F5A87000EB32
:102BE000C200417005EB850104F5A87000F8315072
:102BF000002105EB850200EBC200C17005EB8502E8
:102C000004F5A87000EBC200016105EB850204F534
:102C1000A87000EBC200416105EB850204F5A870C5
:102C200000EBC2008161681CC5B22079A842D1DCEA
:102C300094E8070004F062FE00202073012084F86D
:102C40009102A07A012802D12046FFF79BF90020CB
:102C50007EE7000010B596B00446542101A8FDF7A8
:102C600052FB1349206888421FD140140190002074
:102C7000109001A800F032F908B1FDF78AFD00BFFD
:102C80000C48806D40F400000A4988650846806D54
:102C900000F40000009000BF00BF002205211420B6
:102CA000FFF71EF91420FFF707F916B010BD00005A
:102CB000005C00400010024070B5044601256079B8
:102CC000022801D0FDF765FD2946D4F8D80203F0AB
:102CD00030FFD4F8D80203F0D5FE70BD10B504461D
:102CE000607A38B10648006820F0060004490860A0
:102CF00002F033FDD4F8D80203F0FAFE10BD000054
:102D000010ED00E010B50446D4F8D80203F0FBFE45
:102D100010BD70B504460D4600BF94F8900201281E
:102D200001D1022070BD012084F8900200BF2573FC
:102D30002946206805F0DFFB00BF002084F89002E0
:102D400000BF00BFEEE710B5044604F52671D4F8C5
:102D5000D80203F005FF10BD10B5044600BF94F87B
:102D60009002012801D1022010BD012084F89002B8
:102D700000BF206805F087FB206804F0B6FD00BFA7
:102D8000002084F8900200BF00BFEDE710B50446B4
:102D9000D4F8D80203F041FF607A28B103480068F4
:102DA00040F006000149086010BD000010ED00E091
:102DB00002468ABB4148006800F4C060B0F5806FED
:102DC0002BD13E488030006820F480703B4BC3F824
:102DD00080001846006820F4C06040F4007018605D
:102DE0003748006832235843364BB0FBF3F0411CA0
:102DF00000E0491E3148406900F48060B0F5806F02
:102E000001D10029F5D12D48406900F48060B0F56A
:102E1000806F51D10320704708E028488030006857
:102E200020F48070254BC3F8800045E0B2F5007FA8
:102E30003AD12248006800F4C060B0F5806F2AD112
:102E40001E488030006840F480701C4BC3F880003E
:102E50001846006820F4C06040F4007018601848FC
:102E6000006832235843174BB0FBF3F0411C00E0DD
:102E7000491E1248406900F48060B0F5806F01D1AE
:102E80000029F5D10D48406900F48060B0F5806FED
:102E900012D10320BFE709488030006840F48070F9
:102EA000064BC3F8800007E00448006820F4C060C7
:102EB00040F48060014B18600020ACE700700040D7
:102EC0009400002040420F000348806840F4804096
:102ED0000149886070470000007000402DE9F84308
:102EE00004460027B846206800F40020B0F5002F03
:102EF00073D1B946FD48806D00F0805078B900BFAD
:102F0000FA48806D40F08050F84988650846806D29
:102F100000F08050009000BF00BF4FF00109F4485E
:102F2000006840F48070F2490860FEF72FFF064603
:102F300006E0FEF72BFF801B022801D9032705E0DE
:102F4000EB48006800F480700028F2D000BF002F2A
:102F500046D1E6489030006800F44075CDB1206D50
:102F6000A84216D0E1489030006820F44075DF4850
:102F7000D0F8900040F48030DC49C1F89000084659
:102F8000D0F8900020F48030C1F890000846C0F8D6
:102F9000905005F00100A0B1FEF7F8FE064608E0EB
:102FA000FEF7F4FE801B41F28831884201D90327E5
:102FB00006E0CE489030006800F002000028EFD014
:102FC00000BF5FB9C9489030006820F44070216D9F
:102FD0000843C649C1F8900003E00CE0B84600E0A1
:102FE000B846B9F1010F05D1C048806D20F080507E
:102FF000BE49886500BF207800F0010048B1BB4899
:103000008830006820F0030061680843B749C1F8C0
:103010008800207800F00200022809D1B3488830E7
:10302000006820F00C00A1680843B049C1F888008E
:10303000207800F00400042809D1AC4888300068EA
:1030400020F03000E1680843A849C1F888002078E2
:1030500000F00800082809D1A4488830006820F052
:10306000C00021690843A149C1F88800207800F018
:103070001000102809D19D488830006820F4407065
:10308000616908439949C1F88800207800F0200060
:10309000202809D195488830006820F44060A16953
:1030A00008439249C1F88800207800F04000402889
:1030B00009D18E488830006820F44050E169084307
:1030C0008A49C1F88800207800F08000802809D162
:1030D00086488830006820F44040216A08438349CC
:1030E000C1F88800208800F48070B0F5807F09D195
:1030F0007E488830006820F44030616A08437B498C
:10310000C1F88800206800F40030B0F5003F09D114
:1031100076489C30006820F00300A16A0843734998
:10312000C1F89C00208800F40070B0F5007F09D140
:103130006E488830006820F44020E16A08436B49FB
:10314000C1F88800208800F48060B0F5806F13D14A
:1031500066488830006820F44010216B08436349BA
:1031600088310860206BB0F5801F05D15F48C068CA
:1031700040F480105D49C860208800F40060B0F51C
:10318000006F13D159488830006820F44000616B0B
:103190000843564988310860606BB0F5800F05D14F
:1031A0005248C06840F480105049C860208800F43C
:1031B0008050B0F5805F13D14C488830006820F013
:1031C0004070A16B0843494988310860A06BB0F199
:1031D000807F05D14548C06840F480104349C860ED
:1031E000208800F40050B0F5005F13D13F488830CC
:1031F000006820F04060E16B08433C49883108607A
:10320000E06BB0F1006F05D13848C06840F4801021
:103210003649C860208800F48040B0F5804F13D153
:1032200032488830006820F04060216C08432F4904
:1032300088310860206CB0F1006F05D12B48C06860
:1032400040F480102949C860208800F40040B0F59F
:10325000004F13D125488830006820F04050616C41
:103260000843224988310860606CB0F1805F05D165
:103270001E48C06840F480301C49C860206800F4D3
:103280008030B0F5803F13D118488830006820F0B6
:103290004040A16C0843154988310860A06CB0F12A
:1032A000804F05D11148C06840F480300F49C86094
:1032B000206800F48020B0F5802F13D10B489C309B
:1032C000006820F44010E16C084308499C31086014
:1032D000E06CB0F5001F05D10448C06840F48010D0
:1032E0000249C8604046BDE8F88300000010024073
:1032F000007000402DE9F04104460D464FF00008F3
:1033000014B90120BDE8F0817D48006800F00F008D
:10331000A8420ED27A48006820F00F00284378496E
:1033200008600846006800F00F00A84201D00120A4
:10333000E8E7207800F00100002864D060680328E6
:1033400023D17048006800F0007008B90120D9E767
:1033500002F012F806466C48864237D96948806800
:1033600000F0F00030B1207800F0020002282DD1EA
:10337000A06858BB6348806820F0F00040F08000EF
:10338000604988604FF0800820E06068022806D11C
:103390005C48006800F4003040B90120B2E75948A9
:1033A000006800F4806008B90120ABE700F0EEF897
:1033B00006465548864209D95248806820F0F000F8
:1033C00040F080004F4988604FF080084D48806889
:1033D00020F00300616808434A498860FEF7D6FC84
:1033E000074608E0FEF7D2FCC01B41F28831884254
:1033F00001D9032086E74348806800F00C0061682B
:10340000B0EB810FEED1207800F00200022820D12D
:10341000207800F00400042805D13A48806840F480
:10342000E06038498860207800F00800082807D15B
:103430003448806820F4605040F4E060314988608E
:103440003048806820F0F000A16808432D4988606A
:1034500008E0B8F1800F05D12A48806820F0F0001C
:10346000284988602648006800F00F00A84219D952
:103470002348006820F00F00284321490860FEF728
:1034800085FC074608E0FEF781FCC01B41F288314D
:10349000884201D9032035E71948006800F00F0081
:1034A000A842F0D1207800F00400042807D1154884
:1034B000806820F4E060E168084312498860207861
:1034C00000F00800082808D10E48806820F46050F9
:1034D000216940EAC1000B49886000F057F80949AA
:1034E0008968C1F30311094A515C01F01F01C8400A
:1034F0000749086007480068FEF76AFC02E7000019
:10350000002002400010024000B4C4048CAD00084A
:10351000940000208C0000200F2202600D4A926867
:1035200002F0030242600B4A926802F0F0028260ED
:10353000084A926802F4E062C260064A926802F4A5
:103540006052D2080261044A126802F00F020A6057
:10355000704700000010024000200240014800684F
:10356000704700009400002000B5FFF7F7FF054901
:103570008968C1F3C221044A515C01F01F01C840AF
:1035800000BD0000001002409CAD000870B5224D47
:10359000AD6805F00C05042D01D120483AE01E4D20
:1035A000AD6805F00C05082D01D11D4832E01A4D1B
:1035B000AD6805F00C050C2D2BD1174DED6805F00D
:1035C0000304154DED68C5F303156A1C022C0CD0DD
:1035D000032C09D1124DB5FBF2F50F4EF668C6F378
:1035E000062605FB06F10AE000BF0C4DB5FBF2F51F
:1035F000094EF668C6F3062605FB06F100BF00BFBC
:10360000054DED68C5F341656D1C6B00B1FBF3F032
:1036100000E0002070BD0000001002400024F40013
:1036200000127A002DE9F843044614B90120BDE8E0
:10363000F883207800F00100002865D0FC488068FD
:1036400000F00C07FA48C06800F003060C2F01D107
:10365000032E01D0082F0AD1F548006800F400308D
:10366000002851D0606800284ED10120DFE700BF5C
:103670006068B0F5803F06D1ED48006840F48030C6
:10368000EB4908601AE06068B0F5A02F0BD1E8485C
:10369000006840F48020E64908600846006840F46D
:1036A000803008600AE0E248006820F48030E04999
:1036B00008600846006820F48020086000BF606849
:1036C00088B1FEF763FB054606E0FEF75FFB401B93
:1036D000642801D90320AAE7D548006800F4003027
:1036E0000028F2D010E0FEF751FB054606E0FEF799
:1036F0004DFB401B642801D9032098E7CC480068A3
:1037000000F400300028F2D1207800F002000228F6
:1037100060D1C748806800F00C07C548C06800F059
:1037200003060C2F01D1022E01D0042F18D1C0485E
:10373000006800F4806018B1E06808B9012076E7FD
:10374000BB48406820F0FE40217C40EA0160B84957
:103750004860B8480068FEF73BFB18B3012066E7F5
:10376000E06800B3B248006840F48070B049086077
:10377000FEF70CFB054606E0FEF708FB401B02289F
:1037800001D9032053E7AA48006800F480600028AC
:10379000F2D0A748406820F0FE40217C40EA01605A
:1037A000A349486016E0A248006820F48070A04950
:1037B0000860FEF7EBFA054606E0FEF7E7FA401B65
:1037C000022801D9032032E79948006800F480609C
:1037D0000028F2D1207800F00800082836D160696E
:1037E000D0B193489430006840F001009049C1F88E
:1037F0009400FEF7CBFA054606E0FEF7C7FA401B39
:10380000022801D9032012E789489430006800F0AB
:1038100002000028F1D019E085489430006820F0BB
:1038200001008349C1F89400FEF7B0FA054606E0AE
:10383000FEF7ACFA401B022801D90320F7E67C48CA
:103840009430006800F002000028F1D1207800F0E8
:103850000400042872D14FF000087548806D0121E2
:1038600021EA107078B100BF7148806D40F080503F
:103870006F4988650846806D00F08050009000BF59
:1038800000BF4FF001086C48006800F48070B0B9C8
:103890006948006840F4807067490860FEF776FA6E
:1038A000054606E0FEF772FA401B022801D9032004
:1038B000BDE66148006800F480700028F2D000BFC7
:1038C000A068012808D15A489030006840F00100F3
:1038D0005749C1F8900021E0A06805280FD154484D
:1038E0009030006840F004005149C1F8900008464B
:1038F000D0F8900040F00100C1F890000EE04C4874
:103900009030006820F001004949C1F89000084655
:10391000D0F8900020F00400C1F8900000BFA0682B
:10392000A8B1FEF733FA054609E0FEF72FFA401B6F
:1039300041F28831884202D9032078E625E03C48EC
:103940009030006800F002000028EED013E0FEF78F
:103950001DFA054608E0FEF719FA401B41F28831CE
:10396000884201D9032062E631489030006800F0B7
:1039700002000028EFD1B8F1010F05D12C48806D6D
:1039800020F080502A49886500BF207800F0200090
:10399000202836D1A069D0B125489830006840F081
:1039A00001002349C1F89800FEF7F0F9054606E04A
:1039B000FEF7ECF9401B022801D9032037E61C482A
:1039C0009830006800F002000028F1D019E0184893
:1039D0009830006820F001001549C1F89800FEF702
:1039E000D5F9054606E0FEF7D1F9401B022801D9BA
:1039F00003201CE60E489830006800F00200002802
:103A0000F1D1E069002860D00948806800F00C001E
:103A10000C287AD0E069022858D10548006820F0C7
:103A2000807003490860FEF7B1F905460DE000001B
:103A3000001002408C00002000700040FEF7A6F944
:103A4000401B022801D90320F1E54A48006800F034
:103A500000700028F2D1D4E90810401E41EA00119C
:103A6000A06A41EA0021208E0122C2EB500041EA07
:103A700040513420005DC2EB500041EA40612C20EF
:103A8000005D41EAC0603B49C9683B4A11400843B8
:103A90003849C8600846006840F0807008600846F1
:103AA000C06840F08070C860FEF770F9054606E017
:103AB000FEF76CF9401B022801D90320B7E52D4819
:103AC000006800F000700028F2D051E0294800683A
:103AD00020F0807027490860FEF758F9054606E097
:103AE000FEF754F9401B022801D903209FE5214825
:103AF000006800F000700028F2D11E48C0681F491D
:103B000008401C49C86033E0FFE7E069012800D1A4
:103B10008DE51848C66806F00301206A814225D168
:103B200006F0F001606A401EB1EB001F1ED106F4E2
:103B3000FE41A06AB1EB002F18D106F078412C208D
:103B4000005DB1EBC06F11D106F4C001208E0122DF
:103B5000C2EB5000B1EB405F08D106F0C0613420E9
:103B6000005DC2EB5000B1EB406F01D001205EE57B
:103B700000205CE5001002400C809F01FCFFEEFE7F
:103B800070477047704770477047704730B50246BE
:103B90000B4600BF92F83C00012801D1022030BD45
:103BA000012082F83C0000BF022082F83D0010682E
:103BB000416810688468234D1068A84207D0224DE0
:103BC0001068A84203D0214D1068A84203D121F407
:103BD0007001586801431E4801401868014310688D
:103BE0004160184D1068A8421BD01068B0F1804F9A
:103BF00017D0184D1068A84213D0174D1068A8426E
:103C00000FD0164D1068A8420BD00F4D1068A84277
:103C100007D0134D1068A84203D00C4D1068A8427D
:103C200005D124F080049868044310688460012062
:103C300082F83D0000BF002082F83C0000BF00BFBA
:103C4000ADE70000002C014000340140005001406D
:103C50008FFFFFFD0004004000080040000C004002
:103C600000400140704710B504460CB9012010BD5A
:103C700094F83D0028B9002084F83C00204600F06C
:103C800029F8022084F83D00211D206801F0B2FDD2
:103C9000012084F8480000BF84F83E0001213F2045
:103CA0000155402001554120015542200155432036
:103CB000015500BF00BF012084F844004520015594
:103CC000462001554720015500BF012084F83D00E2
:103CD0000020CCE708B50168B1F1804F0DD100BFDD
:103CE0000F49896D41F001010D4A91651146896DB9
:103CF00001F00101009100BF11E00A4A0168914200
:103D00000DD100BF0649896D41F01001044A91654B
:103D10001146896D01F01001009100BF00BF08BD80
:103D20000010024000100040014691F83D000128BB
:103D300001D001207047022081F83D001C4B08682B
:103D400098421BD00868B0F1804F17D0194B086813
:103D5000984213D0184B086898420FD0174B086848
:103D600098420BD0164B0868984207D0154B08684C
:103D7000984203D0144B0868984210D108688068B4
:103D8000124B00EA0302062A0FD0B2F5803F0CD096
:103D90000868006840F001000B68186005E00868DA
:103DA000006840F001000B6818600020C2E70000C6
:103DB000002C01400004004000080040000C0040BE
:103DC0000034014000400140005001400700010064
:103DD000014691F83D00012801D0012070470220E2
:103DE00081F83D000868C06840F001000B68D860A9
:103DF0001C4B086898421BD00868B0F1804F17D060
:103E0000194B0868984213D0184B086898420FD095
:103E1000174B086898420BD0164B0868984207D099
:103E2000154B0868984203D0144B0868984210D18B
:103E300008688068124B00EA0302062A0FD0B2F528
:103E4000803F0CD00868006840F001000B681860E3
:103E500005E00868006840F001000B681860002069
:103E6000BCE70000002C01400004004000080040B6
:103E7000000C00400034014000400140005001406F
:103E8000070001002DE9F04104460D46002700BF60
:103E900094F83C00012802D10220BDE8F081012005
:103EA00084F83C0000BF022084F83D00206886684A
:103EB0004248064026F47F46206886602868B0F5B0
:103EC000005F33D015DC402851D008DC002858D0E2
:103ED000102857D0202856D0302862D154E05028DE
:103EE00031D0602839D0702813D0B0F5805F58D118
:103EF0000EE000F00F01002953D10011A0F5803031
:103F000008284ED2DFE800F0414243444546474886
:103F100049E0D5E902136A68206801F0F4FC2068E2
:103F2000866846F07706206886603CE0D5E9021393
:103F30006A68206801F0E7FC2068806840F48040EF
:103F4000216888602FE0EA686968206801F0F4FE63
:103F50005021206801F0E2FC25E0EA6869682068E9
:103F600001F0FDFE6021206801F0D8FC1BE0EA684A
:103F70006968206801F0E0FE4021206801F0CEFC75
:103F800011E000BF00BF00BF00BF00BF00BF00BF07
:103F900000BF00BF00BF00BF2968206801F0BEFC61
:103FA00001E0012700BF00BF012084F83D0000BFF1
:103FB000002084F83C0000BF38466EE788FFCEFF43
:103FC000704770B504462068C6682068056905F02A
:103FD0000200022819D106F00200022815D1401F64
:103FE00021680861012020772068806900F00300C3
:103FF00018B12046FFF7E4FF05E0204600F01EF967
:10400000204600F00CFA0020207705F00400042878
:1040100019D106F00400042815D1C04321680861B5
:10402000022020772068806900F4407018B1204693
:10403000FFF7C6FF05E0204600F000F9204600F03B
:10404000EEF90020207705F00800082819D106F0C5
:104050000800082815D1C043216808610420207792
:104060002068C06900F0030018B12046FFF7A8FFE0
:1040700005E0204600F0E2F8204600F0D0F90020EC
:10408000207705F01000102819D106F01000102834
:1040900015D1C04321680861082020772068C069D5
:1040A00000F4407018B12046FFF78AFF05E0204673
:1040B00000F0C4F8204600F0B2F90020207705F0A7
:1040C000010048B106F0010030B16FF00100216835
:1040D0000861204600F05AFA05F08000802804D0DC
:1040E00005F40050B0F5005F0AD106F0800080288A
:1040F00006D16FF40250216808612046FFF741FDA8
:1041000005F48070B0F5807F0AD106F08000802829
:1041100006D16FF48070216808612046FFF730FDFA
:1041200005F04000402809D106F04000402805D1A4
:10413000C04321680861204600F034FA05F02000F1
:10414000202809D106F02000202805D1C04321688D
:1041500008612046FFF716FD05F48010B0F5801FBA
:104160000BD106F48010B0F5801F06D16FF48010DB
:10417000216808612046FFF707FD05F40010B0F53F
:10418000001F0BD106F40010B0F5001F06D16FF42C
:104190000010216808612046FFF7F5FC05F4800057
:1041A000B0F5800F0BD106F48000B0F5800F06D17A
:1041B0006FF48000216808612046FFF7E6FC05F4F3
:1041C0000000B0F5000F0BD106F40000B0F5000FB1
:1041D00006D16FF40000216808612046FFF742FD18
:1041E00070BD000010B586B00446142101A8FCF78C
:1041F0008AF82068B0F1804F1CD100BF0E48C06C17
:1042000040F001000C49C8640846C06C00F0010091
:10421000009000BF00BF01200190122002900020FA
:104220000390032004900120059001A94FF09040D5
:10423000FDF7B6FC06B010BD0010024070472DE936
:10424000F04104460D461646002700BF94F83C0096
:10425000012802D10220BDE8F081012084F83C0051
:1042600000BF0C2E51D005DC4EB1042E1ED0082EFE
:104270007AD133E0102E60D0142EF9D175E02946A2
:10428000206801F057FB2068806940F00800216831
:1042900088612068806920F00400216888612068B6
:1042A0008069296908432168886178E02946206887
:1042B00001F09EFB2068806940F4006021688861FD
:1042C0002068806920F480602168886120688069A6
:1042D000296940EA01202168886160E02946206858
:1042E00001F0EAFB2068C06940F008002168C8615D
:1042F0002068C06920F004002168C8612068C06996
:10430000296908432168C86149E02946206801F00D
:1043100035FC2068C06940F400602168C8612068ED
:10432000C06920F480602168C8612068C06929697B
:1043300040EA01202168C86131E02946206801F087
:1043400081FC2068006D40F0080021680865206845
:10435000006D20F00400216808652068006D29695F
:104360000843216808651AE017E02946206801F033
:10437000A5FC2068006D40F4006021680865206895
:10438000006D20F48060216808652068006D29694F
:1043900040EA01202168086501E0012700BF00BF55
:1043A00000BF002084F83C0000BF384653E710B53A
:1043B00004460CB9012010BD94F83D0028B9002036
:1043C00084F83C00204600F029F8022084F83D00E3
:1043D000211D206801F00EFA012084F8480000BF7A
:1043E00084F83E0001213F20015540200155412025
:1043F0000155422001554320015500BF00BF012057
:1044000084F84400452001554620015547200155B8
:1044100000BF012084F83D000020CCE770477047C2
:1044200070B504460D4615B994F83E0015E0042D0C
:1044300002D13F20005D10E0082D02D14020005D38
:104440000BE00C2D02D14120005D06E0102D02D1C1
:104450004220005D01E04320005D012801D00120E1
:1044600070BD1DB9022084F83E001AE0042D03D16E
:1044700002213F20015514E0082D03D102214020E4
:1044800001550EE00C2D03D102214120015508E019
:10449000102D03D102214220015502E002214320C8
:1044A000015501222946206801F01CFA2D49206897
:1044B000884213D02C49206888420FD02B492068AD
:1044C00088420BD02A492068884207D029492068B1
:1044D000884203D028492068884201D1012000E0A9
:1044E000002028B12068406C40F4004021684864F6
:1044F0001C49206888421BD02068B0F1804F17D03B
:104500001E492068884213D01D49206888420FD078
:104510001C49206888420BD013492068884207D084
:1045200012492068884203D013492068884210D17C
:1045300020688068144900EA0106062E0FD0B6F5FF
:10454000803F0CD02068006840F0010021680860BE
:1045500005E02068006840F0010021680860002044
:104560007EE70000002C0140003401400040014083
:104570000044014000480140005001400004004058
:1045800000080040000C00400700010010B5044680
:1045900003492068884201D1FDF7FEFB10BD0000F1
:1045A00000480140704700BFFEE730B50B460021D0
:1045B00000BF16E00A24B4EB107F05D9302404EBC9
:1045C000107403F8114005E0412404EB10740A3C18
:1045D00003F81140000100254C00641C1D554C1CC3
:1045E000E1B29142E6DB30BD08B506F025F9009056
:1045F00000BF4FF400510448FDF7B8FB6421684642
:1046000005F006F9F5E70000000800488168024A55
:104610001140491C81607047C0FFFF7F01468868D8
:1046200000F0E07070470146886800F01F00704796
:10463000024602F1600000EB8103186800F0F840C8
:10464000704701468868C0F3C0007047014688681B
:10465000C0F3400070470146886800F001007047D1
:104660000146886800F00100704701468868C0F381
:104670000070704701468868C0F3800070470146AB
:104680008868C0F3800070470146C86800F4406045
:1046900008B9012070470020FCE700008168024A49
:1046A0001140091D81607047C0FFFF7F70B500F1A8
:1046B0001404C1F3406504EB85031C68C1F3045680
:1046C0000725B540AC43C1F3045502FA05F52C4368
:1046D0001C6070BD826822F0E0720A4382607047FD
:1046E00010B500F1600404EB81031C6824F0004461
:1046F00014431C6010BD426922F000420A4342612B
:104700007047000010B5024613683148824211D04C
:10471000B2F1804F0ED02F4882420BD02E488242F9
:1047200008D02E48824205D02D48824202D02D4822
:10473000824204D123F070004C6840EA040324480C
:1047400082421AD0B2F1804F17D02248824214D050
:104750002148824211D0214882420ED02048824214
:104760000BD02148824208D02048824205D0204800
:10477000824202D01B48824204D123F44070CC68AC
:1047800040EA040313608868D06200BF0888906222
:1047900000BF0F4882420ED0114882420BD012480F
:1047A000824208D01148824205D01148824202D08C
:1047B0000C48824203D10869106300BF00BF00BFEC
:1047C000506940F00100506100BF002010BD0000A2
:1047D000002C01400004004000080040000C004094
:1047E00000340140005001400040014000440140BD
:1047F000004801404162704700B58BB0002008902E
:1048000009900A9020216846FBF77DFD4FF0A040FB
:10481000284908604FF440304860002125488160F5
:10482000C1600161012141610421816100210177A1
:10483000417702210162002180F824104FF4B46115
:10484000C1624FF480610163012180F838100021BA
:10485000C16380F84010FCF741FC08B1FBF799FFF9
:104860000020089008A91348FCF708F808B1FBF7E6
:1048700090FF1148009006200190072002907F20B1
:104880000390042004900020059069460948FCF735
:10489000D1F808B1FBF77DFF084800900C2001908B
:1048A00069460448FCF7C6F808B1FBF772FF0BB085
:1048B00000BD00009C06002004006008001060326B
:1048C00000B589B0202101A8FBF71DFD244825492A
:1048D00008604FF440304860002122488160C16088
:1048E000016101214161042181610021017741774A
:1048F00002210162002180F824104FF4B461C162EA
:104900004FF480610163012180F838100021C163F8
:1049100080F84010FCF7E2FB08B1FBF73AFF1248C1
:10492000019006200290072003907F20049004202D
:1049300005900020069001A90A48FCF77BF808B111
:10494000FBF727FF094801900C20029001A90548B8
:10495000FCF770F808B1FBF71CFF09B000BD0000C0
:1049600000010050080700201000C0100020903601
:1049700000B58BB00020089009900A90202168466D
:10498000FBF7C1FC2248234908604FF440304860DF
:10499000002120488160C160016141610421816181
:1049A00000210177417701210162002180F8241064
:1049B0004FF4B461C1624FF480610163012180F85A
:1049C00038100021C16380F84010FCF787FB08B164
:1049D000FBF7DFFE0020089008A90E48FBF74EFF0A
:1049E00008B1FBF7D6FE0C48009006200190072086
:1049F00002907F20039004200490002005906946D7
:104A00000448FCF717F808B1FBF7C3FE0BB000BD74
:104A100000040050740700202000F01400B589B095
:104A2000202101A8FBF76FFC1E481F4908604FF4C6
:104A30004030486000211C488160C16001614161D3
:104A40000421816100210177417701210162002168
:104A500080F824104FF4B461C1624FF480610163A7
:104A6000012180F838100021C16380F84010FCF764
:104A700035FB08B1FBF78DFE0C4801900620029033
:104A8000072003907F2004900420059000200690CA
:104A900001A90548FBF7CEFF08B1FBF77AFE09B084
:104AA00000BD000000050050E00700200800900C49
:104AB00000B589B0202101A8FBF725FC1D481E493F
:104AC0000860C001486000211B488160C16001612D
:104AD0004161042181610021017741770121016257
:104AE000002180F824104FF4B461C1624FF480615A
:104AF0000163012180F838100021C16380F8401063
:104B0000FCF7ECFA08B1FBF744FE0C4801900620D4
:104B10000290072003907F2004900420059000203D
:104B2000069001A90448FBF785FF08B1FBF731FEA9
:104B300009B000BD000600504C08002002003004FF
:104B400008B500BF2748806C40F004002549886400
:104B50000846806C00F00400009000BF00BF00BF5A
:104B60000846806C40F0010088640846806C00F0C4
:104B70000100009000BF00BF00BF0846806C40F0FD
:104B8000020088640846806C00F00200009000BFBC
:104B900000BF002205210B20FDF7A2F90B20FDF735
:104BA0008BF9002205210C20FDF79AF90C20FDF766
:104BB00083F9002205213820FDF792F93820FDF70E
:104BC0007BF9002205213920FDF78AF93920FDF70C
:104BD00073F9002205213A20FDF782F93A20FDF70A
:104BE0006BF908BD0010024010B50A4A00210A48BE
:104BF00003F000FE09490860094A0021094803F052
:104C0000F9FD09490860094803F042FD08490860B8
:104C100010BD000034AD0008F5530008000000206E
:104C200058AD0008E9450008040000207CAD0008EC
:104C30000800002000B587B0142102A8FBF763FB31
:104C400000BF2348C06C40F004002149C8640846F6
:104C5000C06C00F00400019000BF00BF00BF084618
:104C6000C06C40F02000C8640846C06C00F0200012
:104C7000019000BF00BF00BF0846C06C40F00100BB
:104C8000C8640846C06C00F00100019000BF00BF7E
:104C900000BF0846C06C40F00200C8640846C06C03
:104CA00000F00200019000BF00BF0122510309483B
:104CB000FDF766F84FF400500290012003900020A9
:104CC0000490059002A90348FCF76AFF07B000BDF5
:104CD000001002400008004800B58FB000200B9083
:104CE0000C900D900E90089009900A901C2101A83C
:104CF000FBF709FB4FF080402049086040F26C4010
:104D0000486000211D4881600121C16000210161CE
:104D100080218161FEF7A7FF08B1FBF73AFD4FF450
:104D200080500B900BA91548FFF7ACF808B1FBF7C2
:104D300030FD1248FFF73BFB08B1FBF72AFD0020CE
:104D400008900A9008A90D48FEF720FF08B1FBF76C
:104D500020FD60200190012002900020039005902A
:104D6000002201A90548FFF76AFA08B1FBF711FD17
:104D70000248FFF737FA0FB000BD0000980A002084
:104D80000EB500200090019002900E480E49086078
:104D9000A920486000210C4881606321C160802106
:104DA0008161FEF760FF08B1FBF7F3FC2020009063
:104DB0000020029069460448FEF7E8FE08B1FBF7C0
:104DC000E8FC0EBD00100040E40A002000B587B0EA
:104DD000142102A8FBF797FA20201849896D014396
:104DE000164A91651146896D0140019100BF00BFCF
:104DF000A920ADF80800002003904FF6FF70049042
:104E000002A90F48FFF77EFC00BF0D48006820F0A4
:104E100080000B49086000BF00204968094A114022
:104E20000143074A516000BF00BF1046806820F070
:104E300080001146886000BF07B000BD001002402E
:104E4000001400408FFFFFFD10B500220D490E48F1
:104E500001F083FC08B1FBF79CFC0C490A4801F007
:104E600019FF08B1FBF795FC0949074801F04FF914
:104E700008B1FBF78EFC044801F0EEFF08B1FBF728
:104E800088FC10BD2000002078100020A800002021
:104E90007400002000BFFEE700BFFEE72DE9F05FD1
:104EA00005465EE22868B0F844A00AF00F07002F1C
:104EB0007ED10AF0100090BB00BF2968098848F62F
:104EC0000F7201EA020040F400412A68118000BF1D
:104ED00005F110042868B0F85010207801EBC000EC
:104EE000801C296801F58061405AC0F30900E06127
:104EF000E16960690844606100212846FDF7A0F877
:104F0000287B0028CDD0A0690028CAD1287B40F09A
:104F100080002968A1F84C000020287321E2FFE7F7
:104F200005F5A8742868068806F4006028B3286888
:104F3000B0F85010207801EBC000801D296801F501
:104F40008061405AC0F30900E061A18B8BB2E28816
:104F500005F52671286803F0ABFA00BF29680988B7
:104F600040F68F7201EA020040F080012A68118049
:104F700000BF2846FDF7E7FEF3E106F400400028F5
:104F80008FD000BF2968098840F68F7201EA0200BD
:104F900040F080012A68118000BF2868B0F85010E6
:104FA000207801EBC000801D296801F5806100E0D8
:104FB00073E0405AC0F30900E061E06990B16069B4
:104FC00080B1B4F81CC01FFA8CF3E28861692868CC
:104FD00003F06EFAE16960690844606100212846C7
:104FE000FDF73EF82868068806F40060002895D191
:104FF00006F44050B0F5405F90D000BF2A682968A1
:10500000B1F850100A4402F20641084600BF038876
:10501000C3F30903038023693E2B12D900BF236920
:105020005909237C03F01F0303B9491E03884FF479
:10503000004C4CEA812C1FFA8CFC43EA0C030380E1
:1050400017E0236923B9038843F40043038010E089
:1050500000BF23695908237C03F0010303B1491CF5
:1050600003884FF6FF7C0CEA812C43EA0C03038093
:1050700000BF00BF00BF00BF296809884BF68F72D0
:1050800001EA020080F4805080F4005040F40041B6
:1050900041F080012A68118063E17900286830F8C6
:1050A000116006F4004000287ED000BF7A00296815
:1050B00031F8121040F68F7201EA020040F08001D0
:1050C0007B002A6822F8131000BF07EB870105F563
:1050D000A87000EBC104207BB0B92868B0F850106C
:1050E000207801EBC000801D296801F58061405ADD
:1050F000C0F30908B8F1000F5DD0E288616943464A
:10510000286803F0D5F956E0E078022806D1324647
:1051100021462846FDF727F880464CE000BF00BF37
:1051200022785200296831F8121048F68F7201EA8D
:10513000020040F4004141F0C00123785B002A687E
:1051400022F8131000BF00BF21784900286830F80A
:10515000110000F48040B0B12868B0F850102078F9
:1051600001EBC000801C296801F58061405AC0F342
:105170000908B8F1000F1ED02289616943462868EA
:1051800003F096F917E02868B0F85010207801EB8A
:10519000C000801D296801F58061405AC0F30908EC
:1051A000B8F1000F07D000E019E062896169434659
:1051B000286803F07DF9E0694044E061606940449B
:1051C0006061A06910B12069404504D92178284662
:1051D000FCF746FF03E02146286802F03EFC06F09B
:1051E0008000002874D007EB870105F1100000EB68
:1051F000C10400BF7A00296831F8121048F60F7216
:1052000001EA020040F400417B002A6822F81310F2
:1052100000BFE078012873D10020A061207B002826
:1052200068D006F0400070B300BF6078B8B900BF26
:1052300029682A68B2F8502011442278022303EB2F
:10524000C20201F58063D01800BF0288C2F30902D0
:105250000280028842F40042028000BF12E06078BF
:1052600001280FD100BF28682A68B2F850201044E6
:105270002278022303EBC20200F58063D1180022DA
:105280000A8000BF36E0FFE700BF2968607800BBF6
:1052900000BF2B68D5F800C0BCF850C0634494F838
:1052A00000C04FF0060B0BEBCC0C03F5806B0CEB46
:1052B0000B0000BFB0F800C0CCF3090CA0F800C090
:1052C000B0F800C04CF4004CA0F800C000BF10E0E3
:1052D00047E0607801280CD12868B0F850000144FC
:1052E0002078062303EBC00001F58063C21800207C
:1052F000108000BF21782846FCF7A2FE31E0FFE7CE
:1053000006F4807040BB2868B0F85010207801EB9C
:10531000C000801C296801F58061405AC0F309096A
:10532000A069484504D9A069A0EB0900A06101E08B
:105330000020A061A06920B921782846FCF780FEF2
:105340000FE0606948446061E0694844E0612146DB
:10535000286802F082FB04E0324621462846FCF72A
:10536000ACFF2868B0F8440000F4004000287FF447
:1053700099ADBDE8F09F000070B5164DED6805F0E1
:105380000304144DED68C5F303156B1C022C0CD0FF
:10539000032C09D1104DB5FBF3F50E4EF668C6F39C
:1053A000062605FB06F10AE000BF0C4DB5FBF3F540
:1053B000084EF668C6F3062605FB06F100BF00BFDF
:1053C000044DED68C5F341656D1C6A00B1FBF2F058
:1053D00070BD00000010024000127A000024F400AA
:1053E00030B501460A461378521C147843EA04206B
:1053F00030BD0000ADF58A5D4FF4805150A8FAF73A
:1054000082FF4FF4807110A8FAF77DFF0021BB489E
:10541000FFF7F0F900BFB948006840F00100B74954
:10542000086000BFB648FEF77FFC0021B548FEF7D4
:10543000F7FF5520B4490870AA204870BB20887037
:10544000CC21B148C170002007E0411C8AB2811C08
:10545000AD4B23F81120411C88B28C28F5DBAA2023
:10546000A94981F81C015521A74880F81D11662023
:10547000A54981F81E017721A34880F81F11552006
:10548000A2490870AA204870BB208870CC219F4890
:10549000C170002009E0022101EB40018AB2811CA9
:1054A0009A4B23F81120411C88B28C28F3DBAA20E8
:1054B000964981F81C015521944880F81D116620F9
:1054C000924981F81E017721904880F81F117F21B1
:1054D0008F48FBF77BF97F218E48FBF777F97F2117
:1054E0008D48FBF773F97F218C48FBF76FF97F211B
:1054F0008B48FBF76BF9642003F098F85022894938
:105500008348FCF757F9502287498248FCF752F943
:10551000282286498048FCF74DF9282284497F4893
:10552000FCF748F9282283497D48FCF743F9002518
:1055300000BF00BF00BF00BF00BF05F07DF90F90A6
:1055400000216E48FFF756F900BF4FF0FF330022ED
:10555000990D7948006803F0BEF8044600BF67481B
:10556000406A054640F255102040002852D00020E5
:1055700047E0704931F81020811C704B1B6823F8FC
:1055800011206A4931F8102000F116016B4B1B689D
:1055900023F81120664931F8102000F12A01674BE9
:1055A0001B6823F81120012101EB40015D4A32F80C
:1055B000112000F13E01614B1B6823F811204100CE
:1055C000594A32F8112000F152015C4B1B6823F854
:1055D0001120012101EB4001534A32F8112000F162
:1055E0006601564B1B6823F8112041004D4A32F8E2
:1055F000112000F17A01514B1B6823F81120411C46
:1056000088B21428B5DB40F255114B48006803F00E
:105610001CF85EE040F2AA202040002859D000206B
:105620004FE0444A00F1140132F81120811C434B31
:105630001B6823F811203D4A123132F81120891CD1
:105640003E4B1B6823F81120394A891E32F811207D
:1056500016313A4B1B6823F81120012101EB400160
:105660002831304A32F8112000F13E01334B1B68DB
:1056700023F81120282101EB40012B4A32F8112098
:1056800000F152012D4B1B6823F81120012101EB81
:1056900040012831244A32F8112000F16601274BDD
:1056A0001B6823F81120282101EB40011D4A32F824
:1056B000112000F17A01214B1B6823F81120411CB5
:1056C00088B21428ADDB40F2AA211B48006802F022
:1056D000BCFF00BF0948406A00BF02F061FF4FF401
:1056E000907117480068FAF7BBFF00208DF8400161
:1056F00002210FA804F08CF827E7000000140040F6
:10570000E40A0020980A00205C0400207C050020A8
:105710009C0600200807002074070020E0070020F6
:105720004C0800202C020020CC0200206C0300203A
:10573000BC0300200C040020080000201000002002
:105740000C00002010B54FF0E020006905F064F86F
:10575000012801D004F0AEFC10BD10B500F001F836
:1057600010BD00B593B0382105A8FAF7CCFD14217F
:105770006846FAF7C8FD0020FDF71AFB21200590C6
:105780004FF48030069001200B9002200C900321F2
:105790000D9102210E9155210F910221109111912D
:1057A000129105A8FDF73EFF08B1FAF7F2FF0F20AE
:1057B00000900320019000200290039004900421A7
:1057C0006846FDF797FD08B1FAF7E3FF13B000BD97
:1057D0000348006840F47000014908607047000009
:1057E00088ED00E010B50248FEF7EBFB10BD0000AD
:1057F000300B002010B50268314B984211D0B0F147
:10580000804F0ED02F4B98420BD02F4B984208D090
:105810002E4B984205D02E4B984202D02D4B9842E9
:1058200003D122F070024B681A43254B98421AD0DC
:10583000B0F1804F17D0234B984214D0224B98429E
:1058400011D0224B98420ED0214B98420BD0224BC4
:10585000984208D0214B984205D0214B984202D063
:105860001C4B984203D122F44072CB681A4322F0B9
:1058700080034C6943EA040202608B68C3620B68D0
:1058800083620F4B98420ED0114B98420BD0124BB3
:10589000984208D0114B984205D0114B984202D043
:1058A0000C4B984201D10B690363012343610369E7
:1058B00003F001031BB1036923F00103036110BD71
:1058C000002C01400004004000080040000C004093
:1058D00000340140005001400040014000440140BC
:1058E0000048014030B501F01F05012404FA05F31A
:1058F000046A9C430462046A01F01F0502FA05F57C
:105900002C43046230BD30B50C46816821F47F41E0
:1059100042EA032525432943816030BD0A46816858
:10592000034B194042F007031943816070470000A0
:105930008FFFCFFF30B5026A056A25F001050562C9
:1059400043688469234D2C4024F003040D682C43E4
:1059500022F002028D682A431F4DA84200D113E0B5
:105960001E4DA84200D10FE01D4DA84200D10BE012
:105970001C4DA84200D107E01B4DA84200D103E016
:105980001A4DA84206D100BF22F00802CD682A4372
:1059900022F00402104DA8420ED0104DA8420BD0A8
:1059A0000F4DA84208D00F4DA84205D00E4DA84279
:1059B00002D00E4DA84207D123F4807323F4007364
:1059C0004D692B438D692B43436084614D6845636A
:1059D000026230BD8FFFFEFF002C01400034014009
:1059E0000040014000440140004801400050014097
:1059F00030B5026A056A25F01005056243688469BE
:105A0000264D2C4024F440740D6844EA052422F00D
:105A100020028D6842EA0512214DA84200D113E010
:105A2000204DA84200D10FE01F4DA84200D100BF79
:105A30001E4DA84200D100BF1D4DA84200D100BF9D
:105A40001C4DA84207D100BF22F08002CD6842EA77
:105A5000051222F04002124DA8420ED0114DA8426C
:105A60000BD0114DA84208D0104DA84205D0104DC2
:105A7000A84202D00F4DA84209D123F4806323F439
:105A800000634D6943EA85038D6943EA85034360FA
:105A900084614D688563026230BD0000FF8FFFFEA8
:105AA000002C01400034014000400140004401400E
:105AB000004801400050014030B5026A056A25F4F3
:105AC000807505624368C469254D2C4024F00304A9
:105AD0000D682C4322F400728D6842EA0522214DA4
