:020000040800F2
:10000000E02B0020B102000847330008DF2F000872
:1000100045330008690A00081B5A00080000000068
:10002000000000000000000000000000F1010008D6
:100030008F0B0008000000004D0200085541000829
:10004000CB020008CB020008CB020008CB0200085C
:10005000CB020008CB020008CB020008CB0200084C
:10006000CB020008CB020008CB020008E10A00081E
:10007000CB020008CB020008CB020008CB0200082C
:10008000CB02000800000000CB020008CB020008F1
:10009000AD590008CB020008CB020008CB020008D3
:1000A000CB020008CB02000801420008CB02000886
:1000B000CB020008CB020008CB020008CB020008EC
:1000C000CB020008CB020008CB020008CB020008DC
:1000D000CB020008CB020008CB020008CB020008CC
:1000E000CB020008CB020008CB020008CB020008BC
:1000F000CB020008CB020008CB0200080000000081
:1001000000000000CB02000800000000CB02000845
:10011000CB02000800000000CB020008CB02000860
:10012000CB020008CB020008CB020008CB0200087B
:10013000CB0200080000000000000000CB02000815
:10014000CB020008CB020008000000000000000005
:10015000000000000000000000000000000000009F
:10016000000000000000000000000000CB020008BA
:10017000CB020008000000000000000000000000AA
:1001800000000000CB02000800000000000000009A
:10019000000000000000000000000000000000005F
:1001A0000000000000000000CB020008CB020008A5
:1001B000CB020008CB020008CB02000800000000C0
:1001C00000000000CB02000800000000000000005A
:1001D000CB020008CB020008DFF810D000F06AFB69
:1001E0000048004719630008AFF30080E02B0020AF
:1001F0002C4B19680868B0E8F04F80F30988BFF30A
:100200006F8F4FF0000080F31188704700000000EE
:1002100008480068006880F308884FF0000080F309
:10022000148862B661B6BFF34F8FBFF36F8F00DFE4
:1002300000BF00BF08ED00E0DFF80C00016841F4EA
:1002400070010160704700BF88ED00E0EFF30980A6
:10025000BFF36F8F134B1A681EF0100F08BF20ED0D
:10026000108A20E9F04F106009B44FF0500080F37D
:100270001188BFF34F8FBFF36F8F06F0C1FB4FF0B4
:10028000000080F3118809BC19680868B0E8F04FD5
:100290001EF0100F08BFB0EC108A80F30988BFF37E
:1002A0006F8F704790000020EFF3058070470000CB
:1002B0000648804706480047FEE7FEE7FEE7FEE700
:1002C000FEE7FEE7FEE7FEE7FEE7FEE7F141000896
:1002D000D901000840EA01039B0703D009E008C9DF
:1002E000121F08C0042AFAD203E011F8013B00F8FB
:1002F000013B521EF9D27047D2B201E000F8012B47
:10030000491EFBD270470022F6E710B513460A4695
:1003100004461946FFF7F0FF204610BD421C10F8B6
:10032000011B0029FBD1801A70472DE9FE4F804642
:1003300081EA0300C00F0C46009021F0004123F039
:100340000045B8EB0200A94105D24046214690463F
:100350001C460B46024623F00040104347D0270DB1
:10036000C7F30A00C3F30A510290401A01904028D3
:100370006BDAC3F3130040F4801B0098924620B15F
:100380000023D2EB030A63EB0B0B01985946C0F133
:100390004002504600F0CFF906460D4650465946F9
:1003A000019A00F0E7F910EB08006141002487EAA8
:1003B000115284EAE7731A4340D0009A62B3019A5B
:1003C000012A4FEA075215DC001B61EB02014FF0D6
:1003D000004202EA0752CDE90042001C41F58011BB
:1003E00032462B4600F0E7F903B0BDE8F08F4046F7
:1003F0002146F9E7001B61EB0201001C41F5801367
:1004000000185B412018A2F5001747EB030140EAF2
:10041000D570B6196D4111E06D084FEA360645EA10
:10042000C0754FEA0752001B61EB0201001C41F549
:10043000801149084FEA30000019514132462B46DD
:1004400003B0BDE8F04F00F0A7B9009801224000CA
:100450000023D0EB020263EBE073009821464FEAE1
:10046000E074B8EB000061EB0401E9E783F00043BE
:100470005BE781F0004158E72DE9FE4F81EA030474
:1004800004F0004421F0004100944FF0000B23F0F1
:10049000004350EA01045ED052EA03045BD0C3F388
:1004A0000A54C1F30A552C44A4F2F3340194A0FB7E
:1004B0000254C1F3130141F48011C3F3130343F455
:1004C000801301FB024400FB034E840A970A44EAAE
:1004D000815447EA8357A4FB076802958D0A05FB00
:1004E00007854FEA932C04FB0C542705029D4FEA25
:1004F000065847EA1637B5EB08056EEB070C870E72
:10050000920E47EA811742EA8312A7FB0201B6EB7B
:100510000B0164EB00042B0D43EA0C335E1844EB33
:100520001C50DA465146E7FB0201C5F313044FEABB
:100530000B3343EA14534FEA0432019C43EA0603A7
:10054000A4F10C040294009CCDE900B400F033F94E
:1005500003B0BDE8F08F00200146F9E72DE9F04D2A
:1005600081EA030404F0004B21F0004514464FF0EB
:10057000000A23F0004150EA050220D054EA0102AB
:100580001DD0C5F30A570246C5F31303C1F3130088
:10059000C1F30A5640F4801543F48013A7EB060814
:1005A000101BD64608F2FD3873EB050002D308F1A4
:1005B000010801E092185B41B8F1000F03DA002056
:1005C0000146BDE8F08D00204FF4801106468446B8
:1005D0000EE0171B73EB050705D3121B63EB050336
:1005E00006434CEA010C49084FEA300092185B417F
:1005F00050EA0107EDD152EA030012D082EA04006A
:1006000083EA0501084305D0101BAB4106D2012245
:10061000002306E000224FF0004302E06FF00102E9
:1006200053101AEB06004CEB085110EB0A0041EB9B
:100630000B01BDE8F04D00F0AFB80EB5C10F80EA78
:10064000E0700844CA07002140F233438DE80E00F1
:100650000A460B4600F0AFF803B000BD0EB540F2FD
:10066000334102910021CDE900110A460B4600F00A
:10067000A2F803B000BDC1F30A5210B5C1F31301D3
:1006800040F2FF3341F480119A4201DA002010BD9C
:1006900040F233439A42A2F2334203DC524200F06A
:1006A00059F810BD904010BD30B50B4601460020F2
:1006B0002022012409E021FA02F59D4205D303FA24
:1006C00002F5491B04FA02F52844151EA2F10102A5
:1006D000F1DC30BD2DE9F05F0546002092469B46D7
:1006E00088460646814640241BE028464146474648
:1006F000224600F02FF853465A46C01A914110D3B3
:1007000011461846224600F016F82D1A67EB01082C
:100710004F4622460120002100F00DF817EB00099A
:100720004E41201EA4F10104DFDC484631462A4632
:100730004346BDE8F09F202A04DB203A00FA02F18C
:10074000002070479140C2F1200320FA03F31943BF
:1007500090407047202A04DB203A21FA02F0002161
:10076000704721FA02F3D040C2F1200291400843C1
:1007700019467047202A06DBCB17203A41FA02F0CF
:1007800043EAE07306E041FA02F3D040C2F12002EE
:10079000914008431946704710B5141E73F10004C8
:1007A00008DA401C41F1000192185B411A4301D163
:1007B00020F0010010BD2DE9F04D92469B4611B18D
:1007C000B1FA81F202E0B0FA80F220329046FFF7EF
:1007D000B2FF04460F4640EA0A0041EA0B015346C5
:1007E0005A46084313D0114653EA010019D0C8F104
:1007F00040025046FFF7AEFF05460E4650465946AA
:100800004246FFF798FF084305D0012004E0204648
:100810003946BDE8F08D0020054346EAE0762C43DA
:1008200037430A986305E40AA0EB08000022FD0A9A
:1008300044EA47540A3002D500200146E9E70105A1
:1008400010196941DDE9084500196941BDE8F04D1D
:10085000A2E7C1F30A52C1F3130140F2FF3341F49E
:1008600080119A4202DA00200146704740F2334379
:100870009A42A2F2334202DC5242FFF76BBFFFF70B
:100880005ABF000030B5041E71F1000404DB4FF0C4
:100890000044404264EB0101141E73F1000405DBC7
:1008A0001C464FF00043524263EB0403994208BFD9
:1008B000904230BD064C074D06E0E06840F0010371
:1008C00094E8070098471034AC42F6D3FFF788FC51
:1008D000A06E0008C06E000870B58C1810F8015B9F
:1008E00015F0070301D110F8013B2A1106D110F8C9
:1008F000012B03E010F8016B01F8016B5B1EF9D1CD
:100900002B0705D40023521E0DD401F8013BFAE752
:1009100010F8013BCB1A921C03E013F8015B01F8BD
:10092000015B521EF9D5A142D8D3002070BD10B58D
:10093000846AE16D11F0500F06D0E16DC90625D52E
:10094000204600F03BFB10BDE06D40F40070E06518
:1009500020680168090716D502F094FB78B1206879
:10096000C068800400280ADBE06D20F48070E06538
:10097000E06DC00403D4E06D40F00100E065204666
:1009800000F01AFB10BDC0688007EBE7616D496B92
:10099000BDE81040084710B5806AC16D41F04001C4
:1009A000C165016E41F00401016600F007FB10BD56
:1009B00010B5806A00F001FB10BD0000F8B50446D8
:1009C000002000902068816811F0010F41D18168FA
:1009D000214A11422ED18168D5432940491C8160AA
:1009E0001E48806800F0E07000020DD51C481D49CB
:1009F0000068B0FBF1F0401C00EB4000800000E01C
:100A0000401E00900028FBD100F0EEFE06461BE0E1
:100A1000816811F0010F03D181682940491C816070
:100A200000F0E2FE801B02280ED920680068C04357
:100A3000C00709D0E06D40F01000E065206E40F086
:100A4000010020660120F8BD20680168C943C9077C
:100A5000DED10020F8BD00003F0000800003005000
:100A60008C000020400D0300FEE7002070470020AE
:100A70007047000010B500220449054803F0A7FDA7
:100A80000449034803F09AFD002010BDF010002037
:100A900020080020F00C002010B50146034803F0A8
:100AA0008DFD024803F052FD002010BD20080020FB
:100AB00000207047094A10B5D2F8BC22D2F814229F
:100AC0000AB1012010BD0A460146044803F07FFD2B
:100AD000BDE81040014803F0E4BD000020080020FC
:100AE000014800F047BC0000780200200D49026870
:100AF0008A4201D20C4901E00B492031D2B21423C1
:100B0000083AB2FBF3F2436C02F01F0223F0030336
:100B10001944816404498031C16401219140016517
:100B20007047000008040240000802400179074AAB
:100B300002EB81024265054A4432491E826501F09A
:100B40001F0201219140C16570470000FC0802406E
:100B500030B5D0E913456560446D14B1D0E9164550
:100B6000656090F8444004F01F050124AC40056C1A
:100B70006C60046863608368102B036803D099601D
:100B80000068C26030BD9A600068C16030BD7047C7
:100B900072B6FEE72DE9F84F00270446009790F85B
:100BA0005800DFF8E0930D46B846012811D0012621
:100BB00084F85860206802F061FA60B1E06D40F09E
:100BC0002000E0655FF0010784F858803846BDE8F2
:100BD000F88F0220FBE7D5E900210C23206803EA07
:100BE00091131844036B01F01F014FF01F0C0CFA16
:100BF00001FCC2F3846223EA0C038A4013430363BB
:100C0000206802F03BFA8246206802F033FA5AEA82
:100C100000003CD1AA6829682068B2F1004F37D0A3
:100C200002F038FA2068416921F0004141612068F2
:100C30006969C268C2F3C102520091402A69042A5C
:100C400031D000EB82002B68026EDFF83CC303F06A
:100C5000F84302EA0C020B431A4342F000410166DA
:100C600020682A69A96900EB8200026E22F0807276
:100C70000A430266297F22682869012910D00021D1
:100C800002EB8000026E22F000720A4302667DE0F1
:100C9000002202F0FFF92068416941F00041C5E7F8
:100CA0004FF00071ECE7002102F0DEF9400320680C
:100CB0004FF0000172D002F0D7F990FAA0F0B0FA2C
:100CC00080F1286842036ED090FAA0F0B0FA80F06C
:100CD000814204D100221146206802F0EAF9012184
:100CE000206802F0C1F9400320684FF001015DD097
:100CF00002F0BAF990FAA0F0B0FA80F12868420345
:100D000059D090FAA0F0B0FA80F0814204D10022CC
:100D10000121206802F0CDF90221206802F0A4F937
:100D2000400320684FF0020148D002F09DF990FA8C
:100D3000A0F0B0FA80F12868420344D090FAA0F005
:100D4000B0FA80F0814204D100220221206802F032
:100D5000B0F90321206802F087F9400320684FF0C2
:100D6000030133D002F080F990FAA0F0B0FA80F1DC
:100D7000286842032FD090FAA0F0B0FA80F08142A8
:100D800004D100220321206802F093F920688168D1
:100D900011F0010F22D0ACE000E004E002F064F9B1
:100DA000C0F384618DE7C0F3846091E702F05CF9E1
:100DB000C0F38461A2E7C0F38460A6E702F054F9AF
:100DC000C0F38461B7E7C0F38460BBE702F04CF97D
:100DD000C0F38461CCE7C0F38460D0E72A7B296844
:100DE00050F8B03FC1F3120C23EA0C0302F0180CC8
:100DF000664A22FA0CF20A4013430360E968494547
:100E000077D1286841031CD090FAA0F1B1FA81F1A2
:100E1000491C01F01F0109294FEA403132D800294D
:100E200012D000BF90FAA0F1B1FA81F101F10101F5
:100E300001F01F0106FA01F609D100BFC0F3846179
:100E400009E0C0F38461E3E7C0F38461EEE790FA60
:100E5000A0F1B1FA81F101F1010101F01F0146EAAF
:100E6000816102D1C0F3846003E090FAA0F0B0FA8F
:100E700080F000F1010000F01F0000EB400041EAAB
:100E8000005132E000290ED090FAA0F1B1FA81F1C0
:100E900001F1010101F01F0106FA01F606D100BFC0
:100EA000C0F3846106E0C0F38461F1E790FAA0F139
:100EB000B1FA81F101F1010101F01F0146EA8161FE
:100EC00002D1C0F3846003E090FAA0F0B0FA80F0A1
:100ED00000F1010000F01F002D4A00EB400002EB82
:100EE000005041EA000141F00071AA68206802F058
:100EF000D1F828482A6802423FF466AE2648816845
:100F0000264B01F0E0719A4202D0254B9A421CD147
:100F10000B021AD42268B2F1A04F7FF455AE82685A
:100F200041F4000122F0E0720A4382601D481E492C
:100F30000068B0FBF1F0401C00EB4000800000E0D6
:100F4000401E00900028FBD13EE6184D184BAA42E7
:100F500007D1CD0105D422689A42F5D041F08071C5
:100F600009E0144DAA42EFD14A02EDD422689A4218
:100F7000EAD041F48001826822F0E0720A43826084
:100F800022E6000000007F4000F0FF03FFFF0700A3
:100F9000000020FE0000088000030050000021C374
:100FA0001000C0908C000020400D0300000052C7CC
:100FB00000010050000084CB70477047704700006C
:100FC000F8B54FF0000504002E46009502D0E06D04
:100FD00010B107E00120F8BD204600F0EBF82666CE
:100FE00084F8586020688168C1F3407119B1816844
:100FF000684A1140816020688168C1F3007189B935
:101000008168654A114041F08051816063486449BC
:101010000068B0FBF1F04000801C00E0401E009032
:101020000028FBD120688168C1F3007141B9E16DEE
:1010300041F01001E165216E41F0010121660125B9
:1010400002F01CF8E16DC90600D430B1E06D40F04B
:101050001000E06501252846F8BDE06D20F48070A1
:1010600040F00200E0652068806810F0010F11D1A7
:101070004FF0A04080684B4900F00100896801F002
:101080000101084306D148486168826822F47C1255
:101090000A438260E168E06B627F0843A16841EA2D
:1010A0004231084394F8241040EA0140012904D158
:1010B000218D3E4A02EB41410843E16A29B101F426
:1010C0007871226B014342EA01002268D168384BF3
:1010D00019400143D16020680169626B21F04061D1
:1010E00011430161206801F0C5FF70BB207F94F8B7
:1010F0003810800340EA41022168C86844F20203C4
:1011000098431043C86020690028206801690AD00C
:1011100041F480310161206850F8C01F22696FF3EB
:101120000D01114307E021F480310161206850F87E
:10113000C01F6FF30D01016094F8400001280CD02E
:101140002068016921F001010161606901282068BE
:10115000016B21F00F0111D013E0D4E91101084314
:10116000D4E913121143084321680A6940F2FC7361
:101170009A43104340F001000861E6E7226A521EDC
:1011800011430163E06D20F0020040F00100E065D2
:1011900061E70000C0FFFF5FC0FFFF7F8C00002001
:1011A000400D030000010050000300500000FEFF4E
:1011B0000740F0FF70B598B00646142111A8FFF75C
:1011C000A2F844216846FFF79EF829493068884212
:1011D0004CD1C001009080030F90684601F00EF9D9
:1011E00008B1FFF7D5FC2349C86C40F40050C8642F
:1011F000C86C00F400501690C86C40F00100C86440
:10120000C86C00F001001690C86C40F00200C86481
:10121000C86C11A900F002001690112003240025CB
:1012200081E831004FF0904000F0A8F911A94FF487
:10123000006081E83100104800F0A0F9104C0F4820
:1012400020602420C4E901058020C4E90350400047
:1012500060618000A0612020C4E90705204600F0FD
:10126000E7F808B1FFF794FC7465A66218B070BD8A
:101270000001005000100240000400480800024035
:10128000780200202DE9F04104463448174688468C
:10129000806800F01F05206801F0F0FE00285AD198
:1012A00094F85800012856D0012084F858000026F0
:1012B00025B1052D02D0092D00D003E02046FFF70F
:1012C0007DFB18B184F85860BDE8F081E06D40F610
:1012D0000161884340F48070E065214920688842BC
:1012E00002D14FF0A04100E00146814200D01DB97B
:1012F000E06D20F48010E065E06DC00404D5206E40
:1013000020F00600206600E02666616D1548C86280
:10131000616D15480863616D1448486321681C209D
:10132000086084F858602068416841F0100141600D
:101330002068C16841F00101C16021683B46424616
:101340004031606D00F0D4F821688A68084B1A407B
:10135000121D8A60B8E70220B6E7000000030050C3
:10136000000100502F090008B10900089709000882
:10137000C0FFFF7FF0B4016C0C6801680D6890F845
:10138000442002F01F06042202FA06F3234211D081
:101390006B070FD50B689B0603D40B6823F004037F
:1013A0000B6090F8441001F01F018A40016C4A6004
:1013B000016B1DE0022303FA06F727424FF0000CF1
:1013C0004FF0010218D0AF0716D50C68A40605D45B
:1013D0000C6824F00A040C6080F8252090F8441072
:1013E00001F01F018B40016C4B6080F824C0C16A82
:1013F00000291AD0F0BC08470823B340234214D078
:101400002B0712D50B6823F00E030B6090F84410E5
:10141000036C01F01F0102FA01F15960C26380F808
:10142000252080F824C0416BE2E7F0BC7047000043
:1014300070B504000CD02B4A21681420914209D2C7
:10144000294A0A44B2FBF0F08000606427480AE0B1
:10145000012070BD234A52420A44B2FBF0F08000E2
:101460006064204808382064022084F825000A6857
:1014700047F6F0708243D4E902031843D4E90435F7
:101480002B431843A3691843E3691843236A18439D
:10149000104308602046FFF729FBA0680025B0F53F
:1014A000804F00D16560A16C20790860D4E91301F8
:1014B00041606068401E032808D82046FFF736FBCD
:1014C000606D0560D4E91601416002E06565A565BF
:1014D000E565E563012084F8250084F824500020A8
:1014E00070BD000008040240F8FFFDBF000002408C
:1014F00070B5044690F82400002501280CD0012086
:1015000084F8240094F825600020012E06D084F889
:1015100024000225284670BD022070BD022684F8F2
:101520002560E0632068066826F001060660204614
:10153000FFF70EFB206B00282068016802D041F005
:101540000E0106E021F0040101602068016841F00D
:101550000A010160A06C0168C90303D5016841F468
:1015600080710160606D18B1016841F480710160A3
:101570002068016841F001010160CBE72DE9F04FDF
:10158000DFF82092002301260324A9F1040B85B083
:101590000F2709F1040AABF1040EFAE006FA03F58D
:1015A0002A407CD091F804C00CF0030CBCF1010F70
:1015B00002D0BCF1020F26D1D0F808C0CDF800C08F
:1015C0004FEA430C04FA0CF8CDF810C0DDF800C067
:1015D0002CEA080CCDF800C0D1F80C80DDF810C062
:1015E00008FA0CF8DDF800C048EA0C08C0F80880DA
:1015F000D0F804C02CEA050C0D79C5F300159D4008
:1016000045EA0C0545600D79ED43AD070ED0C56880
:101610004FEA430804FA08FC25EA0C05D1F808C093
:101620000CFA08FC4CEA050CC0F80CC00D7905F06A
:101630000305022D16D1DD0800EB850CCDF808C09E
:10164000DCF820805D074FEAD56C07FA0CF528EA34
:1016500005080D6905FA0CF5DDF808C045EA08052E
:10166000CCF8205005684FEA430CCDF808C004FAC6
:101670000CFC25EA0C0591F804C00CF00308DDF819
:1016800008C008FA0CF848EA0508C0F800804D6860
:1016900015F4403F7CD0444DD5F860C000E077E0C1
:1016A0004CF0010CC5F860C02D6E23F0030C05F062
:1016B000010500953D4D65440295AD684FEA837C78
:1016C0004FEA1C7807FA08FC25EA0C05B0F1904FA8
:1016D00006D0DFF8DCC0604505D14FF0010C20E0FA
:1016E0004FF0000C1DE0DFF8CCC0604502D14FF098
:1016F000020C16E0DFF8C0C0604502D14FF0030CC9
:101700000FE0DFF8B8C0604502D14FF0040C08E0EC
:10171000DFF8ACC0604502D14FF0050C01E04FF09E
:10172000060C0CFA08FC4CEA050C029DC5F808C032
:10173000D9F80050CC46D1F8048095435FEAC82818
:1017400000D51543CCF80050DAF80050D446D1F853
:10175000048095435FEA882800D51543CCF80050F3
:10176000DBF80050DC46D1F8048095435FEA883806
:1017700000D51543CCF80050DEF80050F446D1F8FF
:10178000048095435FEAC83800D51543CCF8005073
:101790005B1C0A6832FA03F57FF400AF05B0BDE8C0
:1017A000F08F0000080401400010024000000140DA
:1017B0000004004800080048000C004800100048E1
:1017C000001400480069084000D0012070474269B9
:1017D00021EA02030A4043EA0241816170470AB1EB
:1017E00081617047816270470148806870470000DE
:1017F000800000200248816842681144816070477F
:101800008000002010B50024032000F09BF80F207A
:1018100000F008F808B1012401E000F047F8204684
:1018200010BD000030B505461B4887B0016E41F47D
:1018300080210166006E06A900F48020009001A8B6
:1018400001F00EF801F02CF81449154AB0FBF1F143
:101850001448491E0260416040F2E7320021C0E9AD
:101860000321816001F06DFA040012D10D4801F0EE
:101870009BFA04000DD11A2000F036F8102D07D283
:10188000002229461A2000F03DF80748056000E0D4
:10189000012407B0204630BD0010024040420F0036
:1018A00000480140D8020020800000200D4808B503
:1018B000016E41F001010166016E01F0010100912C
:1018C000816D41F080518165806D002200F0805073
:1018D00000900F21901E00F015F8BDE8084000F0C0
:1018E00085BD000000100240002809DB00F01F0247
:1018F000012191404009800000F1E020C0F8001172
:1019000070470000F0B40E4B1B680C46C3F3022373
:10191000C3F10705042D00D90425191D072901D29B
:10192000002300E0DB1E012606FA05F1491E2140D6
:1019300099409E40761E16403143F0BC04F082B8B8
:101940000CED00E0064900F0070208684FF6FF03BF
:10195000184040EA0220034A104308607047000024
:101960000CED00E00000FA0501220168C0F8D02269
:10197000002280F8C82231F8540F40F0010008809E
:10198000088840F0020008801046704770B50F4D7F
:10199000044669B101290AD1D4F8D80203F04DF9FF
:1019A000607A002803D0286840F00600286070BDE7
:1019B000607A28B102F0E4FB286820F00600286075
:1019C000D4F8D802BDE8704003F0CFB810ED00E0C5
:1019D00010B50C0607D501F0070101EB810100EB02
:1019E000C100103005E001EB810100EBC10000F502
:1019F000A87099B232B1012202730181190C4181A0
:101A0000002010BD00220273C180F9E701EB8102C2
:101A100000EBC202D0F8D802526A02F084BF01EB98
:101A2000810200EBC202D0F8D802D2F8642102F0A1
:101A3000CEBF70B504460B0601F0070000EB800135
:101A400004EBC1014FF001024FF0000502D54A74CA
:101A5000103103E081F8515101F5A871087094F834
:101A60009002012808D084F89022206803F030FC0E
:101A700084F89052002070BD022070BD70B50446FD
:101A800001F00F002279904201D9012070BD0B06B0
:101A900001F0070000EB800104EBC1014FF00102EF
:101AA0004FF0000502D54A74103103E081F851511E
:101AB00001F5A8718D70087094F89002012808D083
:101AC00084F89022206803F0A2FC84F89052002051
:101AD00070BD022070BD2DE9F04704685FEA4248FE
:101AE0000B788D69B4F850804FF0000C4BF68F776F
:101AF00048F2800648F68F7948F2C00A444428D557
:101B000040F2024808EBC30834F80840C4F3090463
:101B1000A54203D32D1B8D6102D00BE0C1F818C084
:101B2000D0F800C03CF823503D4085F400553543C3
:101B30002CF82350520609D50B78056835F8232078
:101B400002EA090242EA0A0225F8232074B30A894C
:101B500027E040F2064808EBC30834F80840C4F315
:101B60000904A54203D32D1B8D6102D00BE0C1F8FF
:101B700018C0D0F800C03CF823503D4085F4005513
:101B800035432CF82350520609D40D78036833F8F6
:101B9000252002EA090242EA0A0223F825202CB194
:101BA0004A8949690068234603F009FF2046BDE8D9
:101BB000F0872DE9F047054600680C465FEA426869
:101BC0001646D1F818C02278B0F8508048F68F77C2
:101BD0004CF280094FF400434FF6FF7A4FF00001BA
:101BE000404472D540F2024808EBC20830F80800C1
:101BF000C0F30900844514D9BCEB000CC4F818C02C
:101C000010D0760408D5D5F800C03CF822603E40DC
:101C100046EA09062CF8226094F82420012A47D0CD
:101C200056E1A161607810B1012813D01AE028684C
:101C3000B0F85030184400EBC200B0F80224C2F3F0
:101C40000902A0F80224B0F8022442F40042A0F8ED
:101C5000022407E02868B0F85030184400EBC200B6
:101C6000A0F802146278286812B1012A11D018E095
:101C7000B0F850100844217800EBC100B0F8061409
:101C8000C1F30901A0F80614B0F8061441F40041AC
:101C900005E0B0F850201044227800EBC200A0F814
:101CA000061421782846FFF7B1FE70046ED40FE1C8
:101CB000626902446261E2690244E2612669226A61
:101CC000B24203D33046111A04E040E084F82410F5
:101CD0000AB110462162617811B101292BD033E09D
:101CE0002968B1F850201144227801EBC201B1F803
:101CF0000224C2F30902A1F8022401F202413E28A3
:101D000009D94209C60600D1521E0E8843EA822232
:101D100016430E8018E048B14208C30700D0521C99
:101D20000B880AEA822213430B800DE00A8842F4F2
:101D300000420A8008E02968B1F850201144227856
:101D400001EBC201A1F8020483B22289BCE040F297
:101D5000064808EBC20830F80800C0F309008445C3
:101D600015D3BCEB000CC4F818C011D0760408D40D
:101D7000D5F800C03CF822603E4046EA09062CF83F
:101D8000226094F82420012A51D0A1E045E0A1610D
:101D9000607810B1012813D01AE02868B0F85030EC
:101DA000184400EBC200B0F80224C2F30902A0F804
:101DB0000224B0F8022442F40042A0F8022407E012
:101DC0002868B0F85030184400EBC200A0F80214A4
:101DD0006278286812B1012A11D018E0B0F85010CA
:101DE0000844217800EBC100B0F80614C1F30901E2
:101DF000A0F80614B0F8061441F4004105E0B0F86C
:101E000050201044227800EBC200A0F8061421787C
:101E10002846FFF7FBFD70045AD421782A6832F86F
:101E20002100384040EA090022F8210050E06269B0
:101E300002446261E2690244E2612669226AB242B6
:101E400003D33046111A216204E00AB11046216220
:101E500084F824106278296812B1012A2AD031E06E
:101E6000B1F850201144227801EBC201B1F80624E8
:101E7000C2F30902A1F8062401F206413E2809D95D
:101E80004209C60600D1521E0E8843EA822216433A
:101E90000E8017E048B14208C30700D0521C0B88DF
:101EA0000AEA822213430B800CE00A8842F40042C3
:101EB0000A8007E0B1F850201144227801EBC201FA
:101EC000A1F80604628983B26169286803F092FD73
:101ED00021782A6832F8210048F6BF73184080F054
:101EE000300048F28003184322F821000020BDE8AA
:101EF000F08701F0070101EB810100EBC100D0F890
:101F00006C0170472DE9F04104460F0601F007000F
:101F100000EB800104EBC1014FF001064FF000051A
:101F200002D54E74103103E081F8515101F5A871CA
:101F3000022B08700A61CB7000D10D7194F89002E9
:101F4000012809D084F89062206803F073F82846CD
:101F500084F89052BDE8F0810220FBE710B501F053
:101F6000070404EB840100EBC101C1E959230022FD
:101F7000C1F86C2181F8512181F85041006801F5C8
:101F8000A87103F099FA002010BD70B5044601F065
:101F900007002279904201D9012070BD0B064FF055
:101FA00000054FF0010206D500EB800104EBC101F2
:101FB0004A74103107E001EB810104EBC10181F8A3
:101FC000515101F5A8718A70087094F890020128A7
:101FD00008D084F89022206803F055FA84F89052D3
:101FE000002070BD022070BD10B501F0070404EBA5
:101FF000840100EBC101C1E90923012281F83420E9
:102000000B630023CB624A7401F8104F006803F0A1
:1020100053FA002010BD10B50446006803F0CCFC54
:10202000010404D52046BDE8104001F08DB94105FA
:102030000ED5206830F8441F21F4806101802046CD
:1020400000F008F92046BDE81040002100F02EB94C
:10205000410405D5206830F8441F21F480417DE01B
:10206000810405D5206830F8441F21F4005175E043
:10207000C1041FD5206830F8401F21F00401018001
:10208000206830F8401F21F00801018094F8C80250
:10209000012806D1002084F8C80201462046FFF737
:1020A00075FC204600F0EAF8206830F8441F21F45F
:1020B000805153E0010512D5206830F8401F41F0EF
:1020C00008010180206830F8441F21F4006101807C
:1020D000206830F8401F41F0040101800AE0010649
:1020E00029D5206830F8441F21F08001018094F840
:1020F000C80218B1204600F009F910BD206830F878
:10210000401F41F004010180206830F8401F41F079
:1021100008010180012084F8C8022068B0F854004A
:102120003C2101EA9000C4F8CC022046BDE81040F2
:102130000121FFF72BBC810509D5206830F8441F29
:1021400021F400710180204600F0ACF810BDC005FC
:10215000FCD5206830F8441F21F48071018010BD47
:1021600070B5040004D094F89102002510B106E087
:10217000012070BD84F89052204600F03FF8032003
:1021800084F89102206803F03AF9002001260BE060
:1021900000EB800104EBC1014E740874CD740D6234
:1021A0004D62401CC0B28D6221798142F0D800207E
:1021B00012E000BF00EB800104EBC10181F8515136
:1021C00081F8500181F85351C1F86051C1F8645150
:1021D000401CC0B2C1F8685121798142EAD894E824
:1021E000070003F003F9257384F89162A07A0128AF
:1021F00002D12046FFF7B8FB002070BD10B592B0A9
:10220000044644216846FEF77EF81049206888425B
:102210001AD14014009000200D90684600F0EEF8AE
:1022200008B1FEF7B5FC0A48816D41F400018165F3
:10223000806D002200F40000119005211420FFF7AA
:1022400061FB1420FFF750FB12B010BD005C004092
:102250000010024070B5044640790125022801D0E3
:10226000FEF796FC2946D4F8D80202F098FCD4F880
:10227000D802BDE8704002F04BBC000010B5044627
:10228000407A30B10648016821F00601016001F092
:1022900077FFD4F8D802BDE8104002F066BC000019
:1022A00010ED00E0D0F8D80202F069BC10B5044689
:1022B00090F8900201280AD0012084F8900221733E
:1022C000206803F090FB002084F8900210BD0220EB
:1022D00010BDD0F8D82200F52671104602F06BBC74
:1022E00010B5044690F8900201280CD0012084F823
:1022F0009002206803F051FB206803F070F8002082
:1023000084F8900210BD022010BD000010B50446F4
:10231000D0F8D80202F091FC607A002804D003487B
:10232000016841F00601016010BD000010ED00E001
:102330002B492C4B0A6832214A432B4940B1B0F556
:10234000007F086829D020F4C06040F480602CE051
:102350000868C0F34120022804D051F8800F20F40F
:10236000807022E0D1F8800020F48070C1F88000F5
:10237000086820F4C06040F400700860B2FBF3F01D
:10238000401C00E0401E4A69520501D50028F9D1E1
:10239000486940050AD503207047C0F34120022850
:1023A00006D051F8800F40F480700860002070471C
:1023B000D1F8800040F48070C1F88000086820F4F3
:1023C000C06040F400700860B2FBF3F0401C00E015
:1023D000401E4A695205DBD50028F9D1D8E7000034
:1023E0008C00002040420F000070004002488168CD
:1023F00041F4804181607047007000402DE9F8434E
:102400000446006800269D4D00035ED5A86D002798
:10241000C00008D4A86D40F08050A865A86D0127C1
:1024200000F080500090DFF85892D9F8001041F485
:102430008071C9F80010FFF7D7F9804606E000BFA9
:10244000FFF7D2F9A0EB080002282BD8D9F800003A
:10245000C005F5D5D5F8900010F4407014D0216C6B
:10246000814211D0D5F89000D5F8901020F440703A
:1024700041F48031C5F89010D5F8901021F48031E6
:10248000C5F89010C5F89000C00711D0FFF7ACF95F
:10249000804641F2883907E0FFF7A6F9A0EB080172
:1024A000494501D903260BE0D5F890008007F3D504
:1024B000D5F89000216C20F440700843C5F89000D6
:1024C0001FB1A86D20F08050A8652078C00707D004
:1024D000D5F88800616820F003000843C5F888003B
:1024E0002078800707D5D5F88800A16820F00C0077
:1024F0000843C5F888002078400707D5D5F888003C
:10250000E16820F030000843C5F888002078000713
:1025100007D5D5F88800216920F0C0000843C5F828
:1025200088002078800607D5D5F88800616920F4F6
:1025300040600843C5F888002078400607D5D5F8E4
:102540008800A16920F440500843C5F8880020782D
:10255000000607D5D5F88800E16920F4404008431B
:10256000C5F888002088C00507D5D5F88800216AFD
:1025700020F440300843C5F888002088800507D53E
:10258000D5F88800616A20F440200843C5F8880027
:10259000208840050FD5D5F88800A16A20F44010A6
:1025A0000843C5F88800A06AB0F5801F03D1E86829
:1025B00040F48010E860208800050FD5D5F8880029
:1025C000E16A20F440000843C5F88800E06AB0F5ED
:1025D000800F03D1E86840F48010E8602088C004D0
:1025E0000FD5D5F88800216B20F040700843C5F85E
:1025F0008800206BB0F1807F03D1E86840F4801040
:10260000E86020884FF0006180040ED5D5F888007E
:10261000626B20F040601043C5F88800606B884210
:1026200003D1E86840F48010E860208840040ED5AB
:10263000D5F88800A26B20F040601043C5F88800F0
:10264000A06B884203D1E86840F48010E8602088DD
:1026500000040FD5D5F88800E16B20F04050084306
:10266000C5F88800E06BB0F1805F03D1E86840F402
:102670008030E8603046BDE8F8830000001002407A
:10268000007000402DE9F0470E4605004FF00007AE
:1026900025D0DFF8AC81D8F8000000F00F00B04280
:1026A0000CD2D8F8001021F00F013143C8F8001007
:1026B000D8F8000000F00F00B04210D12968614C3A
:1026C000C80741F2883A5AD06868DFF87C9103283D
:1026D00008D0022820682DD0400500282CDB0120DE
:1026E000BDE8F08720688001F9D5E06800F00302BA
:1026F000E068C0F30310401C032A19D0534A00BFFE
:10270000B2FBF0F0E268C2F306225043E268C2F383
:102710004162521C5200B0FBF2F0484517D9A06844
:1027200010F0F00F0CD0880711D5A86840B10EE06A
:10273000474AE5E78003D0E700F0C4F8484506D9EA
:10274000A06820F0F00040F08000A0608027A06822
:10275000696820F003000843A060FFF745F8814650
:1027600006E000BFFFF740F8A0EB090151453AD859
:10277000A068696800F00C00B0EB810FF2D1286806
:10278000810714D5400703D5A06840F4E060A0603D
:102790002878000705D5A06820F4605040F4E06078
:1027A000A060A068A96820F0F000084304E0802F32
:1027B00003D1A06820F0F000A060D8F800104046D7
:1027C00001F00F01B14216D9016821F00F01314328
:1027D0000160FFF709F8074607E000BFFFF704F8BC
:1027E000C11B514501D903207AE7D8F8000000F059
:1027F0000F00B042F2D12878400705D5A068E968FB
:1028000020F4E0600843A0602878000706D5A0689F
:10281000296920F4605040EAC100A06000F052F83D
:10282000A1680C4AC1F30311515C01F01F01C840BB
:102830000949086009480068BDE8F047FEF7F2BFA3
:10284000002002400010024000B4C4040024F40040
:1028500000127A00746D00088C00002080000020B7
:102860000F2202600C4A936803F0030343609368ED
:1028700003F0F0038360936803F4E063C36092683D
:102880004FF4E06303EAD20202610448006800F0FA
:102890000F00086070470000001002400020024056
:1028A0000548064900688968054AC1F3C221515CA0
:1028B00001F01F01C84070478C000020001002404A
:1028C000846D0008184910B58868C0F38102174864
:1028D000012A0BD08A684310C2F38102022A06D073
:1028E0008A68C2F38102032A03D0002010BD184673
:1028F00010BDCA6802F00304CA68C2F30312521C76
:10290000032C02D0B0FBF2F001E0B3FBF2F0CA6896
:10291000C968C2F306225043C1F34161491C490012
:10292000B0FBF1F010BD0000001002400024F400E4
:102930002DE9F84304007AD02078F84DC00747D03D
:10294000A868E96800F00C0001F003010C2802D02F
:10295000082817D001E0032914D06068B0F5803F43
:1029600017D0B0F5A02F286817D020F48030286049
:10297000286820F4802028606068E0B1FEF734FF0A
:10298000064614E02868800322D560680028D2D06B
:102990001EE0286840F48030EDE740F48020286095
:1029A000F7E700BFFEF720FF801B642870D8286877
:1029B0008003F7D50CE0FEF717FF064605E000BFE1
:1029C000FEF712FF801B6428F0D828688003F7D434
:1029D000207880074CD5A868E96800F00C0001F069
:1029E00003010C2802D004280DD001E002290AD0EE
:1029F000E068002828682BD040F480702860FEF73B
:102A0000F3FE064619E02868400502D5E068002874
:102A100091D06868217C20F0FE4040EA0160686047
:102A2000BF480068FEF7FEFE002800D120E072E1FA
:102A3000FEF7DAFE801B0228B8D828684005F7D5D3
:102A40006868217C20F0FE4040EA016068600FE089
:102A500020F480702860FEF7C7FE064605E000BF40
:102A6000FEF7C2FE801B0228A0D828684005F7D4D4
:102A70002078000729D560690028D5F8940013D084
:102A800040F00100C5F89400FEF7AEFE064606E0F1
:102A900090E000BFFEF7A8FE801B022886D8D5F87C
:102AA00094008007F6D510E020F00100C5F89400EE
:102AB000FEF79AFE064604E0FEF796FE801B02280B
:102AC00078D8D5F894008007F6D42078400761D5EF
:102AD000A86D0026C00008D4A86D40F08050A865FD
:102AE000A86D012600F0805000908E480168C9054D
:102AF00011D40168804641F480710160FEF774FED4
:102B0000074604E0FEF770FEC01B022852D8D8F832
:102B10000000C005F6D5A068012815D00528D5F815
:102B2000900016D020F00100C5F89000D5F8900074
:102B300020F00400C5F89000A06841F28838B8B1D0
:102B4000FEF752FE07460EE0D5F8900040F0010077
:102B5000F0E740F00400C5F89000F5E7FEF744FE0A
:102B6000C11B414526D8D5F890008007F6D50CE06A
:102B7000FEF73AFE074604E0FEF736FEC11B41456C
:102B800018D8D5F890008007F6D41EB1A86D20F0B3
:102B90008050A8652078800629D5A0690028D5F83E
:102BA000980013D040F00100C5F89800FEF71CFE15
:102BB000064606E075E000BFFEF716FE801B022801
:102BC0006FD8D5F898008007F6D510E020F0010006
:102BD000C5F89800FEF708FE064604E0FEF704FE7E
:102BE000801B02285DD8D5F898008007F6D4E069EC
:102BF000F0B3A968C1F3810103295DD002282868D8
:102C000020F08070286003D0FEF7EEFD04464BE014
:102C1000FEF7EAFD064604E0FEF7E6FD801B02280B
:102C20003FD828688001F7D4F4E908016FF00F025B
:102C300002EB01110843218A5204490802EB415179
:102C4000A26841EA02210843217D4FF07E424908F3
:102C500002EB41610843217B40EAC160E968324AE6
:102C600011400843E860286840F08070286000E068
:102C70005EE0E86840F08070E860FEF7B5FD04466D
:102C800005E000BFFEF7B0FD001B022809D8286848
:102C90008001F7D54CE000BFFEF7A6FD001B02281F
:102CA00002D90320BDE8F88328688001F4D4E868DD
:102CB0001E490840E8603BE00128F3D0E868226A3A
:102CC00000F00301914226D1616A00F0F00209018F
:102CD000103991421FD1A26A00F4FE41B1EB022FDC
:102CE00019D194F82C2000F07841B1EBC26F12D1C9
:102CF000218E00F4C00249084905A1F50011914256
:102D000009D194F8341000F0C06049084906A1F1D7
:102D1000007181420CD00120C4E700000010024085
:102D200080000020007000400C809F01FCFFEEFE40
:102D30000020B7E77047704770477047704770478B
:102D4000704710B5040003D094F83D0010B107E0BF
:102D5000012010BD002084F83C00204600F022F83D
:102D6000022084F83D00211D206801F04FFA012067
:102D700084F8480084F83E0084F83F0084F840005E
:102D800084F8410084F8420084F8430084F8440049
:102D900084F8450084F8460084F8470084F83D0034
:102DA000002010BD7047000090F83D10012901D0AF
:102DB00001207047022180F83D100168CA6842F086
:102DC0000102CA600068104988420ED0B0F1804FFD
:102DD0000BD00E49884208D00D49884205D00D49D4
:102DE000884202D00C49884207D181680B4A1140C1
:102DF000062906D0B1F5803F03D0016841F00101FA
:102E00000160002070470000002C014000040040D9
:102E1000000800400034014000400140070001006C
:102E200070472DE9F04104460068C66805694FF017
:102E30000007A90713D5B10711D5F91E01610120BB
:102E40002077206880698007204602D0FFF7E8FFDE
:102E500004E000F0B7F8204600F0B5F827776807DF
:102E600016D5700714D521686FF0040008610220A0
:102E700020772068806910F4407F204602D0FFF759
:102E8000CFFF04E000F09EF8204600F09CF8277782
:102E9000280715D5300713D521686FF008000861A1
:102EA000042020772068C0698007204602D0FFF701
:102EB000B7FF04E000F086F8204600F084F827779A
:102EC000E80616D5F00614D521686FF010000861E9
:102ED000082020772068C06910F4407F204602D087
:102EE000FFF79EFF04E000F06DF8204600F06BF85D
:102EF0002777E80708D0F00706D021686FF00100B7
:102F00000861204600F060F8280601D4A80408D51E
:102F1000300606D521686FF4025008612046FFF79D
:102F20000AFFE80508D5300606D521686FF48070E1
:102F300008612046FFF7FEFE680608D5700606D534
:102F400021686FF040000861204600F047F8A806AD
:102F500008D5B00606D521686FF02000086120462C
:102F6000FFF7EAFEE80208D5F00206D521686FF403
:102F7000801008612046FFF7E1FEA80208D5B002E4
:102F800006D521686FF4001008612046FFF7D5FED2
:102F9000680208D5700206D521686FF480000861C8
:102FA0002046FFF7CCFE28020AD5300208D521685A
:102FB0006FF4000008612046BDE8F041FFF7C0BE95
:102FC000BDE8F0817047704700680349884201D12D
:102FD000FEF710BC70470000004801407047FEE754
:102FE000F0B500230A24302537261F4611E000BF24
:102FF000B4EB107F02D905EB107C01E006EB107CEE
:1030000001F813C001EB430C00015B1C8CF801704C
:10301000DBB29342ECD3F0BD114D124C4FF400568D
:10302000002731462846FEF7CDFBA0B1142000E072
:10303000012003F088F931462846FEF7C3FB00283B
:10304000F6D1142003F07FF92078032802D2401C27
:10305000207000E02770012003F075F9E1E700001F
:10306000000800480000002000EB8100006E00F026
:10307000F84070478068C0F3C00070478068C0F3B4
:1030800080007047C06810F4406F01D00020704786
:1030900001207047042303EAD15310B51844436953
:1030A000C1F3045107248C40A3438A401343436176
:1030B00010BD00EB8100016E21F00041114301665B
:1030C00070470000044C40212046FEF780FB64203E
:1030D00003F039F9F7E700000008004830B589B07F
:1030E00020216846FDF70FF9254824490024016096
:1030F0004FF44031C0E90114042585610121C46009
:10310000C0E90441047741770322026280F8244039
:10311000C462046380F83810C46380F84040FDF74F
:103120004FFF08B1FDF734FD1648009006200190CE
:10313000072002907F200594CDE9030569461048D9
:10314000FDF728FD08B1FDF723FD0F4800900C2086
:10315000019069460A48FDF71DFD08B1FDF718FD0D
:103160000A4800901220019069460548FDF712FDBB
:10317000002801D0FDF70CFD09B030BD0001005062
:103180000C020020020030040040C03A0000524708
:103190000D4808B5816C41F004018164816C01F037
:1031A00004010091816C41F001018164806C002276
:1031B00000F00100009005210B20FEF7A3FBBDE805
:1031C00008400B20FEF790BB0010024010B590B0F5
:1031D000142211496846FDF77DF80021684603F086
:1031E000BEF80E4C0C4914226060143105A8FDF79E
:1031F00071F8002105A803F0B2F80749A060142275
:1032000028310AA8FDF766F800210AA803F0A7F8FC
:10321000E06010B010BD0000386D00080000002014
:103220002DE9F04387B014216846FDF76CF82E486D
:10323000C16C41F00401C164C16C01F0040105914D
:10324000C16C41F02001C164C16C01F02001059105
:10325000C16C41F00101C164C16C01F00101059133
:10326000C16C41F00201C164C06C4FF0904800F0A5
:10327000020005900122E0214046FEF7B0FADFF897
:103280006C90012210214846FEF7A9FA0022402145
:103290004846FEF7A4FA4FF40050002502268DE8B8
:1032A000610069464846FEF769F90124E020CDE94E
:1032B00000040327CDE9024769464046FEF75EF960
:1032C0001020CDE90004CDE9024769464846FEF7E3
:1032D00055F9402003958DE8510069464846FEF7B0
:1032E0004DF907B0BDE8F083001002400008004827
:1032F00010B500220F49104801F0F0FA08B1FDF7AF
:1033000047FC0E490C4801F0C0FC08B1FDF740FC39
:103310000B49094801F02EF908B1FDF739FC0648C0
:1033200001F02EFD002803D0BDE81040FDF730BCB1
:1033300010BD00001800002020080020D40100204B
:103340006C000020FEE7FEE72DE9F84F044640F64A
:103350008F7A40F2064B48F60F784FF00009B5E13E
:10336000B0F8441011F00F053AD030F82560310460
:103370007DD530F8251001EA0A0141F0800120F8DE
:10338000251005EB850004EBC00797F85C0107F5F5
:10339000A87700286CD0F87802286AD0397822689B
:1033A00032F8210048F68F73184048F2C0031843E2
:1033B00022F821003878D4F800C03CF820104904E5
:1033C000BCF8501001EB0C027ED540F2024101EB3B
:1033D000C000105A8005800D009076D03A89D0E068
:1033E000C9062AD4018801EA080141F4004101809C
:1033F000206804F11005B0F85010227C014440F21E
:10340000024000EBC200085AC0F30900E062616AA2
:103410000844606200212046FEF7F8FA207B00286D
:103420009DD0A86900289AD1207B40F080012068B7
:10343000A0F84C1084F80C9048E1018804F5A875B8
:103440000A051ED5B0F850102A7801440BEBC200D3
:10345000085A04F52671C0F30903EB61EA88206875
:1034600002F0ADFA2168088800EA0A0002E0A4E050
:1034700068E077E040F0800008802046FEF729FFF2
:1034800024E10904D8D5018801EA0A0141F080014C
:1034900001802068B0F850100A1828780BEBC000A3
:1034A000105A83059B0DEB610DD0696959B1EA880B
:1034B000206802F084FAE9696869084468610021BB
:1034C0002046FEF7ACFA01E053E051E020680188A5
:1034D0000A05B1D4C1F301310329ADD0B0F85010C1
:1034E0000844B0F80614C1F30901A0F806142969CC
:1034F00000F206403E2909D94A09C90600D1521EE8
:1035000001884FF4004343EA822209E0B1B14A083E
:10351000C90700D0521C01884FF6FF7303EA8222CC
:1035200011430180216808884BF68F72104080F4A7
:10353000405048F2800210430880C7E0018841F4FF
:103540000041EEE72068B0F850103B780A180BEB0A
:10355000C301515A8905890D009117D0FA887969FC
:10356000009B11E0324639462046FEF7B4FA00903F
:103570000CE00BEBC000105A8005800D009005D0C8
:103580007A8903466046796902F019FAF969009868
:103590000844F8617969009808447861B86918B1FD
:1035A00039690098814204D939782046FEF737FA04
:1035B00003E03946206801F07FFF30062DD505EB8A
:1035C000850004EBC001206830F8252002EA0802DB
:1035D00042F4004220F82520C87C103101281DD07B
:1035E000F0056FD42268B2F8500083180A7840F2D0
:1035F000024000EBC200185A8A69C0F309008242F7
:1036000058D9121A8A6157D04A6902444A61CA6974
:103610001044C861206801F04FFF57E0C1F81890CE
:103620000A7B48461AB3720622D54A7812B1012A9B
:1036300014D041E02068B0F8502010440A7800EB24
:10364000C200B0F80224C2F30902A0F80224B0F8C4
:10365000022442F40042A0F802242DE02268B2F8CD
:1036600050301A440B7802EBC302A2F8020423E0A4
:103670004B78226813B1012B13D01DE0B2F8500033
:1036800010440A7800EBC200B0F80624C2F3090225
:10369000A0F80624B0F8062442F40042A0F806245C
:1036A0000AE0B2F850301A440B7802EBC302A2F8D9
:1036B000060401E0C1F8189009782046FEF7A6F943
:1036C00004E0FFE732462046FEF773FA2068B0F8C0
:1036D000441009043FF544AE0020BDE8F88F01789E
:1036E000407841EA002070472DED108BFAB04FF47E
:1036F000807116A8FCF707FE0322FB49FB48FDF783
:10370000C1FD9FEDFBFB9FEDFCEB9FEDFDDB9FED16
:10371000FE8B40F6B830B0EE48AAF0EE68AAB0EEE4
:1037200048BAF0EE68BAFCE32088FCF797FF53EC48
:10373000182BFCF7FAFD41EC180B6088FCF78EFFA4
:1037400053EC1A2BFCF7F1FD41EC1A0BA088FCF7A7
:1037500085FF53EC1B2BFCF7E8FD41EC1B0B012014
:1037600002F0F1FD6D1CADB2C82DDDD39FEDE89BDD
:1037700051EC180B53EC192BFCF7F0FE41EC180B35
:1037800053EC192B51EC1A0BFCF7E8FE41EC1A0B29
:1037900053EC192B51EC1B0BFCF7E0FE41EC1B0B1F
:1037A00051EC180BFCF767FF80B2659051EC1A0BD7
:1037B000FCF761FF80B26A9051EC1B0BFCF75BFFDA
:1037C00080B29FEDD18B68900122B0EE48BAF0EE46
:1037D00068BAB0EE4BAAF0EE6BAAB0EE4BCAF0EEB0
:1037E0006BCA20213846FDF7FAFF002240213846F7
:1037F000FDF7F5FF012280213846FDF7F0FF012299
:1038000010213046FDF7EBFF012002F09CFD002562
:103810002088FCF723FF53EC1A2BFCF786FD41ECC4
:103820001A0B6088FCF71AFF53EC1B2BFCF77DFD8D
:1038300041EC1B0BA088FCF711FF53EC1C2BFCF791
:1038400074FD41EC1C0B012002F07DFD6D1CADB23E
:10385000C82DDDD353EC192B51EC1A0BFCF77EFE6F
:1038600041EC1A0B53EC192B51EC1B0BFCF776FEB9
:1038700041EC1B0B53EC192B51EC1C0BFCF76EFEAF
:1038800041EC1C0B51EC1A0BFCF7F5FE80B2699071
:1038900051EC1B0BFCF7EFFE80B2679051EC1C0B58
:1038A000FCF7E9FE80B26690B0EE48AAF0EE68AA96
:1038B000B0EE48BAF0EE68BAB0EE48CAF0EE68CAA8
:1038C000012220213846FDF78AFF01224021384697
:1038D000FDF785FF002280213846FDF780FF012299
:1038E00010213046FDF77BFF012002F02CFD002562
:1038F0002088FCF7B3FE53EC1A2BFCF716FD41ECC5
:103900001A0B6088FCF7AAFE53EC1B2BFCF70DFD8D
:1039100041EC1B0BA088FCF7A1FE53EC1C2BFCF721
:1039200004FD41EC1C0B012002F00DFD6D1CADB23D
:10393000C82DDDD353EC192B51EC1A0BFCF70EFEFE
:1039400041EC1A0B53EC192B51EC1B0BFCF706FE48
:1039500041EC1B0B53EC192B51EC1C0BFCF7FEFD3F
:1039600041EC1C0B51EC1A0BFCF785FE1FFA80FB97
:1039700051EC1B0BFCF77FFE80B2639051EC1C0BEB
:10398000FCF779FE80B26290B0EE48AAF0EE68AA29
:10399000B0EE48BAF0EE68BAB0EE48CAF0EE68CAC7
:1039A000012220213846FDF71AFF01224021384626
:1039B000FDF715FF012280213846FDF710FF002298
:1039C0001021B2463046FDF70AFF012002F0BBFC91
:1039D0000025A0462088FCF741FE53EC1A2BFCF78B
:1039E000A4FC41EC1A0B6088FCF738FE53EC1B2B4F
:1039F000FCF79BFC41EC1B0BA088FCF72FFE53EC63
:103A00001C2BFCF792FC41EC1C0B012002F09BFCF0
:103A10006D1CADB2C82DDCD353EC192B51EC1A0B35
:103A2000FCF79CFD41EC1A0B53EC192B51EC1B0BD2
:103A3000FCF794FD41EC1B0B53EC192B51EC1C0BC8
:103A4000FCF78CFD41EC1C0B51EC1A0BFCF713FE40
:103A500086B251EC1B0BFCF70EFE85B251EC1C0B31
:103A6000FCF709FE84B2B946B0EE48AAF0EE68AAA7
:103A7000B0EE48BAF0EE68BAB0EE48CAF0EE68CAE6
:103A8000002220214846FDF7AAFE012240213846A7
:103A9000FDF7A5FE012280213846FDF7A0FE002299
:103AA00010215046FDF79BFE012002F04CFC002740
:103AB000B8F80000FCF7D2FD53EC1A2BFCF735FCEC
:103AC00041EC1A0BB8F80200FCF7C8FD53EC1B2BB5
:103AD000FCF72BFC41EC1B0BB8F80400FCF7BEFD17
:103AE00053EC1C2B18E00000100000200C020020FA
:103AF0000000000000C08F400000000000688F4000
:103B00000000000000508F40000000000000000096
:103B10000000000000006940FCF707FC41EC1C0BB2
:103B2000012002F010FC7F1CBFB2C82FC0D353ECA1
:103B3000192B51EC1A0BFCF711FD41EC1A0B53EC4D
:103B4000192B51EC1B0BFCF709FD41EC1B0B53EC43
:103B5000192B51EC1C0BFCF701FD41EC1C0B51EC3B
:103B60001A0BFCF788FD80B2619051EC1B0BFCF73F
:103B700082FD80B2609051EC1C0BFCF77CFD80B2A2
:103B80005F90B0EE48AAF0EE68AAB0EE48BAF0EE48
:103B900068BAB0EE48CAF0EE68CA012220214F464A
:103BA0004846FDF71CFE002240213846FDF717FE6F
:103BB000012280213846FDF712FE002210215046D6
:103BC000FDF70DFE012002F0BEFB0027B8F8000053
:103BD000FCF744FD53EC1A2BFCF7A7FB41EC1A0B46
:103BE000B8F80200FCF73AFD53EC1B2BFCF79DFBE9
:103BF00041EC1B0BB8F80400FCF730FD53EC1C2B18
:103C0000FCF793FB41EC1C0B012002F09CFB7F1C9A
:103C1000BFB2C82FDAD353EC192B51EC1A0BFCF7B7
:103C20009DFC41EC1A0B53EC192B51EC1B0BFCF7D0
:103C300095FC41EC1B0B53EC192B51EC1C0BFCF7C6
:103C40008DFC41EC1C0B51EC1A0BFCF714FD80B2FF
:103C50005E9051EC1B0BFCF70EFD80B25D9051ECB9
:103C60001C0BFCF708FD80B25C90B0EE48BAF0EE99
:103C700068BAB0EE48CAF0EE68CAB0EE48AAF0EEF4
:103C800068AA012220214F464846FDF7A8FD0122DF
:103C900040213846FDF7A3FD002280213846FDF77C
:103CA0009EFD002210215046FDF799FD012002F0F3
:103CB0004AFB0027B8F80000FCF7D0FC53EC1C2BA3
:103CC000FCF733FB41EC1C0BB8F80200FCF7C6FC18
:103CD00053EC182BFCF729FB41EC180BB8F8040047
:103CE000FCF7BCFC53EC1A2BFCF71FFB41EC1A0B46
:103CF000012002F028FB7F1CBFB2C82FDAD353EC9F
:103D0000192B51EC1C0BFCF729FC41EC1C0B53EC60
:103D1000192B51EC180BFCF721FC41EC180B53EC60
:103D2000192B51EC1A0BFCF719FC41EC190B51EC57
:103D30001C0BFCF7A0FC80B25B9051EC180BFCF75D
:103D40009AFC80B25A9051EC190BFCF794FC80B2AB
:103D5000FC49599000200870ABF6FF70B0EE4B8A1A
:103D6000F0EE6B8AB0EE4BAAF0EE6BAA4042FCF785
:103D700064FC41EC190BA6F6FF704042FCF75DFCB9
:103D8000804653EC192B0591FCF7E8FB53EC1F2BF5
:103D9000FCF772FB41EC1C0B6398A0F6FF704042ED
:103DA000FCF74BFC41EC190BA5F6FF704042FCF709
:103DB00044FC074653EC192B0391FCF7CFFB53EC63
:103DC0001E2BFCF759FB814662988A46A0F6FF70CD
:103DD0004042FCF732FC41EC190BA4F6FF70404264
:103DE000FCF72BFCCDE9000153EC192BFCF7B6FBDB
:103DF00053EC1D2BFCF740FBCDE976016998A0F64A
:103E0000FF704042FCF719FC41EC110B059953EC93
:103E1000112B41EC108B51EC100BFCF79FFB53EC7A
:103E20001F2BFCF729FBCDE978016798A0F6FF70FE
:103E30004042FCF702FC41EC110B039953EC112BAF
:103E400041EC107B51EC100BFCF788FB53EC1E2B64
:103E5000FCF712FBCDE906016698A0F6FF70404220
:103E6000FCF7EBFB41EC110BDDE9000153EC112BEE
:103E7000FCF774FB53EC1D2BFCF7FEFACDE90801AF
:103E80006598A0F6FF704042FCF7D7FB41EC110BA0
:103E9000059953EC112B41EC108B51EC100BFCF7F6
:103EA0005DFB53EC1F2BFCF7E7FACDE904016A98A0
:103EB000A0F6FF704042FCF7C0FB41EC100B0399E9
:103EC00053EC102B41EC117B51EC110BFCF746FB32
:103ED00053EC1E2BFCF7D0FA074668988846A0F6EC
:103EE000FF704042FCF7A9FB41EC100BDDE900013B
:103EF00053EC102BFCF732FB53EC1D2BFCF7BCFAF8
:103F0000CDE90E01DDE90401CDE90A01DDE9780121
:103F1000CDE90C78CDE90401DDE9760153EC1C2BE9
:103F200000E0EEE0CDE90201CDE9009A864916A84D
:103F300001F074FD16A8FCF7F1F981B216A8FCF7A0
:103F4000B9FD052002F0FFF95B98301AFCF775FB0C
:103F500041EC190B5B98ABEB0000FCF76EFB53ECEC
:103F6000192BFCF7FBFA53EC1F2BFCF785FA41ECFD
:103F70001C0B5A98281AFCF760FB41EC190B63994B
:103F80005A98081AFCF759FB53EC192BFCF7E6FA80
:103F900053EC1E2BFCF770FA074659988846201AF6
:103FA000FCF74BFB41EC190B62995998081AFCF786
:103FB00044FB53EC192BFCF7D1FA53EC1D2BFCF707
:103FC0005BFACDE902015E98301AFCF736FB41EC52
:103FD000190B5E996998401AFCF72FFB53EC192BCB
:103FE000FCF7BCFA53EC1F2BFCF746FACDE90001B5
:103FF0005D98281AFCF721FB41EC190B5D99679835
:10400000401AFCF71AFB53EC192BFCF7A7FA53ECF8
:104010001E2BFCF731FACDE904015C98201AFCF75D
:104020000CFB41EC190B5C996698401AFCF705FBF8
:1040300053EC192BFCF792FA53EC1D2BFCF71CFAEE
:10404000CDE906016198301AFCF7F7FA41EC190B3B
:1040500061996598401AFCF7F0FA53EC192BFCF7BC
:104060007DFA53EC1F2BFCF707FA814660988A46CD
:10407000281AFCF7E2FA41EC190B60996A98401A89
:10408000FCF7DBFA53EC192BFCF768FA53EC1E2B08
:10409000FCF7F2F905465F980E46201AFCF7CDFAB8
:1040A00041EC190B68995F98081AFCF7C6FA53ECB3
:1040B000192BFCF753FA53EC1D2BFCF7DDF9CDE976
:1040C0000E01CDE90C56CDE90A9ADDE90601CDE9EC
:1040D0000801DDE90401CDE90601DDE90001CDE9D2
:1040E0000401CDE9007853EC1C2B184916A801F007
:1040F00095FC16A8FCF712F981B216A8FCF7DAFCB9
:10410000642002F020F94FF0904700222021384629
:10411000FDF765FB012240213846FDF760FB0122D7
:1041200080213846FDF75BFB094E01221021304605
:10413000FDF755FB012002F006F9024C0025103472
:10414000FFF7F2BA00000020106E00088C6D000826
:104150000008004810B5502080F31188BFF34F8F3E
:10416000BFF36F8F02F020FD18B104494FF080506B
:104170000860002080F3118810BD000004ED00E00D
:1041800000B593B038216846FCF7BDF814210EA89D
:10419000FCF7B9F80020FEF7CBF8222000904FF48E
:1041A000807003904020049001200690022004219A
:1041B000CDE908015521CDE90A1007900C900D902A
:1041C0006846FEF7B5FB08B172B6FEE70F200E9009
:1041D00003200F90002010901190129004210EA83F
:1041E000FEF750FA002801D072B6FEE713B000BD0A
:1041F0000248016841F470010160704788ED00E0F9
:104200000148FEF70EBE0000D80200202DE9F04361
:104210000268264B264D274E274C4FF08049984286
:1042200007D0484505D0A84203D0B04201D0A042F3
:1042300003D122F070074A683A43204FDFF880C06C
:10424000DFF8808098420DD048450BD0A84209D0B5
:10425000B04207D0A04205D0B84203D0604501D09B
:10426000404503D122F44075CA682A434D6922F0C3
:1042700080022A4302608A68C2620A6882629842A7
:1042800007D0A04205D0B84203D0604501D04045D8
:1042900001D109690163012141610169C90703D0A5
:1042A000016921F001010161BDE8F083002C0140AA
:1042B000000400400008004000340140004001407C
:1042C000004401400048014010B50A46024903A0DD
:1042D00000F0D4FA004810BDF00A00204344432007
:1042E000436F6E66696700002DE9F0410C46D0F817
:1042F000C422D0F8BC12E9B104EB840600EB8605B9
:104300000027AB693BB102EBC602126AB3FBF2F6BF
:1043100002FB163282B1C1F81472D0F8C0020369F0
:104320002BB1D1F80802224601F50471984700200C
:10433000BDE8F0810320FBE700231A462146AF6168
:1043400000F084FCF3E770B5D0F8BC4205466CB1D0
:1043500000F073FBC4F80C02D5F8C012D4F80402C4
:10436000CA6804F503719047002070BD032070BD3A
:1043700070B50446812100F0CDFA00252587012182
:10438000204600F0C7FAA4F878518221204600F0B8
:10439000C1FAA4F84C50A4F84E50D4F8BC0248B16D
:1043A000D4F8C00204F52F7440688047206800F0FC
:1043B0003CFE2560002070BD122008800048704738
:1043C0003C00002010B5D0F8BC4284B1D0F8C01237
:1043D00059B194F80002FF2807D08B6894F80122A5
:1043E00021469847FF2084F80002002010BD0320DA
:1043F00010BD00000A21018000487047FC00002029
:1044000043210180004870474C0100204321018076
:104410000048704708010020432101800048704790
:10442000900100202DE9F04704464FF4077000F09A
:10443000FDFD05004FF0000735D0C4F8BC52207CCC
:104440004FF010084FF40079012680B34023022278
:104450008121204600F047FB2687402302220121CC
:10446000204600F040FBA4F87861A4F84E800823B1
:1044700003228221204600F036FBA4F84C60D4F8D9
:10448000C00200688047C5F81472C5F81872207C15
:10449000D5F80422A8B140230121204600F02FFBCB
:1044A0000020BDE8F0870220C4F8BC72F9E7FFE7FE
:1044B0004B4602228121204600F015FB26874B4601
:1044C000CCE74B46E8E7000010B50A46024903A0D6
:1044D00000F0D4F9004810BDF00A00204344432006
:1044E000496E74657266616365000000042008808F
:1044F000004870473800002010B50A46024903A062
:1045000000F0BCF9004810BDF00A002053544D697A
:1045100063726F656C656374726F6E6963730000BC
:1045200010B50A46024903A000F0A8F9004810BDE2
:10453000F00A002053544D3332205669727475616D
:104540006C20436F6D506F727400000010B5D0F88E
:10455000BC1251B1027C002AD1F8042207D04023BA
:10456000012100F0CCFA002010BD032010BD4FF453
:104570000073F5E719B1C0F8C0120020704703209E
:104580007047000010B51A2008800A480168001D15
:104590000468001D0068081809D008220649FEF7C3
:1045A0001FFD0549042210312046FEF719FD02487F
:1045B000801E10BD9075FF1F52000020D0F8BC0275
:1045C00018B1C0F804120020704703207047D0F8DB
:1045D000BC0228B1C0F81022C0F8081200207047B1
:1045E000032070472DE9FC410646D0F8BC7200203C
:1045F0000C468DF80000ADF80400054637B1207870
:1046000010F0600128D0202944D102E00320BDE849
:10461000FC81E288C2B1000660780AD5D6F8C012E3
:104620008B6839469847E288072A00D9072239461D
:1046300028E087F80002A07987F80102E28839466D
:10464000304600F06CF82AE0D6F8C01260780022FC
:104650008B682146984722E0607830B101281ED04F
:104660000A2809D00B2815D110E096F89C020328DF
:1046700010D1022201A905E096F89C02032809D175
:1046800001226946304600F064F808E096F89C0282
:10469000032804D02146304600F036F8032528468A
:1046A000B5E710B5D0F8BC12012219B1D1F8143217
:1046B00013B10FE0032010BD0122C1F81422D1F87C
:1046C0001022C262D1F81032D1F80822812100F004
:1046D000BDFA0022104610BD10B5D0F8B8220AB1BC
:1046E00052689047002010BD134610B50A460021BD
:1046F00000F005FA002010BD134610B50A4600214F
:1047000000F0A4FA002010BD10B50446802100F08E
:1047100082FA2046BDE81040002100F07CBA10B5B6
:104720000323C0F89432C0F858211346C0F85C2126
:104730000A46002100F0E3F9002010BD10B5052164
:10474000C0F8941200231A46194600F0D8F9002048
:1047500010BD10B50223C0F8943282611346C261C5
:104760000A46002100F072FA002010BD10B50421A5
:10477000C0F8941200231A46194600F067FA002088
:1047800010BDF8B504460020ADF8000048880D467D
:10479000010A062947D006DC01290FD0022912D0D0
:1047A000032962D11DE0072946D00F295DD1D4F835
:1047B000B402C26920E0694690473BE0D4F8B412E5
:1047C000207C0A68F7E7207C02260028D4F8B8028B
:1047D00005D0C16A684688470146467036E0816A5E
:1047E000F8E7C0B2062840D2DFE800F003090D1157
:1047F0001519D4F8B4024268B2B3207CDBE7D4F8D0
:10480000B4028268F8E7D4F8B402C268F4E7D4F8D6
:10481000B4020269F0E7D4F8B4024269ECE7D4F8D4
:10482000B4028269E8E7207CF0B9D4F8B802416BA1
:1048300068468847014609E0207CA8B9D4F8B80248
:10484000016B68468847014607204870EA888AB1AC
:10485000BDF8000040B1824200D90246ADF8002008
:104860002046FFF776FFF8BDFFE729462046FFF711
:104870004BFFF8E72046FFF779FFF4E770B5002318
:1048800000281ED00025044602E06D1CEDB2641C19
:104890002678002EF9D1022404EB45041480127806
:1048A000CA545B1C0322CA5400245B1C06E0CA5491
:1048B0005B1CDAB28C54521CD3B2401C0278002A22
:1048C000F5D170BD01004FF0000004D0012901D0E6
:1048D000022901D0032070470120704778B10023DE
:1048E000C0F8B832C0F8C032C0F8CC3209B1C0F854
:1048F000B412012180F89C12027000F0A3B80320CA
:10490000704710B5D0F8C402FDF7B8F8BDE8104004
:10491000FFF7D8BF10B5D0F8C402FDF78AF8BDE89C
:104920001040FFF7CFBF70B51646044621B194F88A
:104930009C02032841D048E0D4F8941204F11400FA
:104940000025022932D1D0E902318B4206D95A1A08
:10495000826031462046FFF7CFFE0FE0994214D126
:104960004068884211D3D4F8981288420DD20022B0
:1049700011462046FFF7C0FEC4F8985200231A469D
:104980001946204600F0BBF810E094F89C0203287A
:1049900005D1D4F8B802C16809B120468847802102
:1049A000204600F038F92046FFF7C8FE94F8A00230
:1049B00001280AD184F8A05207E0D4F8B80242696D
:1049C0001AB120469047002800D1002070BD10B5D4
:1049D0001346044621B194F89C02032823D02AE010
:1049E000D4F8941204F5AA70032924D1D0E9021254
:1049F00091420AD98A1A8260C068824200D3024674
:104A000019462046FFF770FE15E094F89C02032833
:104A100005D1D4F8B802016909B12046884720467B
:104A2000FFF7A4FE07E0D4F8B80282691AB1204665
:104A30009047002800D1002010BDD0F8C402FDF737
:104A400058BA000010B51E490446C1F8D802C0F893
:104A5000C4121C4808600820087102204871C871FF
:104A60000020087248728872C8720846FDF778FB09
:104A700008B1FCF78DF80022D4F8C40218231146BF
:104A800004F53174FCF7A4FF58230022802120682C
:104A9000FCF79EFFC023002281212068FCF798FFCD
:104AA0004FF48873002201212068FCF791FF4FF436
:104AB0008073002282212068FCF78AFF002010BD4D
:104AC00044050020005C00400A0601F07F01D0F898
:104AD000C40201EB810100EBC10001D5807C70476D
:104AE00090F85201704710B51C461346D0F8C40226
:104AF0002246FDF707FABDE81040FFF7E3BE10B508
:104B0000D0F8C402FDF72AFABDE81040FFF7DABE7C
:104B100070B50125044680F89C520020C4F8940228
:104B20006060C4F8A402D4F8B802E0B1D4F8BC12B2
:104B300021B1426812B10021204690470022402353
:104B400011462046FFF7CFFF4026A4F864513346B4
:104B5000002280212046C4F86061FFF7C4FFA584CD
:104B60000020266270BD032070BD90F89C120429BD
:104B700003D190F89D1280F89C120020704710B568
:104B8000D0F8B81221B190F89C22032A02D004E098
:104B9000032010BDC96901B18847002010BD017410
:104BA0000020704710B5D0F8C402FDF77FFBBDE8C8
:104BB0001040FFF787BE70B5044600F2AA200546F4
:104BC00000F04DF80120C4F89402B4F8B002C4F823
:104BD000980294F8AA0210F01F010AD001290ED001
:104BE000022912D000F080012046BDE8704000F09C
:104BF00012B829462046BDE8704000F0C3B82946E7
:104C00002046BDE8704000F0E7B929462046BDE8DF
:104C1000704000F041B910B5D0F8C402FDF7B5F905
:104C2000BDE81040FFF74EBE10B5D0F8C402FDF746
:104C300057FBBDE81040FFF745BE90F89C1280F886
:104C40009D12042180F89C120020704710B5D0F806
:104C5000C402FDF7C9F9BDE81040FFF733BE70B5D7
:104C6000054611F8010B2870087868704C1C204626
:104C7000FEF735FD6880A41C2046FEF730FDA880B5
:104C8000A01CFEF72CFDE88070BD38B5044600205E
:104C9000ADF8000049B1C4F8B812C96A19B1684644
:104CA0008847C4F8CC02002038BD032038BD024636
:104CB0000320D2F8B832002B02D01B6810461847E8
:104CC000704700002DE9F0410F462C4E89780025F1
:104CD00004463170012906D939462046FFF714FDF4
:104CE0000320BDE8F08194F89C0202280CD0032830
:104CF0001DD039462046FFF707FD31782046FFF7E3
:104D0000EBFC03252846ECE799B320466160FFF7EA
:104D1000CEFF050004D039462046FFF7F5FCF1E749
:104D20002046FFF723FD032084F89C02EAE74FF0BA
:104D30000208C1B1606888421BD0C1B22046FFF7AB
:104D4000CBFC317820466160FFF7B1FF050010D041
:104D500039462046FFF7D8FC21792046FFF7BCFCF6
:104D600084F89C82CEE784F89C8220466160FFF73D
:104D7000B3FC2046FFF7FAFCC4E70000F80000206F
:104D8000FFF752BF2DE9F0410A78002512F06002CA
:104D900008D0202A01D0402A71D1D0F8B8229268D8
:104DA000904731E04B78002201260A2B67D2DFE8DA
:104DB00003F0415E6658660805662D29FFF7E1FCA1
:104DC0005FE004468888D8B9C888C8B94888802870
:104DD00016D200F07F0794F89C02032810D084F8C4
:104DE0009E7239462046FFF7DDFE2046FFF7BEFCE7
:104DF0001FB1022084F89C0243E084F89C6240E0EA
:104E000020463CE0FFF75EFF05463AE0CB88012BE9
:104E100035D190F89C32012B04D0022B02D0032B09
:104E20002DD104E08260012200F1080116E0012288
:104E3000011D13E090F89C22012A03D0022A01D020
:104E4000032A1CD1CA88022A19D1C660D0F8A4123C
:104E500009B10321C160022200F10C01FFF779FCC6
:104E60000FE0498801290CD1C0F8A46211E090F844
:104E70009C32012B08D0022B06D0032B04D0FFF765
:104E800043FC2846BDE8F08149880129F9D1C0F8E2
:104E9000A422FFF76BFCF4E72DE9F0410D46044630
:104EA00028780026097910F060000BD0202801D066
:104EB00040286DD1D4F8B802294682682046904730
:104EC000064686E06878A8B3012822D003287CD162
:104ED00094F89C02022802D0032876D10BE0002926
:104EE00073D0802971D02046FFF795FE802120469F
:104EF000FFF791FE6DE0688838B931B1802904D0A0
:104F0000E88810B92046FFF786FE2046FFF72EFC02
:104F10005FE094F89C020228E1D0032855D168880C
:104F2000A8BB480602D02046FFF7EBFC2046FFF75F
:104F30001DFCBFE7FFE794F89C020027022802D07F
:104F4000032842D111E009B180293ED1080601F0C1
:104F50007F0000EB800004EB800101D5143101E0FB
:104F600001F5AA7102220F602BE0080601F00F0084
:104F700000EB800004EB80000BD5808C40B101F089
:104F80007F0000EB800004EB800514350CE020E08E
:104F90001BE0B0F86401C0B101F07F0000EB8000BD
:104FA00004EB800505F5AA7541B1802906D020469D
:104FB000FFF78AFD10B10120286000E02F60022277
:104FC00029462046FFF7C5FB03E029462046FFF7A8
:104FD0009BFB3046BDE8F08170B50646087800249A
:104FE0000D4610F0600003D0202801D0402817D1D2
:104FF00096F89C02012803D0022801D003280FD183
:10500000287901280CD8D6F8B80282683046904733
:105010000446E888204306D13046FFF7A7FB02E0AC
:105020003046FFF771FB204670BD7047004870475F
:10503000240300202DE9F0470C78002630F82430B6
:1050400048F68F121340CA78002A78D0012A7CD003
:10505000022A02D0032A75D0012648F280021343A7
:1050600020F824300D7830F8253048F68F7423402E
:105070002B43134320F825300D7B48F2C00948F636
:10508000BF734CF2800A4BF68F77EDB3CD7891F871
:1050900000C0022D30F82C507DD048F68F6805EA0C
:1050A0000805154320F82C50B0F8505091F800C076
:1050B000054405EBCC05B1F808C02CF0010CA5F8AF
:1050C00000C4B0F8505091F800C0054405EBCC0581
:1050D000B1F80AC02CF0010CA5F804C44D78002DDD
:1050E0007ED00D7830F825C05FEA4C4C07D530F8FB
:1050F00025C00CEA040C4CEA0A0C20F825C091F8F3
:1051000000C030F82C5000E022E06D0606D530F8E3
:105110002C50254045EA090520F82C50CC780D7814
:10512000012C30F8254004EA03047CD084F02003ED
:10513000134320F82530C1E001E006E002E043F42B
:1051400000738AE743F4C06387E743F4806384E72E
:105150004D784DB3B0F850500F78054405EBC705B6
:10516000CF8827F00107A5F800740F7830F8275092
:105170006D0606D530F82750254045EA090520F888
:105180002750CC78012C07D00C7830F82410194027
:1051900081F0200104E064E00C7830F8241019401C
:1051A000114320F8241090E0B0F850300D780344FB
:1051B00003EBC503CD8825F00105A3F80454B0F82E
:1051C00050300D78034403EBC503B3F80654C5F320
:1051D0000905A3F806540D6903F206433E2D00E0CD
:1051E00045E00BD94FEA551CED0601D1ACF1010C9D
:1051F0001D884FF4004848EA8C2C0BE035B34FEA89
:10520000550CED0701D00CF1010C1D884FF6FF780D
:1052100008EA8C2C45EA0C051D800D7830F8253005
:105220005B0408D500E046E030F82530234043EA2F
:105230000A0320F82530097861B130F821303B406D
:1052400083F40053134320F821303EE01D8845F4D9
:105250000045E1E70188394081F440511143018064
:1052600033E0254048F2801845EA08051AE791F82E
:1052700000C030F82C506D0406D530F82C50254075
:1052800045EA0A0520F82C5091F800C030F82C505F
:105290006D0606D530F82C50254045EA090520F862
:1052A0002C500D7830F825403C4084F44054144391
:1052B00020F8254070E7144320F825400B7830F89B
:1052C00023103940114320F823103046BDE8F08701
:1052D0002DE9F04391F80C804F780A7848F6BF7CAE
:1052E0004BF68F7948F2800348F2C0054CF28006F5
:1052F00048F68F74B8F1000F28D0002F30F82270D4
:105300004FEA474748D0002F05DA30F8227027408F
:10531000374320F822700A7830F822707F0605D5CE
:1053200030F8227027402F4320F822700D7830F893
:1053300025202240324320F825200C7830F8242004
:1053400002EA0C021A4320F824201AE07FB130F858
:105350002260760605D530F8226026402E4320F8DC
:1053600022600A7830F8221001EA0C010EE030F8D1
:1053700022506D0405D530F822502540354320F8E1
:1053800022500A7830F8221001EA0901194320F866
:1053900022100020BDE8F083002F05DA30F82270DB
:1053A0002740374320F822700A7830F822607606CA
:1053B00005D530F8226026402E4320F822600E7872
:1053C00030F8262022402A4320F826200C7830F896
:1053D000242002EA09021A4320F82420C1E730F809
:1053E000581F41F40041018000207047012120F83E
:1053F000401F00210180818001820846704730F8FB
:10540000401F4BF68072914301800020704730B5F9
:105410000A7BB2BB4A7848F68F7548F28004C2B165
:105420000B7830F82320520607D530F823202A4085
:1054300048F2C0052A4320F82320CA78012A20D048
:105440000A7830F8221048F6BF73194081F0200125
:1054500014E00A7830F822305B0407D530F82230A7
:105460002B404CF280052B4320F822300A7830F88C
:1054700022104BF68F73194081F44051214320F8DC
:105480002210002030BD10B54A780978002A48F271
:10549000800330F8212005D048F6BF74224082F006
:1054A000100204E04BF68F74224082F480521A43BB
:1054B00020F82120002010BD2DE9F0470D464B7843
:1054C000097B04464FF0000948F68F7248F2800AC3
:1054D0004FF400474FF6FF78012B09D000296FD019
:1054E000E87802286DD001286CD00120BDE8F08753
:1054F000AE692869864200D9064691B1E978022949
:105500001ED0286A801B2862287834F820104906AB
:10551000B4F85010214401EBC00073D5A0F8066424
:1055200016E1B3B2EA882046696900F063FAB4F87C
:1055300050002978204400EBC100A0F802640DE17E
:10554000296A814277D9297834F82100104048F23D
:105550008012104324F82100286A801B28622878D2
:1055600034F820104906697871D511B101292AD083
:1055700030E0B4F85010214401EBC000B0F806143C
:10558000C1F30901A0F8061400F206403E2E07D927
:105590007109F20600D1491E028847EA812107E01D
:1055A0004EB17108F20700D0491C028808EA812137
:1055B0000A4302800EE0018841F40041018009E0C5
:1055C000F1E020E195E1B4F85020111901EBC000A1
:1055D000A0F806646A89B3B22046696900F00AFA45
:1055E0006869304468612969286A884202D9801B49
:1055F000286202E00646C5F82090687818B10128B4
:105600002BD032E02FE0B4F850002978204400EB92
:10561000C100B0F80214C1F30901A0F8021400F2AD
:1056200002403E2E08D97109F20600D1491E0288B7
:1056300047EA812108E0A1E056B17108F20700D0E5
:10564000491C028808EA81210A4302800DE00EE02D
:10565000018841F40041018007E0B4F85000297846
:10566000204400EBC100A0F802642A8971E011B166
:10567000012927D02DE0B4F85010214401EBC000DF
:10568000B0F80214C1F30901A0F8021400F20240BC
:105690003E2E07D97109F20600D1491E028847EA59
:1056A000812107E04EB17108F20700D0491C028841
:1056B00008EA81210A4302800BE0018841F400419D
:1056C000018006E0B4F85010214401EBC000A0F8BE
:1056D00002642A89B3B22046696900F08BF96869CF
:1056E000304468612969286A884202D9801B28628F
:1056F00002E00646C5F82090687810B1012836D03F
:1057000026E0B4F850002978204400EBC100B0F83E
:105710000614C1F30901A0F8061400F206403E2E5B
:1057200007D97109F20600D1491E028847EA812192
:1057300007E04EB17108F20700D0491C028808EA60
:1057400081210A43028003E0018841F40041018085
:105750006A89B3B22046696900F04CF9297834F8B7
:10576000210048F6BF72104080F030000FE1B4F81D
:1057700050100819297800EBC100CFE62A7834F8D8
:10578000220048F68F63184040EA0A0024F82200FD
:10579000B4F850002A78204400EBC2008BB2A0F885
:1057A00002342A89D6E7A9692869814202D9091AEF
:1057B000A96102E00846C5F81890B4F850102A789C
:1057C000214401EBC201B1F80624C2F30902A1F899
:1057D000062401F206413E287DD94209C00600D1C7
:1057E000521E088847EA82220AE0088840F40040F6
:1057F00007E04208C00700D0521C088808EA82224D
:1058000010430880BBE033BBB4F850002978204433
:1058100000EBC100B0F80214C1F30901A0F80214B2
:10582000296900F202403E2907D94B09C90600D177
:105830005B1E018847EA832307E041B14B08C90793
:1058400000D05B1C018808EA8323194302E0018829
:1058500041F400410180687810B1012828D030E07F
:10586000B4F850002978204400EBC100B0F80614C9
:10587000C1F30901A0F80614296900F206403E2987
:1058800007D94B09C90600D15B1E018847EA83236B
:1058900007E041B14B08C90700D05B1C018808EA4A
:1058A0008323194302E0018841F40041018008E0AC
:1058B000B4F850100819297800EBC100298AA0F823
:1058C0000614E869C0B3297834F82100430401D5EF
:1058D000430605D400E046E044F2400318424ED1AE
:1058E00034F82100104048F2C002104324F821008F
:1058F00045E0A9692869814202D9091AA96102E033
:105900000846C5F8189013BBB4F850102A78214403
:1059100001EBC201B1F80224C2F30902A1F802248A
:1059200001F202413E2808D94209C30600D1521EA5
:105930000B8847EA822208E021E078B14208C307D9
:1059400000D0521C0B8808EA822213430B8069782E
:1059500000293FF42EAF012909D010E00A8842F453
:1059600000420A80F3E700287FF443AF3DE7B4F834
:10597000502011192A7801EBC201A1F806042978F8
:1059800034F821004BF68F72104080F4405040EA0A
:105990000A0024F821000020A8E50021A0F8441006
:1059A0004BF68071A0F84010002070470148FCF7CA
:1059B00032BB000044050020B0F84400704710B529
:1059C00010445C0800F5806008D030F8022B01F824
:1059D000012B120A01F8012B641EF6D1DA0701D05F
:1059E0000088087010BD11B98021A0F84C1000206B
:1059F0007047000010B55B1C10445B0800F5806028
:105A00000AD000BF11F8012B11F8014B42EA042221
:105A100020F8022B5B1EF5D110BDFEE70FB4084B3A
:105A200010B504A902AA039800F0EEF8044602A9F2
:105A3000002000F06CFC204610BC5DF814FB000058
:105A40000F6300080907090E002804DB00F1E020BD
:105A500080F80014704700F00F0000F1E02080F89B
:105A6000141D704702E008C8121F08C1002AFAD1AD
:105A700070477047002001E001C1121F002AFBD1CE
:105A8000704700002DE9FF5F82B00021DDE904309E
:105A9000020DDDF840B0034318D044F61050A2F2D6
:105AA000FF3242431514119801281FD0A5EB0B00BB
:105AB000401C5FEA000A4FF000064E4FDFF83891B5
:105AC000B046504615D5CAF1000413E011980124E0
:105AD0004AA3012801D16FEA0B010298119AC0E98B
