:020000040800F2
:10000000A04E0020B102000837360008372700084C
:1000100035360008510900080B6000080000000098
:10002000000000000000000000000000F1010008D6
:10003000C9090008000000004D0200087D400008CA
:10004000CB020008CB020008CB020008CB0200085C
:10005000CB020008CB020008CB020008CB0200084C
:10006000CB020008CB020008CB020008CB0200083C
:10007000CB020008CB020008CB020008CB0200082C
:10008000CB02000800000000CB020008CB020008F1
:100090009D5F0008CB020008CB020008CB020008DD
:1000A000CB02000825410008CB020008CB02000863
:1000B00051410008ED42000831450008CB0200081C
:1000C000CB020008CB020008CB020008CB020008DC
:1000D000CB020008CB020008CB020008CB020008CC
:1000E000CB020008CB020008CB020008CB020008BC
:1000F000CB020008CB020008CB0200080000000081
:1001000000000000CB02000800000000CB02000845
:10011000CB02000800000000CD460008D9460008C8
:10012000CB020008CB020008CB020008CB0200087B
:10013000CB0200080000000000000000CB02000815
:10014000CB020008CB020008000000000000000005
:10015000000000000000000000000000000000009F
:10016000000000000000000000000000CB020008BA
:10017000CB020008000000000000000000000000AA
:1001800000000000CB02000800000000000000009A
:10019000000000000000000000000000000000005F
:1001A0000000000000000000CB020008CB020008A5
:1001B000CB020008CB020008CB02000800000000C0
:1001C00000000000CB02000800000000000000005A
:1001D000CB020008CB020008DFF810D000F00EFBC5
:1001E0000048004795690008AFF30080A04E00204A
:1001F0002C4B19680868B0E8F04F80F30988BFF30A
:100200006F8F4FF0000080F31188704700000000EE
:1002100008480068006880F308884FF0000080F309
:10022000148862B661B6BFF34F8FBFF36F8F00DFE4
:1002300000BF00BF08ED00E0DFF80C00016841F4EA
:1002400070010160704700BF88ED00E0EFF30980A6
:10025000BFF36F8F134B1A681EF0100F08BF20ED0D
:10026000108A20E9F04F106009B44FF0500080F37D
:100270001188BFF34F8FBFF36F8F07F019F94FF05D
:10028000000080F3118809BC19680868B0E8F04FD5
:100290001EF0100F08BFB0EC108A80F30988BFF37E
:1002A0006F8F7047C0000020EFF30580704700009B
:1002B0000648804706480047FEE7FEE7FEE7FEE700
:1002C000FEE7FEE7FEE7FEE7FEE7FEE71541000872
:1002D000D901000840EA01039B0703D009E008C9DF
:1002E000121F08C0042AFAD203E011F8013B00F8FB
:1002F000013B521EF9D27047D2B201E000F8012B47
:10030000491EFBD270470022F6E710B513460A4695
:1003100004461946FFF7F0FF204610BD421C10F8B6
:10032000011B0029FBD1801A70472DE9F04D81EAAD
:10033000030404F0004B21F0004514464FF0000A7E
:1003400023F0004150EA050220D054EA01021DD0FA
:10035000C5F30A570246C5F31303C1F31300C1F3F3
:100360000A5640F4801543F48013A7EB0608101BCF
:10037000D64608F2FD3873EB050002D308F10108F8
:1003800001E092185B41B8F1000F03DA002001464A
:10039000BDE8F08D00204FF48011064684460EE043
:1003A000171B73EB050705D3121B63EB050306430D
:1003B0004CEA010C49084FEA300092185B4150EAC0
:1003C0000107EDD152EA030012D082EA040083EA69
:1003D0000501084305D0101BAB4106D201220023C2
:1003E00006E000224FF0004302E06FF001025310DC
:1003F0001AEB06004CEB085110EB0A0041EB0B0125
:10040000BDE8F04D00F054B80EB540F23341029112
:100410000021CDE900110A460B4600F058F803B060
:1004200000BD30B50B46014600202022012409E022
:1004300021FA02F59D4205D303FA02F5491B04FA9D
:1004400002F52844151EA2F10102F1DC30BD2DE9B0
:10045000F05F0546002092469B4688460646814648
:1004600040241BE0284641464746224600F0E7F973
:1004700053465A46C01A914110D311461846224697
:1004800000F0CEF92D1A67EB01084F4622460120F5
:10049000002100F0C5F917EB00094E41201EA4F120
:1004A0000104DFDC484631462A464346BDE8F09F5A
:1004B00010B5141E73F1000408DA401C41F100016C
:1004C00092185B411A4301D120F0010010BD2DE9C3
:1004D000F04D92469B4611B1B1FA81F202E0B0FABA
:1004E00080F22032904600F09BF904460F4640EA25
:1004F0000A0041EA0B0153465A46084313D01146FD
:1005000053EA010019D0C8F14002504600F097F9B3
:1005100005460E4650465946424600F081F90843CA
:1005200005D0012004E020463946BDE8F08D0020CA
:10053000054346EAE0762C4337430A986305E40A0C
:10054000A0EB08000022FD0A44EA47540A3002D515
:1005500000200146E9E7010510196941DDE9084578
:1005600000196941BDE8F04DA2E72DE9FE4F804634
:1005700081EA0300C00F0C46009021F0004123F0F7
:100580000045B8EB0200A94105D2404621469046FD
:100590001C460B46024623F00040104347D0270D6F
:1005A000C7F30A00C3F30A510290401A0190402891
:1005B0006BDAC3F3130040F4801B0098924620B11D
:1005C0000023D2EB030A63EB0B0B01985946C0F1F1
:1005D0004002504600F024F906460D465046594662
:1005E000019A00F03CF910EB08006141002487EA11
:1005F000115284EAE7731A4340D0009A62B3019A19
:10060000012A4FEA075215DC001B61EB02014FF093
:10061000004202EA0752CDE90042001C41F5801178
:1006200032462B46FFF753FF03B0BDE8F08F40463C
:100630002146F9E7001B61EB0201001C41F5801324
:1006400000185B412018A2F5001747EB030140EAB0
:10065000D570B6196D4111E06D084FEA360645EACE
:10066000C0754FEA0752001B61EB0201001C41F507
:10067000801149084FEA30000019514132462B469B
:1006800003B0BDE8F04FFFF713BF00980122400010
:100690000023D0EB020263EBE073009821464FEA9F
:1006A000E074B8EB000061EB0401E9E783F000437C
:1006B0005BE781F0004158E72DE9FE4F81EA030432
:1006C00004F0004421F0004100944FF0000B23F0AF
:1006D000004350EA01045ED052EA03045BD0C3F346
:1006E0000A54C1F30A552C44A4F2F3340194A0FB3C
:1006F0000254C1F3130141F48011C3F3130343F413
:10070000801301FB024400FB034E840A970A44EA6B
:10071000815447EA8357A4FB076802958D0A05FBBD
:1007200007854FEA932C04FB0C542705029D4FEAE2
:10073000065847EA1637B5EB08056EEB070C870E2F
:10074000920E47EA811742EA8312A7FB0201B6EB39
:100750000B0164EB00042B0D43EA0C335E1844EBF1
:100760001C50DA465146E7FB0201C5F313044FEA79
:100770000B3343EA14534FEA0432019C43EA060365
:10078000A4F10C040294009CCDE900B4FFF79FFE95
:1007900003B0BDE8F08F00200146F9E7C1F30A522B
:1007A000C1F3130140F2FF3341F480119A4202DA9F
:1007B00000200146704740F233439A42A2F233428E
:1007C00002DC524200F03BB800F02AB830B5041EFB
:1007D00071F1000404DB4FF00044404264EB01017E
:1007E000141E73F1000405DB1C464FF00043524217
:1007F00063EB0403994208BF904230BD064C074D9D
:1008000006E0E06840F0010394E8070098471034E0
:10081000AC42F6D3FFF7E4FC547F0008747F000875
:10082000202A04DB203A00FA02F1002070479140B0
:10083000C2F1200320FA03F3194390407047202AA5
:1008400004DB203A21FA02F00021704721FA02F37A
:10085000D040C2F120029140084319467047202A37
:1008600006DBCB17203A41FA02F043EAE07306E0D8
:1008700041FA02F3D040C2F12002914008431946E8
:10088000704770B58C1810F8015B15F0070301D1A3
:1008900010F8013B2A1106D110F8012B03E010F8E3
:1008A000016B01F8016B5B1EF9D12B0705D4002306
:1008B000521E0DD401F8013BFAE710F8013BCB1AA8
:1008C000921C03E013F8015B01F8015B521EF9D59D
:1008D000A142D8D3002070BD2DE9F843044618A0EA
:1008E000164600680D46009005291FD8DFF8548091
:1008F000154FECB1012C19D1002204214FEA080058
:1009000000F097F98DF800508DF801604FF6FF73F5
:10091000022269460D4801F0F1FC6CB1012C05D1B1
:10092000012204214FEA080000F083F9BDE8F883B2
:10093000002210213846E3E7012210213846F3E770
:10094000000A0000000400480008004830030020AE
:10095000FEE70020704700207047000010B500221D
:100960000449054804F0A5F80449034804F098F840
:10097000002010BDAC110020DC080020AC0D0020D0
:1009800010B50146034804F08BF8024804F050F813
:10099000002010BDDC08002000207047094A10B577
:1009A000D2F8BC22D2F814220AB1012010BD0A46A6
:1009B0000146044804F07DF8BDE81040014804F009
:1009C000E2B80000DC080020704772B6FEE70000C5
:1009D0002DE9F04FDFF82092002301260324A9F12E
:1009E000040B85B00F2709F1040AABF1040EFAE0FD
:1009F00006FA03F52A407CD091F804C00CF0030CF1
:100A0000BCF1010F02D0BCF1020F26D1D0F808C012
:100A1000CDF800C04FEA430C04FA0CF8CDF810C032
:100A2000DDF800C02CEA080CCDF800C0D1F80C802D
:100A3000DDF810C008FA0CF8DDF800C048EA0C0830
:100A4000C0F80880D0F804C02CEA050C0D79C5F375
:100A500000159D4045EA0C0545600D79ED43AD0755
:100A60000ED0C5684FEA430804FA08FC25EA0C05D5
:100A7000D1F808C00CFA08FC4CEA050CC0F80CC010
:100A80000D7905F00305022D16D1DD0800EB850C6C
:100A9000CDF808C0DCF820805D074FEAD56C07FA76
:100AA0000CF528EA05080D6905FA0CF5DDF808C013
:100AB00045EA0805CCF8205005684FEA430CCDF80C
:100AC00008C004FA0CFC25EA0C0591F804C00CF0EF
:100AD0000308DDF808C008FA0CF848EA0508C0F871
:100AE00000804D6815F4403F7CD0444DD5F860C07F
:100AF00000E077E04CF0010CC5F860C02D6E23F0EB
:100B0000030C05F0010500953D4D65440295AD6867
:100B10004FEA837C4FEA1C7807FA08FC25EA0C05AB
:100B2000B0F1904F06D0DFF8DCC0604505D14FF042
:100B3000010C20E04FF0000C1DE0DFF8CCC0604558
:100B400002D14FF0020C16E0DFF8C0C0604502D1C0
:100B50004FF0030C0FE0DFF8B8C0604502D14FF052
:100B6000040C08E0DFF8ACC0604502D14FF0050C82
:100B700001E04FF0060C0CFA08FC4CEA050C029D53
:100B8000C5F808C0D9F80050CC46D1F80480954388
:100B90005FEAC82800D51543CCF80050DAF80050B9
:100BA000D446D1F8048095435FEA882800D51543E0
:100BB000CCF80050DBF80050DC46D1F804809543B7
:100BC0005FEA883800D51543CCF80050DEF80050B5
:100BD000F446D1F8048095435FEAC83800D5154340
:100BE000CCF800505B1C0A6832FA03F57FF400AFC2
:100BF00005B0BDE8F08F000008040140001002407D
:100C0000000001400004004800080048000C0048B3
:100C100000100048001400480069084000D001207E
:100C20007047426921EA02030A4043EA02418161B6
:100C300070470AB1816170478162704701488068DE
:100C400070470000B00000200248816842681144EB
:100C500081607047B000002010B50024032000F030
:100C60009BF80F2000F008F808B1012401E000F023
:100C700047F8204610BD000030B505461B4887B038
:100C8000816D41F010018165806D06A900F01000B2
:100C9000009001A801F00EF801F02CF81449154A53
:100CA000B0FBF1F11448491E0260416040F2E732A6
:100CB0000021C0E90321816001F0F0FB040012D1A2
:100CC0000D4801F01DFC04000DD1362000F036F86F
:100CD000102D07D200222946362000F03DF80748A3
:100CE000056000E0012407B0204630BD001002403E
:100CF00040420F000010004094030020B00000208C
:100D00000D4808B5016E41F001010166016E01F068
:100D100001010091816D41F080518165806D00225B
:100D200000F0805000900F21901E00F015F8BDE8F3
:100D3000084000F085BD000000100240002809DBDB
:100D400000F01F02012191404009800000F1E020E5
:100D5000C0F8001170470000F0B40E4B1B680C4641
:100D6000C3F30223C3F10705042D00D90425191D7F
:100D7000072901D2002300E0DB1E012606FA05F157
:100D8000491E214099409E40761E16403143F0BCDA
:100D900005F076B90CED00E0064900F0070208689E
:100DA0004FF6FF03184040EA0220034A1043086050
:100DB000704700000CED00E00000FA050122016818
:100DC000C0F8D022002280F8C82231F8540F40F039
:100DD00001000880088840F0020008801046704733
:100DE00070B50F4D044669B101290AD1D4F8D80273
:100DF00004F095F9607A002803D0286840F00600D6
:100E0000286070BD607A28B103F04EF9286820F0A0
:100E100006002860D4F8D802BDE8704004F017B985
:100E200010ED00E010B50C0607D501F0070101EB4D
:100E3000810100EBC100103005E001EB810100EB06
:100E4000C10000F5A87099B232B10122027301818C
:100E5000190C4181002010BD00220273C180F9E706
:100E600001EB810200EBC202D0F8D802526A03F013
:100E7000CCBF01EB810200EBC202D0F8D802D2F85D
:100E8000642104F016B870B504460B0601F00700A3
:100E900000EB800104EBC1014FF001024FF00005AF
:100EA00002D54A74103103E081F8515101F5A8715F
:100EB000087094F89002012808D084F890222068E5
:100EC00004F0FEFC84F89052002070BD022070BD3A
:100ED00070B5044601F00F002279904201D901203B
:100EE00070BD0B0601F0070000EB800104EBC101AF
:100EF0004FF001024FF0000502D54A74103103E0B3
:100F000081F8515101F5A8718D70087094F8900224
:100F1000012808D084F89022206804F070FD84F83D
:100F20009052002070BD022070BD2DE9F04704688A
:100F30005FEA42480B788D69B4F850804FF0000C9E
:100F40004BF68F7748F2800648F68F7948F2C00A50
:100F5000444428D540F2024808EBC30834F808405E
:100F6000C4F30904A54203D32D1B8D6102D00BE00D
:100F7000C1F818C0D0F800C03CF823503D4085F4BB
:100F8000005535432CF82350520609D50B780568D7
:100F900035F8232002EA090242EA0A0225F8232052
:100FA00074B30A8927E040F2064808EBC30834F816
:100FB0000840C4F30904A54203D32D1B8D6102D060
:100FC0000BE0C1F818C0D0F800C03CF823503D40F9
:100FD00085F4005535432CF82350520609D40D787A
:100FE000036833F8252002EA090242EA0A0223F8DC
:100FF00025202CB14A8949690068234604F0D7FFAF
:101000002046BDE8F0872DE9F047054600680C460C
:101010005FEA42681646D1F818C02278B0F85080CE
:1010200048F68F774CF280094FF400434FF6FF7A71
:101030004FF00001404472D540F2024808EBC2086C
:1010400030F80800C0F30900844514D9BCEB000C4B
:10105000C4F818C010D0760408D5D5F800C03CF804
:1010600022603E4046EA09062CF8226094F82420CB
:10107000012A47D056E1A161607810B1012813D050
:101080001AE02868B0F85030184400EBC200B0F8FD
:101090000224C2F30902A0F80224B0F8022442F4A8
:1010A0000042A0F8022407E02868B0F85030184445
:1010B00000EBC200A0F802146278286812B1012A7D
:1010C00011D018E0B0F850100844217800EBC100AE
:1010D000B0F80614C1F30901A0F80614B0F806141C
:1010E00041F4004105E0B0F850201044227800EBB4
:1010F000C200A0F8061421782846FFF7B1FE70045C
:101100006ED40FE1626902446261E2690244E26105
:101110002669226AB24203D33046111A04E040E045
:1011200084F824100AB110462162617811B10129B6
:101130002BD033E02968B1F850201144227801EB1C
:10114000C201B1F80224C2F30902A1F8022401F29B
:1011500002413E2809D94209C60600D1521E0E8816
:1011600043EA822216430E8018E048B14208C307C2
:1011700000D0521C0B880AEA822213430B800DE038
:101180000A8842F400420A8008E02968B1F8502039
:101190001144227801EBC201A1F8020483B2228932
:1011A000BCE040F2064808EBC20830F80800C0F383
:1011B0000900844515D3BCEB000CC4F818C011D04D
:1011C000760408D4D5F800C03CF822603E4046EAD8
:1011D00009062CF8226094F82420012A51D0A1E0BD
:1011E00045E0A161607810B1012813D01AE02868A9
:1011F000B0F85030184400EBC200B0F80224C2F33B
:101200000902A0F80224B0F8022442F40042A0F837
:10121000022407E02868B0F85030184400EBC20000
:10122000A0F802146278286812B1012A11D018E0DF
:10123000B0F850100844217800EBC100B0F8061453
:10124000C1F30901A0F80614B0F8061441F40041F6
:1012500005E0B0F850201044227800EBC200A0F85E
:10126000061421782846FFF7FBFD70045AD4217834
:101270002A6832F82100384040EA090022F82100AB
:1012800050E0626902446261E2690244E2612669F7
:10129000226AB24203D33046111A216204E00AB135
:1012A0001046216284F824106278296812B1012A5C
:1012B0002AD031E0B1F850201144227801EBC2016C
:1012C000B1F80624C2F30902A1F8062401F206418E
:1012D0003E2809D94209C60600D1521E0E8843EAAB
:1012E000822216430E8017E048B14208C30700D09F
:1012F000521C0B880AEA822213430B800CE00A88F6
:1013000042F400420A8007E0B1F8502011442278EC
:1013100001EBC201A1F80604628983B26169286801
:1013200004F060FE21782A6832F8210048F6BF7385
:10133000184080F0300048F28003184322F8210062
:101340000020BDE8F08701F0070101EB810100EB0F
:10135000C100D0F86C0170472DE9F04104460F063A
:1013600001F0070000EB800104EBC1014FF0010622
:101370004FF0000502D54E74103103E081F8515151
:1013800001F5A871022B08700A61CB7000D10D71B4
:1013900094F89002012809D084F89062206804F043
:1013A00041F9284684F89052BDE8F0810220FBE71D
:1013B00010B501F0070404EB840100EBC101C1E9A1
:1013C00059230022C1F86C2181F8512181F8504144
:1013D000006801F5A87104F067FB002010BD70B52E
:1013E000044601F007002279904201D9012070BD26
:1013F0000B064FF000054FF0010206D500EB80010F
:1014000004EBC1014A74103107E001EB810104EBE8
:10141000C10181F8515101F5A8718A70087094F8E2
:101420009002012808D084F89022206804F023FB61
:1014300084F89052002070BD022070BD10B501F0FC
:10144000070404EB840100EBC101C1E90923012277
:1014500081F834200B630023CB624A7401F8104FEB
:10146000006804F021FB002010BD10B504460068A0
:1014700004F09AFD010404D52046BDE8104002F0B6
:101480002FBA41050ED5206830F8441F21F4806141
:101490000180204600F008F92046BDE810400021F8
:1014A00000F02EB9410405D5206830F8441F21F41E
:1014B00080417DE0810405D5206830F8441F21F487
:1014C000005175E0C1041FD5206830F8401F21F09D
:1014D00004010180206830F8401F21F008010180DC
:1014E00094F8C802012806D1002084F8C8020146F9
:1014F0002046FFF775FC204600F0EAF8206830F837
:10150000441F21F4805153E0010512D5206830F8C2
:10151000401F41F008010180206830F8441F21F489
:1015200000610180206830F8401F41F00401018013
:101530000AE0010629D5206830F8441F21F0800117
:10154000018094F8C80218B1204600F009F910BDD6
:10155000206830F8401F41F004010180206830F815
:10156000401F41F008010180012084F8C802206872
:10157000B0F854003C2101EA9000C4F8CC022046A7
:10158000BDE810400121FFF72BBC810509D520687B
:1015900030F8441F21F400710180204600F0ACF8BF
:1015A00010BDC005FCD5206830F8441F21F48071BF
:1015B000018010BD70B5040004D094F8910200259C
:1015C00010B106E0012070BD84F89052204600F072
:1015D0003FF8032084F89102206804F008FA002004
:1015E00001260BE000EB800104EBC1014E7408748E
:1015F000CD740D624D62401CC0B28D622179814272
:10160000F0D8002012E000BF00EB800104EBC10124
:1016100081F8515181F8500181F85351C1F860515E
:10162000C1F86451401CC0B2C1F8685121798142AF
:10163000EAD894E8070004F0D1F9257384F89162A0
:10164000A07A012802D12046FFF7B8FB002070BD28
:1016500010B592B0044644216846FEF754FE104986
:10166000206888421AD14014009000200D906846EE
:1016700000F0EEF808B1FFF7A8F90A48816D41F4CF
:1016800000018165806D002200F4000011900521A9
:101690001420FFF761FB1420FFF750FB12B010BDC0
:1016A000005C00400010024070B5044640790125FE
:1016B000022801D0FFF789F92946D4F8D80203F0AF
:1016C000E0FCD4F8D802BDE8704003F093BC000001
:1016D00010B50446407A30B10648016821F0060191
:1016E000016002F0E1FCD4F8D802BDE8104003F03C
:1016F000AEBC000010ED00E0D0F8D80203F0B1BCA1
:1017000010B5044690F8900201280AD0012084F810
:1017100090022173206804F05EFC002084F890029F
:1017200010BD022010BDD0F8D82200F52671104659
:1017300003F0B3BC10B5044690F8900201280CD019
:10174000012084F89002206804F01FFC206804F057
:101750003EF9002084F8900210BD022010BD000068
:1017600010B50446D0F8D80203F0D9FC607A0028FE
:1017700004D00348016841F00601016010BD00007B
:1017800010ED00E02B492C4B0A6832214A432B49CB
:1017900040B1B0F5007F086829D020F4C06040F463
:1017A00080602CE00868C0F34120022804D051F882
:1017B000800F20F4807022E0D1F8800020F4807047
:1017C000C1F88000086820F4C06040F40070086030
:1017D000B2FBF3F0401C00E0401E4A69520501D5FF
:1017E0000028F9D1486940050AD503207047C0F3A5
:1017F0004120022806D051F8800F40F48070086024
:1018000000207047D1F8800040F48070C1F880005B
:10181000086820F4C06040F400700860B2FBF3F088
:10182000401C00E0401E4A695205DBD50028F9D172
:10183000D8E70000BC00002040420F0000700040CC
:101840000248816841F48041816070470070004027
:101850002DE9F8430446006800269D4D00035ED53F
:10186000A86D0027C00008D4A86D40F08050A8657E
:10187000A86D012700F080500090DFF85892D9F849
:10188000001041F48071C9F80010FFF7D7F98046C5
:1018900006E000BFFFF7D2F9A0EB080002282BD822
:1018A000D9F80000C005F5D5D5F8900010F44070C7
:1018B00014D0216C814211D0D5F89000D5F8901049
:1018C00020F4407041F48031C5F89010D5F89010A4
:1018D00021F48031C5F89010C5F89000C00711D0F0
:1018E000FFF7ACF9804641F2883907E0FFF7A6F927
:1018F000A0EB0801494501D903260BE0D5F890007B
:101900008007F3D5D5F89000216C20F4407008438F
:10191000C5F890001FB1A86D20F08050A865207810
:10192000C00707D0D5F88800616820F0030008439D
:10193000C5F888002078800707D5D5F88800A16809
:1019400020F00C000843C5F888002078400707D530
:10195000D5F88800E16820F030000843C5F8880019
:101960002078000707D5D5F88800216920F0C0004D
:101970000843C5F888002078800607D5D5F8880088
:10198000616920F440600843C5F88800207840066B
:1019900007D5D5F88800A16920F440500843C5F860
:1019A00088002078000607D5D5F88800E16920F482
:1019B00040400843C5F888002088C00507D5D5F801
:1019C0008800216A20F440300843C5F88800208848
:1019D000800507D5D5F88800616A20F440200843C7
:1019E000C5F88800208840050FD5D5F88800A16A81
:1019F00020F440100843C5F88800A06AB0F5801FA5
:101A000003D1E86840F48010E860208800050FD515
:101A1000D5F88800E16A20F440000843C5F8880042
:101A2000E06AB0F5800F03D1E86840F48010E86008
:101A30002088C0040FD5D5F88800216B20F04070B5
:101A40000843C5F88800206BB0F1807F03D1E868B7
:101A500040F48010E86020884FF0006180040ED5CB
:101A6000D5F88800626B20F040601043C5F888000C
:101A7000606B884203D1E86840F48010E8602088F9
:101A800040040ED5D5F88800A26B20F040601043CA
:101A9000C5F88800A06B884203D1E86840F4801044
:101AA000E860208800040FD5D5F88800E16B20F0AD
:101AB00040500843C5F88800E06BB0F1805F03D167
:101AC000E86840F48030E8603046BDE8F883000004
:101AD00000100240007000402DE9F0470E4605005E
:101AE0004FF0000725D0DFF8AC81D8F8000000F0F7
:101AF0000F00B0420CD2D8F8001021F00F01314392
:101B0000C8F80010D8F8000000F00F00B04210D163
:101B10002968614CC80741F2883A5AD06868DFF8F2
:101B20007C91032808D0022820682DD04005002889
:101B30002CDB0120BDE8F08720688001F9D5E06842
:101B400000F00302E068C0F30310401C032A19D020
:101B5000534A00BFB2FBF0F0E268C2F306225043E2
:101B6000E268C2F34162521C5200B0FBF2F04845F9
:101B700017D9A06810F0F00F0CD0880711D5A8680D
:101B800040B10EE0474AE5E78003D0E700F0C4F833
:101B9000484506D9A06820F0F00040F08000A06021
:101BA0008027A068696820F003000843A060FFF761
:101BB00045F8814606E000BFFFF740F8A0EB0901B9
:101BC00051453AD8A068696800F00C00B0EB810F6D
:101BD000F2D12868810714D5400703D5A06840F4E6
:101BE000E060A0602878000705D5A06820F4605068
:101BF00040F4E060A060A068A96820F0F00008430D
:101C000004E0802F03D1A06820F0F000A060D8F895
:101C10000010404601F00F01B14216D9016821F0D1
:101C20000F0131430160FFF709F8074607E000BFE5
:101C3000FFF704F8C11B514501D903207AE7D8F812
:101C4000000000F00F00B042F2D12878400705D51F
:101C5000A068E96820F4E0600843A06028780007E5
:101C600006D5A068296920F4605040EAC100A06050
:101C700000F052F8A1680C4AC1F30311515C01F065
:101C80001F01C8400949086009480068BDE8F047DD
:101C9000FEF7F2BF002002400010024000B4C4046E
:101CA0000024F40000127A00187F0008BC00002015
:101CB000B00000200F2202600C4A936803F0030377
:101CC0004360936803F0F0038360936803F4E06378
:101CD000C36092684FF4E06303EAD20202610448F1
:101CE000006800F00F00086070470000001002401C
:101CF000002002400548064900688968054AC1F38A
:101D00000221515C01F01F01C8407047BC00002057
:101D100000100240287F0008184910B58868C0F3F9
:101D200081021748012A0BD08A684310C2F381024E
:101D3000022A06D08A68C2F38102032A03D0002057
:101D400010BD184610BDCA6802F00304CA68C2F389
:101D50000312521C032C02D0B0FBF2F001E0B3FBE3
:101D6000F2F0CA68C968C2F306225043C1F3416168
:101D7000491C4900B0FBF1F010BD0000001002400A
:101D80000024F4002DE9F84304007AD02078F84DBF
:101D9000C00747D0A868E96800F00C0001F0030113
:101DA0000C2802D0082817D001E0032914D060685D
:101DB000B0F5803F17D0B0F5A02F286817D020F4D9
:101DC00080302860286820F4802028606068E0B1B6
:101DD000FEF734FF064614E02868800322D56068C9
:101DE0000028D2D01EE0286840F48030EDE740F4AF
:101DF00080202860F7E700BFFEF720FF801B6428E3
:101E000070D828688003F7D50CE0FEF717FF064668
:101E100005E000BFFEF712FF801B6428F0D8286899
:101E20008003F7D4207880074CD5A868E96800F0D3
:101E30000C0001F003010C2802D004280DD001E0B1
:101E400002290AD0E068002828682BD040F480706E
:101E50002860FEF7F3FE064619E02868400502D523
:101E6000E068002891D06868217C20F0FE4040EABC
:101E700001606860BF480068FEF7FEFE002800D1E0
:101E800020E072E1FEF7DAFE801B0228B8D828684D
:101E90004005F7D56868217C20F0FE4040EA0160EB
:101EA00068600FE020F480702860FEF7C7FE0646E9
:101EB00005E000BFFEF7C2FE801B0228A0D82868FC
:101EC0004005F7D42078000729D560690028D5F8A7
:101ED000940013D040F00100C5F89400FEF7AEFE68
:101EE000064606E090E000BFFEF7A8FE801B022831
:101EF00086D8D5F894008007F6D510E020F00100D0
:101F0000C5F89400FEF79AFE064604E0FEF796FE3A
:101F1000801B022878D8D5F894008007F6D4207862
:101F2000400761D5A86D0026C00008D4A86D40F018
:101F30008050A865A86D012600F0805000908E4862
:101F40000168C90511D40168804641F480710160BF
:101F5000FEF774FE074604E0FEF770FEC01B022881
:101F600052D8D8F80000C005F6D5A068012815D0D1
:101F70000528D5F8900016D020F00100C5F8900093
:101F8000D5F8900020F00400C5F89000A06841F258
:101F90008838B8B1FEF752FE07460EE0D5F890003B
:101FA00040F00100F0E740F00400C5F89000F5E7CC
:101FB000FEF744FEC11B414526D8D5F890008007A6
:101FC000F6D50CE0FEF73AFE074604E0FEF736FED3
:101FD000C11B414518D8D5F890008007F6D41EB132
:101FE000A86D20F08050A8652078800629D5A069CA
:101FF0000028D5F8980013D040F00100C5F89800EB
:10200000FEF71CFE064606E075E000BFFEF716FE72
:10201000801B02286FD8D5F898008007F6D510E00D
:1020200020F00100C5F89800FEF708FE064604E01F
:10203000FEF704FE801B02285DD8D5F898008007C3
:10204000F6D4E069F0B3A968C1F3810103295DD03A
:102050000228286820F08070286003D0FEF7EEFD8B
:1020600004464BE0FEF7EAFD064604E0FEF7E6FD17
:10207000801B02283FD828688001F7D4F4E90801C2
:102080006FF00F0202EB01110843218A5204490844
:1020900002EB4151A26841EA02210843217D4FF041
:1020A0007E42490802EB41610843217B40EAC1605E
:1020B000E968324A11400843E860286840F08070BF
:1020C000286000E05EE0E86840F08070E860FEF7BD
:1020D000B5FD044605E000BFFEF7B0FD001B022879
:1020E00009D828688001F7D54CE000BFFEF7A6FDAF
:1020F000001B022802D90320BDE8F883286880016C
:10210000F4D4E8681E490840E8603BE00128F3D0B9
:10211000E868226A00F00301914226D1616A00F06A
:10212000F0020901103991421FD1A26A00F4FE4168
:10213000B1EB022F19D194F82C2000F07841B1EBCB
:10214000C26F12D1218E00F4C00249084905A1F5E1
:102150000011914209D194F8341000F0C060490890
:102160004906A1F1007181420CD00120C4E70000B2
:1021700000100240B0000020007000400C809F0161
:10218000FCFFEEFE0020B7E770B5040009D0606ADE
:10219000002540B125616561A56294F85D0040B1FC
:1021A0000CE0012070BD6068B0F5827FF4D0E5617D
:1021B000F2E784F85C50204600F05CF8022084F8D6
:1021C0005D002068016821F040010160E1684FF482
:1021D000E062914201D9002001E04FF48050B1F556
:1021E000706F02D0914200D0A562A188228901F4CB
:1021F000827102F404421143227C02F00202114374
:10220000227D02F001021143228B02F4007211437D
:10221000227F02F03802114394F8202002F080025D
:102220001143228D02F40052114322681160A1690A
:10223000042202EA114194F8242000F4805002F0B4
:102240001002114394F8342002F008021143A289CD
:1022500002F4706211430143206841602068C16943
:1022600021F40061C1612566012084F85D00002031
:1022700070BD000070B586B0044614216846FEF7B4
:1022800042F81B492068884230D11A48016E41F457
:1022900080510166016E01F480510591C16C41F0DD
:1022A0000101C164C16C01F001010591C16C41F0F3
:1022B0000201C164C06C022500F002000590A0205C
:1022C00000900024CDE901540526CDE90346694676
:1022D0004FF09040FEF77CFB10200090CDE90154B8
:1022E000CDE9034669460448FEF772FB06B070BDAF
:1022F0000030014000100240000400482DE9F84F72
:10230000044690F85C000026984615468A46012847
:102310000CD0012784F85C70FEF790FC814694F89D
:102320005D00B346012804D00226ACE00220BDE8DF
:10233000F88FBAF1000F79D0002D77D0032084F800
:102340005D00C4F860B0C4F838A0A587E587C4F87C
:1023500040B0A4F844B0A4F846B0C4F850B0C4F8F3
:102360004CB0A068B0F5004F09D12068016821F099
:10237000400101602068016841F4804101602068EB
:102380000168490603D4016841F040010160E0683A
:10239000B0F5E06F606828D908B1012D1FD1A06B9E
:1023A00021680088C86006E020688168890709D52F
:1023B000A16B0988C160A06B801CA063E08F401EE8
:1023C000E0870CE0FEF73AFCA0EB0901414503D39E
:1023D000B8F1FF3F03D006E0B8F1000F03D0E08F63
:1023E0000028E1D13BE003264BE008B1012D33D1B9
:1023F000E08F0128A06B03D921680088C8600FE036
:1024000021680078087314E0E08725E0206881687F
:10241000890714D5E18F0129A16B08D90988C1600A
:10242000A06B801CA063E08F801EEDE727E0097899
:102430000173A06B401CA063E08F401EE4E7FEF731
:10244000FDFBA0EB0901414503D3B8F1FF3F03D0E9
:10245000C9E7B8F1000FC6D0E08F0028D6D14A46B0
:102460004146204601F007FC08B120202066A06804
:1024700018B92068C16880680090206E08B10126F4
:1024800001E084F85D7084F85CB030464FE7704737
:1024900070477047704770477047704710B5040029
:1024A00003D094F83D0010B107E0012010BD0020DA
:1024B00084F83C00204600F022F8022084F83D0019
:1024C000211D206802F014F9012084F8480084F8E6
:1024D0003E0084F83F0084F8400084F8410084F80E
:1024E000420084F8430084F8440084F8450084F8EE
:1024F000460084F8470084F83D00002010BD704776
:1025000090F83D10012901D001207047022180F888
:102510003D100168CA6842F00102CA6000681049B3
:1025200088420ED0B0F1804F0BD00E49884208D0BF
:102530000D49884205D00D49884202D00C49884295
:1025400007D181680B4A1140062906D0B1F5803FBA
:1025500003D0016841F001010160002070470000D4
:10256000002C0140000400400008004000340140FD
:10257000004001400700010070472DE9F04104468A
:102580000068C66805694FF00007A90713D5B107B1
:1025900011D5F91E0161012020772068806980072C
:1025A000204602D0FFF7E8FF04E000F0B7F820462D
:1025B00000F0B5F82777680716D5700714D521689D
:1025C0006FF004000861022020772068806910F411
:1025D000407F204602D0FFF7CFFF04E000F09EF8D6
:1025E000204600F09CF82777280715D5300713D52B
:1025F00021686FF008000861042020772068C06916
:102600008007204602D0FFF7B7FF04E000F086F80D
:10261000204600F084F82777E80616D5F00614D592
:1026200021686FF010000861082020772068C069D9
:1026300010F4407F204602D0FFF79EFF04E000F038
:102640006DF8204600F06BF82777E80708D0F00710
:1026500006D021686FF001000861204600F060F8A4
:10266000280601D4A80408D5300606D521686FF4E1
:10267000025008612046FFF70BFFE80508D5300639
:1026800006D521686FF4807008612046FFF7FFFED1
:10269000680608D5700606D521686FF0400008610D
:1026A000204600F047F8A80608D5B00606D52168F0
:1026B0006FF0200008612046FFF7EBFEE80208D526
:1026C000F00206D521686FF4801008612046FFF7FC
:1026D000E2FEA80208D5B00206D521686FF400100A
:1026E00008612046FFF7D6FE680208D5700206D5BD
:1026F00021686FF4800008612046FFF7CDFE2802B4
:102700000AD5300208D521686FF400000861204620
:10271000BDE8F041FFF7C1BEBDE8F08170477047EA
:1027200000680349884201D1FEF78EBA7047000065
:10273000001000407047FEE7F0B500230A24302562
:1027400037261F4611E000BFB4EB107F02D905EB1E
:10275000107C01E006EB107C01F813C001EB430C88
:1027600000015B1C8CF80170DBB29342ECD3F0BD2E
:10277000044908B5CA6C0243CA64C96C014000919F
:1027800008BD000000100240044908B58A6D0243EC
:102790008A65896D0140009108BD0000001002406B
:1027A000044908B50A6E02430A66096E01400091A9
:1027B00008BD000000100240F0B50A680F2692FA2A
:1027C000A2F2B2FA82F303248AE001259D402A4056
:1027D0007ED04D68012D01D0022D20D18D688768F3
:1027E00092FAA2FCBCFA8CFC4FEA4C0E04FA0EFCE6
:1027F00027EA0C0792FAA2FCBCFA8CFC4FEA4C0CBC
:1028000005FA0CF52F438760CF680D68D0F804C037
:102810002CEA050C7D434CEA050CC0F804C00F6996
:10282000D0F80CC092FAA2F5B5FA85F54FEA450E3C
:1028300004FA0EF52CEA050C92FAA2F5B5FA85F524
:102840006D00AF404CEA070CC0F80CC04D68022D7B
:102850002FD1FF2A15D8D1F814C0056A92FAA2F731
:10286000B7FA87F7BF0006FA07F7BD4392FAA2F757
:10287000B7FA87F7BF000CFA07FC45EA0C050562BA
:1028800017E0D1F814E0476A150A95FAA5FCBCFADE
:102890008CFC4FEA8C0C06FA0CFC95FAA5F5B5FAFF
:1028A00085F5AD0027EA0C070EFA05FE47EA0E078C
:1028B00047624D68076892FAA2FCBCFA8CFC4FEAAA
:1028C0004C0C04FA0CFE27EA0E0792FAA2F200E082
:1028D00005E0B2FA82F2520095402F4307605B1C7C
:1028E0000A6832FA03F57FF470AF0020F0BD0000F3
:1028F0000A7B8B681A434B6822F480621A430B6888
:1029000022F400621A43CB8922F480521A430B69E5
:1029100022F400521A43CB6A22F480421A434B69D4
:1029200022F470221A438B6922F080521A430C4B16
:10293000984202D00B4B98420FD14B6A22F470029E
:102940001A43CB6922F080721A430B6A22F000729C
:102950001A43896A22F000520A43426400207047F9
:10296000002C01400034014010B5012925D0042974
:1029700025D0102925D0402925D0B1F5807F24D03D
:10298000B1F5806F23D0B1F5805F22D0B1F5804FD3
:1029900021D0B1F5803F20D00921114B18305B5C6C
:1029A000184403680E4C1434615C03248C40120CF0
:1029B000A3438A401343036010BD0021EDE70121CA
:1029C000EBE70221E9E70321E7E70421E5E7052139
:1029D000E3E70621E1E70721DFE70821DDE7000063
:1029E000F07E000810B5012925D0042925D0102932
:1029F00025D0402925D0B1F5807F24D0B1F5806F56
:102A000023D0B1F5805F22D0B1F5804F21D0B1F550
:102A1000803F20D00921114B18305B5C18440368BB
:102A20000E4C1434615CF0248C40120CA3438A4099
:102A30001343036010BD0021EDE70121EBE7022104
:102A4000E9E70321E7E70421E5E70521E3E70621BC
:102A5000E1E70721DFE70821DDE70000F07E00085D
:102A600010B501291FD004291FD010291FD04029DB
:102A70001FD0B1F5807F1ED0B1F5806F1DD0B1F5AC
:102A8000805F1CD0B1F5804F1BD0B1F5803F1AD0CC
:102A90000921036A0D4C615C0A248C40A3438A40DF
:102AA0001343036210BD0021F3E70121F1E7022186
:102AB000EFE70321EDE70421EBE70521E9E7062134
:102AC000E7E70721E5E70821E3E70000A87E000823
:102AD00010B501291FD004291FD010291FD040296B
:102AE0001FD0B1F5807F1ED0B1F5806F1DD0B1F53C
:102AF000805F1CD0B1F5804F1BD0B1F5803F1AD05C
:102B00000921036A0D4C615C0A248C40A3438A406E
:102B10001343036210BD0021F3E70121F1E7022115
:102B2000EFE70321EDE70421EBE70521E9E70621C3
:102B3000E7E70721E5E70821E3E700000E7F00084B
:102B400010B5012925D0042925D0102925D04029E8
:102B500025D0B1F5807F24D0B1F5806F23D0B1F5B9
:102B6000805F22D0B1F5804F21D0B1F5803F20D0D9
:102B70000921114B18305B5C184403680E4C143467
:102B8000615C0C248C40120CA3438A401343036005
:102B900010BD0021EDE70121EBE70221E9E7032168
:102BA000E7E70421E5E70521E3E70621E1E707215F
:102BB000DFE70821DDE70000F07E00082DE9F043A3
:102BC0000268224B224D234E234C4FF080499842FD
:102BD00007D0484505D0A84203D0B04201D0A0425A
:102BE00003D14F6822F070023A431C4FDFF870C0E7
:102BF000DFF8708098420DD048450BD0A84209D02C
:102C0000B04207D0A04205D0B84203D0604501D001
:102C1000404503D1CD6822F440722A4302608A689D
:102C2000C2620A888262984207D0A04205D0B842A8
:102C300003D0604501D0404501D109690163416974
:102C400041F0010141610020BDE8F083002C01400A
:102C500000040040000800400034014000400140F2
:102C600000440140004801402DE9F0478C46012115
:102C7000BCF5805F25D009DCBCF1010F14D0BCF19C
:102C8000100F15D0BCF5807F16D116E0424B434C97
:102C9000434D444E444F4FF00009BCF5803F14D0E3
:102CA000BCF5801F74D141E0114600F0DFFC02E06A
:102CB000114600F027FD01466AE0114600F072FD62
:102CC000F9E7114600F0BCFDF5E7016A21F4803117
:102CD0000162D0F820C0016DDFF8D0802CF4003CF8
:102CE00001EA0801D2F80080984241EA0801B2F8EE
:102CF00010804CEA084CB2F804802CF4803C4CEA7A
:102D0000084C07D0A04205D0A84203D0B04201D061
:102D1000B84206D14368946923F4803343EA04231C
:102D200043600165D168826C81642EE0016A21F400
:102D300080110162D0F820C0016DDFF874802CF49E
:102D4000001C01EA0801D2F80080984241EA0821FB
:102D5000B2F810804CEA085CB2F804802CF4801CB5
:102D60004CEA085C07D0A04205D0A84203D0B0428C
:102D700001D0B84206D14368946923F4802343EA22
:102D8000842343600165D168C164C0F820C049460E
:102D90000846BDE8F0870000002C014000340140E7
:102DA0000040014000440140004801408FFFFEFF09
:102DB000FF8FFFFE4268024B1A400A434260704791
:102DC0008FFFFFFD30B5444DA5B0D5E90001CDE939
:102DD0000F0100210FA803F08AFE404C2061D5E9C5
:102DE0000201CDE91101002111A803F080FE60610C
:102DF000D5E90401CDE91301002113A803F077FE02
:102E0000A061D5E90601CDE91501002115A803F05F
:102E10006EFEE061D5E90801CDE91701002117A890
:102E200003F065FE2062D5E90A01CDE91901002110
:102E300019A803F05CFE6062D5E90C01CDE91B0125
:102E400000211BA803F053FEA062D5E90E01CDE9D5
:102E50001D0100211DA803F04AFEE062D5E9100122
:102E6000CDE91F0100211FA803F041FE2063D5E931
:102E70001201CDE92101002121A803F038FE606391
:102E8000D5E91401CDE92301002123A803F02FFE89
:102E9000A063142205F164016846FDF71BFA0021C6
:102EA000684603F0A1FE6060142205F1780105A8D0
:102EB000FDF710FA002105A803F096FEA060142289
:102EC00005F18C010AA8FDF705FA00210AA803F014
:102ED0008BFEE06025B030BD507E00080000002071
:102EE0002DE9F04786B014216846FDF70CFA354805
:102EF000C16C41F00401C164C16C01F00401059191
:102F0000C16C41F02001C164C16C01F02001059148
:102F1000C16C41F00101C164C16C01F00101059176
:102F2000C16C41F00201C164C06C012200F00200DA
:102F30004FF09048059011464046FDF77AFEDFF8C5
:102F400088904FF44566002231464846FDF771FEF1
:102F5000DFF878A04FF20C47002239465046FDF7C3
:102F600068FE00224FF401414046FDF762FE4FF437
:102F700000500090002001900220029069464846CF
:102F8000FDF726FD012448F20110CDE900040325D8
:102F900069464046CDE90245FDF71AFDCDE90064DA
:102FA00069464846CDE90245FDF712FDCDE90074BA
:102FB00069465046CDE90245FDF70AFD06B0BDE879
:102FC000F08700000010024000080048000400489C
:102FD00010B503F03DF80022052100F02DFB01465D
:102FE0001C2003F03DF81C2003F024F803F030F817
:102FF0000022052100F020FB01461D2003F030F8DF
:103000001D2003F017F803F023F80022052100F03B
:1030100013FB01461E2003F023F81E2003F00AF8DC
:1030200003F016F80022052100F006FB01463720C8
:1030300003F016F8372002F0FDFF03F009F8002234
:10304000052100F0F9FA0146192003F009F8BDE85E
:103050001040192002F0EEBF124810B5104901606F
:103060004FF48271416000214FF4E062C0E9021226
:103070004FF400720161C0E905123822C0E907214E
:1030800007224162C0E90A12016308214163FFF788
:103090007BF8002803D0BDE81040FDF796BC10BDBA
:1030A000003001403003002010B586B0142168467E
:1030B000FDF729F94FF40030FFF772FB0020ADF85F
:1030C0000000C721CDE90101064C03900490694638
:1030D0002046FFF773FD206820F08000206006B0D6
:1030E00010BD0000004401402DE9F041A2B01421C0
:1030F0001CA8FDF708F920216846FDF704F93021E6
:1031000008A8FDF700F9182114A8FDF7FCF84FF402
:103110008020FFF745FB4FF00108ADF870800024D8
:1031200041F29310CDE91D402A4E1F941CA9304650
:103130002094FFF743FD306820F08000306026487F
:103140000178244818300D182968234F08200A37C1
:103150003A789040014329606020CDE90004C820FE
:10316000CDE90240B0150494CDE905406A4601213D
:1031700030460794FFF778FD28683A78042191409B
:1031800088432860306840F008003060089470146C
:10319000CDE90C0409948DF82C400A94ADF82E402A
:1031A00008A930461394FFF7A3FB0220FFF7E0FACB
:1031B000202014900220159016A9032081E8110107
:1031C0000A20199014A90548FFF7F6FA22B0BDE8C5
:1031D000F081000000480140F07E00080004004833
:1031E0002DE9F0418CB0142106A8FDF78CF81821C8
:1031F0006846FDF788F80120FFF7C6FA0120FFF7BF
:10320000B7FA00240225009503260127CDE90264C0
:10321000CDE904474FF09048019569464046FFF7D5
:10322000CBFA0420CDE90005CDE90264CDE90447DD
:1032300069464046FFF7C0FA0820CDE90005CDE910
:103240000264CDE9044769464046FFF7B5FAADF898
:103250001840601ECDE9074009946C0706A9204676
:10326000FFF7ACFC206820F08000206000212046A1
:10327000FFF7A0FDA06820F08000A060A5132A46FB
:1032800010212046FFF770FB002210212046FFF797
:1032900057FC6612324610212046FFF7A3FB02229C
:1032A00010212046FFF714FCA7152A463946204670
:1032B000FFF75AFB002239462046FFF741FC324611
:1032C00039462046FFF78EFB022239462046FFF79B
:1032D000FFFB2A46A51429462046FFF745FB00229E
:1032E00029462046FFF72CFC324629462046FFF7A8
:1032F00079FB022229462046FFF7EAFB0CB0BDE825
:10330000F0810000F0B58BB0142106A8FCF7FBFF9C
:1033100018216846FCF7F7FF0220FFF735FA012075
:10332000FFF726FA0220FFF723FA102002250024D7
:10333000CDE900050326CDE902644FF090476946C8
:103340003846CDE90445FFF737FA4020CDE90005BE
:10335000CDE9026469463846CDE90445FFF72CFA09
:103360000120CDE90005CDE902643F4F69463846AA
:10337000CDE90445FFF720FACDE9026400950195F7
:1033800069463846CDE90445FFF716FAADF818400E
:103390004FF6FF70CDE907400994344C06A920464A
:1033A000FFF70CFC206820F0800020600021204600
:1033B000FFF700FDA06820F08000A060A5132A465A
:1033C00001212046FFF7D0FA002201212046FFF715
:1033D000B7FB002201212046FFF704FB0222012156
:1033E0002046FFF775FB2A4610212046FFF7BCFA5E
:1033F000002210212046FFF7A3FBE60232461021EF
:103400002046FFF7EFFA022210212046FFF760FB6B
:10341000A7152A4639462046FFF7A6FA0022394664
:103420002046FFF78DFB324639462046FFF7DAFA91
:10343000022239462046FFF74BFB2A46A5142946AF
:103440002046FFF791FA002229462046FFF778FB35
:10345000324629462046FFF7C5FA02222946204671
:10346000FFF736FB0BB0F0BD00040048000400403D
:10347000F0B58BB0142106A8FCF745FF182168466B
:10348000FCF741FF0420FFF77FF90220FFF770F9F6
:10349000402002250024CDE900050326CDE9026481
:1034A0003A4F69463846CDE90445FFF785F9802053
:1034B000CDE90005CDE9026469463846CDE9044509
:1034C000FFF77AF92802CDE90005CDE902646946E3
:1034D0003846CDE90445FFF76FF9ADF818404FF6CF
:1034E000FF70CDE907400994294C06A92046FFF753
:1034F00065FB206820F08000206000212046FFF757
:1035000059FCA06820F08000A060A613324601217B
:103510002046FFF729FA002201212046FFF710FB81
:10352000A5022A4601212046FFF75CFA022201216A
:103530002046FFF7CDFA324610212046FFF714FA55
:10354000002210212046FFF7FBFA2A4610212046D0
:10355000FFF748FA022210212046FFF7B9FA324657
:10356000A61431462046FFF7FFF9002231462046D7
:10357000FFF7E6FA2A4631462046FFF733FA0222E1
:1035800031462046FFF7A4FA0BB0F0BD0004004816
:103590000008004010B586B014216846FCF7B3FE61
:1035A0002020FFF7F1F8C720ADF8000000200190BF
:1035B0004FF6FF70094C029069462046FFF7FEFA6D
:1035C000206820F08000206000212046FFF7F2FBF9
:1035D000A06820F08000A06006B010BD001400407C
:1035E00010B500220F49104801F0EAFB08B1FDF7C1
:1035F000ECF90E490C4801F0BAFD08B1FDF7E5F908
:103600000B49094801F028FA08B1FDF7DEF9064830
:1036100001F028FE002803D0BDE81040FDF7D5B921
:1036200010BD000048000020DC080020040200203B
:103630009C000020FEE7FEE730B500F00703C3F171
:103640000704042C00D90424181D072801D20023E4
:1036500000E0DB1E012505FA04F0401E08409840FA
:103660009D406D1E1540284330BD000030B5026AF4
:1036700022F001020262036A446882691B4D22F053
:1036800003022A400D6823F002032A430D692B43ED
:103690004D6823F001032B43154DA8420BD0154D67
:1036A000A84208D0144DA84205D0144DA84202D01B
:1036B000134DA84212D14D6923F0080343EA850354
:1036C0008D6823F0040343EA85038D6924F4807434
:1036D0002C43CD6924F4007444EA450444608261BB
:1036E000C96841630362002030BD00008FFFFEFF08
:1036F000002C0140003401400040014000440140E2
:103700000048014030B5026A22F010020262056AE8
:10371000426883691D4C23F4407323400C6843EADC
:10372000042425F020030D6943EA05134D6823F0B6
:10373000100343EA0513164DA8420BD0154DA842BD
:1037400008D0154DA84205D0144DA84202D0144D02
:10375000A84213D14D6923F0800343EA85138D6895
:1037600023F0400343EA85138D6922F4806242EA24
:103770008502CD6922F4006242EAC502426084619A
:10378000C96881630362002030BD0000FF8FFFFE27
:10379000002C014000340140004001400044014041
:1037A0000048014030B5026A22F480720262046A65
:1037B0004368C2691C4D22F003022A400D6824F4BC
:1037C00000742A430D6944EA05244D6824F480748A
:1037D00044EA0524154DA8420BD0154DA84208D047
:1037E000144DA84205D0144DA84202D0134DA84252
:1037F00013D14D6924F4006444EA85248D6824F4CF
:10380000806444EA85248D6923F4805343EA0513D8
:10381000CD6923F4005343EA45134360C261C9688C
:10382000C1630462002030BD8FFFFEFF002C014009
:103830000034014000400140004401400048014084
:1038400030B5026A22F480520262056A4268C36996
:103850001D4C23F4407323400C6843EA042425F4F0
:1038600000530D6943EA05334D6823F4805343EA5E
:103870000533164DA8420BD0154DA84208D0154D62
:10388000A84205D0144DA84202D0144DA84213D12D
:103890004D6923F4004343EA85338D6823F4804364
:1038A00043EA85338D6922F4804242EA8512CD696C
:1038B00022F4004242EAC5124260C461C968016450
:1038C0000362002030BD0000FF8FFFFE002C01408E
:1038D00000340140004001400044014000480140E4
:1038E0002DE9F84F044640F68F7A40F2064B48F631
:1038F0000F784FF00009B5E1B0F8441011F00F0552
:103900003AD030F8256031047DD530F8251001EA31
:103910000A0141F0800120F8251005EB850004EB39
:10392000C00797F85C0107F5A87700286CD0F878F5
:1039300002286AD03978226832F8210048F68F735D
:10394000184048F2C003184322F821003878D4F810
:1039500000C03CF820104904BCF8501001EB0C02E8
:103960007ED540F2024101EBC000105A8005800D67
:10397000009076D03A89D0E0C9062AD4018801EABD
:10398000080141F400410180206804F11005B0F8FD
:103990005010227C014440F2024000EBC200085A61
:1039A000C0F30900E062616A0844606200212046B9
:1039B000FDF756FA207B00289DD0A86900289AD1EF
:1039C000207B40F080012068A0F84C1084F80C9017
:1039D00048E1018804F5A8750A051ED5B0F8501015
:1039E0002A7801440BEBC200085A04F52671C0F393
:1039F0000903EB61EA88206802F0D9FA2168088897
:103A000000EA0A0002E0A4E068E077E040F080000D
:103A100008802046FDF787FE24E10904D8D50188F7
:103A200001EA0A0141F0800101802068B0F85010DD
:103A30000A1828780BEBC000105A83059B0DEB6128
:103A40000DD0696959B1EA88206802F0B0FAE969D5
:103A500068690844686100212046FDF70AFA01E020
:103A600053E051E0206801880A05B1D4C1F3013167
:103A70000329ADD0B0F850100844B0F80614C1F3D3
:103A80000901A0F80614296900F206403E2909D967
:103A90004A09C90600D1521E01884FF4004343EA87
:103AA000822209E0B1B14A08C90700D0521C01883E
:103AB0004FF6FF7303EA82221143018021680888D0
:103AC0004BF68F72104080F4405048F28002104351
:103AD0000880C7E0018841F40041EEE72068B0F8B3
:103AE00050103B780A180BEBC301515A8905890D18
:103AF000009117D0FA887969009B11E03246394667
:103B00002046FDF712FA00900CE00BEBC000105AB3
:103B10008005800D009005D07A890346604679695A
:103B200002F045FAF96900980844F861796900984B
:103B300008447861B86918B139690098814204D99C
:103B400039782046FDF795F903E03946206801F001
:103B5000ABFF30062DD505EB850004EBC0012068D6
:103B600030F8252002EA080242F4004220F825201D
:103B7000C87C103101281DD0F0056FD42268B2F83E
:103B8000500083180A7840F2024000EBC200185A35
:103B90008A69C0F30900824258D9121A8A6157D043
:103BA0004A6902444A61CA691044C861206801F048
:103BB0007BFF57E0C1F818900A7B48461AB372069B
:103BC00022D54A7812B1012A14D041E02068B0F819
:103BD000502010440A7800EBC200B0F80224C2F36F
:103BE0000902A0F80224B0F8022442F40042A0F82E
:103BF00002242DE02268B2F850301A440B7802EB10
:103C0000C302A2F8020423E04B78226813B1012B0F
:103C100013D01DE0B2F8500010440A7800EBC20047
:103C2000B0F80624C2F30902A0F80624B0F806246E
:103C300042F40042A0F806240AE0B2F850301A44D8
:103C40000B7802EBC302A2F8060401E0C1F8189059
:103C500009782046FDF704F904E0FFE732462046E4
:103C6000FDF7D1F92068B0F8441009043FF544AEDF
:103C70000020BDE8F88FF8B515460E460B460092B9
:103C8000044600224FF4C05100F01AF888B93346B8
:103C9000002280212046009500F082F848B9334682
:103CA00000224FF4C0612046009500F009F800287A
:103CB00004D0206E40F0200020660320F8BD0000F4
:103CC0002DE9FE4F4FF0000A984617460E4604466F
:103CD0000C9D8DF804A0FCF7B1FF411BA8EB01057A
:103CE000FCF7ACFF814620684FF4C06B0C300290AB
:103CF0002A480068C0EBC00000EB8000000D68435C
:103D0000009043E05E4506D12FB9029800788DF807
:103D100004009DF80400B8F1FF3F37D0FCF78EFF98
:103D2000A0EB0900A84203D215B1009858B32BE0CC
:103D30002068416821F0E00141606068B0F5827F51
:103D40000BD1A068B0F5004F02D0B0F5806F04D160
:103D50002068016821F040010160A06AB0F5005FB1
:103D600009D12068016821F40051016020680168D0
:103D700041F400510160012084F85D0084F85CA0EA
:103D80000320BDE8FE8F0025401E0090206880685B
:103D90003040B842B6D10020F3E70000BC0000205C
:103DA0002DE9F8431E46914688460446089DFCF7D7
:103DB00045FF401B351AFCF741FF074625480068C0
:103DC000C0F3CB30684338E0701C37D0FCF736FFC7
:103DD000C01BA84203D215B1009860B32CE0206844
:103DE000416821F0E00141606068B0F5827F0BD14D
:103DF000A068B0F5004F02D0B0F5806F04D1206804
:103E0000016821F040010160A06AB0F5005F09D1AE
:103E10002068016821F4005101602068016841F4C4
:103E200000510160012084F85D00002084F85C00EE
:103E30000320BDE8F8830025401E009020688168BB
:103E400038EA010004D000214945BDD10020F0E747
:103E50000121F9E7BC0000200178407841EA002008
:103E600070470000F0B52149214A0C07270C65096D
:103E70004FF480664FF090430B280BD2DFE800F040
:103E80000A060B1014191E23282D32000E604FF065
:103E900000601060F0BD4FF4006010609C61F0BDE8
:103EA0009F614FF080401BE04FF48040086080032A
:103EB00016E04FF480500860400411E04FF40050C9
:103EC00008600C60F0BD0F604FF080709861F0BD2D
:103ED0004FF4807098611560F0BD16604FF40020BB
:103EE0000860F0BD082008600D60F0BD18040048AF
:103EF0001808004808B5322204210020FCF7ECFC29
:103F0000062205210020FCF7E7FC002128220846B4
:103F1000FCF7E2FC282201210020FCF7DDFC28222E
:103F200002210020FCF7D8FC282203210020FCF706
:103F3000D3FC282200210120FCF7CEFC01212822FD
:103F40000846FCF7C9FC282202210120FCF7C4FC2A
:103F5000282203210120FCF7BFFC28220421012094
:103F6000FCF7BAFC282205210120FCF7B5FC304CF7
:103F70000122D1022046FCF75CFE0122D6034FF05D
:103F8000904731463846FCF754FEDFF8A8800122FE
:103F900091034046FCF74DFE012211034046FCF719
:103FA00048FE0122550329464046FCF742FE012205
:103FB00031464046FCF73DFE012211023846FCF72F
:103FC00038FE0122960231462046FCF732FE0122DD
:103FD00008214046FCF72DFE012231464046FCF701
:103FE00028FE03F0E1FD144E009029462046FCF720
:103FF00013FEC0B10A2100E00121684603F0B0F9C8
:1040000029462046FCF708FE0028F5D100220121B0
:10401000B06B02F0BBFD0A21684603F0A1F9402114
:104020002046FCF7FEFD0121684603F099F9DCE724
:1040300000080048000400480000002041F29311ED
:10404000081A0D4908600C481438016841F0010154
:10405000016009481C38016841F008010160064808
:104060003438016841F001010160034810300168F3
:1040700041F40041016070473448014010B55020C0
:1040800080F31188BFF34F8FBFF36F8F03F092FD62
:1040900018B104494FF080500860002080F3118867
:1040A00010BD000004ED00E010B594B03821684662
:1040B000FCF729F914210EA8FCF725F90020FDF7DB
:1040C00061FB212000904FF4803001900120069088
:1040D00002200324CDE907046421CDE909010B90F6
:1040E0000C900D906846FDF74DFE08B172B6FEE7E4
:1040F0000F20CDE90E0400201090119012900421A1
:104100000EA8FDF7E9FC002801D072B6FEE714B056
:1041100010BD00000248016841F470010160704761
:1041200088ED00E00848016911F0010F0BD06FF035
:104130000101016105480188491C89B20180642997
:1041400001D300210180704700440140000000209D
:104150002DE9F0414FF080452869624F10F0010FC2
:1041600005D06FF001002861786C401C78642869E4
:104170004FF00108C0F38000002688B3701F28614B
:10418000594C207B10B101282AD10AE0A96B28469E
:104190002160A66000221021FEF762FC84F80C80EA
:1041A0001EE0A96B2846616061682268891A216156
:1041B000666121696169002906DA21696269491E1F
:1041C00042F100022161626102221021FEF748FCE7
:1041D00026732069616981B20022786A02F0D6FCF8
:1041E00028692C46C0F3C000D0B36FF00801284600
:1041F00029613D4D18352A7B4FF4807112B1012A97
:104200002ED108E0C26B2A60AE600022FEF728FCC7
:1042100085F80C8024E0C26B6A606A682B68D21A49
:10422000AB6802EB03422A616E616A682B68D21A9E
:104230002A616E612A696A69002A06DA2A696B694D
:10424000521E43F100032A616B610222FEF708FC53
:104250002E732869696981B20022B86A02F096FC5F
:1042600021692046C1F30011002939D06FF01001F7
:1042700001611D4D30352A7B4FF4805142B3012A34
:104280002ED1026C6A606A682B68D21AAB6802EBA6
:1042900003422A616E616A682B68D21A2A616E61D4
:1042A0002A696A69002A06DA2A696B69521E43F193
:1042B00000032A616B610222FEF7D2FB2E7328698C
:1042C000696981B2386ABDE8F041002202F05EBC43
:1042D000026C2A60AE600022FEF7C2FB85F80C80FB
:1042E000BDE8F08100000020E80200202DE9F04741
:1042F0008C4801698C4E11F0010F05D06FF001015F
:104300000161F16B491CF163804600690127C0F32C
:104310004000002490B3E11E4046C8F81010834DC1
:10432000297B11B1012929D108E0416B2960AC60DA
:1043300000220121FEF794FB2F731FE0416B69609F
:1043400069682A68891A29616C6129696969002983
:1043500008DA29696A694FF6FF73C91842F1000249
:1043600029616A6102220121FEF77AFB2C73286918
:10437000696981B20022306B02F008FCD8F81000A5
:10438000C0F38000A0B36FF004014046C8F81010DD
:10439000664D1835297B11B1012929D108E0816BBF
:1043A0002960AC6000221021FEF75AFB2F731FE03A
:1043B000816B696069682A68891A29616C61296959
:1043C0006969002908DA2A6969694FF6FF73D2180A
:1043D00041F100012A61696102221021FEF740FBD0
:1043E0002C732869696981B20022F06A02F0CEFB61
:1043F000D8F810004546C0F3C000E8B36FF00801DC
:104400004046C8F81010494A3032137B4FF480718F
:1044100013B1012B36D109E0C36B90461360946051
:104420000022FEF71DFB88F80C702BE0C36B914651
:1044300053605368D2F800C0A3EB0C0313615461BE
:1044400013695269002A0DDAD9F81030D9F814C06E
:104450004FF6FF7813EB08034CF1000CC9F810304D
:10446000C9F814C00222FEF7FBFA89F80C40D9F80B
:104470001010D9F8140000E004E089B20022F069BD
:1044800002F084FB29692846C1F30011002946D0B7
:104490006FF010010161DFF8948008F1480898F886
:1044A0000C204FF4805182B3012A38D1026CC8F835
:1044B0000420D8F80420D8F80030D21AC8F8102008
:1044C000C8F81440D8F81020D8F81420002A0CDAC4
:1044D000D8F81020D8F814504FF6FF73D31845F1D0
:1044E0000002C8F81030C8F814200222FEF7B8FA0B
:1044F00088F80C40D8F81000D8F8141081B2706B0E
:10450000BDE8F047002202F041BB026CC8F8002071
:10451000C8F808400022FEF7A3FA88F80C70BDE83E
:10452000F08700000004004000000020400200204E
:104530002DE9F041624D2869624F10F0010F05D05E
:104540006FF001002861386C401C386428694FF016
:104550000108C0F34000002698B3F01E28615A4CB1
:10456000207B10B101282CD10AE0696B284621601C
:10457000A66000220121FEF773FA84F80C8020E087
:10458000696B2846616061682268891A21616661E9
:1045900021696169002908DA226961694FF6FF73B0
:1045A000D21841F100012261616102220121FEF76E
:1045B00057FA26732069616981B20022386902F0D6
:1045C000E5FA28692C46C0F38000A8B36FF0040018
:1045D00020613D4D1835287B10B101282CD10AE00F
:1045E000A16B20462960AE6000221021FEF738FA48
:1045F00085F80C8020E0A16B2046696069682A6814
:10460000891A29616E6129696969002908DA2A69AC
:1046100069694FF6FF73D21841F100012A6169619F
:1046200002221021FEF71CFA2E732869696981B2F3
:104630000022B86902F0AAFA21692046C1F30011EC
:1046400000293BD06FF0100101611F4D30352A7BEE
:104650004FF4805152B3012A30D1026C6A606A680B
:104660002B68D21AAB6802EB03422A616E616A685A
:104670002B68D21A2A616E612A696A69002A08DAEF
:104680002A696B694FF6FF74121943F100032A611E
:104690006B610222FEF7E4F92E732869696981B221
:1046A0007869BDE8F041002202F070BA026C2A601D
:1046B000AE600022FEF7D4F985F80C80BDE8F081E9
:1046C0000008004000000020A00200200148FDF783
:1046D00054BF0000940300200448016911F0010F49
:1046E00002D06FF00101016170470000001400402A
:1046F0002DE9F0430268264B264D274E274C4FF0FC
:104700008049984207D0484505D0A84203D0B0421E
:1047100001D0A04203D122F070074A683A43204FEB
:10472000DFF880C0DFF8808098420DD048450BD07C
:10473000A84209D0B04207D0A04205D0B84203D069
:10474000604501D0404503D122F44075CA682A4330
:104750004D6922F080022A4302608A68C2620A68B8
:104760008262984207D0A04205D0B84203D060458B
:1047700001D0404501D1096901630121416101690D
:10478000C90703D0016921F001010161BDE8F0838F
:10479000002C0140000400400008004000340140AB
:1047A00000400140004401400048014010B50A4665
:1047B000024903A000F0D4FA004810BDAC0B002061
:1047C00043444320436F6E66696700002DE9F04162
:1047D0000C46D0F8C422D0F8BC12E9B104EB840630
:1047E00000EB86050027AB693BB102EBC602126AFB
:1047F000B3FBF2F602FB163282B1C1F81472D0F8A4
:10480000C00203692BB1D1F80802224601F50471F8
:1048100098470020BDE8F0810320FBE700231A46FB
:104820002146AF6100F084FCF3E770B5D0F8BC42DC
:1048300005466CB100F073FBC4F80C02D5F8C01249
:10484000D4F80402CA6804F503719047002070BDD3
:10485000032070BD70B50446812100F0CDFA00251B
:1048600025870121204600F0C7FAA4F8785182215B
:10487000204600F0C1FAA4F84C50A4F84E50D4F8E9
:10488000BC0248B1D4F8C00204F52F7440688047D8
:10489000206800F03CFE2560002070BD12200880DA
:1048A000004870476C00002010B5D0F8BC4284B1BD
:1048B000D0F8C01259B194F80002FF2807D08B68D5
:1048C00094F8012221469847FF2084F80002002036
:1048D00010BD032010BD00000A2101800048704770
:1048E0002C01002043210180004870477C010020FA
:1048F0004321018000487047380100204321018096
:1049000000487047C00100202DE9F04704464FF4ED
:10491000077000F0FDFD05004FF0000735D0C4F82A
:10492000BC52207C4FF010084FF40079012680B370
:10493000402302228121204600F047FB26874023A6
:1049400002220121204600F040FBA4F87861A4F87F
:104950004E80082303228221204600F036FBA4F873
:104960004C60D4F8C00200688047C5F81472C5F8DE
:104970001872207CD5F80422A8B1402301212046DA
:1049800000F02FFB0020BDE8F0870220C4F8BC72C5
:10499000F9E7FFE74B4602228121204600F015FB94
:1049A00026874B46CCE74B46E8E7000010B50A46A1
:1049B000024903A000F0D4F9004810BDAC0B002060
:1049C00043444320496E746572666163650000006C
:1049D00004200880004870476800002010B50A468F
:1049E000024903A000F0BCF9004810BDAC0B002048
:1049F00053544D6963726F656C656374726F6E6951
:104A00006373000010B50A46024903A000F0A8F93C
:104A1000004810BDAC0B002053544D333220566972
:104A2000727475616C20436F6D506F72740000007A
:104A300010B5D0F8BC1251B1027C002AD1F8042282
:104A400007D04023012100F0CCFA002010BD032044
:104A500010BD4FF40073F5E719B1C0F8C012002083
:104A6000704703207047000010B51A2008800A48DC
:104A70000168001D0468001D0068081809D008229C
:104A80000649FDF759FE0549042210312046FDF77D
:104A900053FE0248801E10BD9075FF1F820000204B
:104AA000D0F8BC0218B1C0F80412002070470320EF
:104AB0007047D0F8BC0228B1C0F81022C0F8081224
:104AC00000207047032070472DE9FC410646D0F8CE
:104AD000BC7200200C468DF80000ADF804000546BD
:104AE00037B1207810F0600128D0202944D102E0AD
:104AF0000320BDE8FC81E288C2B1000660780AD5D7
:104B0000D6F8C0128B6839469847E288072A00D940
:104B10000722394628E087F80002A07987F80102C9
:104B2000E2883946304600F06CF82AE0D6F8C01228
:104B3000607800228B682146984722E0607830B187
:104B400001281ED00A2809D00B2815D110E096F8AC
:104B50009C02032810D1022201A905E096F89C02CC
:104B6000032809D101226946304600F064F808E0C4
:104B700096F89C02032804D02146304600F036F80F
:104B800003252846B5E710B5D0F8BC12012219B1AB
:104B9000D1F8143213B10FE0032010BD0122C1F887
:104BA0001422D1F81022C262D1F81032D1F80822B2
:104BB000812100F0BDFA0022104610BD10B5D0F8DA
:104BC000B8220AB152689047002010BD134610B5B4
:104BD0000A46002100F005FA002010BD134610B56A
:104BE0000A46002100F0A4FA002010BD10B50446CA
:104BF000802100F082FA2046BDE81040002100F03C
:104C00007CBA10B50323C0F89432C0F8582113467B
:104C1000C0F85C210A46002100F0E3F9002010BD35
:104C200010B50521C0F8941200231A46194600F069
:104C3000D8F9002010BD10B50223C0F8943282616B
:104C40001346C2610A46002100F072FA002010BD2E
:104C500010B50421C0F8941200231A46194600F03A
:104C600067FA002010BDF8B504460020ADF800003A
:104C700048880D46010A062947D006DC01290FD0D5
:104C8000022912D0032962D11DE0072946D00F293D
:104C90005DD1D4F8B402C26920E0694690473BE098
:104CA000D4F8B412207C0A68F7E7207C022600289A
:104CB000D4F8B80205D0C16A6846884701464670F4
:104CC00036E0816AF8E7C0B2062840D2DFE800F09B
:104CD00003090D111519D4F8B4024268B2B3207C4F
:104CE000DBE7D4F8B4028268F8E7D4F8B402C2680B
:104CF000F4E7D4F8B4020269F0E7D4F8B4024269E8
:104D0000ECE7D4F8B4028269E8E7207CF0B9D4F883
:104D1000B802416B68468847014609E0207CA8B983
:104D2000D4F8B802016B68468847014607204870EE
:104D3000EA888AB1BDF8000040B1824200D902463B
:104D4000ADF800202046FFF776FFF8BDFFE72946C3
:104D50002046FFF74BFFF8E72046FFF779FFF4E71F
:104D600070B5002300281ED00025044602E06D1C0B
:104D7000EDB2641C2678002EF9D1022404EB450420
:104D800014801278CA545B1C0322CA5400245B1C92
:104D900006E0CA545B1CDAB28C54521CD3B2401CDD
:104DA0000278002AF5D170BD01004FF0000004D058
:104DB000012901D0022901D003207047012070474A
:104DC00078B10023C0F8B832C0F8C032C0F8CC3295
:104DD00009B1C0F8B412012180F89C12027000F0F1
:104DE000A3B80320704710B5D0F8C402FCF770F8E0
:104DF000BDE81040FFF7D8BF10B5D0F8C402FCF7EB
:104E000042F8BDE81040FFF7CFBF70B51646044624
:104E100021B194F89C02032841D048E0D4F89412C0
:104E200004F114000025022932D1D0E902318B426D
:104E300006D95A1A826031462046FFF7CFFE0FE0AE
:104E4000994214D14068884211D3D4F8981288420C
:104E50000DD2002211462046FFF7C0FEC4F898523A
:104E600000231A461946204600F0BBF810E094F8DB
:104E70009C02032805D1D4F8B802C16809B12046C4
:104E800088478021204600F038F92046FFF7C8FE09
:104E900094F8A00201280AD184F8A05207E0D4F8BF
:104EA000B80242691AB120469047002800D100207C
:104EB00070BD10B51346044621B194F89C02032836
:104EC00023D02AE0D4F8941204F5AA70032924D13F
:104ED000D0E9021291420AD98A1A8260C0688242DD
:104EE00000D3024619462046FFF770FE15E094F8FD
:104EF0009C02032805D1D4F8B802016909B1204603
:104F000088472046FFF7A4FE07E0D4F8B80282697C
:104F10001AB120469047002800D1002010BDD0F8DB
:104F2000C402FCF710BA000010B51E490446C1F8CF
:104F3000D802C0F8C4121C4808600820087102207A
:104F40004871C8710020087248728872C872084699
:104F5000FCF730FB08B1FBF738FD0022D4F8C4029F
:104F60001823114604F53174FBF75CFF5823002227
:104F700080212068FBF756FFC02300228121206892
:104F8000FBF750FF4FF48873002201212068FBF7E4
:104F900049FF4FF48073002282212068FBF742FF13
:104FA000002010BD00060020005C00400A0601F051
:104FB0007F01D0F8C40201EB810100EBC10001D5F3
:104FC000807C704790F85201704710B51C4613461C
:104FD000D0F8C4022246FCF7BFF9BDE81040FFF745
:104FE000E3BE10B5D0F8C402FCF7E2F9BDE810400A
:104FF000FFF7DABE70B50125044680F89C52002008
:10500000C4F894026060C4F8A402D4F8B802E0B115
:10501000D4F8BC1221B1426812B100212046904759
:105020000022402311462046FFF7CFFF4026A4F878
:1050300064513346002280212046C4F86061FFF7A6
:10504000C4FFA5840020266270BD032070BD90F8C7
:105050009C12042903D190F89D1280F89C12002024
:10506000704710B5D0F8B81221B190F89C22032AED
:1050700002D004E0032010BDC96901B188470020B7
:1050800010BD01740020704710B5D0F8C402FCF7C1
:1050900037FBBDE81040FFF787BE70B5044600F24D
:1050A000AA20054600F04DF80120C4F89402B4F897
:1050B000B002C4F8980294F8AA0210F01F010AD0B6
:1050C00001290ED0022912D000F080012046BDE84F
:1050D000704000F012B829462046BDE8704000F04C
:1050E000C3B829462046BDE8704000F0E7B929461C
:1050F0002046BDE8704000F041B910B5D0F8C402B8
:10510000FCF76DF9BDE81040FFF74EBE10B5D0F8C2
:10511000C402FCF70FFBBDE81040FFF745BE90F856
:105120009C1280F89D12042180F89C120020704788
:1051300010B5D0F8C402FCF781F9BDE81040FFF7C4
:1051400033BE70B5054611F8010B287008786870F9
:105150004C1C2046FEF780FE6880A41C2046FEF70B
:105160007BFEA880A01CFEF777FEE88070BD38B5F6
:1051700004460020ADF8000049B1C4F8B812C96A6D
:1051800019B168468847C4F8CC02002038BD032016
:1051900038BD02460320D2F8B832002B02D01B687B
:1051A00010461847704700002DE9F0410F462C4E7D
:1051B0008978002504463170012906D939462046F0
:1051C000FFF714FD0320BDE8F08194F89C0202284B
:1051D0000CD003281DD039462046FFF707FD317853
:1051E0002046FFF7EBFC03252846ECE799B3204661
:1051F0006160FFF7CEFF050004D039462046FFF777
:10520000F5FCF1E72046FFF723FD032084F89C021C
:10521000EAE74FF00208C1B1606888421BD0C1B212
:105220002046FFF7CBFC317820466160FFF7B1FFE5
:10523000050010D039462046FFF7D8FC21792046DA
:10524000FFF7BCFC84F89C82CEE784F89C82204661
:105250006160FFF7B3FC2046FFF7FAFCC4E70000EB
:1052600028010020FFF752BF2DE9F0410A78002500
:1052700012F0600208D0202A01D0402A71D1D0F863
:10528000B8229268904731E04B78002201260A2B21
:1052900067D2DFE803F0415E6658660805662D298F
:1052A000FFF7E1FC5FE004468888D8B9C888C8B930
:1052B0004888802816D200F07F0794F89C020328C3
:1052C00010D084F89E7239462046FFF7DDFE204656
:1052D000FFF7BEFC1FB1022084F89C0243E084F873
:1052E0009C6240E020463CE0FFF75EFF05463AE066
:1052F000CB88012B35D190F89C32012B04D0022BA6
:1053000002D0032B2DD104E08260012200F10801BC
:1053100016E00122011D13E090F89C22012A03D01F
:10532000022A01D0032A1CD1CA88022A19D1C660D8
:10533000D0F8A41209B10321C160022200F10C01CE
:10534000FFF779FC0FE0498801290CD1C0F8A4626D
:1053500011E090F89C32012B08D0022B06D0032BD1
:1053600004D0FFF743FC2846BDE8F08149880129B5
:10537000F9D1C0F8A422FFF76BFCF4E72DE9F04166
:105380000D46044628780026097910F060000BD0FD
:10539000202801D040286DD1D4F8B802294682686F
:1053A00020469047064686E06878A8B3012822D0B8
:1053B00003287CD194F89C02022802D0032876D1DD
:1053C0000BE0002973D0802971D02046FFF795FEAD
:1053D00080212046FFF791FE6DE0688838B931B131
:1053E000802904D0E88810B92046FFF786FE2046C1
:1053F000FFF72EFC5FE094F89C020228E1D003281E
:1054000055D16888A8BB480602D02046FFF7EBFCC0
:105410002046FFF71DFCBFE7FFE794F89C0200273A
:10542000022802D0032842D111E009B180293ED1DF
:10543000080601F07F0000EB800004EB800101D53D
:10544000143101E001F5AA7102220F602BE0080679
:1054500001F00F0000EB800004EB80000BD5808C86
:1054600040B101F07F0000EB800004EB80051435B3
:105470000CE020E01BE0B0F86401C0B101F07F0057
:1054800000EB800004EB800505F5AA7541B1802989
:1054900006D02046FFF78AFD10B10120286000E009
:1054A0002F60022229462046FFF7C5FB03E029466C
:1054B0002046FFF79BFB3046BDE8F08170B50646FD
:1054C000087800240D4610F0600003D0202801D099
:1054D000402817D196F89C02012803D0022801D059
:1054E00003280FD1287901280CD8D6F8B802826891
:1054F000304690470446E888204306D13046FFF7FF
:10550000A7FB02E03046FFF771FB204670BD7047F5
:1055100000487047E0030020C8B002F045FBDFF808
:10552000C49022AD4390002244A8D9F8381001F06D
:10553000E3FA4498102816D12BA102A800F066FDCA
:1055400002A8FAF7EBFE044681B202A8FBF726FA9E
:10555000A1B202A8FBF722FA0646012143A801F0F6
:10556000FFFE002EF4D1DFF87C80012408F1100842
:1055700008EB8400002250F8041C44A801F0BCFA97
:1055800004EB44000DF5887C05EB80029CE80B00E1
:1055900082E80B0010281FD101EB8100FAF734FFDD
:1055A0009FED171B53EC112BFAF7BFFECDE900015D
:1055B000224615A102A800F029FD02A8FAF7AEFEC6
:1055C0000646B1B202A8FBF7E9F90746012143A854
:1055D00001F0C6FE002FF4D1641CE4B20B2CC7D33B
:1055E000A1E7000000000020546865206B65792069
:1055F000697320707265737365642E0D0A00000074
:105600000000000000408F406576656E745B2532B7
:10561000645D2E76616C75652E763A252E3366753F
:10562000730D0A002DE9F0470C78002630F824307D
:1056300048F68F121340CA78002A78D0012A7CD00D
:10564000022A02D0032A75D0012648F280021343B1
:1056500020F824300D7830F8253048F68F74234038
:105660002B43134320F825300D7B48F2C00948F640
:10567000BF734CF2800A4BF68F77EDB3CD7891F87B
:1056800000C0022D30F82C507DD048F68F6805EA16
:105690000805154320F82C50B0F8505091F800C080
:1056A000054405EBCC05B1F808C02CF0010CA5F8B9
:1056B00000C4B0F8505091F800C0054405EBCC058B
:1056C000B1F80AC02CF0010CA5F804C44D78002DE7
:1056D0007ED00D7830F825C05FEA4C4C07D530F805
:1056E00025C00CEA040C4CEA0A0C20F825C091F8FD
:1056F00000C030F82C5000E022E06D0606D530F8EE
:105700002C50254045EA090520F82C50CC780D781E
:10571000012C30F8254004EA03047CD084F02003F7
:10572000134320F82530C1E001E006E002E043F435
:1057300000738AE743F4C06387E743F4806384E738
:105740004D784DB3B0F850500F78054405EBC705C0
:10575000CF8827F00107A5F800740F7830F827509C
:105760006D0606D530F82750254045EA090520F892
:105770002750CC78012C07D00C7830F82410194031
:1057800081F0200104E064E00C7830F82410194026
:10579000114320F8241090E0B0F850300D78034405
:1057A00003EBC503CD8825F00105A3F80454B0F838
:1057B00050300D78034403EBC503B3F80654C5F32A
:1057C0000905A3F806540D6903F206433E2D00E0D7
:1057D00045E00BD94FEA551CED0601D1ACF1010CA7
:1057E0001D884FF4004848EA8C2C0BE035B34FEA93
:1057F000550CED0701D00CF1010C1D884FF6FF7818
:1058000008EA8C2C45EA0C051D800D7830F825300F
:105810005B0408D500E046E030F82530234043EA39
:105820000A0320F82530097861B130F821303B4077
:1058300083F40053134320F821303EE01D8845F4E3
:105840000045E1E70188394081F44051114301806E
:1058500033E0254048F2801845EA08051AE791F838
:1058600000C030F82C506D0406D530F82C5025407F
:1058700045EA0A0520F82C5091F800C030F82C5069
:105880006D0606D530F82C50254045EA090520F86C
:105890002C500D7830F825403C4084F4405414439B
:1058A00020F8254070E7144320F825400B7830F8A5
:1058B00023103940114320F823103046BDE8F0870B
:1058C0002DE9F04391F80C804F780A7848F6BF7CB8
:1058D0004BF68F7948F2800348F2C0054CF28006FF
:1058E00048F68F74B8F1000F28D0002F30F82270DE
:1058F0004FEA474748D0002F05DA30F8227027409A
:10590000374320F822700A7830F822707F0605D5D8
:1059100030F8227027402F4320F822700D7830F89D
:1059200025202240324320F825200C7830F824200E
:1059300002EA0C021A4320F824201AE07FB130F862
:105940002260760605D530F8226026402E4320F8E6
:1059500022600A7830F8221001EA0C010EE030F8DB
:1059600022506D0405D530F822502540354320F8EB
:1059700022500A7830F8221001EA0901194320F870
:1059800022100020BDE8F083002F05DA30F82270E5
:105990002740374320F822700A7830F822607606D4
:1059A00005D530F8226026402E4320F822600E787C
:1059B00030F8262022402A4320F826200C7830F8A0
:1059C000242002EA09021A4320F82420C1E730F813
:1059D000581F41F40041018000207047012120F848
:1059E000401F00210180818001820846704730F805
:1059F000401F4BF68072914301800020704730B504
:105A00000A7BB2BB4A7848F68F7548F28004C2B16F
:105A10000B7830F82320520607D530F823202A408F
:105A200048F2C0052A4320F82320CA78012A20D052
:105A30000A7830F8221048F6BF73194081F020012F
:105A400014E00A7830F822305B0407D530F82230B1
:105A50002B404CF280052B4320F822300A7830F896
:105A600022104BF68F73194081F44051214320F8E6
:105A70002210002030BD10B54A780978002A48F27B
:105A8000800330F8212005D048F6BF74224082F010
:105A9000100204E04BF68F74224082F480521A43C5
:105AA00020F82120002010BD2DE9F0470D464B784D
:105AB000097B04464FF0000948F68F7248F2800ACD
:105AC0004FF400474FF6FF78012B09D000296FD023
:105AD000E87802286DD001286CD00120BDE8F0875D
