:020000040800F2
:1000000008680020790300080B380008FF29000861
:10001000093800083D060008C36000080000000021
:10002000000000000000000000000000B90200080D
:10003000B10700080000000015030008DD3F0008BC
:100040009303000893030008930300089303000838
:100050009303000893030008930300089303000828
:100060009303000893030008930300089303000818
:100070009303000893030008930300089303000808
:100080009303000800000000930300089303000896
:1000900055600008930300089303000893030008C9
:1000A00093030008930300089303000893030008D8
:1000B00085400008F5410008CD430008930300087F
:1000C00093030008930300089303000893030008B8
:1000D00093030008930300089303000893030008A8
:1000E0009303000893030008930300089303000898
:1000F0009303000893030008930300080000000026
:1001000000000000930300080000000093030008B3
:1001100093030008000000003D4500084945000821
:100120009303000893030008930300089303000857
:100130009303000800000000000000009303000883
:100140009303000893030008000000000000000073
:10015000000000000000000000000000000000009F
:1001600000000000000000000000000093030008F1
:1001700093030008000000000000000000000000E1
:1001800000000000930300080000000000000000D1
:10019000000000000000000000000000000000005F
:1001A0000000000000000000930300089303000813
:1001B0009303000893030008930300080000000065
:1001C0000000000093030008000000000000000091
:1001D000930300089303000800F002F800F05CF8B5
:1001E0000AA090E8000C82448344AAF10107DA4592
:1001F00001D100F051F8AFF2090EBAE80F0013F088
:10020000010F18BFFB1A43F0010318477076000076
:10021000907600000A444FF0000C10F8013B13F0F8
:10022000070408BF10F8014B1D1108BF10F8015B4F
:10023000641E05D010F8016B641E01F8016BF9D142
:1002400013F0080F1EBF10F8014BAD1C0C1B09D199
:100250006D1E58BF01F801CBFAD505E014F8016B0B
:1002600001F8016B6D1EF9D59142D6D3704700009D
:100270000023002400250026103A28BF78C1FBD8AF
:10028000520728BF30C148BF0B6070471FB507F049
:1002900073FA1FBD10B510BD00F059F91146FFF7F4
:1002A000F5FF05F081FF00F077F903B4FFF7F2FFE7
:1002B00003BC00F07FF900002C4B19680868B0E817
:1002C000F04F80F30988BFF36F8F4FF0000080F389
:1002D000118870470000000008480068006880F33B
:1002E00008884FF0000080F3148862B661B6BFF34F
:1002F0004F8FBFF36F8F00DF00BF00BF08ED00E03E
:10030000DFF80C00016841F470010160704700BF24
:1003100088ED00E0EFF30980BFF36F8F134B1A688D
:100320001EF0100F08BF20ED108A20E9F04F10607A
:1003300009B44FF0500080F31188BFF34F8FBFF323
:100340006F8F06F0D9FC4FF0000080F3118809BCD4
:1003500019680868B0E8F04F1EF0100F08BFB0EC45
:10036000108A80F30988BFF36F8F7047CC0000209C
:10037000EFF30580704700000948804709480047AF
:10038000FEE7FEE7FEE7FEE7FEE7FEE7FEE7FEE745
:10039000FEE7FEE704480549054A064B70470000A2
:1003A00075400008D901000808570020086800209F
:1003B0000858002008580020032A40F2308010F02E
:1003C000030C00F0158011F8013BBCF1020F6244F0
:1003D00098BF11F801CB00F8013B38BF11F8013B81
:1003E000A2F1040298BF00F801CB38BF00F8013B2E
:1003F00011F0030300F02580083AC0F0088051F89E
:10040000043B083A51F804CBA0E80810F5E7121DA8
:100410005CBF51F8043B40F8043BAFF30080D207C7
:1004200024BF11F8013B11F801CB48BF11F8012B93
:1004300024BF00F8013B00F801CB48BF00F8012BB6
:10044000704710B5203AC0F00B80B1E81850203A40
:10045000A0E81850B1E81850A0E81850BFF4F5AF64
:100460005FEA027C24BFB1E81850A0E8185044BFEE
:1004700018C918C0BDE810405FEA827C24BF51F85B
:10048000043B40F8043B08BF7047D20728BF31F84F
:10049000023B48BF11F8012B28BF20F8023B48BFA0
:1004A00000F8012B704702F0FF0343EA032242EAFF
:1004B000024200F02CB84FF0000200B513469446FB
:1004C0009646203922BFA0E80C50A0E80C50B1F1AC
:1004D0002001BFF4F7AF090728BFA0E80C5048BFC0
:1004E0000CC05DF804EB890028BF40F8042B08BF5E
:1004F000704748BF20F8022B11F0804F18BF00F85A
:10050000012B70477047704770474FF00002042975
:10051000C0F0128010F0030C3FF4CFAFCCF1040C0C
:10052000BCF1020F18BF00F8012BA8BF20F8022B66
:10053000A1EB0C01FFF7C1BF5FEAC17C24BF00F84B
:10054000012B00F8012B48BF00F8012B70477546BE
:1005500000F02CF8AE4605006946534620F007002F
:10056000854618B020B5FFF715FFBDE820404FF0D5
:1005700000064FF000074FF000084FF0000B21F08D
:100580000701AC46ACE8C009ACE8C009ACE8C0095A
:10059000ACE8C0098D46704710B50446AFF3008043
:1005A0002046BDE81040FFF780BE000000487047BD
:1005B000A856002001491820ABBEFEE72600020025
:1005C000704700002DE9F843044618A0164600685D
:1005D0000D46009005291FD8DFF85480154FECB167
:1005E000012C19D1002204214FEA080000F008FA7A
:1005F0008DF800508DF801604FF6FF7302226946B6
:100600000D4801F063FD6CB1012C05D101220421DC
:100610004FEA080000F0F4F9BDE8F8830022102149
:100620003846E3E7012210213846F3E7000A0000CC
:100630000004004800080048A41A0020FEE700203B
:10064000704700207047000010B50022044905489B
:1006500004F011FB0449034804F004FB002010BD22
:10066000B8290020E8200020B825002010B5014658
:10067000034804F0F7FA024804F0BCFA002010BD69
:10068000E820002000207047094A10B5D2F8BC22AB
:10069000D2F814220AB1012010BD0A4601460448CE
:1006A00004F0E9FABDE81040014804F04EBB000038
:1006B000E8200020A2B000274FF4FA6005F012FEF7
:1006C00006F006FFDFF8DCB0374D4FF00A0AE846C7
:1006D0005FF00006B6FBFAF10AFB1160401C03F064
:1006E000DFFB41F2621005F03FFDB7BB00230222A1
:1006F0001946DBF8100006F06DFE2C494FF08050D3
:100700000860BFF34F8FBFF36F8F012725E0DFF83D
:100710009490002409F11809002259F824101EA809
:1007200005F0F0FD04EB440108EB8102DDE91E1049
:10073000209B9360C2E9001010290AD106EB8601C4
:1007400004EB4102DBF8081001EB42018880012034
:100750002855641CE4B20A2CDED328786978EA783C
:100760000844A9781144084429790844697908445F
:10077000A9790844E9790844297A0844697A08443F
:100780000A28C4D1002001462954401CC0B20A28BE
:10079000FAD3761CF6B2642E9CD305F0C9FC002770
:1007A00096E70000000000204802002004ED00E071
:1007B000704772B6FEE700002DE9F04FDFF8209297
:1007C000002301260324A9F1040B85B00F2709F1AA
:1007D000040AABF1040EFAE006FA03F52A407CD0D5
:1007E00091F804C00CF0030CBCF1010F02D0BCF175
:1007F000020F26D1D0F808C0CDF800C04FEA430C54
:1008000004FA0CF8CDF810C0DDF800C02CEA080C92
:10081000CDF800C0D1F80C80DDF810C008FA0CF853
:10082000DDF800C048EA0C08C0F80880D0F804C021
:100830002CEA050C0D79C5F300159D4045EA0C0521
:1008400045600D79ED43AD070ED0C5684FEA43080A
:1008500004FA08FC25EA0C05D1F808C00CFA08FCDB
:100860004CEA050CC0F80CC00D7905F00305022D0B
:1008700016D1DD0800EB850CCDF808C0DCF820802F
:100880005D074FEAD56C07FA0CF528EA05080D69F3
:1008900005FA0CF5DDF808C045EA0805CCF820504B
:1008A00005684FEA430CCDF808C004FA0CFC25EAB1
:1008B0000C0591F804C00CF00308DDF808C008FA34
:1008C0000CF848EA0508C0F800804D6815F4403F70
:1008D0007CD0444DD5F860C000E077E04CF0010CCE
:1008E000C5F860C02D6E23F0030C05F001050095DE
:1008F0003D4D65440295AD684FEA837C4FEA1C7814
:1009000007FA08FC25EA0C05B0F1904F06D0DFF895
:10091000DCC0604505D14FF0010C20E04FF0000C29
:100920001DE0DFF8CCC0604502D14FF0020C16E0AC
:10093000DFF8C0C0604502D14FF0030C0FE0DFF8D4
:10094000B8C0604502D14FF0040C08E0DFF8ACC03D
:10095000604502D14FF0050C01E04FF0060C0CFA97
:1009600008FC4CEA050C029DC5F808C0D9F80050F7
:10097000CC46D1F8048095435FEAC82800D51543DA
:10098000CCF80050DAF80050D446D1F804809543F2
:100990005FEA882800D51543CCF80050DBF80050FA
:1009A000DC46D1F8048095435FEA883800D51543CA
:1009B000CCF80050DEF80050F446D1F8048095439E
:1009C0005FEAC83800D51543CCF800505B1C0A68B4
:1009D00032FA03F57FF400AF05B0BDE8F08F0000F8
:1009E00008040140001002400000014000040048DB
:1009F00000080048000C004800100048001400489F
:100A00000AB18161704781627047000001488068C7
:100A100070470000BC000020024881684268114411
:100A200081607047BC00002010B50024032000F056
:100A30009BF80F2000F008F808B1012401E000F055
:100A400047F8204610BD000030B505461B4887B06A
:100A5000816D41F010018165806D06A900F01000E4
:100A6000009001A801F00EF801F02CF81449154A85
:100A7000B0FBF1F11448491E0260416040F2E732D8
:100A80000021C0E90321816001F08DFC040012D136
:100A90000D4801F0CDFC04000DD1362000F036F8F1
:100AA000102D07D200222946362000F03DF80748D5
:100AB000056000E0012407B0204630BD0010024070
:100AC00040420F0000100040A01B0020BC0000208E
:100AD0000D4808B5016E41F001010166016E01F09B
:100AE00001010091816D41F080518165806D00228E
:100AF00000F0805000900F21901E00F015F8BDE826
:100B0000084000F085BD000000100240002809DB0D
:100B100000F01F02012191404009800000F1E02017
:100B2000C0F8001170470000F0B40E4B1B680C4673
:100B3000C3F30223C3F10705042D00D90425191DB1
:100B4000072901D2002300E0DB1E012606FA05F189
:100B5000491E214099409E40761E16403143F0BC0C
:100B600005F0D6BA0CED00E0064900F0070208686F
:100B70004FF6FF03184040EA0220034A1043086082
:100B8000704700000CED00E00000FA05012201684A
:100B9000C0F8D022002280F8C82231F8540F40F06B
:100BA00001000880088840F0020008801046704765
:100BB00070B50F4D044669B101290AD1D4F8D802A5
:100BC00004F08FFB607A002803D0286840F006000C
:100BD000286070BD607A28B103F016FA286820F00A
:100BE00006002860D4F8D802BDE8704004F011BBBC
:100BF00010ED00E010B50C0607D501F0070101EB80
:100C0000810100EBC100103005E001EB810100EB38
:100C1000C10000F5A87099B232B1012202730181BE
:100C2000190C4181002010BD00220273C180F9E738
:100C300001EB810200EBC202D0F8D802526A04F044
:100C4000C6B901EB810200EBC202D0F8D802D2F89B
:100C5000642104F010BA70B504460B0601F00700D9
:100C600000EB800104EBC1014FF001024FF00005E1
:100C700002D54A74103103E081F8515101F5A87191
:100C8000087094F89002012808D084F89022206817
:100C900004F072FE84F89052002070BD022070BDF6
:100CA00070B5044601F00F002279904201D901206D
:100CB00070BD0B0601F0070000EB800104EBC101E1
:100CC0004FF001024FF0000502D54A74103103E0E5
:100CD00081F8515101F5A8718D70087094F8900257
:100CE000012808D084F89022206804F0E4FE84F8FB
:100CF0009052002070BD022070BD2DE9F0470468BD
:100D00005FEA42480B788D69B4F850804FF0000CD0
:100D10004BF68F7748F2800648F68F7948F2C00A82
:100D2000444428D540F2024808EBC30834F8084090
:100D3000C4F30904A54203D32D1B8D6102D00BE03F
:100D4000C1F818C0D0F800C03CF823503D4085F4ED
:100D5000005535432CF82350520609D50B78056809
:100D600035F8232002EA090242EA0A0225F8232084
:100D700074B30A8927E040F2064808EBC30834F848
:100D80000840C4F30904A54203D32D1B8D6102D092
:100D90000BE0C1F818C0D0F800C03CF823503D402B
:100DA00085F4005535432CF82350520609D40D78AC
:100DB000036833F8252002EA090242EA0A0223F80E
:100DC00025202CB14A8949690068234605F04BF972
:100DD0002046BDE8F0872DE9F047054600680C463F
:100DE0005FEA42681646D1F818C02278B0F8508001
:100DF00048F68F774CF280094FF400434FF6FF7AA4
:100E00004FF00001404472D540F2024808EBC2089E
:100E100030F80800C0F30900844514D9BCEB000C7D
:100E2000C4F818C010D0760408D5D5F800C03CF836
:100E300022603E4046EA09062CF8226094F82420FD
:100E4000012A47D056E1A161607810B1012813D082
:100E50001AE02868B0F85030184400EBC200B0F82F
:100E60000224C2F30902A0F80224B0F8022442F4DA
:100E70000042A0F8022407E02868B0F85030184477
:100E800000EBC200A0F802146278286812B1012AAF
:100E900011D018E0B0F850100844217800EBC100E0
:100EA000B0F80614C1F30901A0F80614B0F806144E
:100EB00041F4004105E0B0F850201044227800EBE6
:100EC000C200A0F8061421782846FFF7B1FE70048E
:100ED0006ED40FE1626902446261E2690244E26138
:100EE0002669226AB24203D33046111A04E040E078
:100EF00084F824100AB110462162617811B10129E9
:100F00002BD033E02968B1F850201144227801EB4E
:100F1000C201B1F80224C2F30902A1F8022401F2CD
:100F200002413E2809D94209C60600D1521E0E8848
:100F300043EA822216430E8018E048B14208C307F4
:100F400000D0521C0B880AEA822213430B800DE06A
:100F50000A8842F400420A8008E02968B1F850206B
:100F60001144227801EBC201A1F8020483B2228964
:100F7000BCE040F2064808EBC20830F80800C0F3B5
:100F80000900844515D3BCEB000CC4F818C011D07F
:100F9000760408D4D5F800C03CF822603E4046EA0A
:100FA00009062CF8226094F82420012A51D0A1E0EF
:100FB00045E0A161607810B1012813D01AE02868DB
:100FC000B0F85030184400EBC200B0F80224C2F36D
:100FD0000902A0F80224B0F8022442F40042A0F86A
:100FE000022407E02868B0F85030184400EBC20033
:100FF000A0F802146278286812B1012A11D018E012
:10100000B0F850100844217800EBC100B0F8061485
:10101000C1F30901A0F80614B0F8061441F4004128
:1010200005E0B0F850201044227800EBC200A0F890
:10103000061421782846FFF7FBFD70045AD4217866
:101040002A6832F82100384040EA090022F82100DD
:1010500050E0626902446261E2690244E261266929
:10106000226AB24203D33046111A216204E00AB167
:101070001046216284F824106278296812B1012A8E
:101080002AD031E0B1F850201144227801EBC2019E
:10109000B1F80624C2F30902A1F8062401F20641C0
:1010A0003E2809D94209C60600D1521E0E8843EADD
:1010B000822216430E8017E048B14208C30700D0D1
:1010C000521C0B880AEA822213430B800CE00A8828
:1010D00042F400420A8007E0B1F85020114422781F
:1010E00001EBC201A1F80604628983B26169286834
:1010F00004F0D4FF21782A6832F8210048F6BF7343
:10110000184080F0300048F28003184322F8210094
:101110000020BDE8F08701F0070101EB810100EB41
:10112000C100D0F86C0170472DE9F04104460F066C
:1011300001F0070000EB800104EBC1014FF0010654
:101140004FF0000502D54E74103103E081F8515183
:1011500001F5A871022B08700A61CB7000D10D71E6
:1011600094F89002012809D084F89062206804F075
:10117000B5FA284684F89052BDE8F0810220FBE7DA
:1011800010B501F0070404EB840100EBC101C1E9D3
:1011900059230022C1F86C2181F8512181F8504176
:1011A000006801F5A87104F0DBFC002010BD70B5EB
:1011B000044601F007002279904201D9012070BD58
:1011C0000B064FF000054FF0010206D500EB800141
:1011D00004EBC1014A74103107E001EB810104EB1B
:1011E000C10181F8515101F5A8718A70087094F815
:1011F0009002012808D084F89022206804F097FC1F
:1012000084F89052002070BD022070BD10B501F02E
:10121000070404EB840100EBC101C1E909230122A9
:1012200081F834200B630023CB624A7401F8104F1D
:10123000006804F095FC002010BD10B5044600685D
:1012400004F00EFF010404D52046BDE8104002F072
:1012500065BB41050ED5206830F8441F21F480613C
:101260000180204600F008F92046BDE8104000212A
:1012700000F02EB9410405D5206830F8441F21F450
:1012800080417DE0810405D5206830F8441F21F4B9
:10129000005175E0C1041FD5206830F8401F21F0CF
:1012A00004010180206830F8401F21F0080101800E
:1012B00094F8C802012806D1002084F8C80201462B
:1012C0002046FFF775FC204600F0EAF8206830F869
:1012D000441F21F4805153E0010512D5206830F8F5
:1012E000401F41F008010180206830F8441F21F4BC
:1012F00000610180206830F8401F41F00401018046
:101300000AE0010629D5206830F8441F21F0800149
:10131000018094F8C80218B1204600F009F910BD08
:10132000206830F8401F41F004010180206830F847
:10133000401F41F008010180012084F8C8022068A4
:10134000B0F854003C2101EA9000C4F8CC022046D9
:10135000BDE810400121FFF72BBC810509D52068AD
:1013600030F8441F21F400710180204600F0ACF8F1
:1013700010BDC005FCD5206830F8441F21F48071F1
:10138000018010BD70B5040004D094F891020025CE
:1013900010B106E0012070BD84F89052204600F0A4
:1013A0003FF8032084F89102206804F07CFB0020C1
:1013B00001260BE000EB800104EBC1014E740874C0
:1013C000CD740D624D62401CC0B28D6221798142A4
:1013D000F0D8002012E000BF00EB800104EBC10157
:1013E00081F8515181F8500181F85351C1F8605191
:1013F000C1F86451401CC0B2C1F8685121798142E2
:10140000EAD894E8070004F045FB257384F891625C
:10141000A07A012802D12046FFF7B8FB002070BD5A
:1014200010B592B0044644216846FFF744F81049CD
:10143000206888421AD14014009000200D90684620
:1014400000F0EEF808B1FFF7B4F90A48816D41F4F5
:1014500000018165806D002200F4000011900521DB
:101460001420FFF761FB1420FFF750FB12B010BDF2
:10147000005C00400010024070B504464079012530
:10148000022801D0FFF795F92946D4F8D80203F0D5
:10149000DAFED4F8D802BDE8704003F08DBE00003B
:1014A00010B50446407A30B10648016821F00601C3
:1014B000016002F0A9FDD4F8D802BDE8104003F0A5
:1014C000A8BE000010ED00E0D0F8D80203F0ABBEDB
:1014D00010B5044690F8900201280AD0012084F843
:1014E00090022173206804F0D2FD002084F890025D
:1014F00010BD022010BDD0F8D82200F5267110468C
:1015000003F0ADBE10B5044690F8900201280CD04F
:10151000012084F89002206804F093FD206804F014
:10152000B2FA002084F8900210BD022010BD000025
:1015300010B50446D0F8D80203F0D3FE607A002834
:1015400004D00348016841F00601016010BD0000AD
:1015500010ED00E02B492C4B0A6832214A432B49FD
:1015600040B1B0F5007F086829D020F4C06040F495
:1015700080602CE00868C0F34120022804D051F8B4
:10158000800F20F4807022E0D1F8800020F4807079
:10159000C1F88000086820F4C06040F40070086062
:1015A000B2FBF3F0401C00E0401E4A69520501D531
:1015B0000028F9D1486940050AD503207047C0F3D7
:1015C0004120022806D051F8800F40F48070086056
:1015D00000207047D1F8800040F48070C1F880008E
:1015E000086820F4C06040F400700860B2FBF3F0BB
:1015F000401C00E0401E4A695205DBD50028F9D1A5
:10160000D8E70000C800002040420F0000700040F2
:101610000248816841F48041816070470070004059
:101620002DE9F8430446006800269D4D00035ED571
:10163000A86D0027C00008D4A86D40F08050A865B0
:10164000A86D012700F080500090DFF85892D9F87B
:10165000001041F48071C9F80010FFF7D7F98046F7
:1016600006E000BFFFF7D2F9A0EB080002282BD854
:10167000D9F80000C005F5D5D5F8900010F44070F9
:1016800014D0216C814211D0D5F89000D5F890107B
:1016900020F4407041F48031C5F89010D5F89010D6
:1016A00021F48031C5F89010C5F89000C00711D022
:1016B000FFF7ACF9804641F2883907E0FFF7A6F959
:1016C000A0EB0801494501D903260BE0D5F89000AD
:1016D0008007F3D5D5F89000216C20F440700843C2
:1016E000C5F890001FB1A86D20F08050A865207843
:1016F000C00707D0D5F88800616820F003000843D0
:10170000C5F888002078800707D5D5F88800A1683B
:1017100020F00C000843C5F888002078400707D562
:10172000D5F88800E16820F030000843C5F888004B
:101730002078000707D5D5F88800216920F0C0007F
:101740000843C5F888002078800607D5D5F88800BA
:10175000616920F440600843C5F88800207840069D
:1017600007D5D5F88800A16920F440500843C5F892
:1017700088002078000607D5D5F88800E16920F4B4
:1017800040400843C5F888002088C00507D5D5F833
:101790008800216A20F440300843C5F8880020887A
:1017A000800507D5D5F88800616A20F440200843F9
:1017B000C5F88800208840050FD5D5F88800A16AB3
:1017C00020F440100843C5F88800A06AB0F5801FD7
:1017D00003D1E86840F48010E860208800050FD548
:1017E000D5F88800E16A20F440000843C5F8880075
:1017F000E06AB0F5800F03D1E86840F48010E8603B
:101800002088C0040FD5D5F88800216B20F04070E7
:101810000843C5F88800206BB0F1807F03D1E868E9
:1018200040F48010E86020884FF0006180040ED5FD
:10183000D5F88800626B20F040601043C5F888003E
:10184000606B884203D1E86840F48010E86020882B
:1018500040040ED5D5F88800A26B20F040601043FC
:10186000C5F88800A06B884203D1E86840F4801076
:10187000E860208800040FD5D5F88800E16B20F0DF
:1018800040500843C5F88800E06BB0F1805F03D199
:10189000E86840F48030E8603046BDE8F883000036
:1018A00000100240007000402DE9F0470E46050090
:1018B0004FF0000725D0DFF8AC81D8F8000000F029
:1018C0000F00B0420CD2D8F8001021F00F013143C4
:1018D000C8F80010D8F8000000F00F00B04210D196
:1018E0002968614CC80741F2883A5AD06868DFF825
:1018F0007C91032808D0022820682DD040050028BC
:101900002CDB0120BDE8F08720688001F9D5E06874
:1019100000F00302E068C0F30310401C032A19D052
:10192000534A00BFB2FBF0F0E268C2F30622504314
:10193000E268C2F34162521C5200B0FBF2F048452B
:1019400017D9A06810F0F00F0CD0880711D5A8683F
:1019500040B10EE0474AE5E78003D0E700F0C4F865
:10196000484506D9A06820F0F00040F08000A06053
:101970008027A068696820F003000843A060FFF793
:1019800045F8814606E000BFFFF740F8A0EB0901EB
:1019900051453AD8A068696800F00C00B0EB810F9F
:1019A000F2D12868810714D5400703D5A06840F418
:1019B000E060A0602878000705D5A06820F460509A
:1019C00040F4E060A060A068A96820F0F00008433F
:1019D00004E0802F03D1A06820F0F000A060D8F8C8
:1019E0000010404601F00F01B14216D9016821F004
:1019F0000F0131430160FFF709F8074607E000BF18
:101A0000FFF704F8C11B514501D903207AE7D8F844
:101A1000000000F00F00B042F2D12878400705D551
:101A2000A068E96820F4E0600843A0602878000717
:101A300006D5A068296920F4605040EAC100A06082
:101A400000F052F8A1680C4AC1F30311515C01F097
:101A50001F01C8400949086009480068BDE8F0470F
:101A6000FEF7F2BF002002400010024000B4C404A0
:101A70000024F40000127A003E780008C80000201C
:101A8000BC0000200F2202600C4A936803F003039D
:101A90004360936803F0F0038360936803F4E063AA
:101AA000C36092684FF4E06303EAD2020261044823
:101AB000006800F00F00086070470000001002404E
:101AC000002002400548064900688968054AC1F3BC
:101AD0000221515C01F01F01C8407047C80000207E
:101AE000001002404E780008184910B58868C0F30D
:101AF00081021748012A0BD08A684310C2F3810281
:101B0000022A06D08A68C2F38102032A03D0002089
:101B100010BD184610BDCA6802F00304CA68C2F3BB
:101B20000312521C032C02D0B0FBF2F001E0B3FB15
:101B3000F2F0CA68C968C2F306225043C1F341619A
:101B4000491C4900B0FBF1F010BD0000001002403C
:101B50000024F4002DE9F84304007AD02078F84DF1
:101B6000C00747D0A868E96800F00C0001F0030145
:101B70000C2802D0082817D001E0032914D060688F
:101B8000B0F5803F17D0B0F5A02F286817D020F40B
:101B900080302860286820F4802028606068E0B1E8
:101BA000FEF734FF064614E02868800322D56068FB
:101BB0000028D2D01EE0286840F48030EDE740F4E1
:101BC00080202860F7E700BFFEF720FF801B642815
:101BD00070D828688003F7D50CE0FEF717FF06469B
:101BE00005E000BFFEF712FF801B6428F0D82868CC
:101BF0008003F7D4207880074CD5A868E96800F006
:101C00000C0001F003010C2802D004280DD001E0E3
:101C100002290AD0E068002828682BD040F48070A0
:101C20002860FEF7F3FE064619E02868400502D555
:101C3000E068002891D06868217C20F0FE4040EAEE
:101C400001606860BF480068FEF7FEFE002800D112
:101C500020E072E1FEF7DAFE801B0228B8D828687F
:101C60004005F7D56868217C20F0FE4040EA01601D
:101C700068600FE020F480702860FEF7C7FE06461B
:101C800005E000BFFEF7C2FE801B0228A0D828682E
:101C90004005F7D42078000729D560690028D5F8D9
:101CA000940013D040F00100C5F89400FEF7AEFE9A
:101CB000064606E090E000BFFEF7A8FE801B022863
:101CC00086D8D5F894008007F6D510E020F0010002
:101CD000C5F89400FEF79AFE064604E0FEF796FE6D
:101CE000801B022878D8D5F894008007F6D4207895
:101CF000400761D5A86D0026C00008D4A86D40F04B
:101D00008050A865A86D012600F0805000908E4894
:101D10000168C90511D40168804641F480710160F1
:101D2000FEF774FE074604E0FEF770FEC01B0228B3
:101D300052D8D8F80000C005F6D5A068012815D003
:101D40000528D5F8900016D020F00100C5F89000C5
:101D5000D5F8900020F00400C5F89000A06841F28A
:101D60008838B8B1FEF752FE07460EE0D5F890006D
:101D700040F00100F0E740F00400C5F89000F5E7FE
:101D8000FEF744FEC11B414526D8D5F890008007D8
:101D9000F6D50CE0FEF73AFE074604E0FEF736FE05
:101DA000C11B414518D8D5F890008007F6D41EB164
:101DB000A86D20F08050A8652078800629D5A069FC
:101DC0000028D5F8980013D040F00100C5F898001D
:101DD000FEF71CFE064606E075E000BFFEF716FEA5
:101DE000801B02286FD8D5F898008007F6D510E040
:101DF00020F00100C5F89800FEF708FE064604E052
:101E0000FEF704FE801B02285DD8D5F898008007F5
:101E1000F6D4E069F0B3A968C1F3810103295DD06C
:101E20000228286820F08070286003D0FEF7EEFDBD
:101E300004464BE0FEF7EAFD064604E0FEF7E6FD49
:101E4000801B02283FD828688001F7D4F4E90801F4
:101E50006FF00F0202EB01110843218A5204490876
:101E600002EB4151A26841EA02210843217D4FF073
:101E70007E42490802EB41610843217B40EAC16090
:101E8000E968324A11400843E860286840F08070F1
:101E9000286000E05EE0E86840F08070E860FEF7EF
:101EA000B5FD044605E000BFFEF7B0FD001B0228AB
:101EB00009D828688001F7D54CE000BFFEF7A6FDE1
:101EC000001B022802D90320BDE8F883286880019E
:101ED000F4D4E8681E490840E8603BE00128F3D0EC
:101EE000E868226A00F00301914226D1616A00F09D
:101EF000F0020901103991421FD1A26A00F4FE419B
:101F0000B1EB022F19D194F82C2000F07841B1EBFD
:101F1000C26F12D1218E00F4C00249084905A1F513
:101F20000011914209D194F8341000F0C0604908C2
:101F30004906A1F1007181420CD00120C4E70000E4
:101F400000100240BC000020007000400C809F0187
:101F5000FCFFEEFE0020B7E770B5040009D0606A10
:101F6000002540B125616561A56294F85D0040B12E
:101F70000CE0012070BD6068B0F5827FF4D0E561AF
:101F8000F2E784F85C50204600F05CF8022084F808
:101F90005D002068016821F040010160E1684FF4B4
:101FA000E062914201D9002001E04FF48050B1F588
:101FB000706F02D0914200D0A562A188228901F4FD
:101FC000827102F404421143227C02F002021143A6
:101FD000227D02F001021143228B02F400721143B0
:101FE000227F02F03802114394F8202002F0800290
:101FF0001143228D02F40052114322681160A1693D
:10200000042202EA114194F8242000F4805002F0E6
:102010001002114394F8342002F008021143A289FF
:1020200002F4706211430143206841602068C16975
:1020300021F40061C1612566012084F85D00002063
:1020400070BD000070B586B0044614216846FEF7E6
:1020500032FA1B492068884230D11A48016E41F497
:1020600080510166016E01F480510591C16C41F00F
:102070000101C164C16C01F001010591C16C41F025
:102080000201C164C06C022500F002000590A0208E
:1020900000900024CDE901540526CDE903466946A8
:1020A0004FF09040FEF788FB10200090CDE90154DE
:1020B000CDE9034669460448FEF77EFB06B070BDD5
:1020C0000030014000100240000400482DE9F84FA4
:1020D000044690F85C000026984615468A4601287A
:1020E0000CD0012784F85C70FEF790FC814694F8D0
:1020F0005D00B346012804D00226ACE00220BDE812
:10210000F88FBAF1000F79D0002D77D0032084F832
:102110005D00C4F860B0C4F838A0A587E587C4F8AE
:1021200040B0A4F844B0A4F846B0C4F850B0C4F825
:102130004CB0A068B0F5004F09D12068016821F0CB
:10214000400101602068016841F48041016020681D
:102150000168490603D4016841F040010160E0686C
:10216000B0F5E06F606828D908B1012D1FD1A06BD0
:1021700021680088C86006E020688168890709D561
:10218000A16B0988C160A06B801CA063E08F401E1A
:10219000E0870CE0FEF73AFCA0EB0901414503D3D0
:1021A000B8F1FF3F03D006E0B8F1000F03D0E08F95
:1021B0000028E1D13BE003264BE008B1012D33D1EB
:1021C000E08F0128A06B03D921680088C8600FE068
:1021D00021680078087314E0E08725E020688168B2
:1021E000890714D5E18F0129A16B08D90988C1603D
:1021F000A06B801CA063E08F801EEDE727E00978CC
:102200000173A06B401CA063E08F401EE4E7FEF763
:10221000FDFBA0EB0901414503D3B8F1FF3F03D01B
:10222000C9E7B8F1000FC6D0E08F0028D6D14A46E2
:102230004146204601F03DFD08B120202066A068FF
:1022400018B92068C16880680090206E08B1012626
:1022500001E084F85D7084F85CB030464FE7704769
:102260007047704730B590F83C20012A42D00122D7
:1022700080F83C20CA688B6822F440721A434B688D
:1022800022F480621A430B6822F400621A430B693D
:1022900022F480521A434B6922F400521A430B6B0A
:1022A00022F480421A430B8B22F4702242EA03424A
:1022B000CB6922F080521A430F4D03680024AB42D1
:1022C00002D00E4DAB4210D10D8D22F4700242EAC5
:1022D00005520D6A22F080722A434D6A22F0007284
:1022E0002A43C96A22F000520A435A6480F83C40EB
:1022F000002030BD022030BD002C014000340140E0
:102300007047704770470000F0B590F83C20012AF4
:102310003AD0012580F83C50022280F83D20036825
:102320005A689C68194E1A4FB34201D0BB4204D17F
:1023300022F4700C4A6842EA0C02DFF858C002EA44
:102340000C02D1F800C04CEA020CC3F804C00268C9
:10235000B2420DD0B2F1804F0AD00F4B9A4207D053
:102360000E4B9A4204D0BA4202D00D4B9A4204D18D
:10237000896824F080031943916080F83D50002162
:1023800080F83C100846F0BD0220F0BD002C014052
:10239000003401408FFFFFFD0004004000080040B2
:1023A00000400140704710B5040003D094F83D0090
:1023B00010B107E0012010BD002084F83C00204649
:1023C00000F022F8022084F83D00211D206802F070
:1023D000CDF8012084F8480084F83E0084F83F00DE
:1023E00084F8400084F8410084F8420084F84300F7
:1023F00084F8440084F8450084F8460084F84700D7
:1024000084F83D00002010BD08B5006806498842E8
:1024100008D10648016E41F480210166006E00F487
:102420008020009008BD00000048014000100240DC
:1024300090F83D10012901D001207047022180F859
:102440003D100168CA6842F00102CA600068104984
:1024500088420ED0B0F1804F0BD00E49884208D090
:102460000D49884205D00D49884202D00C49884266
:1024700007D181680B4A1140062906D0B1F5803F8B
:1024800003D0016841F001010160002070470000A5
:10249000002C0140000400400008004000340140CE
:1024A000004001400700010070472DE9F04104465B
:1024B0000068C66805694FF00007A90713D5B10782
:1024C00011D5F91E016101202077206880698007FD
:1024D000204602D0FFF7E8FF04E000F001F92046B3
:1024E00000F002FA2777680716D5700714D521681F
:1024F0006FF004000861022020772068806910F4E2
:10250000407F204602D0FFF7CFFF04E000F0E8F85C
:10251000204600F0E9F92777280715D5300713D5AD
:1025200021686FF008000861042020772068C069E6
:102530008007204602D0FFF7B7FF04E000F0D0F894
:10254000204600F0D1F92777E80616D5F00614D515
:1025500021686FF010000861082020772068C069AA
:1025600010F4407F204602D0FFF79EFF04E000F009
:10257000B7F8204600F0B8F92777E80708D0F00749
:1025800006D021686FF001000861204600F02CFAA7
:10259000280601D4A80408D5300606D521686FF4B2
:1025A000025008612046FFF75BFEE80508D53006BB
:1025B00006D521686FF4807008612046FFF74FFE52
:1025C000680608D5700606D521686FF040000861DE
:1025D000204600F013FAA80608D5B00606D52168F3
:1025E0006FF0200008612046FFF73BFEE80208D5A7
:1025F000F00206D521686FF4801008612046FFF7CD
:1026000080FEA80208D5B00206D521686FF400103C
:1026100008612046FFF774FE680208D5700206D5EF
:1026200021686FF4800008612046FFF76BFE2802E6
:102630000AD5300208D521686FF4000008612046F1
:10264000BDE8F041FFF7AEBEBDE8F081F0B587B060
:10265000044614216846FDF72EFF1D4E2368002412
:102660001C49022503221C48B3421AD1CB6C43F00B
:102670000203CB64C96C012701F0020105916903D3
:102680008DE8A200CDE9032769460646FEF794F8D7
:10269000A8030090CDE90154CDE9034769463046CF
:1026A00012E00E4EB34211D1CB6C43F00203CB6467
:1026B000C96C029401F0020105912021CDE90015B9
:1026C0000A21CDE903216946FEF776F807B0F0BD8F
:1026D0000040014000100240000400480048014052
:1026E000704770B50D46040003D094F83D0010B15A
:1026F00007E0012070BD002084F83C00204600F077
:102700001BF8022084F83D00211D206801F02EFFF7
:102710002068016821F00801016054F8480B016845
:1027200029430160012004F81F096075A075E07657
:1027300020772075002070BD704770B5044690F872
:102740003C0000260D4601280BD0012084F83C00F7
:102750000C2A4AD007DC82B1042A20D0082A06D1EC
:1027600031E0022070BD102A53D0142A63D0012614
:10277000002084F83C00304670BD206801F062FF04
:102780002068816941F0080181612068816921F038
:1027900004018161206881692A69114311E0206880
:1027A00001F09EFF2068816941F400618161206829
:1027B000816921F480618161206881692A6941EA27
:1027C00002218161D4E7206801F0D2FF2068C1694D
:1027D00041F00801C1612068C16921F00401C161B3
:1027E0002068C1692A69114311E0206802F008F8E5
:1027F0002068C16941F40061C1612068C16921F4A8
:102800008061C1612068C1692A6941EA0221C16110
:10281000AEE7206802F03CF82068016D41F0080145
:1028200001652068016D21F0040101652068016DDA
:102830002A69114311E0206802F062F82068016DF6
:1028400041F4006101652068016D21F4806101653A
:102850002068016D2A6941EA0221016588E710B507
:10286000040003D094F83D0010B107E0012010BD32
:10287000002084F83C00204600F022F8022084F872
:102880003D00211D206801F071FE012084F8480000
:1028900084F83E0084F83F0084F8400084F841004A
:1028A00084F8420084F8430084F8440084F845002A
:1028B00084F8460084F8470084F83D00002010BDED
:1028C00008B500680649884208D10648016E41F4FF
:1028D00080310166006E00F48030009008BD000079
:1028E00000400140001002407047000030B504462F
:1028F000022269B1042912D0082917D00C291CD052
:10290000102921D094F84300012824D0012030BDA3
:1029100094F83E000128F9D184F83E201DE094F897
:102920003F000128F2D184F83F2016E094F84000DF
:102930000128EBD184F840200FE094F841000128F1
:10294000E4D184F8412008E094F842000128DDD168
:1029500084F8422001E084F843200122206801F03D
:1029600063FE194B20681949194A984209D08842D8
:1029700007D0904205D0174DA84202D0164DA8426C
:1029800003D1456C45F400454564206898420CD05D
:10299000B0F1804F09D0114B984206D0104B9842AD
:1029A00003D0884201D0904207D181680D4A11407E
:1029B000062906D0B1F5803F03D0016841F001013E
:1029C0000160002030BD0000002C014000340140B7
:1029D0000040014000440140004801400004004024
:1029E000000800400700010000680349884201D147
:1029F000FEF712B870470000001000407047FEE775
:102A0000F0B500230A24302537261F4611E000BF09
:102A1000B4EB107F02D905EB107C01E006EB107CD3
:102A200001F813C001EB430C00015B1C8CF8017032
:102A3000DBB29342ECD3F0BD044908B5CA6C024343
:102A4000CA64C96C0140009108BD0000001002403A
:102A5000044908B5CA6C0243CA64C96C01400091BC
:102A600008BD000000100240044908B58A6D024309
:102A70008A65896D0140009108BD00000010024088
:102A8000F0B50A680F2692FAA2F2B2FA82F3032492
:102A90008AE001259D402A407ED04D68012D01D05D
:102AA000022D20D18D68876892FAA2FCBCFA8CFCBA
:102AB0004FEA4C0E04FA0EFC27EA0C0792FAA2FC2D
:102AC000BCFA8CFC4FEA4C0C05FA0CF52F438760DE
:102AD000CF680D68D0F804C02CEA050C7D434CEAA1
:102AE000050CC0F804C00F69D0F80CC092FAA2F52A
:102AF000B5FA85F54FEA450E04FA0EF52CEA050CF9
:102B000092FAA2F5B5FA85F56D00AF404CEA070CD4
:102B1000C0F80CC04D68022D2FD1FF2A15D8D1F86E
:102B200014C0056A92FAA2F7B7FA87F7BF0006FA4F
:102B300007F7BD4392FAA2F7B7FA87F7BF000CFA7E
:102B400007FC45EA0C05056217E0D1F814E0476A76
:102B5000150A95FAA5FCBCFA8CFC4FEA8C0C06FA17
:102B60000CFC95FAA5F5B5FA85F5AD0027EA0C073A
:102B70000EFA05FE47EA0E0747624D68076892FAAB
:102B8000A2FCBCFA8CFC4FEA4C0C04FA0CFE27EABF
:102B90000E0792FAA2F200E005E0B2FA82F25200C9
:102BA00095402F4307605B1C0A6832FA03F57FF4F7
:102BB00070AF0020F0BD000010B5012925D0042918
:102BC00025D0102925D0402925D0B1F5807F24D0EB
:102BD000B1F5806F23D0B1F5805F22D0B1F5804F81
:102BE00021D0B1F5803F20D00921114B18305B5C1A
:102BF000184403680E4C0A34615C03248C40120CA8
:102C0000A3438A401343036010BD0021EDE7012177
:102C1000EBE70221E9E70321E7E70421E5E70521E6
:102C2000E3E70621E1E70721DFE70821DDE7000010
:102C30002078000810B5012925D0042925D01029B5
:102C400025D0402925D0B1F5807F24D0B1F5806F03
:102C500023D0B1F5805F22D0B1F5804F21D0B1F5FE
:102C6000803F20D00921114B18305B5C1844036869
:102C70000E4C0A34615CF0248C40120CA3438A4051
:102C80001343036010BD0021EDE70121EBE70221B2
:102C9000E9E70321E7E70421E5E70521E3E706216A
:102CA000E1E70721DFE70821DDE7000020780008E1
:102CB00010B501291FD004291FD010291FD0402989
:102CC0001FD0B1F5807F1ED0B1F5806F1DD0B1F55A
:102CD000805F1CD0B1F5804F1BD0B1F5803F1AD07A
:102CE0000921036A0D4C615C0A248C40A3438A408D
:102CF0001343036210BD0021F3E70121F1E7022134
:102D0000EFE70321EDE70421EBE70521E9E70621E1
:102D1000E7E70721E5E70821E3E70000D8770008A7
:102D200010B501291FD004291FD010291FD0402918
:102D30001FD0B1F5807F1ED0B1F5806F1DD0B1F5E9
:102D4000805F1CD0B1F5804F1BD0B1F5803F1AD009
:102D50000921036A0D4C615C0A248C40A3438A401C
:102D60001343036210BD0021F3E70121F1E70221C3
:102D7000EFE70321EDE70421EBE70521E9E7062171
:102D8000E7E70721E5E70821E3E7000034780008DA
:102D900010B5012925D0042925D0102925D0402996
:102DA00025D0B1F5807F24D0B1F5806F23D0B1F567
:102DB000805F22D0B1F5804F21D0B1F5803F20D087
:102DC0000921114B18305B5C184403680E4C0A341F
:102DD000615C0C248C40120CA3438A4013430360B3
:102DE00010BD0021EDE70121EBE70221E9E7032116
:102DF000E7E70421E5E70521E3E70621E1E707210D
:102E0000DFE70821DDE70000207800082DE9F04326
:102E10000268224B224D234E234C4FF080499842AA
:102E200007D0484505D0A84203D0B04201D0A04207
:102E300003D14F6822F070023A431C4FDFF870C094
:102E4000DFF8708098420DD048450BD0A84209D0D9
:102E5000B04207D0A04205D0B84203D0604501D0AF
:102E6000404503D1CD6822F440722A4302608A684B
:102E7000C2620A888262984207D0A04205D0B84256
:102E800003D0604501D0404501D109690163416922
:102E900041F0010141610020BDE8F083002C0140B8
:102EA00000040040000800400034014000400140A0
:102EB00000440140004801404268024B1A400A4366
:102EC000426070478FFFFFFD30B5A5B00020239012
:102ED000012123A803F08EFA3F4C404D2064D5E930
:102EE0000101CDE90F0100210FA803F007FAA0614D
:102EF000D5E90301CDE91101002111A803F0FEF984
:102F0000E061D5E90501CDE91301002113A803F023
:102F1000F5F92062D5E90701CDE91501002115A8D1
:102F200003F0ECF96062D5E90901CDE91701002150
:102F300017A803F0E3F9A062D5E90B01CDE9190167
:102F4000002119A803F0DAF9E062D5E90D01CDE915
:102F50001B0100211BA803F0D1F92063D5E90F0163
:102F6000CDE91D0100211DA803F0C8F96063D5E972
:102F70001101CDE91F0100211FA803F0BFF9A063D3
:102F8000D5E91301CDE92101002121A803F0B6F90B
:102F9000E063142205F160016846FDF752FA002152
:102FA000684603F03AFAE060142205F1740105A8BE
:102FB000FDF747FA002105A803F02FFA206114223B
:102FC00005F188010AA8FDF73CFA00210AA803F0E0
:102FD00024FA606125B030BD00000020847700082D
:102FE0002DE9F04F87B018216846FDF764FA0420F8
:102FF000FFF722FD2020FFF71FFD0120FFF71CFD3A
:103000000220FFF719FDDFF878911020C9F81800A9
:103010005C4F0420B8614FF48068C7F818808002C4
:10302000B8614000B8614FF0904A4011CAF81800EA
:103030004000CAF81800CAF818808001CAF81800C1
:10304000C9F818804FF4006BC9F818B00820B861AF
:10305000C7F828B04020C9F82800C0010025CDE9F4
:1030600000050220049069464846FFF709FD10203C
:10307000012403268DE85100CDE9035469464846F2
:10308000FFF7FEFC04208DE85100CDE903546946AA
:103090003846FFF7F5FCCDF80080CDE90146CDE9D3
:1030A000035469463846FFF7EBFC0220CDF800B028
:1030B000CDE90350CDE9014669463846FFF7E0FC0B
:1030C00020038DE85100CDE9035469463846FFF7E7
:1030D000D7FC60038DE85100CDE9035469463846BA
:1030E000FFF7CEFC40208DE85100CDE9035469463E
:1030F0004846FFF7C5FC20028DE85100CDE9035496
:1031000069465046FFF7BCFC60028DE85100CDE9EE
:10311000035469465046FFF7B3FCCDF80080CDE973
:103120000146CDE9035469465046FFF7A9FCE00388
:103130008DE85100CDE9035469465046FFF7A0FCE5
:10314000CDF80080CDE90146CDE9035469464846F3
:10315000FFF796FCCDF800B0CDE90146CDE9035468
:1031600069464846FFF78CFC08208DE85100CDE900
:10317000035469463846FFF783FC07B0BDE8F08F7B
:10318000000800480004004810B502F0A9FF002222
:10319000052100F03BFB0146372002F0A9FF372054
:1031A00002F090FF02F09CFF0022052100F02EFBB0
:1031B00001461E2002F09CFF1E2002F083FF02F059
:1031C0008FFF0022052100F021FB01461D2002F0A7
:1031D0008FFF1D2002F076FF02F082FF0022052102
:1031E00000F014FB01461C2002F082FFBDE81040F5
:1031F0001C2002F067BF0000124810B510490160A2
:103200004FF48271416000214FF4E062C0E9021284
:103210004FF400720161C0E905123822C0E90721AC
:1032200007224162C0E90A12016308214163FEF7E7
:1032300093FE002803D0BDE81040FDF7BABA10BDD8
:1032400000300140A41A002010B598B00024149456
:1032500015941C210DA81694FDF72DF9342168460C
:10326000FDF729F92548244901600121C0E901142D
:1032700042F20F71C0E9031444618461FFF7EFFA71
:1032800008B1FDF796FA149414A91C481694FFF798
:103290003BF808B1FDF78DFA6020CDE90D0402205E
:1032A000CDE90F041194129400220DA91348139430
:1032B000FFF743FA08B1FDF77CFA04220DA90F4885
:1032C000FFF73BFA08B1FDF774FA00944FF4005091
:1032D000CDE904400194029403940694694607489A
:1032E0000C94FEF7BFFF08B1FDF763FA0348FFF740
:1032F000ADF918B010BD000000400140081B0020CF
:1033000010B594B01C210DA8FDF7D5F834216846FE
:10331000FDF7D1F825482449002401600121C0E9C6
:10332000011441F28731C0E9031444618461FFF75D
:103330003AF808B1FDF73DFA1C48FFF790FA08B1DA
:10334000FDF737FA08211948FFF7CBF908B1FDF767
:1033500030FA60200D904FF4E170CDE90E044FF487
:1033600080701094CDE9114000220DA90F481394EC
:10337000FFF7E3F908B1FDF71CFA00944FF4005091
:10338000CDE90440019402940394069469460748E9
:103390000C94FEF767FF08B1FDF70BFA0348FFF73F
:1033A00055F914B010BD000000480140541B002026
:1033B0002DE9F0418CB0142106A8FDF77CF8182106
:1033C0006846FDF778F80120FFF74EFB0120FFF774
:1033D0003FFB0226002401250096CDE90345032783
:1033E0004FF09048059569464046CDE90167FFF7E3
:1033F00047FBCDE90345042005958DE8C1006946EA
:103400004046FFF73DFBCDE90345082005958DE8D3
:10341000C10069464046FFF733FBADF81840601E17
:10342000CDE907400994AC0706A92046FFF7EEFC5A
:10343000206820F08000206000212046FFF73CFD3E
:10344000A06820F08000A060A5132A461021204625
:10345000FFF7B2FB002210212046FFF799FC66120D
:10346000324610212046FFF7E5FB022210212046BC
:10347000FFF756FCA7152A4639462046FFF79CFB66
:10348000002239462046FFF783FC32463946204663
:10349000FFF7D0FB022239462046FFF741FC2A46BF
:1034A000A51429462046FFF787FB0022294620461F
:1034B000FFF76EFC324629462046FFF7BBFB02228F
:1034C00029462046FFF72CFC0CB0BDE8F081000037
:1034D0002DE9F0418CB0142106A8FCF7ECFF18216F
:1034E0006846FCF7E8FF0220FFF7BEFA0120FFF76D
:1034F000AFFA0220FFF7ACFA0025102002240327C0
:1035000003958DE891000126CDE904644FF09048C1
:1035100069464046FFF7B4FA402003958DE89100D4
:10352000CDE9046469464046FFF7AAFACDE9006494
:10353000DFF80481CDE90464CDE9027569464046AF
:10354000FFF79EFA03950094CDE90147CDE90464A5
:1035500069464046FFF794FAADF818504FF6FF70F1
:10356000CDE90750354C06A920460995FFF74EFCDA
:10357000206820F08000206000212046FFF79CFC9E
:10358000A06820F08000A060A5132A4601212046F3
:10359000FFF712FB002201212046FFF7F9FBE602AC
:1035A000324601212046FFF745FB02220121204639
:1035B000FFF7B6FB2A4610212046FFF7FDFA00224E
:1035C00010212046FFF7E4FB324610212046FFF78A
:1035D00031FB022210212046FFF7A2FBA7152A4645
:1035E00039462046FFF7E8FA002239462046FFF721
:1035F000CFFB324639462046FFF71CFB02223946F4
:103600002046FFF78DFB2A46A51429462046FFF7E2
:10361000D3FA002229462046FFF7BAFB3246294654
:103620002046FFF707FB022229462046FFF778FBDA
:103630000CB0BDE8F0810000000400480004004028
:103640002DE9F0418CB0142106A8FCF734FF1821B5
:103650006846FCF730FF0420FFF706FA0220FFF768
:10366000F7F9002540200224032603958DE8510038
:103670000127DFF8EC80CDE9047469464046FFF786
:10368000FFF9802003958DE85100CDE90474694667
:103690004046FFF7F5F9200203958DE85100CDE98A
:1036A000047469464046FFF7EBF9ADF818504FF641
:1036B000FF70CDE907502B4C06A920460995FFF76E
:1036C000A5FB206820F08000206000212046FFF745
:1036D000F3FBA06820F08000A060A6133246012111
:1036E0002046FFF769FA002201212046FFF750FB30
:1036F000A5022A4601212046FFF79CFA0222012159
:103700002046FFF70DFB324610212046FFF754FA02
:10371000002210212046FFF73BFB2A4610212046BD
:10372000FFF788FA022210212046FFF7F9FA324605
:10373000A61431462046FFF73FFA002231462046C4
:10374000FFF726FB2A4631462046FFF773FA02228E
:1037500031462046FFF7E4FA0CB0BDE8F0810000E6
:10376000000400480008004010B586B014216846E7
:10377000FCF7A1FE2020FFF777F9C720ADF8000085
:10378000002001904FF6FF70094C029069462046D8
:10379000FFF73CFB206820F08000206000212046DD
:1037A000FFF78AFBA06820F08000A06006B010BD83
:1037B0000014004010B500220F49104801F0E2FB50
:1037C00008B1FCF7F6FF0E490C4801F0B2FD08B154
:1037D000FCF7EFFF0B49094801F020FA08B1FCF7AC
:1037E000E8FF064801F020FE002803D0BDE81040A5
:1037F000FCF7DFBF10BD000054000020E8200020CF
:1038000010020020A8000020FEE7FEE730B500F01F
:103810000703C3F10704042C00D90424181D07284A
:1038200001D2002300E0DB1E012505FA04F0401E52
:10383000084098409D406D1E1540284330BD000053
:10384000142002F04FFD31485522AA210270BB25F9
:103850004170CC2685700027C67002234FF47A741D
:1038600003EB470C00EB47087F1CBFB2A8F804C06D
:10387000A742F5D380F8D41780F8D5274FF0660912
:1038800080F8D697772780F8D77721484FF0000C3B
:10389000027041708570C6700CF1010800EB4C0C91
:1038A000ACF804801FFA88FCA445F5D380F8D4173F
:1038B00080F8D52780F8D69780F8D7771548CC467A
:1038C000027041708570C6705FF0000503EB45061D
:1038D00000EB45086D1CADB2A8F80460A542F5D315
:1038E00080F8D41780F8D52780F8D6C70A4C80F81E
:1038F000D7774FF0FF354FF4FB662946012003F0E0
:1039000057F831466068FCF7BFFEF6E71C0300205D
:10391000F40A0020CC120020000000202DE9F84F0E
:10392000044640F68F7A40F2064B48F60F784FF087
:103930000009B5E1B0F8441011F00F053AD030F8A5
:10394000256031047DD530F8251001EA0A0141F0E7
:10395000800120F8251005EB850004EBC00797F8DF
:103960005C0107F5A87700286CD0F87802286AD0A7
:103970003978226832F8210048F68F73184048F2EF
:10398000C003184322F821003878D4F800C03CF86E
:1039900020104904BCF8501001EB0C027ED540F217
:1039A000024101EBC000105A8005800D009076D0D6
:1039B0003A89D0E0C9062AD4018801EA080141F415
:1039C00000410180206804F11005B0F85010227CFD
:1039D000014440F2024000EBC200085AC0F3090063
:1039E000E062616A0844606200212046FDF720F928
:1039F000207B00289DD0A86900289AD1207B40F028
:103A000080012068A0F84C1084F80C9048E10188EF
:103A100004F5A8750A051ED5B0F850102A7801449F
:103A20000BEBC200085A04F52671C0F30903EB61E1
:103A3000EA88206802F017FB2168088800EA0A007B
:103A400002E0A4E068E077E040F0800008802046D3
:103A5000FDF751FD24E10904D8D5018801EA0A01E6
:103A600041F0800101802068B0F850100A182878D1
:103A70000BEBC000105A83059B0DEB610DD06969FB
:103A800059B1EA88206802F0EEFAE96968690844E9
:103A9000686100212046FDF7D4F801E053E051E0D1
:103AA000206801880A05B1D4C1F301310329ADD0E2
:103AB000B0F850100844B0F80614C1F30901A0F89A
:103AC0000614296900F206403E2909D94A09C906A7
:103AD00000D1521E01884FF4004343EA822209E0DC
:103AE000B1B14A08C90700D0521C01884FF6FF73D4
:103AF00003EA822211430180216808884BF68F7205
:103B0000104080F4405048F2800210430880C7E023
:103B1000018841F40041EEE72068B0F850103B788E
:103B20000A180BEBC301515A8905890D009117D072
:103B3000FA887969009B11E0324639462046FDF744
:103B4000DCF800900CE00BEBC000105A8005800DF3
:103B5000009005D07A8903466046796902F083FABD
:103B6000F96900980844F861796900980844786117
:103B7000B86918B139690098814204D9397820466A
:103B8000FDF75FF803E03946206801F0E9FF3006F1
:103B90002DD505EB850004EBC001206830F8252009
:103BA00002EA080242F4004220F82520C87C1031C5
:103BB00001281DD0F0056FD42268B2F85000831898
:103BC0000A7840F2024000EBC200185A8A69C0F33A
:103BD0000900824258D9121A8A6157D04A690244B0
:103BE0004A61CA691044C861206801F0B9FF57E012
:103BF000C1F818900A7B48461AB3720622D54A7853
:103C000012B1012A14D041E02068B0F850201044CD
:103C10000A7800EBC200B0F80224C2F30902A0F84F
:103C20000224B0F8022442F40042A0F802242DE05D
:103C30002268B2F850301A440B7802EBC302A2F8A3
:103C4000020423E04B78226813B1012B13D01DE04E
:103C5000B2F8500010440A7800EBC200B0F8062415
:103C6000C2F30902A0F80624B0F8062442F4004288
:103C7000A0F806240AE0B2F850301A440B7802EBA0
:103C8000C302A2F8060401E0C1F8189009782046A2
:103C9000FCF7CEFF04E0FFE732462046FDF79BF835
:103CA0002068B0F8441009043FF544AE0020BDE898
:103CB000F88FF8B515460E460B46009204460022D2
:103CC0004FF4C05100F01AF888B933460022802121
:103CD0002046009500F082F848B9334600224FF4A0
:103CE000C0612046009500F009F8002804D0206E3D
:103CF00040F0200020660320F8BD00002DE9FE4FB3
:103D00004FF0000A984617460E4604460C9D8DF863
:103D100004A0FCF77BFE411BA8EB0105FCF776FE37
:103D2000814620684FF4C06B0C3002902A4800682E
:103D3000C0EBC00000EB8000000D6843009043E042
:103D40005E4506D12FB9029800788DF804009DF8E1
:103D50000400B8F1FF3F37D0FCF758FEA0EB090094
:103D6000A84203D215B1009858B32BE020684168EF
:103D700021F0E00141606068B0F5827F0BD1A0685E
:103D8000B0F5004F02D0B0F5806F04D12068016813
:103D900021F040010160A06AB0F5005F09D1206800
:103DA000016821F4005101602068016841F400516C
:103DB0000160012084F85D0084F85CA00320BDE868
:103DC000FE8F0025401E0090206880683040B84279
:103DD000B6D10020F3E70000C80000202DE9F84329
:103DE0001E46914688460446089DFCF70FFE401B80
:103DF000351AFCF70BFE074625480068C0F3CB30A8
:103E0000684338E0701C37D0FCF700FEC01BA842A6
:103E100003D215B1009860B32CE02068416821F00E
:103E2000E00141606068B0F5827F0BD1A068B0F519
:103E3000004F02D0B0F5806F04D12068016821F0F6
:103E400040010160A06AB0F5005F09D120680168F7
:103E500021F4005101602068016841F400510160C3
:103E6000012084F85D00002084F85C000320BDE898
:103E7000F8830025401E00902068816838EA010020
:103E800004D000214945BDD10020F0E70121F9E728
:103E9000C80000200178407841EA00207047000007
:103EA00070B54FF08064204B2514204A4FF09041AC
:103EB0000B2815D2DFE800F014060B10151A1F238B
:103EC000272D32004FF40060186040030CE04FF4DF
:103ED00080708861400407E04FF4007088618C6155
:103EE00070BD8D614FF00040886170BD4FF400409F
:103EF000886100010BE008201060146070BD15603F
:103F00004FF0805003E04FF4805010604004106088
:103F100070BD4FF4005010601C6070BD1D604FF00C
:103F20000060186070BD00001808004818040048C0
:103F3000C2B04FF4807101A8FCF7BDFA24480024F8
:103F400000680090E1B20C220020FCF73BFB641CEF
:103F5000A4B2062CF6D3642002F0C4F90024E1B226
:103F60000C220120FCF72EFB641CA4B2062CF6D315
:103F7000642002F0B7F9322204210020FCF722FB72
:103F8000642002F0AFF9FF2205210020FCF71AFBA4
:103F9000642002F0A7F900210E48FEF7A7FC0D4CA3
:103FA00040F27D202168486304212046FEF79EFCF4
:103FB000216841F262108863074C4020A0616420B0
:103FC00002F090F94020A062642002F08BF9F4E73F
:103FD00084770008081B00200008004810B5502016
:103FE00080F31188BFF34F8FBFF36F8F03F076FA22
:103FF00018B104494FF080500860002080F3118808
:1040000010BD000004ED00E010B594B03821684602
:10401000FCF751FA14210EA8FCF74DFA0020FDF729
:1040200099FA212000904FF48030019001200690F1
:1040300002200324CDE907046421CDE909010B9096
:104040000C900D906846FDF785FD08B172B6FEE74D
:104050000F20CDE90E040020109011901290042141
:104060000EA8FDF721FC002801D072B6FEE714B0BF
:1040700010BD00000248016841F470010160704702
:1040800088ED00E02DE9F0414FF080452869574F59
:1040900010F0010F05D06FF001002861F86C401C92
:1040A000F86428694FF00108C0F38000002650B37F
:1040B000701F28614E4C207B10B1012823D10AE0EB
:1040C000A96B28462160A66000221021FEF7F0FDB2
:1040D00084F80C8017E0A96B28466160616822684B
:1040E000891A21612169002902DA2169491E2161A9
:1040F00002221021FEF7DCFD26732069002281B226
:10410000786B02F049F928692C46C0F3C00098B3D7
:104110006FF008002061364D1435287B4FF4807114
:1041200010B1012828D109E0E26B20462A60AE6078
:104130000022FEF7BDFD85F80C801DE0E26B2046F5
:104140006A606A682B68D21AAB6802EB03422A6184
:104150006A682B68D21A2A612A69002A02DA2A6957
:10416000521E2A610222FEF7A3FD2E732869002247
:1041700081B2B86B02F010F921692046C1F3001139
:10418000002931D06FF010010161194D28352A7BCB
:104190004FF4805102B3012A26D1026C6A606A682A
:1041A0002B68D21AAB6802EB03422A616A682B685B
:1041B000D21A2A612A69002A02DA2A69521E2A6161
:1041C0000222FEF775FD2E732869002281B2F86B7A
:1041D000BDE8F04102F0E0B8026C2A60AE60002257
:1041E000FEF766FD85F80C80BDE8F0810000002038
:1041F000E00200202DE9F04771480169714E11F08D
:10420000010F05D06FF001010161716C491C7164EF
:10421000814600694FF00108C0F340004FF6FF7778
:10422000002560B3E91E4846C9F8101066490A7BAC
:1042300012B1012A23D10AE0426B0C460A608D605C
:1042400000220121FEF734FD84F80C8017E0426B58
:104250000C464A604A680B68D21A0A61096900294B
:1042600002DA22693A44226102220121FEF720FD8E
:1042700025732069002281B2B06902F08DF8D9F867
:104280001000C0F3800070B36FF004014846C9F815
:1042900010104D4914310A7B12B1012A23D10AE0D2
:1042A000826B0C460A608D6000221021FEF700FD33
:1042B00084F80C8017E0826B0C464A604A680B68F1
:1042C000D21A0A610969002902DA22693A44226194
:1042D00002221021FEF7ECFC25732069002281B236
:1042E000F06902F059F8D9F81000C0F3C00090B39B
:1042F0006FF008014846C9F81010334A2832137B82
:104300004FF4807113B1012B25D109E0C36B144622
:10431000136095600022FEF7CBFC84F80C801AE055
:10432000C36B92465360536814681B1B1361126978
:10433000002A04DADAF810303B44CAF810300222BE
:10434000FEF7B6FC8AF80C50DAF81000002281B2B1
:10435000306A02F021F8D9F810104846C1F3001174
:1043600000292AD06FF010010161174C3C34227BE8
:104370004FF48051CAB1012A1FD1026C6260626899
:104380002368D21A22612269002A02DA22693A4499
:1043900022610222FEF78CFC25732069002281B283
:1043A000706ABDE8F04701F0F7BF026C2260A560BB
:1043B0000022FEF77DFC84F80C80BDE8F087000049
:1043C0000004004000000020540200202DE9F047C6
:1043D000574D2869574F10F0010F05D06FF00100BD
:1043E0002861B86C401CB86428694FF00108C0F31C
:1043F00040004FF6FF79002658B3F01E28614E4C5E
:10440000207B10B1012824D10AE0696B2846216085
:10441000A66000220121FEF74BFC84F80C8018E016
:10442000696B2846616061682268891A2161216987
:10443000002903DA226902EB09012161022201212C
:10444000FEF736FC26732069002281B2B86A01F0BB
:10445000A3FF28692C46C0F3800068B36FF0040006
:104460002061354D1435287B10B1012824D10AE094
:10447000A16B20462960AE6000221021FEF718FCD7
:1044800085F80C8018E0A16B2046696069682A688D
:10449000891A29612969002903DA2A6902EB0901CD
:1044A000296102221021FEF703FC2E7328690022E5
:1044B00081B2F86A01F070FF21692046C1F3001152
:1044C000002932D06FF0100101611B4D28352A7B85
:1044D0004FF480510AB3012A27D1026C6A606A68DE
:1044E0002B68D21AAB6802EB03422A616A682B6818
:1044F000D21A2A612A69002A03DA2B6903EB09021E
:104500002A610222FEF7D4FB2E732869002281B2B1
:10451000386BBDE8F04701F03FBF026C2A60AE6027
:104520000022FEF7C5FB85F80C80BDE8F08700008F
:104530000008004000000020A40200200148FDF710
:10454000B4BF0000A01B00200648016911F0010F54
:1045500006D06FF0010101610348016D491C01653E
:104560007047000000140040000000202DE9F043D7
:104570000268264B264D274E274C4FF08049984223
:1045800007D0484505D0A84203D0B04201D0A04290
:1045900003D122F070074A683A43204FDFF880C009
:1045A000DFF8808098420DD048450BD0A84209D052
:1045B000B04207D0A04205D0B84203D0604501D038
:1045C000404503D122F44075CA682A434D6922F060
:1045D00080022A4302608A68C2620A688262984244
:1045E00007D0A04205D0B84203D0604501D0404575
:1045F00001D109690163012141610169C90703D042
:10460000016921F001010161BDE8F083002C014046
:104610000004004000080040003401400040014018
:10462000004401400048014010B501F01F03012182
:10463000046A99408C430462016A9A401143016202
:1046400010BD00002DE9F043056A026A22F0010264
:104650000262436882691C4C25F0020522400C6806
:1046600022F0030214438A68194E2A43174D194F4A
:10467000DFF864C0DFF86490A84207D0B04205D0EC
:10468000B84203D0604501D0484506D122F0080861
:10469000CA6842EA080222F00402A84207D0B042E7
:1046A00005D0B84203D0604501D0484505D14D69D9
:1046B00023F440731D438B692B4343608461496835
:1046C00041630262BDE8F0838FFFFEFF002C0140D2
:1046D00000340140004001400044014000480140D6
:1046E000F0B5056A026A22F010020262426883692C
:1046F000194C1B4E23400C6823F4407343EA0424F6
:1047000025F020038D6843EA0513144DA84201D01B
:10471000B04206D1CF6823F0800343EA071323F0A9
:104720004003A8420AD0B04208D00E4DA84205D09E
:104730000D4DA84202D00D4DA84207D14D6922F47B
:10474000406242EA85028D6942EA850242608461E4
:10475000496881630362F0BDFF8FFFFE002C0140BA
:104760000034014000400140004401400048014045
:10477000F0B5056A026A22F4807202624368C26977
:10478000194C1B4E22400C6822F00302144325F4FE
:1047900000728D6842EA0522144DA84201D0B04251
:1047A00006D1CF6822F4006242EA072222F4806236
:1047B000A8420AD0B04208D00E4DA84205D00E4DF6
:1047C000A84202D00D4DA84207D14D6923F44053B1
:1047D00043EA05138D6943EA05134360C4614968E0
:1047E000C1630262F0BD00008FFFFEFF002C01409C
:1047F00000340140004001400044014000480140B5
:10480000F0B5056A026A22F4805202624268C36906
:10481000194C1B4E23400C6823F4407343EA0424D4
:1048200025F400538D6843EA0533144DA84201D0A6
:10483000B04206D1CF6823F4004343EA073323F4A0
:104840008043A8420AD0B04208D00E4DA84205D0FD
:104850000D4DA84202D00D4DA84207D14D6922F45A
:10486000404242EA85128D6942EA85124260C46183
:10487000496801640362F0BDFF8FFFFE002C014018
:104880000034014000400140004401400048014024
:1048900030B5056A026A22F4803202624268036D12
:1048A000114C23400C681C4325F400330D8943EA66
:1048B00005430E4DA8420BD00D4DA84208D00D4D1A
:1048C000A84205D00C4DA84202D00C4DA84204D1FC
:1048D0004D6922F4803242EA05224260046549684B
:1048E0008164036230BD00008FFFFEFF002C014099
:1048F00000340140004001400044014000480140B4
:1049000030B5046A026A22F4801202624268036DC2
:10491000114D24F400142B400D6843EA05230D8942
:1049200044EA05540D4DA8420BD00D4DA84208D0C5
:104930000C4DA84205D00C4DA84202D00B4DA84208
:1049400004D14D6922F4802242EA85224260036547
:104950004968C164046230BDFF8FFFFE002C014036
:104960000034014000400140004401400048014043
:1049700010B50A46024903A000F0D4FA004810BD61
:10498000B823002043444320436F6E6669670000EC
:104990002DE9F0410C46D0F8C422D0F8BC12E9B1A0
:1049A00004EB840600EB86050027AB693BB102EB04
:1049B000C602126AB3FBF2F602FB163282B1C1F8EC
:1049C0001472D0F8C00203692BB1D1F80802224654
:1049D00001F5047198470020BDE8F0810320FBE752
:1049E00000231A462146AF6100F084FCF3E770B55E
:1049F000D0F8BC4205466CB100F073FBC4F80C0261
:104A0000D5F8C012D4F80402CA6804F503719047BF
:104A1000002070BD032070BD70B50446812100F0F8
:104A2000CDFA002525870121204600F0C7FAA4F819
:104A300078518221204600F0C1FAA4F84C50A4F825
:104A40004E50D4F8BC0248B1D4F8C00204F52F741B
:104A500040688047206800F03CFE2560002070BD63
:104A600012200880004870477800002010B5D0F868
:104A7000BC4284B1D0F8C01259B194F80002FF28AA
:104A800007D08B6894F8012221469847FF2084F8CC
:104A90000002002010BD032010BD00000A2101808B
:104AA00000487047380100204321018000487047CA
:104AB0008801002043210180004870474401002004
:104AC0004321018000487047CC0100202DE9F047C8
:104AD00004464FF4077000F0FDFD05004FF000079D
:104AE00035D0C4F8BC52207C4FF010084FF4007948
:104AF000012680B3402302228121204600F047FB9B
:104B00002687402302220121204600F040FBA4F822
:104B10007861A4F84E80082303228221204600F009
:104B200036FBA4F84C60D4F8C00200688047C5F892
:104B30001472C5F81872207CD5F80422A8B140235D
:104B40000121204600F02FFB0020BDE8F087022065
:104B5000C4F8BC72F9E7FFE74B46022281212046E8
:104B600000F015FB26874B46CCE74B46E8E70000F4
:104B700010B50A46024903A000F0D4F9004810BD60
:104B8000B823002043444320496E74657266616314
:104B90006500000004200880004870477400002071
:104BA00010B50A46024903A000F0BCF9004810BD48
:104BB000B823002053544D6963726F656C6563744C
:104BC000726F6E696373000010B50A46024903A054
:104BD00000F0A8F9004810BDB823002053544D330D
:104BE00032205669727475616C20436F6D506F721C
:104BF0007400000010B5D0F8BC1251B1027C002A3C
:104C0000D1F8042207D04023012100F0CCFA002083
:104C100010BD032010BD4FF40073F5E719B1C0F8C3
:104C2000C0120020704703207047000010B51A2002
:104C300008800A480168001D0468001D0068081803
:104C400009D008220649FDF7DBFE05490422103190
:104C50002046FDF7D5FE0248801E10BD9075FF1F4F
:104C60008E000020D0F8BC0218B1C0F80412002059
:104C7000704703207047D0F8BC0228B1C0F810225A
:104C8000C0F8081200207047032070472DE9FC414E
:104C90000646D0F8BC7200200C468DF80000ADF836
:104CA0000400054637B1207810F0600128D0202993
:104CB00044D102E00320BDE8FC81E288C2B10006D5
:104CC00060780AD5D6F8C0128B6839469847E288D2
:104CD000072A00D90722394628E087F80002A07980
:104CE00087F80102E2883946304600F06CF82AE085
:104CF000D6F8C012607800228B682146984722E0DF
:104D0000607830B101281ED00A2809D00B2815D1AF
:104D100010E096F89C02032810D1022201A905E0B8
:104D200096F89C02032809D101226946304600F01A
:104D300064F808E096F89C02032804D02146304627
:104D400000F036F803252846B5E710B5D0F8BC12B8
:104D5000012219B1D1F8143213B10FE0032010BDB4
:104D60000122C1F81422D1F81022C262D1F8103207
:104D7000D1F80822812100F0BDFA0022104610BDB2
:104D800010B5D0F8B8220AB152689047002010BD83
:104D9000134610B50A46002100F005FA002010BDA8
:104DA000134610B50A46002100F0A4FA002010BDF9
:104DB00010B50446802100F082FA2046BDE810407C
:104DC000002100F07CBA10B50323C0F89432C0F87B
:104DD00058211346C0F85C210A46002100F0E3F98F
:104DE000002010BD10B50521C0F8941200231A460A
:104DF000194600F0D8F9002010BD10B50223C0F804
:104E0000943282611346C2610A46002100F072FAB0
:104E1000002010BD10B50421C0F8941200231A46DA
:104E2000194600F067FA002010BDF8B504460020CE
:104E3000ADF8000048880D46010A062947D006DC77
:104E400001290FD0022912D0032962D11DE00729C0
:104E500046D00F295DD1D4F8B402C26920E069467A
:104E600090473BE0D4F8B412207C0A68F7E7207C36
:104E700002260028D4F8B80205D0C16A68468847DF
:104E80000146467036E0816AF8E7C0B2062840D293
:104E9000DFE800F003090D111519D4F8B4024268D7
:104EA000B2B3207CDBE7D4F8B4028268F8E7D4F828
:104EB000B402C268F4E7D4F8B4020269F0E7D4F8A7
:104EC000B4024269ECE7D4F8B4028269E8E7207CD6
:104ED000F0B9D4F8B802416B68468847014609E04A
:104EE000207CA8B9D4F8B802016B6846884701460F
:104EF00007204870EA888AB1BDF8000040B18242BC
:104F000000D90246ADF800202046FFF776FFF8BD35
:104F1000FFE729462046FFF74BFFF8E72046FFF75B
:104F200079FFF4E770B5002300281ED00025044661
:104F300002E06D1CEDB2641C2678002EF9D102242B
:104F400004EB450414801278CA545B1C0322CA5433
:104F500000245B1C06E0CA545B1CDAB28C54521C61
:104F6000D3B2401C0278002AF5D170BD01004FF089
:104F7000000004D0012901D0022901D0032070478C
:104F80000120704778B10023C0F8B832C0F8C032B1
:104F9000C0F8CC3209B1C0F8B412012180F89C12DB
:104FA000027000F0A3B80320704710B5D0F8C40217
:104FB000FBF776FEBDE81040FFF7D8BF10B5D0F87C
:104FC000C402FBF748FEBDE81040FFF7CFBF70B545
:104FD0001646044621B194F89C02032841D048E0CB
:104FE000D4F8941204F114000025022932D1D0E93A
:104FF00002318B4206D95A1A826031462046FFF7A9
:10500000CFFE0FE0994214D14068884211D3D4F802
:10501000981288420DD2002211462046FFF7C0FEAA
:10502000C4F8985200231A461946204600F0BBF8EF
:1050300010E094F89C02032805D1D4F8B802C168A6
:1050400009B1204688478021204600F038F92046E3
:10505000FFF7C8FE94F8A00201280AD184F8A052F4
:1050600007E0D4F8B80242691AB1204690470028F8
:1050700000D1002070BD10B51346044621B194F84C
:105080009C02032823D02AE0D4F8941204F5AA70D5
:10509000032924D1D0E9021291420AD98A1A8260E6
:1050A000C068824200D3024619462046FFF770FED0
:1050B00015E094F89C02032805D1D4F8B8020169E0
:1050C00009B1204688472046FFF7A4FE07E0D4F840
:1050D000B80282691AB120469047002800D100200A
:1050E00010BDD0F8C402FCF716B8000010B51E4978
:1050F0000446C1F8D802C0F8C4121C480860082051
:10510000087102204871C8710020087248728872C4
:10511000C8720846FCF736F908B1FBF74AFB0022D3
:10512000D4F8C4021823114604F53174FBF762FD6C
:105130005823002280212068FBF75CFDC023002259
:1051400081212068FBF756FD4FF48873002201216E
:105150002068FBF74FFD4FF4807300228221206806
:10516000FBF748FD002010BD0C1E0020005C004035
:105170000A0601F07F01D0F8C40201EB810100EBC7
:10518000C10001D5807C704790F85201704710B57E
:105190001C461346D0F8C4022246FBF7C5FFBDE803
:1051A0001040FFF7E3BE10B5D0F8C402FBF7E8FFEC
:1051B000BDE81040FFF7DABE70B50125044680F85F
:1051C0009C520020C4F894026060C4F8A402D4F891
:1051D000B802E0B1D4F8BC1221B1426812B100218A
:1051E000204690470022402311462046FFF7CFFF7C
:1051F0004026A4F864513346002280212046C4F89A
:105200006061FFF7C4FFA5840020266270BD032003
:1052100070BD90F89C12042903D190F89D1280F87B
:105220009C120020704710B5D0F8B81221B190F848
:105230009C22032A02D004E0032010BDC96901B1F9
:105240008847002010BD01740020704710B5D0F8C9
:10525000C402FCF73DF9BDE81040FFF787BE70B50A
:10526000044600F2AA20054600F04DF80120C4F8DB
:105270009402B4F8B002C4F8980294F8AA0210F0AC
:105280001F010AD001290ED0022912D000F080019E
:105290002046BDE8704000F012B829462046BDE81F
:1052A000704000F0C3B829462046BDE8704000F0C9
:1052B000E7B929462046BDE8704000F041B910B575
:1052C000D0F8C402FBF773FFBDE81040FFF74EBEF5
:1052D00010B5D0F8C402FCF715F9BDE81040FFF78F
:1052E00045BE90F89C1280F89D12042180F89C1213
:1052F0000020704710B5D0F8C402FBF787FFBDE867
:105300001040FFF733BE70B5054611F8010B287049
:10531000087868704C1C2046FEF7BCFD6880A41C11
:105320002046FEF7B7FDA880A01CFEF7B3FDE8807D
:1053300070BD38B504460020ADF8000049B1C4F88E
:10534000B812C96A19B168468847C4F8CC0200206F
:1053500038BD032038BD02460320D2F8B832002BF6
:1053600002D01B6810461847704700002DE9F04135
:105370000F462C4E8978002504463170012906D944
:1053800039462046FFF714FD0320BDE8F08194F86C
:105390009C0202280CD003281DD039462046FFF776
:1053A00007FD31782046FFF7EBFC03252846ECE7A4
:1053B00099B320466160FFF7CEFF050004D039465F
:1053C0002046FFF7F5FCF1E72046FFF723FD032019
:1053D00084F89C02EAE74FF00208C1B16068884295
:1053E0001BD0C1B22046FFF7CBFC3178204661606C
:1053F000FFF7B1FF050010D039462046FFF7D8FC73
:1054000021792046FFF7BCFC84F89C82CEE784F823
:105410009C8220466160FFF7B3FC2046FFF7FAFC50
:10542000C4E7000034010020FFF752BF2DE9F0412E
:105430000A78002512F0600208D0202A01D0402A04
:1054400071D1D0F8B8229268904731E04B780022B1
:1054500001260A2B67D2DFE803F0415E6658660832
:1054600005662D29FFF7E1FC5FE004468888D8B97E
:10547000C888C8B94888802816D200F07F0794F8F9
:105480009C02032810D084F89E7239462046FFF70C
:10549000DDFE2046FFF7BEFC1FB1022084F89C020F
:1054A00043E084F89C6240E020463CE0FFF75EFF6A
:1054B00005463AE0CB88012B35D190F89C32012B80
:1054C00004D0022B02D0032B2DD104E082600122F4
:1054D00000F1080116E00122011D13E090F89C2262
:1054E000012A03D0022A01D0032A1CD1CA88022A29
:1054F00019D1C660D0F8A41209B10321C1600222FB
:1055000000F10C01FFF779FC0FE0498801290CD16B
:10551000C0F8A46211E090F89C32012B08D0022B55
:1055200006D0032B04D0FFF743FC2846BDE8F081EA
:1055300049880129F9D1C0F8A422FFF76BFCF4E7F0
:105540002DE9F0410D46044628780026097910F02F
:1055500060000BD0202801D040286DD1D4F8B802CB
:105560002946826820469047064686E06878A8B3B8
:10557000012822D003287CD194F89C02022802D072
:10558000032876D10BE0002973D0802971D0204602
:10559000FFF795FE80212046FFF791FE6DE06888B9
:1055A00038B931B1802904D0E88810B92046FFF716
:1055B00086FE2046FFF72EFC5FE094F89C0202284E
:1055C000E1D0032855D16888A8BB480602D0204600
:1055D000FFF7EBFC2046FFF71DFCBFE7FFE794F861
:1055E0009C020027022802D0032842D111E009B111
:1055F00080293ED1080601F07F0000EB800004EB1B
:10560000800101D5143101E001F5AA7102220F6079
:105610002BE0080601F00F0000EB800004EB800097
:105620000BD5808C40B101F07F0000EB800004EBD3
:10563000800514350CE020E01BE0B0F86401C0B137
:1056400001F07F0000EB800004EB800505F5AA75F2
:1056500041B1802906D02046FFF78AFD10B1012014
:10566000286000E02F60022229462046FFF7C5FB94
:1056700003E029462046FFF79BFB3046BDE8F0815A
:1056800070B50646087800240D4610F0600003D07F
:10569000202801D0402817D196F89C02012803D079
:1056A000022801D003280FD1287901280CD8D6F878
:1056B000B8028268304690470446E888204306D105
:1056C0003046FFF7A7FB02E03046FFF771FB2046AC
:1056D00070BD704700487047EC1B00202DE9F04773
:1056E0000C78002630F8243048F68F121340CA7820
:1056F000002A78D0012A7CD0022A02D0032A75D051
:10570000012648F28002134320F824300D7830F847
:10571000253048F68F7423402B43134320F825305F
:105720000D7B48F2C00948F6BF734CF2800A4BF675
:105730008F77EDB3CD7891F800C0022D30F82C5062
:105740007DD048F68F6805EA0805154320F82C50EF
:10575000B0F8505091F800C0054405EBCC05B1F805
:1057600008C02CF0010CA5F800C4B0F8505091F816
:1057700000C0054405EBCC05B1F80AC02CF0010CC3
:10578000A5F804C44D78002D7ED00D7830F825C0E2
:105790005FEA4C4C07D530F825C00CEA040C4CEA03
:1057A0000A0C20F825C091F800C030F82C5000E019
:1057B00022E06D0606D530F82C50254045EA090553
:1057C00020F82C50CC780D78012C30F8254004EAD4
:1057D00003047CD084F02003134320F82530C1E07B
:1057E00001E006E002E043F400738AE743F4C0639B
:1057F00087E743F4806384E74D784DB3B0F85050A9
:105800000F78054405EBC705CF8827F00107A5F8F9
:1058100000740F7830F827506D0606D530F8275001
:10582000254045EA090520F82750CC78012C07D0FF
:105830000C7830F82410194081F0200104E064E075
:105840000C7830F824101940114320F8241090E00F
:10585000B0F850300D78034403EBC503CD8825F034
:105860000105A3F80454B0F850300D78034403EB5D
:10587000C503B3F80654C5F30905A3F806540D692A
:1058800003F206433E2D00E045E00BD94FEA551CDC
:10589000ED0601D1ACF1010C1D884FF4004848EA37
:1058A0008C2C0BE035B34FEA550CED0701D00CF111
:1058B000010C1D884FF6FF7808EA8C2C45EA0C0590
:1058C0001D800D7830F825305B0408D500E046E0F7
:1058D00030F82530234043EA0A0320F825300978C0
:1058E00061B130F821303B4083F40053134320F87A
:1058F00021303EE01D8845F40045E1E7018839404C
:1059000081F440511143018033E0254048F2801872
:1059100045EA08051AE791F800C030F82C506D04EC
:1059200006D530F82C50254045EA0A0520F82C50C1
:1059300091F800C030F82C506D0606D530F82C5088
:10594000254045EA090520F82C500D7830F825400F
:105950003C4084F44054144320F8254070E714433D
:1059600020F825400B7830F823103940114320F8F7
:1059700023103046BDE8F0872DE9F04391F80C8004
:105980004F780A7848F6BF7C4BF68F7948F280034F
:1059900048F2C0054CF2800648F68F74B8F1000F4B
:1059A00028D0002F30F822704FEA474748D0002F08
:1059B00005DA30F822702740374320F822700A7841
:1059C00030F822707F0605D530F8227027402F432B
:1059D00020F822700D7830F825202240324320F83C
:1059E00025200C7830F8242002EA0C021A4320F813
:1059F00024201AE07FB130F82260760605D530F811
:105A0000226026402E4320F822600A7830F82210C7
:105A100001EA0C010EE030F822506D0405D530F893
:105A200022502540354320F822500A7830F82210C1
:105A300001EA0901194320F822100020BDE8F08393
:105A4000002F05DA30F822702740374320F8227003
:105A50000A7830F82260760605D530F822602640B4
:105A60002E4320F822600E7830F8262022402A4368
:105A700020F826200C7830F8242002EA09021A4384
:105A800020F82420C1E730F8581F41F4004101807C
:105A900000207047012120F8401F002101808180F3
:105AA00001820846704730F8401F4BF680729143E0
:105AB00001800020704730B50A7BB2BB4A7848F6B7
:105AC0008F7548F28004C2B10B7830F8232052065B
:105AD00007D530F823202A4048F2C0052A4320F891
