:020000040800F2
:10000000985F0020B10200089F34000867300008A4
:100010009D340008A10E0008935400080000000061
:10002000000000000000000000000000F1010008D6
:10003000190F0008000000004D020008DD3B000819
:10004000CB020008CB020008CB020008CB0200085C
:10005000CB020008CB020008CB020008CB0200084C
:10006000CB020008CB020008CB020008CB0200083C
:10007000CB020008CB020008CB020008CB0200082C
:10008000CB02000800000000CB020008CB020008F1
:1000900025540008CB020008CB020008CB02000860
:1000A000CB020008CB020008793C0008CB02000814
:1000B000CB020008CB020008CB020008CB020008EC
:1000C000CB020008CB020008CB020008CB020008DC
:1000D000CB020008CB020008CB020008CB020008CC
:1000E000CB020008CB020008CB020008CB020008BC
:1000F000CB020008CB020008CB0200080000000081
:1001000000000000CB02000800000000CB02000845
:10011000CB02000800000000CB020008CB02000860
:10012000CB020008CB020008CB020008CB0200087B
:10013000CB0200080000000000000000CB02000815
:10014000CB020008CB020008000000000000000005
:10015000000000000000000000000000000000009F
:10016000000000000000000000000000CB020008BA
:10017000CB020008000000000000000000000000AA
:1001800000000000CB02000800000000000000009A
:10019000000000000000000000000000000000005F
:1001A0000000000000000000CB020008CB020008A5
:1001B000CB020008CB020008CB02000800000000C0
:1001C00000000000CB02000800000000000000005A
:1001D000CB020008CB020008DFF810D000F078FB5B
:1001E00000480047D1640008AFF30080985F00200A
:1001F0002C4B19680868B0E8F04F80F30988BFF30A
:100200006F8F4FF0000080F31188704700000000EE
:1002100008480068006880F308884FF0000080F309
:10022000148862B661B6BFF34F8FBFF36F8F00DFE4
:1002300000BF00BF08ED00E0DFF80C00016841F4EA
:1002400070010160704700BF88ED00E0EFF30980A6
:10025000BFF36F8F134B1A681EF0100F08BF20ED0D
:10026000108A20E9F04F106009B44FF0500080F37D
:100270001188BFF34F8FBFF36F8F07F043F94FF033
:10028000000080F3118809BC19680868B0E8F04FD5
:100290001EF0100F08BFB0EC108A80F30988BFF37E
:1002A0006F8F7047A0000020EFF3058070470000BB
:1002B0000648804706480047FEE7FEE7FEE7FEE700
:1002C000FEE7FEE7FEE7FEE7FEE7FEE7693C000823
:1002D000D9010008202A04DB203A00FA02F10020AC
:1002E00070479140C2F1200320FA03F31943904074
:1002F0007047202A04DB203A21FA02F000217047DF
:1003000021FA02F3D040C2F120029140084319467D
:10031000704740EA01039B0703D009E008C9121F98
:1003200008C0042AFAD203E011F8013B00F8013BAF
:10033000521EF9D27047D2B201E000F8012B491EDB
:10034000FBD270470022F6E710B513460A46044672
:100350001946FFF7F0FF204610BD421C10F8011BA4
:100360000029FBD1801A70472DE9FE4F804681EAB3
:100370000300C00F0C46009021F0004123F000451F
:10038000B8EB0200A94105D24046214690461C46E2
:100390000B46024623F00040104347D0270DC7F319
:1003A0000A00C3F30A510290401A019040286BDA08
:1003B000C3F3130040F4801B0098924620B1002341
:1003C000D2EB030A63EB0B0B01985946C0F14002D4
:1003D0005046FFF77FFF06460D4650465946019AA4
:1003E00000F020F910EB08006141002487EA115267
:1003F00084EAE7731A4340D0009A62B3019A012A53
:100400004FEA075215DC001B61EB02014FF000427E
:1004100002EA0752CDE90042001C41F58011324644
:100420002B4600F057F903B0BDE8F08F4046214657
:10043000F9E7001B61EB0201001C41F58013001875
:100440005B412018A2F5001747EB030140EAD57085
:10045000B6196D4111E06D084FEA360645EAC075E0
:100460004FEA0752001B61EB0201001C41F58011AD
:1004700049084FEA30000019514132462B4603B07B
:10048000BDE8F04F00F017B90098012240000023AA
:10049000D0EB020263EBE073009821464FEAE07470
:1004A000B8EB000061EB0401E9E783F000435BE790
:1004B00081F0004158E72DE9FE4F81EA030404F082
:1004C000004421F0004100944FF0000B23F0004362
:1004D00050EA01045ED052EA03045BD0C3F30A542D
:1004E000C1F30A552C44A4F2F3340194A0FB025446
:1004F000C1F3130141F48011C3F3130343F48013D8
:1005000001FB024400FB034E840A970A44EA81542B
:1005100047EA8357A4FB076802958D0A05FB078508
:100520004FEA932C04FB0C542705029D4FEA065812
:1005300047EA1637B5EB08056EEB070C870E920EEF
:1005400047EA811742EA8312A7FB0201B6EB0B01CF
:1005500064EB00042B0D43EA0C335E1844EB1C5093
:10056000DA465146E7FB0201C5F313044FEA0B33A9
:1005700043EA14534FEA0432019C43EA0603A4F110
:100580000C040294009CCDE900B400F0A3F803B081
:10059000BDE8F08F00200146F9E700F0004230F09E
:1005A00000400AD0C10D01F56071C0F3160042EAA7
:1005B0000151C208400711437047002001467047AF
:1005C00001F0004330B421F0004150EA010206D0AE
:1005D0000A0DA2F56072C1F31301002A02DC30BCDF
:1005E00000207047440F44EAC104C100E01830BC49
:1005F00000EBC25000F028B830B50B460146002091
:100600002022012409E021FA02F59D4205D303FAD4
:1006100002F5491B04FA02F52844151EA2F1010255
:10062000F1DC30BD202A06DBCB17203A41FA02F07C
:1006300043EAE07306E041FA02F3D040C2F120023F
:1006400091400843194670470029A8BF7047401CD5
:10065000490008BF20F00100704710B4B0FA80FCD8
:1006600000FA0CF050EA010404BF10BC704749B115
:10067000CCF1200421FA04F411FA0CF118BF012185
:1006800021430843A3EB0C01CB1D4FEA00614FEA65
:10069000102042BF002010BC704700EBC350104434
:1006A0000029A4BF10BC7047401C490008BF20F0BF
:1006B000010010BC704710B5141E73F1000408DA75
:1006C000401C41F1000192185B411A4301D120F016
:1006D000010010BD2DE9F04D92469B4611B1B1FAD3
:1006E00081F202E0B0FA80F220329046FFF7F2FD8C
:1006F00004460F4640EA0A0041EA0B0153465A46B7
:10070000084313D0114653EA010019D0C8F1400242
:100710005046FFF7EEFD05460E4650465946424606
:10072000FFF7D8FD084305D0012004E020463946F4
:10073000BDE8F08D0020054346EAE0762C433743C0
:100740000A986305E40AA0EB08000022FD0A44EAC7
:1007500047540A3002D500200146E9E70105101987
:100760006941DDE9084500196941BDE8F04DA2E79E
:100770002DE9F04D81EA030404F0004B21F000451F
:1007800014464FF0000A23F0004150EA050220D041
:1007900054EA01021DD0C5F30A570246C5F31303FC
:1007A000C1F31300C1F30A5640F4801543F48013DB
:1007B000A7EB0608101BD64608F2FD3873EB0500C0
:1007C00002D308F1010801E092185B41B8F1000F73
:1007D00003DA00200146BDE8F08D00204FF48011BF
:1007E000064684460EE0171B73EB050705D3121B64
:1007F00063EB050306434CEA010C49084FEA30005D
:1008000092185B4150EA0107EDD152EA030012D081
:1008100082EA040083EA0501084305D0101BAB41BE
:1008200006D20122002306E000224FF0004302E03E
:100830006FF0010253101AEB06004CEB085110EB5D
:100840000A0041EB0B01BDE8F04DFFF734BF70B576
:1008500021F0004303430CD0C1F30A550024D5EB2B
:10086000040564EB0403D617AD1AB34102DB002084
:10087000014670BD201841EB025170BD0EB5C10F8D
:1008800080EAE0700844CA07002140F233438DE853
:100890000E000A460B46FFF71DFF03B000BD000027
:1008A00030B5041E71F1000404DB4FF000444042F7
:1008B00064EB0101141E73F1000405DB1C464FF0CC
:1008C0000043524263EB0403994208BF904230BD9B
:1008D000064C074D06E0E06840F0010394E807008D
:1008E00098471034AC42F6D3FFF77AFCC082000878
:1008F000E08200082DE9F04D00231A461B1A8A41B8
:1009000003DB00200146BDE8F08DC1F30A52C1F3BC
:10091000130141F480154FF0000BD10702D10018EC
:100920006D41521E0027044640F2FF11384601EB8C
:10093000620A3E468046024600204FF48011FFF7CF
:10094000D8FCC2197141BB1846EB0100B4EB030C93
:1009500075EB000C04D3E41A65EB000517460E4650
:10096000241908F101006D4180463428E3DDF919AE
:1009700046EB0600091BA84103D24FF0FF32134695
:1009800001E0002213461BEB070046EB0A51BDE8CD
:10099000F04DFFF790BE70B58C1810F8015B15F0A4
:1009A000070301D110F8013B2A1106D110F8012BE1
:1009B00003E010F8016B01F8016B5B1EF9D12B0706
:1009C00005D40023521E0DD401F8013BFAE710F8BC
:1009D000013BCB1A921C03E013F8015B01F8015BA9
:1009E000521EF9D5A142D8D3002070BD10B50446DF
:1009F000B622E02100F0D9F90A2000F091FA204651
:100A000000F04AF868B9607958280AD1204600F009
:100A100011F830B9032304220121204600F0EDF93A
:100A200008B1012010BD20460022BDE8104002217F
:100A300000F0DCB910B586B0044618236A46882158
:100A400000F08CF910B1012006B010BDBDF8000017
:100A5000E080BDF802002081BDF804006081BDF88F
:100A60000600A081BDF80800E081BDF80A002082E0
:100A7000BDF80C006082BDF80E00A082BDF8100029
:100A8000E082BDF812002083BDF814006083BDF839
:100A90001600A0830020D7E738B5044601236A4634
:100AA000D02100F05BF99DF80010617138BD0000A5
:100AB0002DE9FE4F04464FF080464FF0000092466D
:100AC0000F007062706A934D0DF104094FF0060833
:100AD00028604FF0F7008DF800007DD05FF0010036
:100AE00002F0C2FA642301226946206801F067FF20
:100AF000642342464946206801F0A2FE00286CD1DA
:100B0000706A2968401A68609DF804009DF8051015
:100B1000000340EA01109DF806109DF8082040EA05
:100B200011109DF80710E388090341EA02119DF8AE
:100B30000920B4F908C041EA1211CA10A2EB43021D
:100B4000C3EB21114943B4F90A3002FB0CF209133B
:100B5000D212594302EBA13101EB81028032121211
:100B600000EE102AB8EEC00A9FED6B2A2162C0EE9B
:100B7000020A00EE101AC4ED090AF8EEC00A9FED51
:100B8000670AB6EE001AB4F9161010EE810A00EEEC
:100B9000901AF8EEE00A20EE001A61EE200A9FEDAE
:100BA000601AB4F91410F0EE002A01EE901A60EE0B
:100BB000810AB4F91210F8EEE11A61EE801A41EEE2
:100BC000A20AF5EE001A60EEA10A01EE901AF8EE04
:100BD000E11ADFED542A01E02DE02AE0B4F910100B
:100BE00041EEA20A01EE901AF8EEE11A61EE801AC7
:100BF00061EE802ADFED4C1AB4F90E1003EE101AE4
:100C000062EEA12AA189B8EEC33A43EE002A22EE91
:100C1000A10AF7EE001A40EE011A00EE101AB8EE23
:100C2000400A61EE801AF5EEC01AF1EE10FA04D116
:100C30000120BDE8FE8F002052E700EE100ADFED34
:100C40003B2AB4F91C00B8EEC00A32EEC00ADFED50
:100C5000382A00EEE20ADFED370A60EE200A80EE65
:100C6000A10A00EE900ADFED341AB4F91A00F8EE8A
:100C7000E00A60EE800A60EE800A60EEA10A01EEF2
:100C8000900AB4F91800F8EEE11A61EE801A21EE2C
:100C9000811A30EE811A00EE900AF8EEE00A71EE49
:100CA000200A9FED261A00EE810A9FED251AC0EE5C
:100CB000020AC4ED0A0A80EE810A10EE100AFFF75C
:100CC0006CFC41EC100B9FED1F1B04F021FC9FED11
:100CD0001F1B51EC100B53EC112BFFF7E9FB9FEDA1
:100CE0001D1B53EC112BFFF7E6FBFFF769FCE062DD
:100CF000D4ED0A0AB2EE041A0AEB870080EE810AEC
:100D000084ED0A0A80ED010A706A6968401AA860D9
:100D100000208EE7000000200000C84200007A4753
:100D200000000038000080470000003600008049C5
:100D3000000080390050C345000000300000803DB5
:100D400000507D4400000060955BC83F000000003B
:100D50000000F03F0000000040A5E540F8B5044663
:100D600041F080008DF8000020791646C0F13F0266
:100D70001D4601200021FFF7ADFAC043C94302F030
:100D80009BF9642301226946206801F018FE642360
:100D90002A463146206801F053FD04464FF0FF30EB
:100DA000014602F089F92046F8BD38B5044601F045
:100DB0007F008DF800008DF8012020790021C0F11E
:100DC0003F020120FFF786FAC043C94302F074F9DD
:100DD000642302226946206801F0F1FD04464FF0C9
:100DE000FF30014602F068F9204638BD520142EA60
:100DF0008101CAB2F521FFF7D8BF490141EA82015A
:100E00001943CAB2F421FFF7D0BF000008B506F0BD
:100E1000F5FF204C009000220121204600F0BEF991
:100E200000220221204600F0B9F9002204212046C8
:100E300000F0B4F90121684606F030FA164D01229F
:100E40004FF0FF331146A86905F0A8FB06F0D6FF66
:100E5000124F4FF4847800905FF0000404EB84009C
:100E600000EBC40007EB800630462146AA68FFF776
:100E70001FFE641CE4B286F83000402CEED305F06F
:100E800005FB4146686800F031F80F21684606F01E
:100E900005FAE1E7000400480C00002038020020B9
:100EA000FEE70020704700207047000010B50022C8
:100EB0000449054803F0C7F80449034803F0BAF8A9
:100EC000002010BDC41F0020F4160020C41B002009
:100ED00010B50146034803F0ADF8024803F072F87C
:100EE000002010BDF416002000207047094A10B5FC
:100EF000D2F8BC22D2F814220AB1012010BD0A4651
:100F00000146044803F09FF8BDE81040014803F093
:100F100004B90000F4160020704772B6FEE7000026
:100F200070B5044600F040F90546601C02D0044844
:100F30004068044400F038F9401BA042FAD370BD69
:100F4000900000202DE9F04FDFF8209200230126C9
:100F50000324A9F1040B85B00F2709F1040AABF1B2
:100F6000040EFAE006FA03F52A407CD091F804C09A
:100F70000CF0030CBCF1010F02D0BCF1020F26D122
:100F8000D0F808C0CDF800C04FEA430C04FA0CF8C2
:100F9000CDF810C0DDF800C02CEA080CCDF800C078
:100FA000D1F80C80DDF810C008FA0CF8DDF800C0AC
:100FB00048EA0C08C0F80880D0F804C02CEA050CF8
:100FC0000D79C5F300159D4045EA0C0545600D7986
:100FD000ED43AD070ED0C5684FEA430804FA08FC9C
:100FE00025EA0C05D1F808C00CFA08FC4CEA050CFF
:100FF000C0F80CC00D7905F00305022D16D1DD08EF
:1010000000EB850CCDF808C0DCF820805D074FEAC6
:10101000D56C07FA0CF528EA05080D6905FA0CF5F8
:10102000DDF808C045EA0805CCF8205005684FEA0D
:10103000430CCDF808C004FA0CFC25EA0C0591F825
:1010400004C00CF00308DDF808C008FA0CF848EA00
:101050000508C0F800804D6815F4403F7CD0444D31
:10106000D5F860C000E077E04CF0010CC5F860C036
:101070002D6E23F0030C05F0010500953D4D6544F0
:101080000295AD684FEA837C4FEA1C7807FA08FCAA
:1010900025EA0C05B0F1904F06D0DFF8DCC06045C2
:1010A00005D14FF0010C20E04FF0000C1DE0DFF8FF
:1010B000CCC0604502D14FF0020C16E0DFF8C0C092
:1010C000604502D14FF0030C0FE0DFF8B8C0604577
:1010D00002D14FF0040C08E0DFF8ACC0604502D14B
:1010E0004FF0050C01E04FF0060C0CFA08FC4CEA3E
:1010F000050C029DC5F808C0D9F80050CC46D1F8BF
:10110000048095435FEAC82800D51543CCF8005009
:10111000DAF80050D446D1F8048095435FEA882875
:1011200000D51543CCF80050DBF80050DC46D1F870
:10113000048095435FEA883800D51543CCF8005009
:10114000DEF80050F446D1F8048095435FEAC838D1
:1011500000D51543CCF800505B1C0A6832FA03F541
:101160007FF400AF05B0BDE8F08F00000804014037
:101170000010024000000140000400480008004840
:10118000000C00480010004800140048426921EAA1
:1011900002030A4043EA0241816170470AB181615A
:1011A0007047816270470000014880687047000006
:1011B00090000020024881684268114481607047B5
:1011C0009000002010B50024032000F09BF80F20B1
:1011D00000F008F808B1012401E000F047F82046CB
:1011E00010BD000030B505461B4887B0016E41F4C4
:1011F00080210166006E06A900F48020009001A8FD
:1012000001F00EF801F02CF81449154AB0FBF1F189
:101210001448491E0260416040F2E7320021C0E9F3
:101220000321816001F0D1FD040012D10D4801F0CD
:10123000FFFD04000DD11A2000F036F8102D07D262
:10124000002229461A2000F03DF80748056000E01A
:10125000012407B0204630BD0010024040420F007C
:1012600000480140AC110020900000200D4808B556
:10127000016E41F001010166016E01F00101009172
:10128000816D41F080518165806D002200F08050B9
:1012900000900F21901E00F015F8BDE8084000F006
:1012A00085BD000000100240002809DB00F01F028D
:1012B000012191404009800000F1E020C0F80011B8
:1012C00070470000F0B40E4B1B680C46C3F30223BA
:1012D000C3F10705042D00D90425191D072901D2E2
:1012E000002300E0DB1E012606FA05F1491E21401D
:1012F00099409E40761E16403143F0BC04F0F6B88B
:101300000CED00E0064900F0070208684FF6FF0305
:10131000184040EA0220034A10430860704700006A
:101320000CED00E00000FA0501220168C0F8D022AF
:10133000002280F8C82231F8540F40F001000880E4
:10134000088840F0020008801046704770B50F4DC5
:10135000044669B101290AD1D4F8D80203F0A9F9E9
:10136000607A002803D0286840F00600286070BD2D
:10137000607A28B102F03FFC286820F0060028605F
:10138000D4F8D802BDE8704003F02BB910ED00E0AE
:1013900010B50C0607D501F0070101EB810100EB48
:1013A000C100103005E001EB810100EBC10000F548
:1013B000A87099B232B1012202730181190C4181E6
:1013C000002010BD00220273C180F9E701EB810209
:1013D00000EBC202D0F8D802526A02F0E0BF01EB83
:1013E000810200EBC202D0F8D802D2F8642103F0E7
:1013F0002AB870B504460B0601F0070000EB800127
:1014000004EBC1014FF001024FF0000502D54A7410
:10141000103103E081F8515101F5A871087094F87A
:101420009002012808D084F89022206803F08CFCF8
:1014300084F89052002070BD022070BD70B5044643
:1014400001F00F002279904201D9012070BD0B06F6
:1014500001F0070000EB800104EBC1014FF0010235
:101460004FF0000502D54A74103103E081F8515164
:1014700001F5A8718D70087094F89002012808D0C9
:1014800084F89022206803F0FEFC84F8905200203B
:1014900070BD022070BD2DE9F04704685FEA424844
:1014A0000B788D69B4F850804FF0000C4BF68F77B5
:1014B00048F2800648F68F7948F2C00A444428D59D
:1014C00040F2024808EBC30834F80840C4F30904AA
:1014D000A54203D32D1B8D6102D00BE0C1F818C0CB
:1014E000D0F800C03CF823503D4085F4005535430A
:1014F0002CF82350520609D50B78056835F82320BF
:1015000002EA090242EA0A0225F8232074B30A8992
:1015100027E040F2064808EBC30834F80840C4F35B
:101520000904A54203D32D1B8D6102D00BE0C1F845
:1015300018C0D0F800C03CF823503D4085F4005559
:1015400035432CF82350520609D40D78036833F83C
:10155000252002EA090242EA0A0223F825202CB1DA
:101560004A8949690068234603F065FF2046BDE8C3
:10157000F0872DE9F047054600680C465FEA4268AF
:101580001646D1F818C02278B0F8508048F68F7708
:101590004CF280094FF400434FF6FF7A4FF0000100
:1015A000404472D540F2024808EBC20830F8080007
:1015B000C0F30900844514D9BCEB000CC4F818C072
:1015C00010D0760408D5D5F800C03CF822603E4023
:1015D00046EA09062CF8226094F82420012A47D014
:1015E00056E1A161607810B1012813D01AE0286893
:1015F000B0F85030184400EBC200B0F80224C2F337
:101600000902A0F80224B0F8022442F40042A0F833
:10161000022407E02868B0F85030184400EBC200FC
:10162000A0F802146278286812B1012A11D018E0DB
:10163000B0F850100844217800EBC100B0F806144F
:10164000C1F30901A0F80614B0F8061441F40041F2
:1016500005E0B0F850201044227800EBC200A0F85A
:10166000061421782846FFF7B1FE70046ED40FE10E
:10167000626902446261E2690244E2612669226AA7
:10168000B24203D33046111A04E040E084F824103B
:101690000AB110462162617811B101292BD033E0E3
:1016A0002968B1F850201144227801EBC201B1F849
:1016B0000224C2F30902A1F8022401F202413E28E9
:1016C00009D94209C60600D1521E0E8843EA822279
:1016D00016430E8018E048B14208C30700D0521CE0
:1016E0000B880AEA822213430B800DE00A8842F439
:1016F00000420A8008E02968B1F85020114422789D
:1017000001EBC201A1F8020483B22289BCE040F2DD
:10171000064808EBC20830F80800C0F30900844509
:1017200015D3BCEB000CC4F818C011D0760408D453
:10173000D5F800C03CF822603E4046EA09062CF885
:10174000226094F82420012A51D0A1E045E0A16153
:10175000607810B1012813D01AE02868B0F8503032
:10176000184400EBC200B0F80224C2F30902A0F84A
:101770000224B0F8022442F40042A0F8022407E058
:101780002868B0F85030184400EBC200A0F80214EA
:101790006278286812B1012A11D018E0B0F8501010
:1017A0000844217800EBC100B0F80614C1F3090128
:1017B000A0F80614B0F8061441F4004105E0B0F8B2
:1017C00050201044227800EBC200A0F806142178C3
:1017D0002846FFF7FBFD70045AD421782A6832F8B6
:1017E0002100384040EA090022F8210050E06269F7
:1017F00002446261E2690244E2612669226AB242FD
:1018000003D33046111A216204E00AB11046216266
:1018100084F824106278296812B1012A2AD031E0B4
:10182000B1F850201144227801EBC201B1F806242E
:10183000C2F30902A1F8062401F206413E2809D9A3
:101840004209C60600D1521E0E8843EA8222164380
:101850000E8017E048B14208C30700D0521C0B8825
:101860000AEA822213430B800CE00A8842F4004209
:101870000A8007E0B1F850201144227801EBC20140
:10188000A1F80604628983B26169286803F0EEFD5D
:1018900021782A6832F8210048F6BF73184080F09A
:1018A000300048F28003184322F821000020BDE8F0
:1018B000F08701F0070101EB810100EBC100D0F8D6
:1018C0006C0170472DE9F04104460F0601F0070056
:1018D00000EB800104EBC1014FF001064FF0000561
:1018E00002D54E74103103E081F8515101F5A87111
:1018F000022B08700A61CB7000D10D7194F8900230
:10190000012809D084F89062206803F0CFF82846B7
:1019100084F89052BDE8F0810220FBE710B501F099
:10192000070404EB840100EBC101C1E95923002243
:10193000C1F86C2181F8512181F85041006801F50E
:10194000A87103F0F5FA002010BD70B5044601F04F
:1019500007002279904201D9012070BD0B064FF09B
:1019600000054FF0010206D500EB800104EBC10138
:101970004A74103107E001EB810104EBC10181F8E9
:10198000515101F5A8718A70087094F890020128ED
:1019900008D084F89022206803F0B1FA84F89052BD
:1019A000002070BD022070BD10B501F0070404EBEB
:1019B000840100EBC101C1E90923012281F834202F
:1019C0000B630023CB624A7401F8104F006803F0E8
:1019D000AFFA002010BD10B50446006803F028FDE2
:1019E000010404D52046BDE8104001F059BD410571
:1019F0000ED5206830F8441F21F480610180204614
:101A000000F008F92046BDE81040002100F02EB992
:101A1000410405D5206830F8441F21F480417DE061
:101A2000810405D5206830F8441F21F4005175E089
:101A3000C1041FD5206830F8401F21F00401018047
:101A4000206830F8401F21F00801018094F8C80296
:101A5000012806D1002084F8C80201462046FFF77D
:101A600075FC204600F0EAF8206830F8441F21F4A5
:101A7000805153E0010512D5206830F8401F41F035
:101A800008010180206830F8441F21F400610180C2
:101A9000206830F8401F41F0040101800AE001068F
:101AA00029D5206830F8441F21F08001018094F886
:101AB000C80218B1204600F009F910BD206830F8BE
:101AC000401F41F004010180206830F8401F41F0C0
:101AD00008010180012084F8C8022068B0F8540091
:101AE0003C2101EA9000C4F8CC022046BDE8104039
:101AF0000121FFF72BBC810509D5206830F8441F70
:101B000021F400710180204600F0ACF810BDC00542
:101B1000FCD5206830F8441F21F48071018010BD8D
:101B200070B5040004D094F89102002510B106E0CD
:101B3000012070BD84F89052204600F03FF8032049
:101B400084F89102206803F096F9002001260BE04A
:101B500000EB800104EBC1014E740874CD740D627A
:101B60004D62401CC0B28D6221798142F0D80020C4
:101B700012E000BF00EB800104EBC10181F851517C
:101B800081F8500181F85351C1F86051C1F8645196
:101B9000401CC0B2C1F8685121798142EAD894E86A
:101BA000070003F05FF9257384F89162A07A012899
:101BB00002D12046FFF7B8FB002070BD10B592B0EF
:101BC000044644216846FEF7BDFB10492068884260
:101BD0001AD14014009000200D90684600F0EEF8F5
:101BE00008B1FFF79AF90A48816D41F40001816557
:101BF000806D002200F40000119005211420FFF7F1
:101C000061FB1420FFF750FB12B010BD005C0040D8
:101C10000010024070B5044640790125022801D029
:101C2000FFF77BF92946D4F8D80202F0F4FCD4F887
:101C3000D802BDE8704002F0A7BC000010B5044611
:101C4000407A30B10648016821F00601016001F0D8
:101C5000D2FFD4F8D802BDE8104002F0C2BC0000A8
:101C600010ED00E0D0F8D80202F0C5BC10B5044673
:101C700090F8900201280AD0012084F89002217384
:101C8000206803F0ECFB002084F8900210BD0220D5
:101C900010BDD0F8D82200F52671104602F0C7BC5E
:101CA00010B5044690F8900201280CD0012084F869
:101CB0009002206803F0ADFB206803F0CCF8002010
:101CC00084F8900210BD022010BD000010B504463B
:101CD000D0F8D80202F0EDFC607A002804D0034866
:101CE000016841F00601016010BD000010ED00E048
:101CF0002B492C4B0A6832214A432B4940B1B0F59D
:101D0000007F086829D020F4C06040F480602CE097
:101D10000868C0F34120022804D051F8800F20F455
:101D2000807022E0D1F8800020F48070C1F880003B
:101D3000086820F4C06040F400700860B2FBF3F063
:101D4000401C00E0401E4A69520501D50028F9D127
:101D5000486940050AD503207047C0F34120022896
:101D600006D051F8800F40F4807008600020704762
:101D7000D1F8800040F48070C1F88000086820F439
:101D8000C06040F400700860B2FBF3F0401C00E05B
:101D9000401E4A695205DBD50028F9D1D8E700007A
:101DA0009C00002040420F00007000400248816803
:101DB00041F4804181607047007000402DE9F84394
:101DC0000446006800269D4D00035ED5A86D0027DF
:101DD000C00008D4A86D40F08050A865A86D012708
:101DE00000F080500090DFF85892D9F8001041F4CC
:101DF0008071C9F80010FFF7D7F9804606E000BFF0
:101E0000FFF7D2F9A0EB080002282BD8D9F8000080
:101E1000C005F5D5D5F8900010F4407014D0216CB1
:101E2000814211D0D5F89000D5F8901020F4407080
:101E300041F48031C5F89010D5F8901021F480312C
:101E4000C5F89010C5F89000C00711D0FFF7ACF9A5
:101E5000804641F2883907E0FFF7A6F9A0EB0801B8
:101E6000494501D903260BE0D5F890008007F3D54A
:101E7000D5F89000216C20F440700843C5F890001C
:101E80001FB1A86D20F08050A8652078C00707D04A
:101E9000D5F88800616820F003000843C5F8880081
:101EA0002078800707D5D5F88800A16820F00C00BD
:101EB0000843C5F888002078400707D5D5F8880082
:101EC000E16820F030000843C5F88800207800075A
:101ED00007D5D5F88800216920F0C0000843C5F86F
:101EE00088002078800607D5D5F88800616920F43D
:101EF00040600843C5F888002078400607D5D5F82B
:101F00008800A16920F440500843C5F88800207873
:101F1000000607D5D5F88800E16920F44040084361
:101F2000C5F888002088C00507D5D5F88800216A43
:101F300020F440300843C5F888002088800507D584
:101F4000D5F88800616A20F440200843C5F888006D
:101F5000208840050FD5D5F88800A16A20F44010EC
:101F60000843C5F88800A06AB0F5801F03D1E8686F
:101F700040F48010E860208800050FD5D5F888006F
:101F8000E16A20F440000843C5F88800E06AB0F533
:101F9000800F03D1E86840F48010E8602088C00416
:101FA0000FD5D5F88800216B20F040700843C5F8A4
:101FB0008800206BB0F1807F03D1E86840F4801086
:101FC000E86020884FF0006180040ED5D5F88800C5
:101FD000626B20F040601043C5F88800606B884257
:101FE00003D1E86840F48010E860208840040ED5F2
:101FF000D5F88800A26B20F040601043C5F8880037
:10200000A06B884203D1E86840F48010E860208823
:1020100000040FD5D5F88800E16B20F0405008434C
:10202000C5F88800E06BB0F1805F03D1E86840F448
:102030008030E8603046BDE8F883000000100240C0
:10204000007000402DE9F0470E4605004FF00007F4
:1020500025D0DFF8AC81D8F8000000F00F00B042C6
:102060000CD2D8F8001021F00F013143C8F800104D
:10207000D8F8000000F00F00B04210D12968614C80
:10208000C80741F2883A5AD06868DFF87C91032883
:1020900008D0022820682DD0400500282CDB012024
:1020A000BDE8F08720688001F9D5E06800F0030200
:1020B000E068C0F30310401C032A19D0534A00BF44
:1020C000B2FBF0F0E268C2F306225043E268C2F3CA
:1020D0004162521C5200B0FBF2F0484517D9A0688B
:1020E00010F0F00F0CD0880711D5A86840B10EE0B1
:1020F000474AE5E78003D0E700F0C4F8484506D931
:10210000A06820F0F00040F08000A0608027A06868
:10211000696820F003000843A060FFF745F8814696
:1021200006E000BFFFF740F8A0EB090151453AD89F
:10213000A068696800F00C00B0EB810FF2D128684C
:10214000810714D5400703D5A06840F4E060A06083
:102150002878000705D5A06820F4605040F4E060BE
:10216000A060A068A96820F0F000084304E0802F78
:1021700003D1A06820F0F000A060D8F8001040461D
:1021800001F00F01B14216D9016821F00F0131436E
:102190000160FFF709F8074607E000BFFFF704F802
:1021A000C11B514501D903207AE7D8F8000000F09F
:1021B0000F00B042F2D12878400705D5A068E96841
:1021C00020F4E0600843A0602878000706D5A068E6
:1021D000296920F4605040EAC100A06000F052F884
:1021E000A1680C4AC1F30311515C01F01F01C84002
:1021F0000949086009480068BDE8F047FEF7F2BFEA
:10220000002002400010024000B4C4040024F40086
:1022100000127A00F08100089C000020900000204D
:102220000F2202600C4A936803F003034360936833
:1022300003F0F0038360936803F4E063C360926883
:102240004FF4E06303EAD20202610448006800F040
:102250000F0008607047000000100240002002409C
:102260000548064900688968054AC1F3C221515CE6
:1022700001F01F01C84070479C0000200010024080
:1022800000820008184910B58868C0F38102174819
:10229000012A0BD08A684310C2F38102022A06D0B9
:1022A0008A68C2F38102032A03D0002010BD1846B9
:1022B00010BDCA6802F00304CA68C2F30312521CBC
:1022C000032C02D0B0FBF2F001E0B3FBF2F0CA68DD
:1022D000C968C2F306225043C1F34161491C490059
:1022E000B0FBF1F010BD0000001002400024F4002B
:1022F0002DE9F84304007AD02078F84DC00747D084
:10230000A868E96800F00C0001F003010C2802D075
:10231000082817D001E0032914D06068B0F5803F89
:1023200017D0B0F5A02F286817D020F4803028608F
:10233000286820F4802028606068E0B1FEF734FF50
:10234000064614E02868800322D560680028D2D0B1
:102350001EE0286840F48030EDE740F480202860DB
:10236000F7E700BFFEF720FF801B642870D82868BD
:102370008003F7D50CE0FEF717FF064605E000BF27
:10238000FEF712FF801B6428F0D828688003F7D47A
:10239000207880074CD5A868E96800F00C0001F0AF
:1023A00003010C2802D004280DD001E002290AD034
:1023B000E068002828682BD040F480702860FEF781
:1023C000F3FE064619E02868400502D5E0680028BB
:1023D00091D06868217C20F0FE4040EA016068608E
:1023E000BF480068FEF7FEFE002800D120E072E141
:1023F000FEF7DAFE801B0228B8D828684005F7D51A
:102400006868217C20F0FE4040EA016068600FE0CF
:1024100020F480702860FEF7C7FE064605E000BF86
:10242000FEF7C2FE801B0228A0D828684005F7D41A
:102430002078000729D560690028D5F8940013D0CA
:1024400040F00100C5F89400FEF7AEFE064606E037
:1024500090E000BFFEF7A8FE801B022886D8D5F8C2
:1024600094008007F6D510E020F00100C5F8940034
:10247000FEF79AFE064604E0FEF796FE801B022851
:1024800078D8D5F894008007F6D42078400761D535
:10249000A86D0026C00008D4A86D40F08050A86543
:1024A000A86D012600F0805000908E480168C90593
:1024B00011D40168804641F480710160FEF774FE1A
:1024C000074604E0FEF770FEC01B022852D8D8F879
:1024D0000000C005F6D5A068012815D00528D5F85C
:1024E000900016D020F00100C5F89000D5F89000BB
:1024F00020F00400C5F89000A06841F28838B8B117
:10250000FEF752FE07460EE0D5F8900040F00100BD
:10251000F0E740F00400C5F89000F5E7FEF744FE50
:10252000C11B414526D8D5F890008007F6D50CE0B0
:10253000FEF73AFE074604E0FEF736FEC11B4145B2
:1025400018D8D5F890008007F6D41EB1A86D20F0F9
:102550008050A8652078800629D5A0690028D5F884
:10256000980013D040F00100C5F89800FEF71CFE5B
:10257000064606E075E000BFFEF716FE801B022847
:102580006FD8D5F898008007F6D510E020F001004C
:10259000C5F89800FEF708FE064604E0FEF704FEC4
:1025A000801B02285DD8D5F898008007F6D4E06932
:1025B000F0B3A968C1F3810103295DD0022828681E
:1025C00020F08070286003D0FEF7EEFD04464BE05B
:1025D000FEF7EAFD064604E0FEF7E6FD801B022852
:1025E0003FD828688001F7D4F4E908016FF00F02A2
:1025F00002EB01110843218A5204490802EB4151C0
:10260000A26841EA02210843217D4FF07E42490839
:1026100002EB41610843217B40EAC160E968324A2C
:1026200011400843E860286840F08070286000E0AE
:102630005EE0E86840F08070E860FEF7B5FD0446B3
:1026400005E000BFFEF7B0FD001B022809D828688E
:102650008001F7D54CE000BFFEF7A6FD001B022865
:1026600002D90320BDE8F88328688001F4D4E86823
:102670001E490840E8603BE00128F3D0E868226A80
:1026800000F00301914226D1616A00F0F0020901D5
:10269000103991421FD1A26A00F4FE41B1EB022F22
:1026A00019D194F82C2000F07841B1EBC26F12D10F
:1026B000218E00F4C00249084905A1F5001191429C
:1026C00009D194F8341000F0C06049084906A1F11E
:1026D000007181420CD00120C4E7000000100240CC
:1026E00090000020007000400C809F01FCFFEEFE77
:1026F0000020B7E770B5040009D0606A002540B13A
:1027000025616561A56294F85D0040B10CE001208F
:1027100070BD6068B0F5827FF4D0E561F2E784F8BF
:102720005C50204600F05CF8022084F85D002068D0
:10273000016821F040010160E1684FF4E0629142DC
:1027400001D9002001E04FF48050B1F5706F02D044
:10275000914200D0A562A188228901F4827102F41D
:1027600004421143227C02F002021143227D02F056
:1027700001021143228B02F400721143227F02F006
:102780003802114394F8202002F080021143228D78
:1027900002F40052114322681160A169042202EA86
:1027A000114194F8242000F4805002F010021143EB
:1027B00094F8342002F008021143A28902F47062F6
:1027C00011430143206841602068C16921F4006120
:1027D000C1612566012084F85D00002070BD000005
:1027E00010B586B0044614216846FDF7ABFD1249CA
:1027F000206888421ED11148016E41F48051016663
:10280000016E01F480510591C16C41F00101C16478
:10281000C06C694600F001000590E02000900220A5
:102820000190002002900390052004904FF090400A
:10283000FEF788FB06B010BD0030014000100240DA
:102840002DE9F84F044690F85D00984616460F466D
:102850000025012801D00225ACE060684FF0040B90
:10286000B0F5827F01D1A06830B394F85C000128F4
:102870002DD04FF0010984F85C90FEF795FC82465C
:10288000002F77D0002E75D084F85DB00020206630
:102890002764A4F84460A4F84660A063A087E0879A
:1028A000E0642065E0684FF4E06188422068426897
:1028B0000FD922F480520EE084F85DB013460A4628
:1028C0002046CDF8008000F043F9BDE8F88F0220E3
:1028D000FBE742F480524260A068B0F5004F09D196
:1028E0002068026822F0400202602068026822F438
:1028F0008042026020680268520603D4026842F0F7
:1029000040020260E06888421DD941E02068816889
:10291000C9070BD0007B216C0870206C401C206420
:10292000B4F84600401EA4F846000CE0FEF73CFC5C
:10293000A0EB0A01414503D3B8F1FF3F03D007E004
:10294000B8F1000F04D0B4F846000028DED123E02F
:1029500003252DE020688168C9070CD0C068216C70
:102960000880206C801C2064B4F84600401EA4F847
:1029700046000DE01AE0FEF717FCA0EB0A01414506
:1029800003D3B8F1FF3F03D0E2E7B8F1000FDFD087
:10299000B4F846000028DDD152464146204600F0FA
:1029A0004AFF08B120202066206E08B1012501E011
:1029B00084F85D90002084F85C00284685E72DE9C6
:1029C000F84F044690F85C000026984615468A4663
:1029D00001280CD0012784F85C70FEF7E5FB8146E6
:1029E00094F85D00B346012804D00226ACE0022032
:1029F000BDE8F88FBAF1000F79D0002D77D0032011
:102A000084F85D00C4F860B0C4F838A0A587E587F5
:102A1000C4F840B0A4F844B0A4F846B0C4F850B02C
:102A2000C4F84CB0A068B0F5004F09D12068016827
:102A300021F0400101602068016841F4804101609B
:102A400020680168490603D4016841F04001016033
:102A5000E068B0F5E06F606828D908B1012D1FD19A
:102A6000A06B21680088C86006E02068816889073B
:102A700009D5A16B0988C160A06B801CA063E08FA1
:102A8000401EE0870CE0FEF78FFBA0EB09014145FB
:102A900003D3B8F1FF3F03D006E0B8F1000F03D035
:102AA000E08F0028E1D13BE003264BE008B1012D87
:102AB00033D1E08F0128A06B03D921680088C8605A
:102AC0000FE021680078087314E0E08725E02068B3
:102AD0008168890714D5E18F0129A16B08D909887C
:102AE000C160A06B801CA063E08F801EEDE727E033
:102AF00009780173A06B401CA063E08F401EE4E7DF
:102B0000FEF752FBA0EB0901414503D3B8F1FF3FAB
:102B100003D0C9E7B8F1000FC6D0E08F0028D6D1A6
:102B20004A464146204600F0C0FE08B120202066FB
:102B3000A06818B92068C16880680090206E08B14C
:102B4000012601E084F85D7084F85CB030464FE700
:102B50002DE9FF5F044690F85C0000260E9F1D469D
:102B600093464FF0010901280FD04FF0010A84F875
:102B70005CA0FEF719FB804694F85D0061680128AF
:102B80000DD0B1F5827F08D103E0022004B0BDE88A
:102B9000F09FA16809B9042801D0022609E1019833
:102BA000002876D0BBF1000FFBD0002DF9D094F8AF
:102BB0005D00042802D0052084F85D000020206616
:102BC000C4F840B0A4F84650A4F844500199A16359
:102BD000E587A587E0642065E0684FF4E0618842FE
:102BE00001D8012D04D92068426822F4805203E004
:102BF0002068426842F480524260206802685206AF
:102C000003D4026842F040020260E06888426068D3
:102C100048D908B1012D3DD1A06B21680088C8605A
:102C2000A06B801CA063E08F401EE08732E020682C
:102C3000816889070FD5E18F69B1B9F1010F0AD118
:102C4000A16B0988C160A06B801CA063E08F401E4F
:102C5000E0874FF0000920688168C9070FD0B4F8F9
:102C6000461061B1C068216C0880206C801C206413
:102C7000B4F84600401EA4F846004FF00109FEF7E4
:102C800093FAA0EB0800B84204D3781C02D00326C4
:102C90008DE08AE0E08F0028C9D1B4F84600002812
:102CA000C5D177E008B1012D6DD1E08F0128A06B6F
:102CB00008D921680088C860A06B801CA063E08FE1
:102CC000801E07E0216800780873A06B401CA06399
:102CD000E08F401EE08756E02068816889071AD59A
:102CE000E18FC1B1B9F1010F15D1E18F0129A16BBC
:102CF00007D90988C160A06B801CA063E08F801E8B
:102D000006E009780173A06B401CA063E08F401EB1
:102D1000E0874FF0000920688168C90728D0B4F81F
:102D2000461029B3B4F84610012914D9C068216CA3
:102D30000880206C801C2064B4F84600801EA4F833
:102D40004600B4F84600012810D82068416841F4D4
:102D5000805141600AE0007B216C0870206C401CAF
:102D60002064B4F84600401EA4F846004FF0010964
:102D7000FEF71AFAA0EB0800B84202D3781C02D082
:102D800085E7002F83D0E08F0028A5D1B4F8460056
:102D90000028A1D142463946204600F086FD10B1F8
:102DA000012620202066206E08B1012601E084F86B
:102DB0005DA0002084F85C003046E7E6704770476D
:102DC0007047704770477047704710B5040003D0D4
:102DD00094F83D0010B107E0012010BD002084F8F8
:102DE0003C00204600F022F8022084F83D00211D1E
:102DF000206800F047FF012084F8480084F83E0076
:102E000084F83F0084F8400084F8410084F84200D0
:102E100084F8430084F8440084F8450084F84600B0
:102E200084F8470084F83D00002010BD7047000082
:102E300090F83D10012901D001207047022180F84F
:102E40003D100168CA6842F00102CA60006810497A
:102E500088420ED0B0F1804F0BD00E49884208D086
:102E60000D49884205D00D49884202D00C4988425C
:102E700007D181680B4A1140062906D0B1F5803F81
:102E800003D0016841F0010101600020704700009B
:102E9000002C0140000400400008004000340140C4
:102EA000004001400700010070472DE9F041044651
:102EB0000068C66805694FF00007A90713D5B10778
:102EC00011D5F91E016101202077206880698007F3
:102ED000204602D0FFF7E8FF04E000F0B7F82046F4
:102EE00000F0B5F82777680716D5700714D5216864
:102EF0006FF004000861022020772068806910F4D8
:102F0000407F204602D0FFF7CFFF04E000F09EF89C
:102F1000204600F09CF82777280715D5300713D5F1
:102F200021686FF008000861042020772068C069DC
:102F30008007204602D0FFF7B7FF04E000F086F8D4
:102F4000204600F084F82777E80616D5F00614D559
:102F500021686FF010000861082020772068C069A0
:102F600010F4407F204602D0FFF79EFF04E000F0FF
:102F70006DF8204600F06BF82777E80708D0F007D7
:102F800006D021686FF001000861204600F060F86B
:102F9000280601D4A80408D5300606D521686FF4A8
:102FA000025008612046FFF70AFFE80508D5300601
:102FB00006D521686FF4807008612046FFF7FEFE99
:102FC000680608D5700606D521686FF040000861D4
:102FD000204600F047F8A80608D5B00606D52168B7
:102FE0006FF0200008612046FFF7EAFEE80208D5EE
:102FF000F00206D521686FF4801008612046FFF7C3
:10300000E1FEA80208D5B00206D521686FF40010D1
:1030100008612046FFF7D5FE680208D5700206D584
:1030200021686FF4800008612046FFF7CCFE28027B
:103030000AD5300208D521686FF4000008612046E7
:10304000BDE8F041FFF7C0BEBDE8F08170477047B2
:1030500000680349884201D1FEF7ACB87047000010
:10306000004801407047FEE710B5124C02460121AE
:103070002046FEF793F8012003F0C6FF0122042149
:103080002046FEF78BF8012003F0BEFF002204214A
:103090002046FEF783F8012202212046FEF77EF843
:1030A000012003F0B1FF20460022BDE810400221BC
:1030B000FEF774B8000400482DE9F041184F0546AA
:1030C0000E460024224628463146FDF712F900F04C
:1030D000010201213846FEF761F8012003F094FF58
:1030E000012204213846FEF759F8012003F08CFF35
:1030F000002204213846FEF751F8641CE4B2402C4B
:10310000E0D3012202213846FEF748F8012003F0FF
:103110007BFF3846BDE8F04100220221FEF73EB8B1
:1031200000040048F0B500230A24302537261F4646
:1031300011E000BFB4EB107F02D905EB107C01E079
:1031400006EB107C01F813C001EB430C00015B1C83
:103150008CF80170DBB29342ECD3F0BD08B504F0FB
:103160004DFE064D4FF40054009021462846FEF7D0
:103170000DF8C821684604F091F8F6E70008004809
:10318000044908B58A6D02438A65896D0140009142
:1031900008BD0000001002402DE9F0430268224BF8
:1031A000224D234E234C4FF08049984207D048458A
:1031B00005D0A84203D0B04201D0A04203D14F684D
:1031C00022F070023A431C4FDFF870C0DFF87080C5
:1031D00098420DD048450BD0A84209D0B04207D044
:1031E000A04205D0B84203D0604501D0404503D18C
:1031F000CD6822F440722A4302608A68C2620A885B
:103200008262984207D0A04205D0B84203D0604500
:1032100001D0404501D109690163416941F00101D3
:1032200041610020BDE8F083002C01400004004013
:1032300000080040003401400040014000440140CB
:103240000048014010B50D4A00210D4803F006FA70
:103250000C4C0A4A0021E06024320B4803F0FEF9CE
:10326000064A206148320021084803F0F7F96061FE
:1032700002486C3003F052F9A06110BD748100085F
:10328000993A00080C0000200D0E00085D3100087E
:1032900070B586B014216846FDF754F82848C16C13
:1032A00041F00401C164C16C01F004010591C16CDD
:1032B00041F02001C164C16C01F020010591C16C95
:1032C00041F00101C164C16C01F001010591C16CC3
:1032D00041F00201C164C06C012200F00200194DEE
:1032E0005403059021462846FDF758FF164E01224B
:1032F00011463046FDF752FF002206213046FDF709
:103300004DFF009401240020CDE90240694601945C
:103310002846FDF717FE03250094694630460194C0
:10332000CDE90245FDF70EFE0620CDE9000402209E
:10333000CDE9020569463046FDF704FE06B070BDD2
:10334000001002400008004800040048124810B570
:10335000104901604FF48271416000214FF4E06236
:10336000C0E902124FF400720161C0E9051238226F
:10337000C0E9072107224162C0E90A1201634163E3
:10338000FFF7B8F9002803D0BDE81040FDF7C5BD30
:1033900010BD0000003001404811002010B586B07B
:1033A00014216846FCF7CEFF0120FFF7E9FEA920B3
:1033B000ADF800000020411ECDE901014FF080442E
:1033C000039069462046FFF7E7FE206820F0800062
:1033D0002060A06806490840A06060680549084070
:1033E0006060A06820F08000A06006B010BD000002
:1033F000F8BFFEFF8FFFFFFD10B586B014216846B1
:10340000FCF7A0FF2020FFF7BBFEA920ADF80000CD
:10341000002001904FF6FF70094C0290694620464B
:10342000FFF7BAFE206820F0800020606068054940
:1034300008406060A06820F08000A06006B010BD69
:10344000001400408FFFFFFD10B500220F49104807
:1034500000F080FF08B1FDF760FD0E490C4801F057
:1034600050F908B1FDF759FD0B49094800F0BEFDC0
:1034700008B1FDF752FD064801F0BEF9002803D05F
:10348000BDE81040FDF749BD10BD00002800002038
:10349000F4160020FC0100207C000020FEE7FEE77F
:1034A0002DE9F84F044640F68F7A40F2064B48F675
:1034B0000F784FF00009B5E1B0F8441011F00F0596
:1034C0003AD030F8256031047DD530F8251001EA76
:1034D0000A0141F0800120F8251005EB850004EB7E
:1034E000C00797F85C0107F5A87700286CD0F8783A
:1034F00002286AD03978226832F8210048F68F73A2
:10350000184048F2C003184322F821003878D4F854
:1035100000C03CF820104904BCF8501001EB0C022C
:103520007ED540F2024101EBC000105A8005800DAB
:10353000009076D03A89D0E0C9062AD4018801EA01
:10354000080141F400410180206804F11005B0F841
:103550005010227C014440F2024000EBC200085AA5
:10356000C0F30900E062616A0844606200212046FD
:10357000FDF72CFF207B00289DD0A86900289AD158
:10358000207B40F080012068A0F84C1084F80C905B
:1035900048E1018804F5A8750A051ED5B0F8501059
:1035A0002A7801440BEBC200085A04F52671C0F3D7
:1035B0000903EB61EA88206801F03DFF2168088873
:1035C00000EA0A0002E0A4E068E077E040F0800052
:1035D00008802046FEF75DFB24E10904D8D5018868
:1035E00001EA0A0141F0800101802068B0F8501022
:1035F0000A1828780BEBC000105A83059B0DEB616D
:103600000DD0696959B1EA88206801F014FFE969B1
:1036100068690844686100212046FDF7E0FE01E08A
:1036200053E051E0206801880A05B1D4C1F30131AB
:103630000329ADD0B0F850100844B0F80614C1F317
:103640000901A0F80614296900F206403E2909D9AB
:103650004A09C90600D1521E01884FF4004343EACB
:10366000822209E0B1B14A08C90700D0521C018882
:103670004FF6FF7303EA8222114301802168088814
:103680004BF68F72104080F4405048F28002104395
:103690000880C7E0018841F40041EEE72068B0F8F7
:1036A00050103B780A180BEBC301515A8905890D5C
:1036B000009117D0FA887969009B11E032463946AB
:1036C0002046FDF7E8FE00900CE00BEBC000105A1E
:1036D0008005800D009005D07A890346604679699F
:1036E00001F0A9FEF96900980844F8617969009829
:1036F00008447861B86918B139690098814204D9E1
:1037000039782046FDF76BFE03E03946206801F06A
:103710000FFC30062DD505EB850004EBC0012068B9
:1037200030F8252002EA080242F4004220F8252061
:10373000C87C103101281DD0F0056FD42268B2F882
:10374000500083180A7840F2024000EBC200185A79
:103750008A69C0F30900824258D9121A8A6157D087
:103760004A6902444A61CA691044C861206801F08C
:10377000DFFB57E0C1F818900A7B48461AB372067F
:1037800022D54A7812B1012A14D041E02068B0F85D
:10379000502010440A7800EBC200B0F80224C2F3B3
:1037A0000902A0F80224B0F8022442F40042A0F872
:1037B00002242DE02268B2F850301A440B7802EB54
:1037C000C302A2F8020423E04B78226813B1012B54
:1037D00013D01DE0B2F8500010440A7800EBC2008C
:1037E000B0F80624C2F30902A0F80624B0F80624B3
:1037F00042F40042A0F806240AE0B2F850301A441D
:103800000B7802EBC302A2F8060401E0C1F818909D
:1038100009782046FDF7DAFD04E0FFE7324620464E
:10382000FDF7A7FE2068B0F8441009043FF544AE48
:103830000020BDE8F88F2DE9F843044640684FF4B6
:103840008276154689464FF400474FF48068B042AF
:1038500009D1A068B84201D0404504D12068016870
:1038600021F0400101604B46002280212046009556
:1038700000F0B0F880B96068B04214D1A068B842D6
:1038800001D040450FD14B4600224FF4C061204685
:10389000009500F02FF830B1206E40F02000206637
:1038A0000320BDE8F8830020FBE7F8B515460E4677
:1038B0000B460092044600224FF4C05100F01AF863
:1038C00088B93346002280212046009500F082F816
:1038D00048B9334600224FF4C0612046009500F0FD
:1038E00009F8002804D0206E40F020002066032054
:1038F000F8BD00002DE9FE4F4FF0000A984617462C
:103900000E4604460C9D8DF804A0FDF74DFC411BAE
:10391000A8EB0105FDF748FC814620684FF4C06B19
:103920000C3002902A480068C0EBC00000EB800019
:10393000000D6843009043E05E4506D12FB9029820
:1039400000788DF804009DF80400B8F1FF3F37D0EF
:10395000FDF72AFCA0EB0900A84203D215B100989C
:1039600058B32BE02068416821F0E00141606068B5
:10397000B0F5827F0BD1A068B0F5004F02D0B0F552
:10398000806F04D12068016821F040010160A06AC5
:10399000B0F5005F09D12068016821F40051016091
:1039A0002068016841F400510160012084F85D0045
:1039B00084F85CA00320BDE8FE8F0025401E009027
:1039C000206880683040B842B6D10020F3E700009C
:1039D0009C0000202DE9F8431E4691468846044687
:1039E000089DFDF7E1FB401B351AFDF7DDFB07469F
:1039F00025480068C0F3CB30684338E0701C37D0EE
:103A0000FDF7D2FBC01BA84203D215B1009860B3EA
:103A10002CE02068416821F0E00141606068B0F569
:103A2000827F0BD1A068B0F5004F02D0B0F5806F57
:103A300004D12068016821F040010160A06AB0F55E
:103A4000005F09D12068016821F4005101602068FD
:103A5000016841F400510160012084F85D000020FC
:103A600084F85C000320BDE8F8830025401E009028
:103A70002068816838EA010004D000214945BDD1A1
:103A80000020F0E70121F9E79C0000200178407850
:103A900041EA002070470000ADF5825D01AF4FF4B0
:103AA00080513846FCF74EFC04F0A8F900903D48E0
:103AB0005521AA220170BB234270CC248370C470AC
:103AC0000025B7EE080A00BF00EE905A00EB85060D
:103AD0006D1CF8EE600AADB2402D60EE800AC6EDB6
:103AE000010AF1D380F8042180F80511662580F8D9
:103AF0000651772680F807612B48B7EE001A01704F
:103B000042708370C470002300EE903A00EB83048F
:103B10005B1CF8EE601AF0EE410A9BB2402B41EEBE
:103B2000800AC4ED010AEFD380F8042180F8051162
:103B300080F8065180F80761DFF870A0DFF8709018
:103B400000244FF4FA76E84604EB840000EBC4014D
:103B500009EB810549F821A02C712846FCF746FFA6
:103B6000030010D0224613A1384601F093FC3846DA
:103B7000FCF7F3FB81B23846FDF7B8F93146404611
:103B800003F08CFBE9E7641CE4B2032CDCD312489D
:103B90000121806902F0D8FC44463146204603F0FA
:103BA0007DFBFAE7380F002040100020481100206C
:103BB000380200206465765B25645DB3F5CABCBB42
:103BC000AFCAA7B0DC2C696E69745F7374617465E9
:103BD0003A25640D0A0000000C00002010B54FF0DB
:103BE000E020006904F0FCF8012803D0BDE8104093
:103BF00003F02ABE10BD00B593B038216846FCF72B
:103C0000A1FB14210EA8FCF79DFB0020FEF770F825
:103C1000222000904FF480700390402004900120F7
:103C2000069002200421CDE908015521CDE90A10B2
:103C300007900C900D906846FEF75AFB08B172B6DB
:103C4000FEE70F200E9003200F900020109011909F
:103C5000129004210EA8FEF7F5F9002801D072B6E3
:103C6000FEE713B000BD00000248016841F4700196
:103C70000160704788ED00E00148FFF716B90000C9
:103C8000AC1100202DE9F0430268264B264D274E4B
:103C9000274C4FF08049984207D0484505D0A842AC
:103CA00003D0B04201D0A04203D122F070074A688D
:103CB0003A43204FDFF880C0DFF8808098420DD073
:103CC00048450BD0A84209D0B04207D0A04205D049
:103CD000B84203D0604501D0404503D122F440757D
:103CE000CA682A434D6922F080022A4302608A682A
:103CF000C2620A688262984207D0A04205D0B842E8
:103D000003D0604501D0404501D10969016301211B
:103D100041610169C90703D0016921F00101016115
:103D2000BDE8F083002C0140000400400008004082
:103D3000003401400040014000440140004801407F
:103D400010B50A46024903A000F0D4FA004810BD9D
:103D5000C419002043444320436F6E666967000026
:103D60002DE9F0410C46D0F8C422D0F8BC12E9B1DC
:103D700004EB840600EB86050027AB693BB102EB40
:103D8000C602126AB3FBF2F602FB163282B1C1F828
:103D90001472D0F8C00203692BB1D1F80802224690
:103DA00001F5047198470020BDE8F0810320FBE78E
:103DB00000231A462146AF6100F084FCF3E770B59A
:103DC000D0F8BC4205466CB100F073FBC4F80C029D
:103DD000D5F8C012D4F80402CA6804F503719047FC
:103DE000002070BD032070BD70B50446812100F035
:103DF000CDFA002525870121204600F0C7FAA4F856
:103E000078518221204600F0C1FAA4F84C50A4F861
:103E10004E50D4F8BC0248B1D4F8C00204F52F7457
:103E200040688047206800F03CFE2560002070BD9F
:103E300012200880004870474C00002010B5D0F8D0
:103E4000BC4284B1D0F8C01259B194F80002FF28E6
:103E500007D08B6894F8012221469847FF2084F808
:103E60000002002010BD032010BD00000A210180C7
:103E7000004870472401002043210180004870471A
:103E80007401002043210180004870473001002068
:103E90004321018000487047B80100202DE9F04718
:103EA00004464FF4077000F0FDFD05004FF00007D9
:103EB00035D0C4F8BC52207C4FF010084FF4007984
:103EC000012680B3402302228121204600F047FBD7
:103ED0002687402302220121204600F040FBA4F85F
:103EE0007861A4F84E80082303228221204600F046
:103EF00036FBA4F84C60D4F8C00200688047C5F8CF
:103F00001472C5F81872207CD5F80422A8B1402399
:103F10000121204600F02FFB0020BDE8F0870220A1
:103F2000C4F8BC72F9E7FFE74B4602228121204624
:103F300000F015FB26874B46CCE74B46E8E7000030
:103F400010B50A46024903A000F0D4F9004810BD9C
:103F5000C419002043444320496E7465726661634E
:103F600065000000042008800048704748000020D9
:103F700010B50A46024903A000F0BCF9004810BD84
:103F8000C419002053544D6963726F656C65637486
:103F9000726F6E696373000010B50A46024903A090
:103FA00000F0A8F9004810BDC419002053544D3347
:103FB00032205669727475616C20436F6D506F7258
:103FC0007400000010B5D0F8BC1251B1027C002A78
:103FD000D1F8042207D04023012100F0CCFA0020C0
:103FE00010BD032010BD4FF40073F5E719B1C0F800
:103FF000C0120020704703207047000010B51A203F
:1040000008800A480168001D0468001D006808183F
:1040100009D008220649FFF785F805490422103126
:104020002046FFF77FF80248801E10BD9075FF1FE5
:1040300062000020D0F8BC0218B1C0F804120020C1
:10404000704703207047D0F8BC0228B1C0F8102296
:10405000C0F8081200207047032070472DE9FC418A
:104060000646D0F8BC7200200C468DF80000ADF872
:104070000400054637B1207810F0600128D02029CF
:1040800044D102E00320BDE8FC81E288C2B1000611
:1040900060780AD5D6F8C0128B6839469847E2880E
:1040A000072A00D90722394628E087F80002A079BC
:1040B00087F80102E2883946304600F06CF82AE0C1
:1040C000D6F8C012607800228B682146984722E01B
:1040D000607830B101281ED00A2809D00B2815D1EC
:1040E00010E096F89C02032810D1022201A905E0F5
:1040F00096F89C02032809D101226946304600F057
:1041000064F808E096F89C02032804D02146304663
:1041100000F036F803252846B5E710B5D0F8BC12F4
:10412000012219B1D1F8143213B10FE0032010BDF0
:104130000122C1F81422D1F81022C262D1F8103243
:10414000D1F80822812100F0BDFA0022104610BDEE
:1041500010B5D0F8B8220AB152689047002010BDBF
:10416000134610B50A46002100F005FA002010BDE4
:10417000134610B50A46002100F0A4FA002010BD35
:1041800010B50446802100F082FA2046BDE81040B8
:10419000002100F07CBA10B50323C0F89432C0F8B7
:1041A00058211346C0F85C210A46002100F0E3F9CB
:1041B000002010BD10B50521C0F8941200231A4646
:1041C000194600F0D8F9002010BD10B50223C0F840
:1041D000943282611346C2610A46002100F072FAED
:1041E000002010BD10B50421C0F8941200231A4617
:1041F000194600F067FA002010BDF8B5044600200B
:10420000ADF8000048880D46010A062947D006DCB3
:1042100001290FD0022912D0032962D11DE00729FC
:1042200046D00F295DD1D4F8B402C26920E06946B6
:1042300090473BE0D4F8B412207C0A68F7E7207C72
:1042400002260028D4F8B80205D0C16A684688471B
:104250000146467036E0816AF8E7C0B2062840D2CF
:10426000DFE800F003090D111519D4F8B402426813
:10427000B2B3207CDBE7D4F8B4028268F8E7D4F864
:10428000B402C268F4E7D4F8B4020269F0E7D4F8E3
:10429000B4024269ECE7D4F8B4028269E8E7207C12
:1042A000F0B9D4F8B802416B68468847014609E086
:1042B000207CA8B9D4F8B802016B6846884701464B
:1042C00007204870EA888AB1BDF8000040B18242F8
:1042D00000D90246ADF800202046FFF776FFF8BD72
:1042E000FFE729462046FFF74BFFF8E72046FFF798
:1042F00079FFF4E770B5002300281ED0002504469E
:1043000002E06D1CEDB2641C2678002EF9D1022467
:1043100004EB450414801278CA545B1C0322CA546F
:1043200000245B1C06E0CA545B1CDAB28C54521C9D
:10433000D3B2401C0278002AF5D170BD01004FF0C5
:10434000000004D0012901D0022901D003207047C8
:104350000120704778B10023C0F8B832C0F8C032ED
:10436000C0F8CC3209B1C0F8B412012180F89C1217
:10437000027000F0A3B80320704710B5D0F8C40253
:10438000FDF75CF8BDE81040FFF7D8BF10B5D0F8D6
:10439000C402FDF72EF8BDE81040FFF7CFBF70B59F
:1043A0001646044621B194F89C02032841D048E007
:1043B000D4F8941204F114000025022932D1D0E976
:1043C00002318B4206D95A1A826031462046FFF7E5
:1043D000CFFE0FE0994214D14068884211D3D4F83F
:1043E000981288420DD2002211462046FFF7C0FEE7
:1043F000C4F8985200231A461946204600F0BBF82C
:1044000010E094F89C02032805D1D4F8B802C168E2
:1044100009B1204688478021204600F038F920461F
:10442000FFF7C8FE94F8A00201280AD184F8A05230
:1044300007E0D4F8B80242691AB120469047002834
:1044400000D1002070BD10B51346044621B194F888
:104450009C02032823D02AE0D4F8941204F5AA7011
:10446000032924D1D0E9021291420AD98A1A826022
:10447000C068824200D3024619462046FFF770FE0C
:1044800015E094F89C02032805D1D4F8B80201691C
:1044900009B1204688472046FFF7A4FE07E0D4F87C
:1044A000B80282691AB120469047002800D1002046
:1044B00010BDD0F8C402FDF7FCB9000010B51E49CC
:1044C0000446C1F8D802C0F8C4121C48086008208D
:1044D000087102204871C871002008724872887201
:1044E000C8720846FDF71CFB08B1FCF716FD002258
:1044F000D4F8C4021823114604F53174FCF748FFC0
:104500005823002280212068FCF742FFC0230022AC
:1045100081212068FCF73CFF4FF4887300220121C1
:104520002068FCF735FF4FF4807300228221206859
:10453000FCF72EFF002010BD18140020005C004086
:104540000A0601F07F01D0F8C40201EB810100EB03
:10455000C10001D5807C704790F85201704710B5BA
:104560001C461346D0F8C4022246FDF7ABF9BDE85D
:104570001040FFF7E3BE10B5D0F8C402FDF7CEF946
:10458000BDE81040FFF7DABE70B50125044680F89B
:104590009C520020C4F894026060C4F8A402D4F8CD
:1045A000B802E0B1D4F8BC1221B1426812B10021C6
:1045B000204690470022402311462046FFF7CFFFB8
:1045C0004026A4F864513346002280212046C4F8D6
:1045D0006061FFF7C4FFA5840020266270BD032040
:1045E00070BD90F89C12042903D190F89D1280F8B8
:1045F0009C120020704710B5D0F8B81221B190F885
:104600009C22032A02D004E0032010BDC96901B135
:104610008847002010BD01740020704710B5D0F805
:10462000C402FDF723FBBDE81040FFF787BE70B55D
:10463000044600F2AA20054600F04DF80120C4F817
:104640009402B4F8B002C4F8980294F8AA0210F0E8
:104650001F010AD001290ED0022912D000F08001DA
:104660002046BDE8704000F012B829462046BDE85B
:10467000704000F0C3B829462046BDE8704000F005
:10468000E7B929462046BDE8704000F041B910B5B1
:10469000D0F8C402FDF759F9BDE81040FFF74EBE4F
:1046A00010B5D0F8C402FDF7FBFABDE81040FFF7E3
:1046B00045BE90F89C1280F89D12042180F89C124F
:1046C0000020704710B5D0F8C402FDF76DF9BDE8C1
:1046D0001040FFF733BE70B5054611F8010B287086
:1046E000087868704C1C2046FFF7D0F96880A41C3D
:1046F0002046FFF7CBF9A880A01CFFF7C7F9E88098
:1047000070BD38B504460020ADF8000049B1C4F8CA
:10471000B812C96A19B168468847C4F8CC020020AB
:1047200038BD032038BD02460320D2F8B832002B32
:1047300002D01B6810461847704700002DE9F04171
:104740000F462C4E8978002504463170012906D980
:1047500039462046FFF714FD0320BDE8F08194F8A8
:104760009C0202280CD003281DD039462046FFF7B2
:1047700007FD31782046FFF7EBFC03252846ECE7E0
:1047800099B320466160FFF7CEFF050004D039469B
:104790002046FFF7F5FCF1E72046FFF723FD032055
:1047A00084F89C02EAE74FF00208C1B160688842D1
:1047B0001BD0C1B22046FFF7CBFC317820466160A8
:1047C000FFF7B1FF050010D039462046FFF7D8FCAF
:1047D00021792046FFF7BCFC84F89C82CEE784F860
:1047E0009C8220466160FFF7B3FC2046FFF7FAFC8D
:1047F000C4E7000020010020FFF752BF2DE9F0417F
:104800000A78002512F0600208D0202A01D0402A40
:1048100071D1D0F8B8229268904731E04B780022ED
:1048200001260A2B67D2DFE803F0415E665866086E
:1048300005662D29FFF7E1FC5FE004468888D8B9BA
:10484000C888C8B94888802816D200F07F0794F835
:104850009C02032810D084F89E7239462046FFF748
:10486000DDFE2046FFF7BEFC1FB1022084F89C024B
:1048700043E084F89C6240E020463CE0FFF75EFFA6
:1048800005463AE0CB88012B35D190F89C32012BBC
:1048900004D0022B02D0032B2DD104E08260012230
:1048A00000F1080116E00122011D13E090F89C229E
:1048B000012A03D0022A01D0032A1CD1CA88022A65
:1048C00019D1C660D0F8A41209B10321C160022237
:1048D00000F10C01FFF779FC0FE0498801290CD1A8
:1048E000C0F8A46211E090F89C32012B08D0022B92
:1048F00006D0032B04D0FFF743FC2846BDE8F08127
:1049000049880129F9D1C0F8A422FFF76BFCF4E72C
:104910002DE9F0410D46044628780026097910F06B
:1049200060000BD0202801D040286DD1D4F8B80207
:104930002946826820469047064686E06878A8B3F4
:10494000012822D003287CD194F89C02022802D0AE
:10495000032876D10BE0002973D0802971D020463E
:10496000FFF795FE80212046FFF791FE6DE06888F5
:1049700038B931B1802904D0E88810B92046FFF752
:1049800086FE2046FFF72EFC5FE094F89C0202288A
:10499000E1D0032855D16888A8BB480602D020463C
:1049A000FFF7EBFC2046FFF71DFCBFE7FFE794F89D
:1049B0009C020027022802D0032842D111E009B14D
:1049C00080293ED1080601F07F0000EB800004EB57
:1049D000800101D5143101E001F5AA7102220F60B6
:1049E0002BE0080601F00F0000EB800004EB8000D4
:1049F0000BD5808C40B101F07F0000EB800004EB10
:104A0000800514350CE020E01BE0B0F86401C0B173
:104A100001F07F0000EB800004EB800505F5AA752E
:104A200041B1802906D02046FFF78AFD10B1012050
:104A3000286000E02F60022229462046FFF7C5FBD0
:104A400003E029462046FFF79BFB3046BDE8F08196
:104A500070B50646087800240D4610F0600003D0BB
:104A6000202801D0402817D196F89C02012803D0B5
:104A7000022801D003280FD1287901280CD8D6F8B4
:104A8000B8028268304690470446E888204306D141
:104A90003046FFF7A7FB02E03046FFF771FB2046E8
:104AA00070BD704700487047F81100202DE9F047AD
:104AB0000C78002630F8243048F68F121340CA785C
:104AC000002A78D0012A7CD0022A02D0032A75D08D
:104AD000012648F28002134320F824300D7830F884
:104AE000253048F68F7423402B43134320F825309C
:104AF0000D7B48F2C00948F6BF734CF2800A4BF6B2
:104B00008F77EDB3CD7891F800C0022D30F82C509E
:104B10007DD048F68F6805EA0805154320F82C502B
:104B2000B0F8505091F800C0054405EBCC05B1F841
:104B300008C02CF0010CA5F800C4B0F8505091F852
:104B400000C0054405EBCC05B1F80AC02CF0010CFF
:104B5000A5F804C44D78002D7ED00D7830F825C01E
:104B60005FEA4C4C07D530F825C00CEA040C4CEA3F
:104B70000A0C20F825C091F800C030F82C5000E055
:104B800022E06D0606D530F82C50254045EA09058F
:104B900020F82C50CC780D78012C30F8254004EA10
:104BA00003047CD084F02003134320F82530C1E0B7
:104BB00001E006E002E043F400738AE743F4C063D7
:104BC00087E743F4806384E74D784DB3B0F85050E5
:104BD0000F78054405EBC705CF8827F00107A5F836
:104BE00000740F7830F827506D0606D530F827503E
:104BF000254045EA090520F82750CC78012C07D03C
:104C00000C7830F82410194081F0200104E064E0B1
:104C10000C7830F824101940114320F8241090E04B
:104C2000B0F850300D78034403EBC503CD8825F070
:104C30000105A3F80454B0F850300D78034403EB99
:104C4000C503B3F80654C5F30905A3F806540D6966
:104C500003F206433E2D00E045E00BD94FEA551C18
:104C6000ED0601D1ACF1010C1D884FF4004848EA73
:104C70008C2C0BE035B34FEA550CED0701D00CF14D
:104C8000010C1D884FF6FF7808EA8C2C45EA0C05CC
:104C90001D800D7830F825305B0408D500E046E033
:104CA00030F82530234043EA0A0320F825300978FC
:104CB00061B130F821303B4083F40053134320F8B6
:104CC00021303EE01D8845F40045E1E70188394088
:104CD00081F440511143018033E0254048F28018AF
:104CE00045EA08051AE791F800C030F82C506D0429
:104CF00006D530F82C50254045EA0A0520F82C50FE
:104D000091F800C030F82C506D0606D530F82C50C4
:104D1000254045EA090520F82C500D7830F825404B
:104D20003C4084F44054144320F8254070E7144379
:104D300020F825400B7830F823103940114320F833
:104D400023103046BDE8F0872DE9F04391F80C8040
:104D50004F780A7848F6BF7C4BF68F7948F280038B
:104D600048F2C0054CF2800648F68F74B8F1000F87
:104D700028D0002F30F822704FEA474748D0002F44
:104D800005DA30F822702740374320F822700A787D
:104D900030F822707F0605D530F8227027402F4367
:104DA00020F822700D7830F825202240324320F878
:104DB00025200C7830F8242002EA0C021A4320F84F
:104DC00024201AE07FB130F82260760605D530F84D
:104DD000226026402E4320F822600A7830F8221004
:104DE00001EA0C010EE030F822506D0405D530F8D0
:104DF00022502540354320F822500A7830F82210FE
:104E000001EA0901194320F822100020BDE8F083CF
:104E1000002F05DA30F822702740374320F822703F
:104E20000A7830F82260760605D530F822602640F0
:104E30002E4320F822600E7830F8262022402A43A4
:104E400020F826200C7830F8242002EA09021A43C0
:104E500020F82420C1E730F8581F41F400410180B8
:104E600000207047012120F8401F0021018081802F
:104E700001820846704730F8401F4BF6807291431C
:104E800001800020704730B50A7BB2BB4A7848F6F3
:104E90008F7548F28004C2B10B7830F82320520697
:104EA00007D530F823202A4048F2C0052A4320F8CD
:104EB0002320CA78012A20D00A7830F8221048F638
:104EC000BF73194081F0200114E00A7830F82230D5
:104ED0005B0407D530F822302B404CF280052B4381
:104EE00020F822300A7830F822104BF68F731940E0
:104EF00081F44051214320F82210002030BD10B52C
:104F00004A780978002A48F2800330F8212005D039
:104F100048F6BF74224082F0100204E04BF68F7412
:104F2000224082F480521A4320F82120002010BD34
:104F30002DE9F0470D464B78097B04464FF00009F8
:104F400048F68F7248F2800A4FF400474FF6FF7818
:104F5000012B09D000296FD0E87802286DD00128F4
:104F60006CD00120BDE8F087AE692869864200D97F
:104F7000064691B1E97802291ED0286A801B286272
:104F8000287834F820104906B4F85010214401EB79
:104F9000C00073D5A0F8066416E1B3B2EA882046D3
:104FA000696900F063FAB4F850002978204400EBF6
:104FB000C100A0F802640DE1296A814277D92978FD
:104FC00034F82100104048F28012104324F82100E8
:104FD000286A801B2862287834F8201049066978EE
:104FE00071D511B101292AD030E0B4F85010214414
:104FF00001EBC000B0F80614C1F30901A0F80614D3
:1050000000F206403E2E07D97109F20600D1491E72
:10501000028847EA812107E04EB17108F20700D00B
:10502000491C028808EA81210A4302800EE00188B7
:1050300041F40041018009E0F1E020E195E1B4F89C
:105040005020111901EBC000A0F806646A89B3B2C0
:105050002046696900F00AFA686930446861296984
:10506000286A884202D9801B286202E00646C5F8F9
:105070002090687818B101282BD032E02FE0B4F8E6
:1050800050002978204400EBC100B0F80214C1F3AD
:105090000901A0F8021400F202403E2E08D971095D
:1050A000F20600D1491E028847EA812108E0A1E00A
:1050B00056B17108F20700D0491C028808EA812124
:1050C0000A4302800DE00EE0018841F400410180B6
:1050D00007E0B4F850002978204400EBC100A0F8A4
:1050E00002642A8971E011B1012927D02DE0B4F8BA
:1050F0005010214401EBC000B0F80214C1F30901C3
:10510000A0F8021400F202403E2E07D97109F206FF
:1051100000D1491E028847EA812107E04EB171089B
:10512000F20700D0491C028808EA81210A43028064
:105130000BE0018841F40041018006E0B4F8501012
:10514000214401EBC000A0F802642A89B3B22046D2
:10515000696900F08BF96869304468612969286AD7
:10516000884202D9801B286202E00646C5F82090DA
:10517000687810B1012836D026E0B4F850002978BC
:10518000204400EBC100B0F80614C1F30901A0F8F7
:10519000061400F206403E2E07D97109F20600D12E
:1051A000491E028847EA812107E04EB17108F207E3
:1051B00000D0491C028808EA81210A43028003E0EA
:1051C000018841F4004101806A89B3B220466969CF
:1051D00000F04CF9297834F8210048F6BF721040ED
:1051E00080F030000FE1B4F850100819297800EB76
:1051F000C100CFE62A7834F8220048F68F631840C1
:1052000040EA0A0024F82200B4F850002A7820442A
:1052100000EBC2008BB2A0F802342A89D6E7A96954
:105220002869814202D9091AA96102E00846C5F835
:105230001890B4F850102A78214401EBC201B1F85B
:105240000624C2F30902A1F8062401F206413E2811
:105250007DD94209C00600D1521E088847EA822241
:105260000AE0088840F4004007E04208C00700D088
:10527000521C088808EA822210430880BBE033BB36
:10528000B4F850002978204400EBC100B0F80214B3
:10529000C1F30901A0F80214296900F202403E2975
:1052A00007D94B09C90600D15B1E018847EA832351
:1052B00007E041B14B08C90700D05B1C018808EA30
:1052C0008323194302E0018841F40041018068789A
:1052D00010B1012828D030E0B4F8500029782044DB
:1052E00000EBC100B0F80614C1F30901A0F80614E0
:1052F000296900F206403E2907D94B09C90600D1A9
:105300005B1E018847EA832307E041B14B08C907C8
:1053100000D05B1C018808EA8323194302E001885E
:1053200041F40041018008E0B4F8501008192978D0
:1053300000EBC100298AA0F80614E869C0B32978F7
:1053400034F82100430401D5430605D400E046E0CB
:1053500044F2400318424ED134F82100104048F284
:10536000C002104324F8210045E0A9692869814260
:1053700002D9091AA96102E00846C5F8189013BBC2
:10538000B4F850102A78214401EBC201B1F802248C
:10539000C2F30902A1F8022401F202413E2808D911
:1053A0004209C30600D1521E0B8847EA822208E058
:1053B00021E078B14208C30700D0521C0B8808EAEC
:1053C000822213430B80697800293FF42EAF012914
:1053D00009D010E00A8842F400420A80F3E700286E
:1053E0007FF443AF3DE7B4F8502011192A7801EB60
:1053F000C201A1F80604297834F821004BF68F7217
:10540000104080F4405040EA0A0024F821000020B7
:10541000A8E50021A0F844104BF68071A0F84010D8
:10542000002070470148FCF7D6BA0000181400208D
:10543000B0F84400704710B510445C0800F5806077
:1054400008D030F8022B01F8012B120A01F8012BC9
:10545000641EF6D1DA0701D00088087010BD11B9BA
:105460008021A0F84C1000207047000010B55B1C94
:1054700010445B0800F580600AD000BF11F8012BD2
:1054800011F8014B42EA042220F8022B5B1EF5D1F1
:1054900010BDFEE70FB4084B10B504A902AA03988B
:1054A00000F044FF044602A9002000F0E9FF204676
:1054B00010BC5DF814FB00008164000803B401987F
:1054C0004100009850EAC12018BF04204A0D18BFBF
:1054D00040F0010040F2FF72B2EB515F08BF40F0B4
:1054E0000200012808BF052002B070470907090E15
:1054F000002804DB00F1E02080F80014704700F081
:105500000F0000F1E02080F8141D7047000000003B
:105510002DE9F04D2DED040B2DED0E8B96B0DDE950
:105520002550279CDDF890A025F0004624F0004887
:10553000BAF1000F14BF0121002101EB4502FC4923
:1055400053184A1093422AD3002814BF0123002382
:1055500003EB44030B44F7498B4220D358EA000184
:105560009FEDF59B76D0DFF8D8B35D4503D1BAF156
:10557000000F05D188E0BAF1000F08BF002100D06C
:10558000012101EB450111F5001F08D8002814BFC7
:105590000121002101EB440111F5001F0BD99DED04
:1055A000261B9DED240B16B0BDEC0E8B04B0BDE8A0
:1055B000F04D00F069BE0027002DBCBFE1498845D1
:1055C00021DAE1498845A8BF02271CDAC3451ADC65
:1055D000DE4901EB2851142908DDC1F1340220FA1B
:1055E00002F101FA02F282420DD108E058B9C1F18C
:1055F000140228FA02F101FA02F2424503D101F045
:105600000101C1F1020756EA0A0124D1002C22DA75
:10561000002D18BF022F01D0012F0AD0022000F068
:105620007FFE16B0BDEC0E8B04B0BDE8F04D00F06F
:1056300013BE022000F074FE00F00EFE51EC100BC1
:1056400081F0004141EC100B16B0BDEC0E8B04B0A4
:10565000BDE8F08D18E09FEDBEAB9FEDBF8B00283D
:1056600071D1B848804522D105F1804010F58010F5
:1056700008BFBAF1000F07D0B3450ADC002CA8BF61
:105680009DED260BE0DA0DE0B0EE490AF0EE690A76
:10569000DAE7002C06DA9DED260B51EC100B81F0B9
:1056A00000416FE0AE48784490ED000BCCE7D84560
:1056B0004DD1002C48DA2EB186423AD1BAF1000F12
:1056C00042D126E0BAF1000F13D0022000F028FEEC
:1056D00000F0F6FD8DED020B9DED240B8DED000B22
:1056E00010EE900A039961F31E0003909DED020BEA
:1056F000AAE78DED02AB9DED240B1AEE901A10EE89
:10570000900A8DED000B61F31E0003909DED020BDE
:105710009AE78DED028B9DED240B18EE901A10EE9A
:10572000900A8DED000B61F31E0003909DED020BBE
:105730008AE709DA9DED240B51EC190B53EC102B81
:10574000FBF716F81EE020E09DED240B7CE7864277
:105750001BDAB4F1804F0DD0A4F10050B0F1FF502E
:1057600013D1002D11DB9DED240B51EC100B01F03A
:1057700013FC07E09DED240B53EC102B51EC100BA8
:1057800000F0C2BC41EC100B5EE79DED240B51EC28
:10579000100B00F091FEBAF1000FCDE90E0142D1DD
:1057A0009FED710B46B3A6F1E040B0F17F600CD0E5
:1057B0005E4538D1002D00DAA7B3022F0CBF0120BF
:1057C0004FF0FF30FBF75AF8DCE7002D01DD002C2D
:1057D0000DDA002D01DD002C1FDB002D16DA002C68
:1057E00014DB012F08BF9FED620B3FF42DAFB0EE2D
:1057F0004A0AF0EE6A0A27E7022F18BF002D0CD0E4
:10580000012F0AD1002DFFF61FAF06E0002DB8BF13
:10581000002C08DA012F3FF417AFB0EE480AF0EE83
:10582000680A11E71BE0012000EBE57050EA070170
:1058300015D0791EB0EE498AF0EE698A084308BF98
:105840009FED4D8B4E480025804570DD4D494E48FB
:10585000884514DDB0420DDB002C19DB2FE0012060
:1058600000F05EFD16B0BDEC0E8B04B0BDE8F04D4F
:1058700000F016BDB34502DC002C09DC1FE08642B7
:1058800002DA002C1BDA03E05E452BDD002C16DD6E
:10589000022000F045FD00F013FD8DED020B53ECEE
:1058A0001A2B51EC180BFAF706FECDE9000103990B
:1058B000019861F31E0003909DED020BC4E60220E7
:1058C00000F02EFD00F00CFD10EE901A18EE900A7C
:1058D0008DED020B8DED008B61F31E0003909DEDAD
:1058E000020BB1E69DED0E0B53EC192B51EC100B96
:1058F000FAF7DBFD9FED260BCDE9080153EC102BE9
:105900009DED080B51EC100BFAF7D5FD9FED221B16
:1059100053EC112BFAF7CCFD9DED081B53EC112B2A
:10592000FAF7C9FD9FED1E1B53EC112B3CE08CE0F8
:10593000FFFF1F00FFFF0F00000000000000F03F0E
:105940000000F03F0000F07F0000404301FCFFFF3B
:10595000000000000000F07F0000000000000000D8
:10596000E62B0000000000000000000000000080A6
:10597000000000000000F0FF000000000000F0BF89
:105980000000E0410000F043FFFFEF3F0000000097
:10599000000000000000D03F555555555555D53FE6
:1059A000000000000000E03FFAF782FD9DED080BCB
:1059B00041EC1A0B53EC102B51EC100BFAF77BFD5A
:1059C00053EC1A2BFAF777FD41EC1A0B9FEDFE0B07
:1059D00053EC102B9DED080B51EC100BFAF76BFDFF
:1059E00041EC1B0B9FEDFA0B51EC1A0B53EC102BF7
:1059F000FAF761FD41EC1A0B9FEDF70B53EC102BFE
:105A00009DED080B51EC100BFAF755FD53EC1A2BDA
:105A1000FAF74BFD41EC1A0B51EC1B0B53EC1A2B14
:105A2000FAF7A2FC0690CDE906519DED060B53EC6A
:105A30001B2B51EC100BFAF738FD53EC1A2BFAF72D
:105A400037FD41EC100B00F0A1B90020B6F5801F26
:105A50000EDA9FEDE30B53EC102B9DED0E0B51EC8A
:105A6000100BFAF728FDCDE90E016FF034000E4659
:105A700000EB2650A0F2FF37C6F31300DA4940F0DE
:105A80007F6646F040568842D8BF002408DDD749DB
:105A90008142C8BF012403DC0024A6F580167F1CC8
:105AA000D348784400EBC4000F9690ED00CB9DEDF9
:105AB0000E0B53EC1C2B51EC100BFAF7F6FC9DED82
:105AC0000E0B41EC1B0B53EC1C2B51EC100BFAF79B
:105AD0004BFC41EC100B51EC190B53EC102BFAF76B
