:020000040800F2
:10000000E02500209D0100083F1F0008AF1A0008EE
:100010003D1F000871030008CD2400080000000007
:1000200000000000000000000000000005010008C2
:10003000B703000800000000490100080121000882
:10004000B7010008B7010008B7010008B7010008B0
:10005000B7010008B7010008B7010008B7010008A0
:10006000B7010008B7010008B701000875030008D0
:10007000B7010008B701000881030008B7010008B4
:10008000B7010008B7010008B7010008B701000870
:10009000B7010008B7010008B7010008B701000860
:1000A000B7010008B7010008B7010008B701000850
:1000B000B7010008B7010008A9210008B70100082E
:1000C000B7010008B7010008B7010008B701000830
:1000D000B7010008B9240008B7010008B7010008FB
:1000E000B7010008B7010008B7010008DFF810D019
:1000F00000F08AF80048004739250008AFF3008077
:10010000E0250020224B19680868B0E8F00F80F362
:100110000988BFF36F8F4FF0000080F311884EF015
:100120000D0E70470000000006480068006880F36C
:10013000088862B661B6BFF34F8FBFF36F8F00DFE1
:1001400000BF00BF08ED00E0EFF30980BFF36F8F41
:100150000F4B1A6820E9F00F106008B54FF05000FF
:1001600080F31188BFF34F8FBFF36F8F02F0DEFD76
:100170004FF0000080F31188BDE808401968086856
:10018000B0E8F00F80F30988BFF36F8F704700BFAE
:1001900028000020EFF305807047000006488047E4
:1001A00006480047FEE7FEE7FEE7FEE7FEE7FEE75C
:1001B000FEE7FEE7FEE7FEE7A5210008ED000008E8
:1001C00040EA01039B0703D009E008C9121F08C0D9
:1001D000042AFAD203E011F8013B00F8013B521E59
:1001E000F9D27047D2B201E000F8012B491EFBD2D0
:1001F00070470022F6E710B513460A460446194632
:10020000FFF7F0FF204610BD064C074D06E0E06802
:1002100040F0010394E8070098471034AC42F6D34D
:10022000FFF768FF1C3100083C31000870B5044638
:1002300000688168C943C90717D1816821F00101AD
:10024000816000F019FD05460AE000BF00F014FDD2
:10025000401B022804D920688068C043C00706D02C
:1002600020688068C043C007F0D0002070BDA06A3D
:1002700040F01000A062E06A40F00100E06201205E
:1002800070BD10B50146406A826A12F0500F05D069
:10029000006A026BBDE8104008461047816A41F4CD
:1002A0000071816201688968C1F3424107290CD15C
:1002B000017B51B9816A21F480718162816AC9042C
:1002C00003D4816A41F00101816200F0F5F810BDAC
:1002D00010B5406A816A41F040018162C16A41F013
:1002E0000401C16200F0EAF810BD10B5406A00F0E8
:1002F000E4F810BDF8B50026044600960068816851
:10030000C943C9072DD0816841F0010181601648B9
:1003100016490068B0FBF1F000E0401E0090002894
:10032000FBD100F0A9FC054616E000BF00F0A4FCDC
:10033000401B022810D920688068C043C0070BD03A
:10034000A06A40F01000A062E06A40F00100E062A4
:1003500084F824600120F8BD20688068C043C0078D
:10036000E4D10020F8BD00002400002040420F002E
:10037000FEE70000014800F07FBA0000D81100201D
:10038000014800F079BA00006412002030B590F8FE
:1003900040500124AC40C56B6C60046863604368E6
:1003A000102B036803D099600068C26030BD9A606A
:1003B0000068C16030BD704772B6FEE7F8B5002432
:1003C000009490F824202546012A12D0012280F8BA
:1003D00024204A681F23072A0DD20668776B521E15
:1003E00002EB820293409F430B6893401F43776365
:1003F00019E00220F8BD06680D2A0AD2376BD21F19
:1004000002EB820293409F430B6893401F43376384
:1004100009E0F76A0D3A02EB820293409F430B68B2
:1004200093401F43F7620A68072306680A2A0AD323
:10043000F7680A3A02EB420293409F438B6893406D
:100440001F43F76008E0376902EB420293409F4385
:100450008B6893401F4337610A68102A01D0112A24
:1004600020D1124B02689A4217D193681B0219D40B
:10047000936843F4000393600968102912D10C4972
:100480000C4A0968B1FBF2F101EB8101490000E07F
:10049000491E00910029FBD104E0816A41F020014E
:1004A0008162012480F824502046F8BD00240140D8
:1004B0002400002040420F00704770477047000042
:1004C0002DE9F0414FF0000704003D467ED0A06AC0
:1004D000002628B9E66284F82460204600F07EF801
:1004E0002046FFF7A3FEA16AC90600D420B1A06A86
:1004F00040F01000A06269E0A16A21F4885141F047
:100500000201A1626268E169237B0A4347EA430171
:100510000A43A1684FF48077B94209D0012907D076
:100520005FF0000194F814C0BCF1010F02D00AE0A2
:100530003946F7E7F3B1A36A43F02003A362E36A05
:1005400043F00103E3622368D3F804C02CF4694C40
:100550004CEA010CC3F804C021688B68DFF870C056
:1005600003EA0C0313438B60A168B9420BD0012945
:1005700009D00CE0DFF85CC0A3690CEB43330B43FC
:1005800043F40061DFE7218A0D05A5F58015216898
:10059000CB6A23F470032B43CB62216889680E4B2E
:1005A0001940914208D1E662A16A21F0020141F0AE
:1005B0000101A162BDE8F081A06A20F0020040F0D4
:1005C0001000A062E06A40F00100E0620120F1E763
:1005D000FDF7E1FF00E0FFFFFE0E1FFF70B586B0E4
:1005E000002605460096019602960396006821496A
:1005F00088423DD12049886940F40070886188694B
:1006000000F400700490886940F0040088618869F3
:1006100000F004000490886940F00800886188694F
:10062000032400F008000490FF20CDE9000469468F
:10063000124800F031FA009469461148019400F024
:100640002BFA114C0F48C4E900068020C4E902606F
:1006500040002061800060612020A0610002E06114
:10066000204600F0B3F908B1FFF7A6FE2C626562E0
:1006700006B070BD00240140001002400008014097
:10068000000C014008000240D81100202DE9F0477D
:10069000894604463B4900683B4F0E1D9046884200
:1006A00001D0B84207D1306810F4702F03D0012573
:1006B0002846BDE8F08794F8240001280CD00120DA
:1006C00084F824002046FFF715FE05004FF00000D7
:1006D00004D084F82400EBE70220EAE7A16A40F6A0
:1006E0000162914341F48071A1622168B94218D13D
:1006F000326812F4702F14D0A16A41F48011A16203
:100700003168490505D5A16A21F4005141F48051B1
:10071000A162A16AC9040AD5E16A21F00601E16279
:1007200006E0A26A22F48012A2624968E9E7E06268
:1007300084F82400216A15488862216A1448C86236
:10074000216A1448086321686FF00200086020687D
:10075000816841F480718160216843464A464C318A
:10076000206A00F061F920688168C1F342410729DD
:10077000816803D041F48011816099E741F4A001C0
:10078000FAE700000024014000280140830200082D
:10079000EB020008D102000810B590F821100022E9
:1007A000022905D00421816380F82020012010BD9A
:1007B00001680B6823F00E030B6001680B6823F0DF
:1007C00001030B6090F84030C46B012101FA03F380
:1007D000636080F8211080F82020104610BD0000D2
:1007E00010B590F821100024022903D00421816360
:1007F00001243DE001680A6822F00E020A600168E7
:100800000A6822F001020A601A4A0168914201D185
:10081000012121E0174A1432914201D110211BE03D
:10082000144A2832914201D1891515E0114A3C320F
:10083000914201D189140FE00E4A5032914202D107
:100840004FF4803108E00B4A6432914202D14FF4F8
:10085000801101E04FF08071064A083A5160012191
:1008600080F82110002180F82010416B01B18847E9
:10087000204610BD080002402DE9F05FC16B0C68F6
:1008800001680B68D0F840C0042202FA0CF2494D0E
:10089000DFF824A1494E4A4FDFF828B1DFF828E1FC
:1008A00022422CD05A072AD50A68920603D40A6835
:1008B00022F004020A600168A94201D1042219E071
:1008C000514501D1402215E0B14202D14FF480627E
:1008D00010E0B94202D14FF480420BE0594502D1F9
:1008E0004FF4802206E0714502D14FF4800201E00E
:1008F0004FF080622F4908394A60C16A3BE04FF0EF
:10090000020808FA0CF818EA040F4FF000094FF03B
:10091000010235D05FEA837832D50B689B0605D497
:100920000B6823F00A030B6080F821200168A942BC
:1009300001D1022219E0514501D1202215E0B14236
:1009400002D14FF4007210E0B94202D14FF40052CC
:100950000BE0594502D14FF4003206E0714502D157
:100960004FF4001201E04FF00072124908394A605A
:1009700080F82090816A00291AD0BDE8F05F08470E
:10098000082505FA0CF5254212D01B0710D50B6877
:1009900023F00E030B6090F84010C36B02FA01F1D4
:1009A0005960826380F8212080F82090016BE2E793
:1009B000BDE8F09F080002401C00024030000240E9
:1009C00044000240580002406C00024030B528B399
:1009D00008C8134914221944B1FBF2F18900C1631C
:1009E00010498163022141771A6843F6F0718A4306
:1009F000D0E900142143D0E902452C432143046986
:100A00002143446921438469214311431960002132
:100A10004163012242770177084630BD012030BD95
:100A2000F8FFFDBF0000024070B5044690F82000BA
:100A3000002501280CD0012084F8200094F82160C2
:100A40000020012E06D084F820000225284670BD23
:100A5000022070BD022684F82160A0632068066829
:100A600026F0010606602046FFF790FCE06A0028A9
:100A70002068016802D041F00E0106E021F0040177
:100A800001602068016841F00A0101602068016886
:100A900041F001010160D9E72DE9F84FDFF8B89185
:100AA0000024A9F1040B23460F2709F1040AABF136
:100AB000040EC9E00125A5402A40AA427DD1674E17
:100AC000D1F804C0ACEB0608B44532D014DCBCF15C
:100AD000030F3AD009DCBCF1000F2AD0BCF1010FA2
:100AE0001CD0BCF1020F31D11DE0BCF1110F17D0A9
:100AF000BCF1120F2AD119E0B8F5881F19D006DC15
:100B0000B8F5803F15D0B8F5801F1FD111E0B8F5BA
:100B1000001F0ED0B8F5041F18D10AE0CB6815E00D
:100B2000CB681B1D12E0CB6808330FE0CB680C3399
:100B30000CE08B682BB1012B4FF0080303D045610B
:100B400004E0042302E0056100E00023FF2A01D84D
:100B5000064601E000F104064FEA840501D9A5F13B
:100B60002005D6F8008007FA05FC28EA0C0803FAED
:100B700005F548EA0508C6F800804D68ED0062D525
:100B8000374DAE6946F00106AE61AD6924F003064B
:100B900005F001050095334D06EB050CDCF8085017
:100BA000A607360F07FA06F825EA0805DFF8B88029
:100BB000404503D14FF0000817E044E0DFF8AC8077
:100BC000404502D14FF001080FE0DFF8A480404516
:100BD00002D14FF0020808E0DFF89880404502D1CA
:100BE0004FF0030801E04FF0040808FA06F848EA5D
:100BF0000508CCF808804D68D9F80060ED024D4634
:100C000001D5164300E096432E604D68DAF8006087
:100C1000AD02554601D5164300E096432E604D685F
:100C2000DBF80060AD035D4601D5164300E0964356
:100C30002E604D68DEF80060ED03754601D5164361
:100C400000E096432E60641C0D682A46E5407FF460
:100C500031AFBDE8F88F000008040140000011101A
:100C6000001002400000014000080140000C01405B
:100C700000100140001401400148806870470000E6
:100C80001800002002488168027811448160704792
:100C900018000020074810B5016841F010010160FC
:100CA000032000F0A7F80F2000F006F800F050F83D
:100CB000002010BD0020024030B505461F4887B017
:100CC000C16941F00401C161C06906A900F00400D6
:100CD000009001A800F0ACF90498B0B100F0C8F998
:100CE00040001749174AB0FBF1F11748491E02604E
:100CF000416040F2E7320021C0E903218160816157
:100D000000F08EFB040003D015E000F0B1F9E8E735
:100D10000D4800F0B3FB04000DD11E2000F03CF89C
:100D2000102D07D2002229461E2000F043F8074864
:100D3000056000E0012407B0204630BD00100240ED
:100D400040420F0000080040A81200201C000020B4
:100D50000F4808B5816941F001018161816901F0A5
:100D600001010091C16941F08051C161C069002257
:100D700000F0805000900F21901E00F01BF80548F5
:100D8000416821F0E06141F00071416008BD000060
:100D90000010024000000140002809DB00F01F02A3
:100DA000012191404009800000F1E020C0F80011CD
:100DB00070470000F0B40E4B1B680C46C3F30223CF
:100DC000C3F10705042D00D90425191D072901D2F7
:100DD000002300E0DB1E012606FA05F1491E214032
:100DE00099409E40761E16403143F0BC01F06FBB27
:100DF0000CED00E0064900F0070208684FF6FF031B
:100E0000184040EA0220034A10430860704700007F
:100E10000CED00E00000FA052DE9F84305460078E6
:100E2000354CC00754D0E0690026C00008D4E06902
:100E300040F08050E061E069012600F080500090B1
:100E40002E480168C90512D40168804641F48071BA
:100E50000160FFF711FF074605E000BFFFF70CFF39
:100E6000C01B642823D8D8F80000C005F6D5206A36
:100E700010F4407021D0A98801F4407181421CD047
:100E8000206A1F49012220F440700A6000220A6093
:100E90002062C00711D0FFF7EFFE074641F2883805
:100EA00008E000BFFFF7E8FEC11B414502D903205F
:100EB000BDE8F883206A8007F4D5206A696820F4C9
:100EC0004070084320621EB1E06920F08050E0616C
:100ED0002878800705D56068A96820F44040084359
:100EE00060602878C00605D56068E96820F4800055
:100EF000084360600020DBE7001002400070004003
:100F0000400442422DE9F0470F46050061D0434EB0
:100F1000306800F00700B84209D2306820F00700BE
:100F200038433060306800F00700B84251D128687B
:100F30003B4C810712D5400703D5606840F4E06060
:100F400060602878000703D5606840F460506060F6
:100F50006068A96820F0F000084360602878C00746
:100F600028D06868012810D02168022810D089078D
:100F700000292EDA616821F0030101436160FFF767
:100F80007BFE804641F288390DE021688903EFE756
:100F90008901EDE7FFF770FEA0EB0801494502D992
:100FA0000320BDE8F0876068696800F00C00B0EBD2
:100FB000810FEFD1306800F00700B8420BD93068DC
:100FC00020F0070038433060306800F00700B84276
:100FD00001D00120E5E72878400705D56068E96879
:100FE00020F4E060084360602878000706D5606858
:100FF000296920F4605040EAC100606000F058F8B0
:101000006168084AC1F30311515CC8400649086091
:1010100006480068FFF750FE0020C2E700200240AB
:1010200000100240E2300008240000201C000020D4
:101030000F2202600C4A536803F0030343605368B5
:1010400003F0F0038360536803F4E063C360526805
:101050004FF4E06303EAD20202610448006800F042
:1010600007000860704700000010024000200240A6
:101070000448054900684968044AC1F30221515CEB
:10108000C84070472400002000100240F2300008E1
:101090000448054900684968044AC1F3C221515C0B
:1010A000C84070472400002000100240F2300008C1
:1010B0000E4A51680E4801F00C03042B11D0082B86
:1010C0000FD10C48C1F38343C903C05C0AD55168F2
:1010D000084AC1F34041921E515C054A5043B0FB9F
:1010E000F1F0704704494843704700000010024087
:1010F00000127A00D230000800093D002DE9F84FB7
:10110000040070D02078C04DC00749D06868C0F393
:101110008100012807D06868C0F38100022809D146
:101120006868C00306D52868800339D56068002840
:10113000E7D035E06068B0F5803F0BD010B1B0F576
:10114000A02F11D0286820F480302860286820F46F
:10115000802002E0286840F480302860606890B108
:10116000FFF78AFD06460AE0286840F480202860E0
:10117000F0E700BFFFF780FD801B642873D8286864
:101180008003F7D50CE0FFF777FD064605E000BFCA
:10119000FFF772FD801B6428F0D828688003F7D41D
:1011A00020789A4E80074FF001094FF0000839D59A
:1011B000686810F00C0F07D06868C0F3810002283F
:1011C00009D16868C00306D42868800714D520694F
:1011D000012808D110E02069B0B1C6F80090FFF7EF
:1011E0004BFD074605E00AE1FFF746FDC01B02285C
:1011F000C4D828688007F7D52868616920F0F8000E
:1012000040EAC10028600DE0C6F80080FFF734FD19
:10121000074604E0FFF730FDC01B022823D82868EA
:101220008007F7D4207800072CD57948A169D9B177
:10123000C0F80090FFF720FD074604E0FFF71CFD13
:10124000C01B02280FD8686A8007F7D571484FF491
:10125000FA510068B0FBF1F0009000BF0098411E09
:101260000091FAD20EE080E0C0F80080FFF704FDA4
:10127000074604E0FFF700FDC01B022875D8686A26
:101280008007F7D42078400760D5E8690027C000C0
:1012900008D4E86940F08050E861E869012700F06F
:1012A000805000905C480168C90513D401688346EA
:1012B00041F480710160FFF7DFFC824606E000BF69
:1012C000FFF7DAFCA0EB0A0064284ED8DBF8000038
:1012D000C005F5D5E06801280AD008B1052813D06B
:1012E000286A20F001002862286A20F0040002E049
:1012F000286A40F001002862E06841F2883B98B11A
:10130000FFF7BAFC82460BE0286A40F0040028622E
:10131000EEE700BFFFF7B0FCA0EB0A0159455AD831
:10132000286A8007F6D50CE0FFF7A6FC824605E0A8
:10133000FFF7A2FCA0EB0A0159454CD8286A8007A8
:10134000F6D41FB1E86920F08050E861E06988B305
:101350006968C1F38101022944D00228C6F860807F
:1013600004D0FFF789FC044638E034E0FFF784FC42
:10137000074604E0FFF780FCC01B02282BD8286832
:101380008001F7D4206AB0F5803F05D16868A16874
:1013900020F4003008436860D4E908010843696814
:1013A00021F4741108436860C6F86090FFF764FC8C
:1013B000044606E025E000BFFFF75EFC001B0228A4
:1013C00009D828688001F7D51BE000BFFFF754FC5F
:1013D000001B022802D90320BDE8F88F286880018D
:1013E000F4D40EE00128F7D06868226A00F4803156
:1013F000914204D1616A00F47010884201D001204A
:10140000EAE70020E8E70000001002400000424246
:101410008004424224000020007000407047704762
:1014200010B5040003D094F83D0010B107E001208E
:1014300010BD002084F83C00204600F01EF8022079
:1014400084F83D00211D206800F0B4FE012084F8DE
:10145000460084F83E0084F83F0084F8400084F899
:10146000410084F8420084F8430084F8440084F882
:10147000450084F83D00002010BD704790F83D10F5
:10148000012901D001207047022180F83D10016838
:10149000CA6842F00102CA6000680B49884208D05D
:1014A000B0F1804F05D00949884202D008498842EE
:1014B00004D1816801F00701062903D0016841F0D9
:1014C0000101016000207047002C01400004004031
:1014D0000008004070472DE9F04104460068C668E6
:1014E00005694FF00007A90713D5B10711D5F91EFB
:1014F000016101202077206880698007204602D0A2
:10150000FFF7E8FF04E000F07EF8204600F07CF8EA
:101510002777680716D5700714D521686FF0040087
:101520000861022020772068806910F4407F2046FF
:1015300002D0FFF7CFFF04E000F065F8204600F08E
:1015400063F82777280715D5300713D521686FF082
:1015500008000861042020772068C06980072046C1
:1015600002D0FFF7B7FF04E000F04DF8204600F08E
:101570004BF82777E80616D5F00614D521686FF0EA
:1015800010000861082020772068C06910F4407FAF
:10159000204602D0FFF79EFF04E000F034F820461A
:1015A00000F032F82777E80708D0F00706D0216866
:1015B0006FF001000861204600F028F8280608D5E1
:1015C000300606D521686FF0800008612046FFF7DD
:1015D00025FF680608D5700606D521686FF0400023
:1015E0000861204600F01CF8A8060AD5B00608D508
:1015F00021686FF0200008612046BDE8F041FFF748
:101600000EBFBDE8F08170477047000000680349D5
:10161000884201D1FFF736BB704700000008004048
:101620007047704710B504460068406994F841104F
:10163000C0F3C010212911D180B12068143050E8C6
:10164000001F21F0800140E80012002AF5D1A06BB4
:1016500008B1FFF7A1F8204600F062FE206840695B
:1016600094F84210C0F38010222911D180B1206873
:10167000143050E8001F21F0400140E80012002A19
:10168000F5D1E06B08B1FFF787F8204600F021FEA6
:10169000002010BD70470000F8B5016804460868D6
:1016A000CA684B6910F00F0F4FF0000559D003F0D6
:1016B000010602F49077374365D0C10705D0D10504
:1016C00003D5616C41F001016164410705D5D9077B
:1016D00003D0616C41F002016164810705D5D9072F
:1016E00003D0616C41F004016164010707D502F089
:1016F0002001314303D0616C41F008016164616CE9
:1017000000293AD0800604D5900602D5204600F084
:1017100015FE20684069616CC0F38010090700D491
:1017200060B3204600F0D5FD20684069400621D511
:101730002068143050E8001F21F0400140E80012FA
:10174000002AF5D1E06BA8B16D494163E06BFFF76A
:1017500047F8002811D0E06B416B01B0BDE8F040C4
:10176000084783060FD593060DD52046BDE8F840FF
:1017700000F0E4BD2046FFF78DFFF8BD2046FFF7DF
:1017800089FF6564F8BD266B2023012E7CD1C60637
:101790007AD5D60678D508684868009048694FF031
:1017A0000206400640D5E16B086840680004000C62
:1017B000E8D0A28D8242E5D9E085886920282DD025
:1017C00020680C3050E8001F21F4807140E80012BE
:1017D000002AF5D12068143050E8001F21F00101E3
:1017E00040E80012002AF5D12068143050E8001FAC
:1017F00021F0400140E80012002AF5D184F842307F
:10180000256320680C3050E8001F21F0100140E8EB
:101810000012002AF5D1E06BFEF7BEFF6663A08DD3
:10182000E18D401A81B22AE0A08DE18D401A81B28B
:10183000E08D0028A6D00029A4D022680C3252E8FE
:10184000000F20F4907042E80007002FF5D12068C7
:10185000143050E8002F22F0010240E80027002F4A
:10186000F5D184F84230256320680C3050E8002F11
:1018700022F0100240E80023002BF5D166632046D9
:10188000FFF7CFFEF8BDFFE705062BD5150629D5D6
:1018900094F841002128F5D1A068B0F5805F01D10E
:1018A0002069B0B1206A411C21622168007848603B
:1018B000E08C401E0004000CE084E3D12068C16885
:1018C00021F08001C1602068C16841F04001C16021
:1018D000D8E7206A0088C0F308004860206A801CAE
:1018E0002062E5E74006CDD55006CBD5CA68204634
:1018F00022F04002CA6084F8413000F0CBF8C1E722
:101900002D22000870B5040004D094F84100002591
:1019100010B106E0012070BD84F84050204600F070
:1019200023F8242084F841002068C16821F4005184
:10193000C160204600F064FD2068016921F49041F7
:1019400001612068416921F02A0141612068C16874
:1019500041F40051C1606564202084F8410084F89E
:1019600042006563002070BD70B586B00025064654
:1019700000950195029503950068224988423FD160
:101980002149886940F480408861886900F480407A
:101990000490886940F00400886188691B4C00F05D
:1019A0000400049048150090022001900320039049
:1019B00069462046FFF770F82015CDE90005694615
:1019C00020460295FFF768F8124C1148206010205D
:1019D000C4E901058020C4E903056561A5612046CD
:1019E000E561FEF7F3FF08B1FEF7E6FCB463002201
:1019F000052125206662FFF7DDF92520FFF7CCF9E8
:101A000006B070BD003801400010024000080140DF
:101A100044000240641200207047000070B5044684
:101A200090F84100202801D0022070BD49B342B394
:101A30002162A284E28400206064212384F8413082
:101A4000A56B114BAB62A56B104BEB62A56B104BFA
:101A50002B63A36B5863256813462A1DA06BFEF702
:101A6000E3FF21686FF0400008602068143050E800
:101A7000001F41F0800140E80012002AF5D100204B
:101A800070BD012070BD000087220008C922000837
:101A90003D22000800680349884202D10248FFF74E
:101AA000C1BD7047003801401C1200207047FEE79E
:101AB000044908B58A6902438A6189690140009135
:101AC00008BD000000100240F0B50A68C2F30F25FF
:101AD00095FAA5F2B2FA82F369E001229A402A420D
:101AE00064D0082B03D240F201129A4006E0A3F121
:101AF00008024FF00114944044F080624C68082CB6
:101B00000BD10C69C668170A97FAA7F7B7FA87F7D7
:101B100026EA1226BC402643C66092FAA2F700EBE2
:101B20001264B7FA87F74FEA870C0F27266807FA7F
:101B30000CF7BE4392FAA2F7D1F804E0B7FA87F7A0
:101B4000BF000EFA07FE46EA0E0626604F68012F18
:101B500001D0092F2AD192FAA2F7B7FA87F74FEAF4
:101B6000870C032707FA0CF7BE4392FAA2F7B7FADD
:101B700087F7D1F808E0BF000EFA07FE92FAA2FC40
:101B800046EA0E06BCFA8CFC4FEA8C0E4FF0040CB1
:101B900026600CFA0EFC92FAA2F2B2FA82F2CF6838
:101BA000920026EA0C0697403E4326605B1C35FAFD
:101BB00003F292D10020F0BDF0B50268154B164C2F
:101BC000164D4FF08046984205D0B04203D0A04257
:101BD00001D0A84203D14F6822F070023A439842E4
:101BE00005D0B04203D0A04201D0A84203D1CC68B6
:101BF00022F44072224302608A68C2620A888262CA
:101C0000984201D109690163416941F001014161D3
:101C10000020F0BD002C01400004004000080040FE
:101C2000064C6614E06826EA000500F4005045EA18
:101C300000402061C82000F0A1FCF3E70010014043
:101C4000FEB500243E48009401943C490294016092
:101C5000891581600125057304750A2606614FF414
:101C600060214460C161FEF72BFC08B1FEF7A4FBC4
:101C7000CDE900450524694631480294FEF79EFBF4
:101C800008B1FEF799FB0095022569462C4801959D
:101C9000FEF794FB08B1FEF78FFB0095032569461C
:101CA00027480195FEF78AFB08B1FEF785FB0095F2
:101CB0000425694622480195FEF780FB08B1FEF72E
:101CC0007BFBCDE9005469461D48FEF777FB08B160
:101CD000FEF772FB00940624694619480194FEF74A
:101CE0006DFB08B1FEF768FB0094072469461448B1
:101CF0000194FEF763FB08B1FEF75EFB0094082435
:101D000069460F480194FEF759FB08B1FEF754FBF2
:101D10000094092469460A480194FEF74FFB08B174
:101D2000FEF74AFBCDE9004669460548FEF746FB4B
:101D3000002801D0FEF740FBFEBD0000002401405A
:101D4000A81100200D4808B5416941F00101416129
:101D50004069002200F00100009005210B20FFF7F0
:101D600029F80B20FFF718F8002205210E20FFF7B5
:101D700021F8BDE808400E20FFF70EB80010024021
:101D800010B596B01C2211496846FEF719FA0021D9
:101D9000684600F0FFFB0E4C0C491C22E0601C3131
:101DA00007A8FEF70DFA002107A800F0F3FB07498A
:101DB00020611C2238310EA8FEF702FA00210EA87D
:101DC00000F0E8FB606116B010BD00007C30000838
:101DD000000000202DE9F04F85B014216846FEF781
:101DE00008FA1020FFF764FE2020FFF761FE0420B0
:101DF000FFF75EFE0820FFF75BFE224E20494FF4FE
:101E000000503061DFF88480DFF87CA048F2F832BF
:101E1000C8F81020DFF878904FF41942C9F8102064
:101E2000DFF870B080007061012403278DE8920014
:101E30000025CDE9035469463046FFF745FE0220F0
:101E4000CDE90205CDE900B4694630460495FFF7B7
:101E50003BFECDF800A0CDE90147CDE9035469462A
:101E60004046FFF731FE0C4869468DE89100CDE908
:101E700003544846FFF728FE05B0BDE8F08F000088
:101E80002000200400100140FBF88304000C0140F6
:101E900000080140800080049900990410B586B0C4
:101EA00014216846FEF7A5F91448C16941F0020102
:101EB000C161C0694FF6FF7100F002000590472034
:101EC000ADF800000020CDE901010D4C03906946FA
:101ED0002046FFF771FE206820F080002060A06897
:101EE00044F207018843A060606820F070006060E1
:101EF000A06820F08000A06006B010BD0010024075
:101F0000000400400C4810B50A4901604FF4E1217B
:101F10004160002181600C22C160C0E9041281612E
:101F2000C161FFF7EFFC002803D0BDE81040FEF7C9
:101F300043BA10BD003801401C120020FEE7FEE746
:101F40002DE9F0431D4908278B14BD011C4ADE0012
:101F500010244FF4006C4FF020090A2809D2DFE862
:101F600000F0050A0E1114171A1E22270D61C2F87F
:101F700014C0BDE8F083C2F810C05361F9E71361E3
:101F80005661F6E716614F61F3E70F614C61F0E7C8
:101F90000C6148460AE0C1F81090402006E040205D
:101FA0000861802002E08020086140004861E0E78D
:101FB0004FF4807008614D61DBE70000000C0140C8
:101FC0000008014008B50A2247494848FEF75EFB71
:101FD000474855210170AA224270BB248470CC2747
:101FE000C77000254FF47A736E1C00EB4505AE8078
:101FF000B5B29D42F8D380F8D42780F8D51766256E
:1020000080F8D657772680F8D7673A480170427033
:102010008470C7700024022700EB440807EB440CCF
:10202000A8F804C0641CA4B29C42F5D380F8D4275D
:1020300080F8D51780F8D65780F8D76700F050FFA2
:10204000DFF8A4802C4E009000240125642004FBBE
:1020500000F7681EC0B2FFF773FF462000F0EAFCED
:1020600005EB8501B26807EB410302EB4301B8F8C9
:1020700000C0404621F810CCB8F802C021F80ECCC0
:10208000B8F804C021F80CCCB8F806C021F80ACC86
:10209000B8F808C021F808CCB8F80AC021F806CC76
:1020A000B0F80CC021F804CCB0F80EC021F802CC76
:1020B000B0F810C022F813C0B8F8120048806D1CA8
:1020C000ADB20B2DC5D30521684600F0ABFD641CF5
:1020D000A4B20A2CB9D300F019FA4FF4FB620748F6
:1020E000B168FFF79BFCAFE794110020A811002016
:1020F000E4010020BC090020000000201C12002088
:1021000010B5502080F31188BFF34F8FBFF36F8F4E
:1021100000F0ECFE18B104494FF080500860002038
:1021200080F3118810BD000004ED00E030B593B0DD
:1021300028216846FEF75DF814210AA8FEF759F831
:10214000002501200F9510951195010412958DE839
:10215000230004904FF4E010CDE908100224079406
:102160006846FEF7CBFF08B172B6FEE70AA90F205A
:1021700081E831004FF48060CDE90D0502210AA805
:10218000FEF7C0FE08B172B6FEE74FF400401190B2
:102190000F940FA8FEF740FE002801D072B6FEE7AC
:1021A00013B030BD704700000148FFF794B900003C
:1021B000A8120020F0B50268194B1A4C1A4D4FF0C6
:1021C0008047984205D0B84203D0A04201D0A8422F
:1021D00003D122F070064A683243984205D0B842D3
:1021E00003D0A04201D0A84203D122F44074CA68AF
:1021F00022434C6922F08002224302608A68C26254
:102200000A688262984201D1096901630121416132
:102210000169C90703D0016921F001010161F0BD25
:10222000002C0140000400400008004010B5406A46
:102230000021C185C184FFF72DFA10BD70B5446A35
:102240002068406994F84110C0F3C010002521298E
:1022500004D118B1E584204600F062F82068406996
:1022600094F84210C0F38010222904D118B1E585FA
:10227000204600F02EF8606C40F0100060642046AC
:10228000FFF708FA70BD10B50146406A0968096891
:10229000890616D40021C1840168143151E8002F49
:1022A00022F0800241E80023002BF5D101680C31B7
:1022B00051E8002F42F0400241E80023002BF5D105
:1022C00010BDFFF7E7FB10BD10B5406AFFF7EEFB4E
:1022D00010BD01680C3151E8002F22F4907241E8E2
:1022E0000023002BF5D10168143151E8002F22F0B2
:1022F000010241E80023002BF5D1016B012909D12E
:1023000001680C3151E8002F22F0100241E800234F
:10231000002BF5D1202180F8421000210163704785
:1023200001680C3151E8002F22F0C00241E800237F
:10233000002BF5D1202180F84110704708B590F8A6
:102340004210222901D0022008BD82684FF4805338
:102350009A4201D1016921B1816A9A421BD04AB1E6
:102360000AE00268816A5268C2F308020A80816A40
:10237000891C08E0026972B10268526802F07F02AB
:102380000A70816A491C8162C18D491E0904090CC9
:10239000C18503D01BE002685268F1E70168CA6892
:1023A00022F02002CA600168CA6822F48072CA6002
:1023B00001684A6922F001024A61202180F8421036
:1023C00000214163026B012A03D0FFF725FB0020A7
:1023D00008BD016301680C3151E8002F22F01002A2
:1023E00041E80023002BF5D101680A68D20602D526
:1023F0000A6849680091818DFFF713F9E7E700004B
:1024000070B5044600680169E26821F44051114347
:1024100001612169A0680843616908432168CA68AD
:1024200041F20C639A430243CA6020684169A26981
:1024300021F44071114341611E492068884202D154
:10244000FEF726FE01E0FEF713FE00EBC00101EBF4
:102450000012606864218000B2FBF0F3B3FBF1F37B
:102460006FF018067343B2FBF0F5B2FBF0F605EB24
:102470008305322303EB0515B5FBF1F5B6FBF1F649
:1024800005F0F00505EB0615B2FBF0F6B2FBF0F037
:10249000B0FBF1F06FF01802504306EB800003EB45
:1024A0000010B0FBF1F0216800F00F0028448860B4
:1024B00070BD0000003801400148FFF7EDB8000092
:1024C0001C120020012000F059F8FBE7FEE7090785
:1024D000090E002804DB00F1E02080F800147047AA
:1024E00000F00F0000F1E02080F8141D704702E0BA
:1024F00008C8121F08C1002AFAD17047704700208F
:1025000001E001C1121F002AFBD170470848017881
:1025100041B100230749037001F5FB6223B1C0E913
:10252000011270470123F5E7C0E90121704700005F
:1025300000000020E4010020FEF7ACFBFFF7F6FDF1
:10254000FFF748FCFFF7FEFBFFF7DCFCFFF778FB2B
:10255000FFF7A4FC054800214162016841F0010138
:102560000160FFF70DFC00F010F8FEE700040040EA
:1025700001460020842900D0C81C704710B500B95E
:10258000012000F029FB002010BD10B500F090FBE9
:10259000002010BD7FB50D4604464169B0F9080022
:1025A00081B1A16971B1FFF7E3FFD4E905128DE8AC
:1025B0000700D4E900102B46226900F066FC039066
:1025C00004B070BDFFF7D4FF03A9CDE90001208A54
:1025D0002B4682B2D4E9001000F02AFC012801D079
:1025E0000020EDE70398EBE72DE9F041184C0F468A
:1025F0000546E6682068001D00F026FA38B9206814
:1026000090F82C1001208840216981432161681CC9
:1026100007D137B12168BDE8F0410E48091D00F02F
:1026200057BA20683544B5424560216805D2A06B91
:10263000BDE8F041091D00F033BA606B091D00F0E0
:102640002FFAA06A854200D2A562BDE8F0810000A1
:1026500028000020CC1300202DE9F041054600F0B1
:1026600043FA2E4CA068401CA06020682C4F10B18B
:10267000606940B32DE02560A068012829D10026BB
:1026800006EB860007EB800000F0FCF9761C072EB5
:10269000F6D323488C3000F0F5F92148A03000F043
:1026A000F1F91F48B43000F0EDF91D48C83000F0D2
:1026B000E9F91B48DC3000F0E5F919488C3060631B
:1026C0001430A06305E02068E96AC06A884200D837
:1026D0002560606A401C6062E96A012022698840C6
:1026E0001043206101EB810007EB8000291D00F001
:1026F000EFF900F019FA606900280CD02068E96A47
:10270000C06A884207D207494FF080500860BFF383
:102710004F8FBFF36F8FBDE8F081000028000020CD
:10272000F012002004ED00E010B5044690F85100CE
:1027300058B101280CD002280FD0502080F3118806
:10274000BFF34F8FBFF36F8FFEE7206B00F000FAEF
:102750002046BDE8104000F0FBB910BD10484FF412
:102760000061420706D0C01D0D4920F00700411A44
:10277000C1F500610B4A00230144C2E90003083996
:10278000183A21F0070111604B600B600B1AC0E989
:10279000001393604FF00040536050617047000099
:1027A000E01300207C000020144E154CA6F1C80751
:1027B0004FF08058DFF84C9012E000BF00F094F921
:1027C000F068C568281D00F03FF9A068401EA060B1
:1027D0006068401E606000F0A7F92846FFF7A4FF7C
:1027E00060680028EAD138680128F9D9C9F8008062
:1027F000BFF34F8FBFF36F8FF2E70000B8130020D5
:102800002800002004ED00E02DE9F0479A46DDE9BC
:10281000098481466FF00303206B03EB82021044AE
:10282000089E20F00707780707D0502080F3118812
:10283000BFF34F8FBFF36F8FFEE7002561B100201C
:1028400023180A5C83F834200A5C12B1401C10285B
:10285000F6D384F8435001E084F83450072E00D3B7
:102860000626E662C4E91165201D00F016F904F1A0
:10287000180000F012F92461C6F107006462A0613B
:10288000E56484F8505052464946384600F0C0F896
:102890002060B8F1000F01D0C8F80040BDE8F08713
:1028A00030B5114900E011460A688242FBD34B68FB
:1028B0005C18844203D14068184448600846436865
:1028C0001C18944209D1084C183C2468A24209D033
:1028D00052681A4442600A6812680260814200D05D
:1028E000086030BD0460F9E77C0000200648416BB9
:1028F000096829B1416BC968C96849688162704734
:102900004FF0FF31FAE70000280000200848406837
:10291000401C4FF0500080F3118804D0BFF34F8F5C
:10292000BFF36F8FFEE7BFF34F8FBFF36F8FFEE7ED
:10293000840000202DE9F0410546002700F0EEF963
:10294000324E306808B9FFF709FF706905424ED171
:10295000C5B3083568070ED005F00700C0F10800C0
:102960000544680707D0502080F31188BFF34F8FCC
:10297000BFF36F8FFEE72DB37068854237D82348C9
:10298000183001460C6801E020460C466168A942F7
:1029900002D221680029F7D131688C4227D007681C
:1029A0002168016060680837411B10290FD9601940
:1029B000420708D0502080F31188BFF34F8FBFF338
:1029C0006F8FFEE713E041606560FFF769FF6168A4
:1029D0007068401A7060B268904200D2B06070694E
:1029E00001430020C4E90001F068401CF06000F0E1
:1029F000E3FA780707D0502080F31188BFF34F8F98
:102A0000BFF36F8FFEE73846BDE8F0816400002019
:102A100010B5031F4FF080741C601B1F21F00101D3
:102A20001960191F024B0B60143940380A6010BD41
:102A30000D290008034900224A624A6A8242FCD3F7
:102A40007047000000040040D0E9013201699A603B
:102A5000D0E901235A604A68824201D182684A6003
:102A6000002202610868401E086008687047000084
:102A7000034B036003F1540008604020106070476E
:102A80009000002000F108014FF0FF32C0E9011270
:102A9000C160016100210160704700210161704740
:102AA00030B50B685A1C02D000F1080202E002693E
:102AB00004E02246546825689D42FAD953684B6069
:102AC00099608A60516008610168491C016030BDED
:102AD00042684A6093688B609368596091600861AE
:102AE0000168491C01607047502080F31188BFF3D2
:102AF0004F8FBFF36F8F0A494868401C4860012818
:102B00000CD10848006810F0FF0F07D0502080F368
:102B10001188BFF34F8FBFF36F8FFEE77047000040
:102B20008400002004ED00E00849486828B1401EF8
:102B3000486001D180F311887047502080F31188DC
:102B4000BFF34F8FBFF36F8FFEE7000084000020BC
:102B500070B500282AD0164DA0F108046068696994
:102B6000084207D1502080F31188BFF34F8FBFF385
:102B70006F8FFEE722683AB1502080F31188BFF3CF
:102B80004F8FBFF36F8FFEE78843606000F0C6F899
:102B900060686968084468602046FFF781FE28691C
:102BA000401C2861BDE8704000F006BA70BD00000E
:102BB000640000204FF0E02000210161816105499F
:102BC0004FF47A720968B1FBF2F1491E41610721A5
:102BD000016170472400002010B5020014D00F4896
:102BE000006B38B1502080F31188BFF34F8FBFF3D3
:102BF0006F8FFEE700F092F800211046FFF7F4FC1B
:102C000000F0DAF9002807D105494FF0805008603C
:102C1000BFF34F8FBFF36F8F10BD0000280000205F
:102C200004ED00E070B50D4604000BD095B11E4ACE
:102C3000106BB8B1502080F31188BFF34F8FBFF3F2
:102C40006F8FFEE7502080F31188BFF34F8FBFF3E3
:102C50006F8FFEE7502080F31188BFF34F8FBFF3D3
:102C60006F8FFEE700F05AF8D26823685919934233
:102C700004D98B420AD9914202D807E08B42FAD993
:102C8000881A21600021FFF7AFFC00E0216000F00E
:102C900093F9002807D105494FF080500860BFF331
:102CA0004F8FBFF36F8F70BD2800002004ED00E050
:102CB00010B586B00024039405AA04A903A80494BF
:102CC000FFF7D6FEDDE903010094CDE901100023F2
:102CD0000EA11048059A00F0D8F80F490028C862E4
:102CE00011D0502080F31188BFF34F8FBFF36F8F47
:102CF0004FF0FF30886201204861CC6006B0BDE82B
:102D0000104000F041B806B010BD000049444C45E9
:102D100000000000A9270008280000200248016BDD
:102D2000491C016370470000280000201448016B13
:102D300011B10121C16170470021C1610169B1FA7E
:102D400081F1C1F11F0101EB81020E4951F82230DE
:102D50006BB101EB820101F108034A6852684A60D5
:102D60009A4201D152684A60D16801607047502090
:102D700080F31188BFF34F8FBFF36F8FFEE7000022
:102D800028000020F01200201CB526490878019088
:102D9000FF20087008788DF800009DF800009DF86D
:102DA000002000F0F000904207D0502080F31188FE
:102DB000BFF34F8FBFF36F8FFEE79DF800001A4CF3
:102DC00000F0500020700720A06005E09DF8002072
:102DD00052008DF80020401E9DF800201206F5D408
:102DE000A060032807D0502080F31188BFF34F8FD5
:102DF000BFF36F8FFEE74FF44070A060019808703A
:102E00000A48016841F470010160016841F07041B5
:102E10000160FFF7CFFE00206060FDF785F900201C
:102E20001CBD000000E400E08400002020ED00E074
:102E30002DE9FF5F8346DDE90E87994616468A46EF
:102E40009000FFF777FD05001CD05420FFF772FDBE
:102E5000040014D00020256384F85100CDE902401D
:102E6000CDE900874B46324651465846FFF7CCFC29
:102E70002046FFF7F1FB012004B0BDE8F09F284693
:102E8000FFF766FE4FF0FF30F6E7F0B585B0DDE9FD
:102E90000B640A9DA6B1DCB1542700972663022675
:102EA00084F85160002604AFCDE90246CDE9005711
:102EB000FFF7AAFC2046FFF7CFFB049805B0F0BD52
:102EC000502080F31188BFF34F8FBFF36F8FFEE761
:102ED000502080F31188BFF34F8FBFF36F8FFEE751
:102EE0000148C06870470000280000202DE9F0412B
:102EF0002F4C0026206B28B1A069401CA0613046F1
:102F0000BDE8F081E5686D1CE56013D1606B006879
:102F100038B1502080F31188BFF34F8FBFF36F8F0C
:102F2000FEE7606BA16B6163A063206A401C2062B6
:102F3000FFF7DCFCA06ADFF87C80854209D3606B78
:102F40000068A0B1606BC068C7687868854211D21C
:102F5000A0622068C06A00EB800158F821000128B7
:102F600000D90126E0690028C9D00126C7E74FF043
:102F7000FF30EDE7381DFFF767FDB86A18B107F1BC
:102F80001800FFF761FDF96A0120226988401043AB
:102F9000206101EB810108EB8100391DFFF798FDED
:102FA000F86A2168C96A8842C9D30126C7E70000C8
:102FB00028000020F01200202DE9F0472C4D0024BD
:102FC0002746286B38B1FFF78FFD286B401E28631A
:102FD000286B40B146E0502080F31188BFF34F8F3B
:102FE000BFF36F8FFEE7A968224E0120D1B3A6F18F
:102FF000B40980463068E8B1F068C46804F118008C
:10300000FFF722FD201DFFF71FFDE06A2A6908FA7D
:1030100000F11143296100EB800109EB8100211DC2
:10302000FFF756FDE06A2968C96A8842E2D3C5F80D
:103030001C80DFE70CB1FFF759FCAC6944B1464690
:10304000FFF754FF00B1EE61641EF9D10020A861C2
:10305000E86938B10849012738070860BFF34F8F86
:10306000BFF36F8FFFF760FD3846BDE8F0870000C3
:1030700028000020A413002004ED00E00431000823
:10308000C51F0008000000000000000080000000D4
:103090000000000000000000FC300008211C0008B7
:1030A000FDFF0000000000004000000000000000E4
:1030B0000000000010310008C5240008FEFF0000D9
:1030C00000000000400000000000000000000000C0
:1030D000010202030405060708090A0B0C0D0E0F76
:1030E00010100000000000000000010203040607A9
:1030F0000809000000000102030400006C6564542C
:1031000061736B0064656661756C745461736B0008
:10311000756172745461736B000000003C310008EB
:103120000000002090000000EE240008CC310008D0
:103130009000002050250000FE240008010000003F
:10314000E4010020BC090020000000000000000095
:10315000000000000100000010000000000000005E
:1031600000127A00000000000000000000000000D3
:10317000000000000000000000000000000000004F
:10318000000000000000000000000000000000003F
:10319000000000000000000000000000000000002F
:1031A000000000000000000000000000000000001F
:1031B000000000000000000000000000000000000F
:0C31C00000000000AAAAAAAA000000005B
:04000005080000ED02
:00000001FF
