:020000040800F2
:1000000038E40020610200088F29000899250008C3
:100010008D29000879040008A54C000800000000A4
:10002000000000000000000000000000A101000826
:10003000C504000800000000FD010008CD2C0008E8
:100040007B0200087B0200087B0200087B0200089C
:100050007B0200087B0200087B0200087B0200088C
:100060007B0200087B0200087B0200087B0200087C
:100070007B0200087B0200087B0200087B0200086C
:100080007B0200087B0200087B0200087B0200085C
:100090007B0200087B0200087B0200087B0200084C
:1000A0007B0200087B0200087B0200087B0200083C
:1000B0007B0200089D2D00087B0200087B020008DF
:1000C0007B0200087B0200087B0200087B0200081C
:1000D0007B0200087B0200087B0200087B0200080C
:1000E0007B0200087B0200087B0200087B020008FC
:1000F0007B020008A92D00087B0200087B02000893
:100100007B0200087B0200087B0200087B020008DB
:100110007B0200087B0200087B0200087B020008CB
:100120007B0200087B0200087B0200087B020008BB
:100130007B02000800000000000000007B020008B5
:100140007B0200087B0200087B020008912900085E
:100150007B0200087B0200087B0200087B0200088B
:100160007B0200087B0200087B0200087B0200087B
:100170007B0200087B020008000000000000000075
:100180007B0200087B020008DFF810D000F004F9C1
:1001900000480047C34E0008AFF3008038E4002059
:1001A0002C4B19680868B0E8F04F80F30988BFF35A
:1001B0006F8F4FF0000080F311887047000000003F
:1001C00008480068006880F308884FF0000080F35A
:1001D000148862B661B6BFF34F8FBFF36F8F00DF35
:1001E00000BF00BF08ED00E0DFF80C00016841F43B
:1001F00070010160704700BF88ED00E0EFF30980F7
:10020000BFF36F8F134B1A681EF0100F08BF20ED5D
:10021000108A20E9F04F106009B44FF0500080F3CD
:100220001188BFF34F8FBFF36F8F05F061FD4FF063
:10023000000080F3118809BC19680868B0E8F04F25
:100240001EF0100F08BFB0EC108A80F30988BFF3CE
:100250006F8F70471C000020EFF30580704700008F
:100260000648804706480047FEE7FEE7FEE7FEE750
:10027000FEE7FEE7FEE7FEE7FEE7FEE78D2D00085E
:10028000890100082DE9F05F0546002092469B4653
:1002900088460646814640241BE02846414647469C
:1002A000224600F069F853465A46C01A914110D3CD
:1002B00011461846224600F050F82D1A67EB010847
:1002C0004F4622460120002100F047F817EB0009B5
:1002D0004E41201EA4F10104DFDC484631462A4687
:1002E0004346BDE8F09F40EA01039B0703D009E0C5
:1002F00008C9121F08C0042AFAD203E011F8013B12
:1003000000F8013B521EF9D27047D2B201E000F86A
:10031000012B491EFBD270470022F6E710B51346A9
:100320000A4604461946FFF7F0FF204610BD30B5D7
:100330000B46014600202022012409E021FA02F5A3
:100340009D4205D303FA02F5491B04FA02F528443D
:10035000151EA2F10102F1DC30BD202A04DB203A97
:1003600000FA02F1002070479140C2F1200320FA08
:1003700003F3194390407047202A04DB203A21FA06
:1003800002F00021704721FA02F3D040C2F12002AE
:100390009140084319467047064C074D06E0E06857
:1003A00040F0010394E8070098471034AC42F6D3BC
:1003B000FFF7EEFE80680008A068000870B58C1892
:1003C00010F8015B15F0070301D110F8013B2A1169
:1003D00006D110F8012B03E010F8016B01F8016B56
:1003E0005B1EF9D12B0705D40023521E0DD401F852
:1003F000013BFAE710F8013BCB1A921C03E013F81B
:10040000015B01F8015B521EF9D5A142D8D300204F
:1004100070BD0000F8B5044614A0164600680D46ED
:10042000009005291BD8124FD4B1012C17D10022FE
:100430002021384600F054F98DF800508DF8016005
:100440004FF6FF73022269460A4801F0A1FA54B13F
:10045000012C04D101222021384600F041F9F8BDD9
:1004600000221021E5E701221021F5E7000A000033
:100470000008024058080020FEE7002070470020D6
:100480007047000010B500220449054803F036F813
:100490000449034803F025F8002010BD0C55002046
:1004A000304800200C4D002010B50146034803F0F1
:1004B00018F8024802F0EEFF002010BD304800207E
:1004C00000207047704772B6FEE7000070B5044622
:1004D00000F00CF90546601C02D004480078044482
:1004E00000F004F9401BA042FAD370BD0C000020BC
:1004F0002DE9F84FDFF8BCA10022012503264FF0BB
:100500000F090AF1040BAAF1040E00BF0B6805FAEB
:1005100002F42340A34270D10F7907F00307012FA3
:1005200001D0022F16D187684FEA420806FA08FC6C
:1005300027EA0C07D1F80CC00CFA08FC4CEA070CAF
:10054000C0F808C04768A7430C79C4F3001494406E
:100550003C4344600C79E443A4070AD0C4684FEAE2
:10056000420C06FA0CF7BC438F6807FA0CF72743D6
:10057000C7600C7904F00304022C12D1D40800EBFC
:10058000840CDCF820405707FF0E09FA07F824EA2C
:100590000804D1F8108008FA07F848EA0408CCF8F3
:1005A000208004684FEA420C06FA0CF7BC430F792E
:1005B00007F0030707FA0CF7274307604C6814F4A9
:1005C000403F70D03C4C276847F480472760246840
:1005D00022F0030704F480440094384C07EB040C29
:1005E000DCF8084897074FEA177809FA08F7BC4380
:1005F000334FB84202D1002724E054E0314FB842D3
:1006000001D101271EE0304FB84201D1022719E085
:100610002E4FB84201D1032714E02D4FB84201D12B
:1006200004270FE02B4FB84201D105270AE02A4FDB
:10063000B84201D1062705E0284FB84201D107276B
:1006400000E0082707FA08F72743CCF80878DAF81B
:1006500000405746D1F804C09C435FEACC2C00D53B
:100660001C433C60DBF800405F46D1F804C09C436B
:100670005FEA8C2C00D51C433C60DEF800407746D6
:10068000D1F804C09C435FEA8C3C00D51C433C601D
:10069000084F083F3C68D1F804C09C435FEACC3C5B
:1006A00000D51C433C60521C102AFFF42FAFBDE85C
:1006B000F88F0000083C01404438024000300140FF
:1006C000000002400004024000080240000C02400A
:1006D000001002400014024000180240001C0240BA
:1006E0000AB1816170470904FBE700000148806896
:1006F000704700000C000020024881680278114415
:10070000816070470C0000200B4810B5016841F46F
:1007100000710160016841F480610160016841F489
:1007200080710160032000F09FF80F2000F006F8B0
:1007300000F050F8002010BD003C024030B50546E6
:100740001F4887B00024016841F48071016000688F
:1007500006A900F48070009001A800F06BFE0498D8
:10076000A8B100F08DFE40001649174AB0FBF1F128
:100770001648491E026040F2E732C0E90324C0E98E
:100780000114846101F002FA040003D015E000F0C6
:1007900077FEE9E70D4801F049FA04000DD12D205C
:1007A00000F034F8102D07D2002229462D2000F049
:1007B0003BF80748056000E0012407B0204630BD43
:1007C0004038024040420F0000200040D009002085
:1007D000100000200C4882B0016841F480410160A3
:1007E000006800F4804000900748001F016841F055
:1007F000805101600068002200F0805000900F21BD
:10080000901E02B000F010B844380240002809DB06
:1008100000F01F02012191404009800000F1E0201A
:10082000C0F8001170470000F0B40E4B1B680C4676
:10083000C3F30223C3F10705042D00D90425191DB4
:10084000072901D2002300E0DB1E012606FA05F18C
:10085000491E214099409E40761E16403143F0BC0F
:1008600004F05ABA0CED00E0064900F007020868EF
:100870004FF6FF03184040EA0220034A1043086085
:10088000704700000CED00E00000FA0570470068BA
:10089000416200207047F0B50368586A39B19C6A1C
:1008A0004FF4827600EB144400204D1E0AE040EA2B
:1008B000024098620FE006EB8007DF59401C04EB12
:1008C0001744C0B2A842F6D344EA02404FF4807203
:1008D00002EB810158500020F0BDD0F8080503F06C
:1008E000E3B801EBC10200EB8202D0F80805D26C3C
:1008F00003F038B801EBC10200EB8202D0F8080522
:10090000D2F88C2203F089B8D0F8080503F0CEB8ED
:100910000A0601F00F0101EBC10100EB810101D5D5
:100920003C3101E001F51F71006804F003B870B5B7
:1009300004460B0601F00F0000EBC00104EB81013F
:100940004FF001024FF0000503D581F83D203C3106
:1009500003E081F87D5201F51F71087094F8BC0422
:10096000012808D084F8BC24206803F09DFC84F89A
:10097000BC54002070BD022070BD70B5044601F06B
:100980000F006268904201D9012070BD0B0601F092
:100990000F0101EBC10104EB81014FF001024FF0A7
:1009A000000503D581F83D203C3103E081F87D52FC
:1009B00001F51F718D70087094F8BC04012808D0EF
:1009C00084F8BC24206803F06BFE84F8BC5400203B
:1009D00070BD022070BD01F00F0101EBC10100EB01
:1009E0008100D0F89C0270472DE9F04104460F06C3
:1009F00001F00F0000EBC00104EB81014FF0010694
:100A00004FF0000503D581F83D603C3103E081F8EB
:100A10007D5201F51F710870CA600B714A7802B1EE
:100A20000881022B00D14D7194F8BC04012809D033
:100A300084F8BC64206803F08FFB284684F8BC541B
:100A4000BDE8F0810220FBE770B50C4601F00F0510
:100A500005EBC50100EB8101C1F89432C1F88C228D
:100A60000023C1F89C3281F87D3281F87C52036901
:100A700001F51F71012B00D14A612207027C006839
:100A800003D003F065FE002070BD03F04FFDFAE7D0
:100A900070B504460D4601F00F006168884201D927
:100AA000012070BD29064FF000064FF0010207D566
:100AB00000EBC00104EB810181F83D203C3107E0EF
:100AC00005EBC50104EB810181F87D6201F51F7121
:100AD0008A70087094F8BC04012807D084F8BC24FC
:100AE000206803F009FE280702D007E0022070BD4D
:100AF000217C04F2C442206803F0A6FD84F8BC64A3
:100B0000002070BD70B50C4601F00F0505EBC50166
:100B100000EB81014B65CA640023CB65012381F89A
:100B20003D3001F83C5F0369012B00D14A61220787
:100B3000027C006803D003F00BFE002070BD03F0C0
:100B4000F5FCFAE72DE9FC5F05680446284603F04A
:100B500092FF00287DD1206803F0B9FF002878D0EB
:100B6000D5F80808C0F30D20C4F8FC04206803F091
:100B7000AEFF800704D52068416901F002014161A0
:100B8000206803F0A4FFC10604F2C440009034D5ED
:100B90002068816921F0100181612F6A07F00F0040
:100BA00000EBC00004EB8006C7F3434006F51F7658
:100BB000022802D0062811D01AE047F6F07007424A
:100BC00016D0C7F30A1217462846316903F083FF8F
:100BD000306938443061306A384408E008222846D9
:100BE000009903F078FF306AC7F30A1108443062B5
:100BF0002068816941F010018161206803F067FF7E
:100C000000034FF0080B4FF0000A4FF001097CD5AC
:100C10000026206803F03AFF074674E0F80770D01A
:100C2000F1B2206803F04BFF8046C00707D005EB08
:100C30004611C1F8089B3146204601F0AFFE5FEA3D
:100C4000087024D505EB4611C1F808BB2068016C7B
:100C500000E025E200EB46100191D0F8082BFC4B98
:100C6000994205D9110403D54FF40041C0F8081B7F
:100C7000204600F005FBF6490198884207D9206913
:100C8000012804D120680121009A03F0DDFC5FEA0D
:100C9000C86004D505EB46111020C1F8080B5FEAC7
:100CA00088701DD56869000605D5D5F8040840F49C
:100CB0008061C5F8041806EBC60004EB800090F8CC
:100CC0007F1200F51F70012905D180F803A0F1B251
:100CD000204600F0EBF905EB46110220C1F8080BA5
:100CE0005FEA886004D505EB46102021C0F8081B98
:100CF0005FEA884005D505EB46104FF40051C0F877
:100D0000081B7F08761C002F88D1206803F0DFFEC7
:100D100040036FD5206803F0B2FE0746002667E067
:100D2000F80763D0F1B2206803F0B7FE8046C00731
:100D300023D006F00F0209FA02F0D5F834288243D6
:100D4000C5F8342805EB4610C0F808992069012839
:100D50000FD106EBC60004EB8000D0E9122111444C
:100D6000C16436B9606D20B920680121009A03F092
:100D70006BFCF1B22046FFF7B4FD5FEA087003D5C3
:100D800005EB4611C1F808B95FEAC86004D505EB68
:100D900046111020C1F808095FEA486004D505EB48
:100DA00046104021C0F808195FEA887017D531460F
:100DB000284603F033FE06EBC60004EB800090F8F3
:100DC0003F103C30012905D180F803A0F1B2204644
:100DD00000F068F905EB46110220C1F808095FEA46
:100DE000086003D53146204601F03EFE7F08761CA0
:100DF000002F95D1206803F06AFE002811DAD5F89B
:100E0000040820F00101C5F8041894F8F40401283E
:100E10002BD0204600F018FA2068416901F000410B
:100E20004161206803F053FE00050BD5D5F8080892
:100E3000C00702D0204600F04BFA2068416901F457
:100E400000614161206803F042FEC00466D5D5F818
:100E5000040820F00100C5F804081021206803F000
:100E6000DDFD00214FF67F321FE084F8F4A400215D
:100E70002046FFF70BFDCFE705EB4110C0F808292E
:100E8000D0F8003923F40013C0F80039C0F8082B5B
:100E9000D0F8003B23F40013C0F8003BD0F8003B2F
:100EA00043F00063C0F8003B491C60688842E3D807
:100EB000D5F81C0840F00111C5F81C18206B00285B
:100EC00028460DD0D0F8840840F00B01C5F88418EE
:100ED000D5F8440840F00B012846C5F844180DE049
:100EE000D0F8140842F22B010843C5F81408D5F8CD
:100EF000100840F00B012846C5F81018D0F800087B
:100F000020F4FE61C5F80018217C2068009A03F0E7
:100F10009BFB2068416901F480514161206803F026
:100F2000D6FD800415D5206803F056F9206803F03B
:100F300095FDE06000F09EFA0146227B206803F0F8
:100F400029FE204600F06AF92068416901F4005149
:100F50004161206803F0BBFD000707D5204600F083
:100F600077F92068416901F008014161206803F0C8
:100F7000AEFD000616D5A86920F08000A861012604
:100F80000DE000BF06EBC60004EB800090F87F0286
:100F9000012803D1F1B22046FFF7BAFC761C606845
:100FA000B042EFD8206803F092FDC00221D501269F
:100FB0004F4616E005EB4610D0F8001906EBC600C8
:100FC00004EB800090F84020012A09D1002907DABB
:100FD00080F83F70F0B240F080012046FFF798FCA7
:100FE000761C6068B042E5D82068416901F4801140
:100FF0004161206803F06BFD800234D501204B462F
:1010000029E000BF05EB4011D1F8001B00EBC00246
:1010100004EB820696F88022012A1BD1002919DAF6
:1010200094F8FC2401F4803102F00102914211D1C4
:1010300086F87F32A96941F08002AA6169690906D0
:1010400008D4D5F8040840F40070C5F8040805E099
:101050000A30544F401C61688142D3D820684169EE
:1010600001F400114161206803F031FD400007D513
:101070002046FFF732FC2068416901F08041416160
:10108000206803F024FD40070AD5206845686807FA
:1010900002D52046FFF738FC2068416829434160AB
:1010A000BDE8FC9FD0F8080502F054BDD0F8080553
:1010B00002F064BD2DE9F0418AB0040005D094F837
:1010C000BD042668002520B108E001200AB0BDE873
:1010D000F08184F8BC54204600F05EF8032084F8C8
:1010E000BD04F06BC00500D42561206803F018FA38
:1010F00004F11001282288466846FFF7F4F894E8C6
:101100000F0003F077F80226C8BB0021206803F027
:1011100001FD002001270EE000EBC00104EB81017E
:1011200081F83D7001F83C0F08810D71CD600D61B3
:10113000401CC0B28D6161688142EDD8002011E091
:1011400000EBC00104EB810181F87D5281F87C0243
:1011500081F88052C1F88852C1F88C52401CC0B24C
:10116000C1F8945261688142EAD828224146684613
:10117000FFF7B9F894E80F0003F018F910B184F8FC
:10118000BD64A2E784F8385084F8BD74206803F089
:10119000FFF800209AE7000010B586B0044614213D
:1011A0006846FFF7B9F82068B0F1A04F2FD1194871
:1011B0000021026842F001020260006800F00100B4
:1011C00005904FF4C05000900220CDE901010320AA
:1011D00003900A20049069460F48FFF789F90D48EB
:1011E000001D016841F0800101600A481430016867
:1011F00041F4804101600068002200F480400590C5
:1012000005214320FFF710FB4320FFF7FFFA06B04C
:1012100010BD0000303802400000024070B50446A6
:10122000C068012570B1022801D0FFF74CF92946AA
:10123000D4F8080502F010FDD4F80805BDE87040A8
:1012400002F0C5BC0025F2E7D0F8080502F0EDBCBD
:10125000D0F8080502F0F3BC10B5044690F8BC04C1
:1012600001280BD0012084F8BC0484F838102068D1
:1012700003F07EFC002084F8BC0410BD022010BDE9
:10128000D0F8082500F2C441104602F0F1BC10B5B8
:101290000446006894F8BC14012906D0012184F8A2
:1012A000BC14A16A012902D008E0022010BDA16986
:1012B000012903D0816B41F480318163206803F000
:1012C00088FB206803F056F8002084F8BC0410BDA9
:1012D00010B50446D0F8080502F00CFD2068D0F8DF
:1012E000001E41F00101C0F8001E206A002804D051
:1012F0000248016841F00601016010BD10ED00E0F8
:101300002DE9F0470E46050065D0DFF81481D8F8C6
:101310000000F7B200F00700B04207D288F8007072
:10132000D8F8000000F00700B04254D128683D4CC6
:10133000810712D5400703D5206840F4E0502060B3
:101340002878000703D5206840F4604020602068BA
:10135000A96820F0F000084320602878C0072DD04D
:10136000304968680839012812D0022813D00328B0
:1013700011D00968890700292DDA216821F00301BD
:1013800001432160FFF7B2F9814641F2883A0EE04D
:1013900009688903EFE709688901ECE7FFF7A6F917
:1013A000A0EB0901514502D90320BDE8F087206870
:1013B000696800F00C00B0EB810FEFD1D8F8001095
:1013C000404601F00701B14207D90770006800F0FC
:1013D0000700B04201D00120E7E72878400705D593
:1013E0002068E96820F4E05008432060287800076E
:1013F00006D52068296920F4604040EAC1002060D9
:1014000000F04EF82168084AC1F30311515CC8404E
:101410000649086006480068FFF790F90020C4E715
:10142000003C0240083802405468000818000020C0
:10143000100000200F2202600C4A136803F003031F
:101440004360136803F0F0038360136803F4E05310
:10145000C36012684FF4E05303EAD2020261044809
:10146000006800F00700086070470000083802407C
:10147000003C02400148006870470000180000204E
:101480000448054900680968044AC1F38221515C97
:10149000C8407047180000200838024064680008FF
:1014A000154810B5006810F00C02144813D0411014
:1014B000042A0FD0082A0ED10F4C241F226823685B
:1014C00002F03F025B0207D52068C0F38810A0FB42
:1014D000010106E0084610BD2168C1F38811A1FB97
:1014E00000010023FEF7CEFE2168C1F30141491C33
:1014F0004900B0FBF1F010BD083802400024F400B0
:101500002DE9F84F04006ED02078DFF84C93C00727
:10151000A9F104054AD009F104000168C1F3810171
:10152000012908D00068C0F3810002280AD1D9F847
:101530000000400206D52868800337D5606800287F
:10154000E1D033E06068B0F5803F10D0B0F5A02F57
:10155000286810D020F480302860286820F480208B
:1015600028606068A8B1FFF7C1F806460DE028685A
:1015700040F48030F4E740F480202860F7E700BFB3
:10158000FFF7B4F8801B642873D828688003F7D568
:101590000CE0FFF7ABF8064605E000BFFFF7A6F842
:1015A000801B6428F0D828688003F7D42078DFF8FF
:1015B000AC8280074FF0000A3ED5A748001D0168A5
:1015C00011F00C0F08D00068C0F3810002280BD185
:1015D000D9F80000400207D42868800716D5E068D3
:1015E000012800D112E033E1E068B8B10120C8F869
:1015F0000000FFF77BF8064605E000BFFFF776F82E
:10160000801B0228C0D828688007F7D52868216980
:1016100020F0F80040EAC10028600DE0C8F800A002
:10162000FFF764F8064604E0FFF760F8801B022825
:101630001FD828688007F7D42078000722D5864F66
:1016400087486169703771B101210160FFF74EF879
:10165000064604E0FFF74AF8801B022809D83868DC
:101660008007F7D50EE0C0F800A0FFF73FF8064668
:1016700005E082E0FFF73AF8801B02287DD8386841
:101680008007F7D42078400768D5DFF8CCB1002771
:101690000BF13C0BDBF80000C0000BD4DBF80010B2
:1016A00041F08051CBF80010DBF80000012700F07A
:1016B000805000906B4E3068C00510D4306840F404
:1016C00080703060FFF712F8009005E0FFF70EF829
:1016D0000099401A022850D83068C005F6D55E4EF1
:1016E000A0686C3601280FD00528306810D020F093
:1016F00001003060306820F004003060A068B8B1AC
:10170000FEF7F4FF00900FE0306840F00100F4E7CE
:1017100040F004003060F7E7FEF7E8FF0099411A57
:1017200041F28830814266D830688007F4D50EE0F7
:10173000FEF7DCFF009007E0FEF7D8FF0099411AA2
:1017400041F28830814256D830688007F4D42FB1F6
:10175000DBF8001021F08051CBF80010A069C8B36D
:101760003D49091D0968C1F3810102294AD00228B7
:10177000504607D0C8F8600000E03CE0FEF7B6FF36
:1017800004463BE04746C8F86000FEF7AFFF064658
:1017900005E000BFFEF7AAFF801B02282BD82868AF
:1017A0008001F7D4D4E907010843A16A2E4A490809
:1017B00002EB0141626A41EA8211084394F82C105D
:1017C00040EA0161C9F8001001203866FEF78EFF7B
:1017D000044606E03EE000BFFEF788FF001B02283B
:1017E00009D828688001F7D534E000BFFEF77EFFF6
:1017F000001B022802D90320BDE8F88F2868800169
:10180000F4D427E00128F7D0D9F80000E26900F409
:10181000800191421CD1226A00F03F01914217D110
:1018200047F6C071626A0140B1EB821F10D1A26A13
:101830004FF0FF3300F4403103EB5202B1EB024FA3
:1018400006D194F82C1000F07060B0EB016F01D05D
:101850000120D1E70020CFE70438024000004742D2
:10186000800E4742007000400000FFFF70B504008A
:1018700009D0606A002540B125616561A56294F8D0
:10188000510040B10CE0012070BD6068B0F5827F6E
:10189000F4D0E561F2E784F85050204600F044F8B7
:1018A000022084F851002068016821F040010160A5
:1018B000A088218900F4827001F404410843A189C1
:1018C00001F400610843217C01F002010843217DFD
:1018D00001F001010843218B01F400710843217FCD
:1018E00001F03801084394F8201001F0800108430A
:1018F000218D01F40051084321680860A06904218A
:1019000001EA104094F8241001F010010843216806
:1019100048602068C16921F40061C16165650120EA
:1019200084F85100002070BD10B586B00446142123
:101930006846FEF7F1FC13492068884220D112481E
:101940000021026842F480520260006800F4805076
:1019500005900D481438026842F0010202600068E8
:1019600000F001000590E02000900220CDE9010187
:10197000032003900520049069460448FEF7B8FD53
:1019800006B010BD00300140443802400000024063
:101990002DE9F84F044690F8500000271D461646E2
:1019A000894601280DD04FF0010B84F850B0FEF7A6
:1019B0009DFE804694F85100BA46012804D00227C3
:1019C00093E00220BDE8F88FB9F1000F73D0002E2C
:1019D00071D0032084F85100C4F854A0C4F83090AA
:1019E000A686E686C4F838A0A4F83CA0A4F83EA0D9
:1019F000C4F844A0C4F840A0A068B0F5004F09D1D5
:101A00002068016821F0400101602068016841F40C
:101A10008041016020680168490603D4016841F0F3
:101A200040010160E068B0F5006F606803D030B33A
:101A3000012E24D041E008B1012E1CD1206B216879
:101A40000088C86006E020688168890709D5216B95
:101A50000988C160206B801C2063E08E401EE086F8
:101A600009E0FEF743FEA0EB0800A84202D3681C81
:101A700001D031E07DB3E08E0028E4D120E0206B7E
:101A800021680078087306E020688168890709D515
:101A9000216B09780173206B401C2063E08E401E8F
:101AA000E0860AE0FEF722FEA0EB0800A84203D37E
:101AB000681C02D010E017E06DB1E08E0028E3D181
:101AC00042462946204601F021F808B120206065F1
:101AD000A06818B106E0FFE7032706E02068C168A8
:101AE00080680090606D00B1012784F851B084F8DF
:101AF00050A0384666E770477047000070B590F810
:101B00003C20012A32D0012480F83C40022280F897
:101B10003D2003685A689D6822F070060A683243C7
:101B20005A60134B02689A4214D0B2F1804F11D020
:101B3000104B9A420ED0104B9A420BD00F4B9A4248
:101B400008D00F4B9A4205D00E4B9A4202D00E4B52
:101B50009A4204D1496825F080031943916080F8C6
:101B60003D40002180F83C10084670BD022070BD49
:101B7000000001400004004000080040000C00404C
:101B800000040140004001400018004010B504006E
:101B900003D094F83D0010B107E0012010BD0020F3
:101BA00084F83C00204600F01FF8022084F83D0035
:101BB000211D206801F0FEF8012084F8460084F819
:101BC0003E0084F83F0084F8400084F8410084F827
:101BD000420084F8430084F8440084F8450084F807
:101BE0003D00002010BD000008B500680C49884287
:101BF00008D10C48016841F480310160006800F4AC
:101C000080300BE00849884209D10648001F01686E
:101C100041F080010160006800F08000009008BD84
:101C20000040014044380240001C004090F83D1044
:101C3000012901D001207047022180F83D10016880
:101C4000CA6842F00102CA6000681149884214D093
:101C5000B0F1804F11D00F4988420ED00E49884212
:101C60000BD00E49884208D00D49884205D00D4955
:101C7000884202D00C49884204D1816801F00701F2
:101C8000062903D0016841F001010160002070477E
:101C9000000001400004004000080040000C00402B
:101CA00000040140004001400018004070B50446A7
:101CB00090F83C000025012817D0012684F83C60EC
:101CC000022084F83D002068826822F0770222F426
:101CD0007F4282600868502838D00DDC20284FD021
:101CE00005DC90B3102811D14AE0022070BD3028E5
:101CF00046D040280AD13BE060282FD070280DD074
:101D0000B0F5805F03D0B0F5005F12D0012584F8F4
:101D10003D60002084F83C00284670BDCB68D1E9C6
:101D20000121206801F0B7F82068816841F077014F
:101D300009E0CB68D1E90121206801F0ACF8206806
:101D4000816841F480418160E1E719E0CA6849682F
:101D5000206801F075F95021206806E0CA684968DA
:101D6000206801F0BFF96021206801F09EF8CEE7FD
:101D7000CA684968206801F063F940212068F4E7E7
:101D8000226801461046F0E770B500681D49884298
:101D900036D11D4C1D4D0026207C08B301282FD1C3
:101DA0000021284600F0E2FB60602168401AA1890A
:101DB00000EB0140C4E906062868016A21F00A0127
:101DC00001622868016A41F0020101622674208BD9
:101DD000002281B20E488068BDE8704003F0F6B87A
:101DE00000210A4800F0C2FBE66020602868016A12
:101DF00021F00A0101622868016A01620120207451
:101E000070BD00000004004038080020B008002029
:101E1000000000202DE9F041054690F83C00002626
:101E20000C46012810D0012085F83C0072B1042A2C
:101E30001CD0082A2CD00C2A50D00126002085F86E
:101E40003C003046BDE8F0810220FBE7D4E90012F7
:101E5000E368286801F006F92868816921F00C011F
:101E6000816128688169A26811430FE0D4E90012FA
:101E7000E368286801F048F92868816921F4406125
:101E8000816128688169A26841EA02218161D5E700
:101E90002868D4E9002C277B016A21F48071016253
:101EA000C169036A21F0030141EA0C0121F0F00C41
:101EB00039074FF420674CEA116123F4206307EAE5
:101EC00002221A43C16102622868C16921F00C0133
:101ED000C1612868C169A268114328E02868D4E973
:101EE0000027E168036A23F480530362D0F81CC022
:101EF000036A2CF4407C4CEA07274FF6FF7C27F45A
:101F000070470CEA013139434FF4204723F4204352
:101F100007EA02321A43C16102622868C16921F4EA
:101F20004061C1612868C169A26841EA0221C161BA
:101F300084E710B5040003D094F83D0010B107E029
:101F4000012010BD002084F83C00204600F01EF85F
:101F5000022084F83D00211D206800F02BFF0120A5
:101F600084F8460084F83E0084F83F0084F840007E
:101F700084F8410084F8420084F8430084F8440067
:101F800084F8450084F83D00002010BD70B586B08F
:101F9000044614216846FEF7BFF91F4920688842AD
:101FA00037D11E48016841F002010160006800F06D
:101FB0000200059019481038016841F002010160E3
:101FC000016801F002010591016841F0040101601E
:101FD000006803250224CDE9005400F00400012626
:101FE000CDE90440CDE9026569460D48FEF780FA67
:101FF000C0208DE85100CDE9035469460948FEF739
:1020000077FA002205211D20FEF70EFC1D20FEF7A9
:10201000FDFB06B070BD00000004004040380240E7
:10202000000402400008024030B50446002551B1CA
:1020300004290DD0082910D094F8410094F84520C7
:10204000012811D10EE094F83E0094F84220F7E701
:1020500094F83F0094F84320F2E794F8400094F895
:102060004420EDE7012A01D0012030BD022059B102
:10207000042912D0082919D084F8410084F84500B9
:102080000C2944D0012540E084F83E0084F8420049
:102090002068C26842F0020210E084F83F0084F831
:1020A00043002068C26842F0040207E084F8400060
:1020B00084F844002068C26842F00802C26001222D
:1020C000206800F0DBFE14492068884214D0B0F18B
:1020D000804F11D0114988420ED0114988420BD04F
:1020E0001049884208D01049884205D00F498842DB
:1020F00002D00F49884204D1816801F00701062906
:1021000003D0016841F001010160284630BD20681C
:10211000C26842F01002D1E7000001400004004014
:1021200000080040000C0040000401400040014055
:102130000018004070B50446006801694FF00005C2
:10214000C943890715D4C168C943890711D4E91E59
:10215000016101202077206880698007204602D035
:10216000FFF712FE04E000F0DDF8204600F082F9EF
:10217000257720680169C943490717D4C168C94355
:10218000490713D46FF00401016102202077206811
:10219000806910F4407F204602D0FFF7F5FD04E08F
:1021A00000F0C0F8204600F065F925772068016945
:1021B000C943090716D4C168C943090712D46FF08F
:1021C00008010161042020772068C069800720464B
:1021D00002D0FFF7D9FD04E000F0A4F8204600F09B
:1021E00049F9257720680169C943C90617D4C16830
:1021F000C943C90613D46FF010010161082020778C
:102200002068C06910F4407F204602D0FFF7BCFD73
:1022100004E000F087F8204600F02CF925772068CC
:102220000169C943C90708D1C168C943C90704D1B5
:10223000891E0161204600F083F920680169C943C5
:10224000090609D4C168C943090605D46FF08001A5
:1022500001612046FFF74FFC20680169C943490628
:1022600009D4C168C943490605D46FF04001016132
:10227000204600F090F920680169C94389060BD413
:10228000C168C943890607D46FF020010161204667
:10229000BDE87040FFF730BC70BD000010B586B0DF
:1022A000044614216846FEF737F82368184C0021CD
:1022B00018480222A34212D1016841F001010160D5
:1022C0000068694600F0010005900420CDE9000295
:1022D000012002900320039004900F4813E00F4C5C
:1022E000A34212D1036843F002030360006800F0C8
:1022F0000200059020140090CDE901210920CDE9CC
:10230000031069460648FEF7F3F806B010BD00005A
:1023100000400140303802400000024000180040F8
:1023200000040240704770B5044690F83C00002657
:102330000D4601280FD0012084F83C006AB1042A20
:102340001DD0082A2FD00C2A3FD00126002084F867
:102350003C00304670BD022070BD206800F0AEFD2C
:102360002068816941F0080181612068816921F05C
:1023700004018161206881692A69114311E02068A4
:1023800000F0CCFD2068816941F400618161206822
:10239000816921F480618161206881692A6941EA4B
:1023A00002218161D2E7206800F0EEFD2068C1695A
:1023B00041F00801C1612068C16921F00401C161D7
:1023C0002068C1692A69114311E0206800F010FEFD
:1023D0002068C16941F40061C1612068C16921F4CC
:1023E0008061C1612068C1692A6941EA0221C16135
:1023F000ACE710B5040003D094F83D0010B107E03D
:10240000012010BD002084F83C00204600F01EF89A
:10241000022084F83D00211D206800F0CBFC012043
:1024200084F8460084F83E0084F83F0084F84000B9
:1024300084F8410084F8420084F8430084F84400A2
:1024400084F8450084F83D00002010BD08B5006800
:102450000649884208D10648016841F04001016000
:10246000006800F04000009008BD00000018004027
:10247000403802407047000010B50446022249B1BE
:1024800004290ED0082913D094F84100012816D051
:10249000012010BD94F83E000128F9D184F83E20B7
:1024A0000FE094F83F000128F2D184F83F2008E0C3
:1024B00094F840000128EBD184F8402001E084F832
:1024C00041200122206800F0D9FC16492068164AF4
:1024D000884201D0904203D1436C43F400434364EB
:1024E0002068884213D0B0F1804F10D00F49884245
:1024F0000DD00F4988420AD00E49884207D0904239
:1025000005D00D49884202D00C49884204D1816827
:1025100001F00701062903D0016841F001010160C3
:10252000002010BD000001400004014000040040F4
:1025300000080040000C004000400140001800402E
:10254000074A0168914203D10649CA68521CCA6011
:1025500000680549884201D1FEF7CEB870470000F7
:1025600000040040380800200020004002460020FF
:1025700041B1042909D008290AD00C2901D11068D9
:10258000006C70471068406B70471068806B704734
:102590001068C06B70477047FEE70000F0B500237D
:1025A0000A24302537261F4611E000BFB4EB107F08
:1025B00002D905EB107C01E006EB107C01F813C09A
:1025C00001EB430C00015B1C8CF80170DBB2934201
:1025D000ECD3F0BD10B5124B92B00EAC0FCB84E82B
:1025E0000F0000210EA802F093FC0E4C0C491C2297
:1025F000A06010316846FDF776FE0021684602F0C3
:1026000013FD074920601C222C3107A8FDF76BFE43
:10261000002107A802F008FD606012B010BD0000A4
:102620000C680008000000202DE9F04786B0142156
:102630006846FDF771FE3A48016841F0800101608B
:10264000016801F080010591016841F00401016019
:10265000016801F004010591016841F00101016088
:10266000016801F001010591016841F0020101607A
:10267000016801F002010591016841F00801016063
:102680000068284F00F0080005900022022138461B
:10269000FEF726F8012241F630013846FEF720F811
:1026A0000122DFF88480160231464046FEF718F812
:1026B000DFF87890012204214846FEF711F8DFF890
:1026C00070A0012238215046FEF70AF8012441F695
:1026D0003200CDE90004032569463846CDE90245BC
:1026E000FDF706FFCDE9006469464046CDE90245A5
:1026F000FDF7FEFE0420CDE9000469464846CDE919
:102700000245FDF7F5FE3820CDE900046946504644
:10271000CDE90245FDF7ECFE06B0BDE8F08700000C
:10272000303802400008024000000240000C024025
:1027300000040240104810B50E4901604FF4827148
:10274000416000218160C1604FF400720161C0E905
:1027500005123822C0E90721416281620A21C16263
:10276000FFF784F8002803D0BDE81040FDF7ABBEAA
:1027700010BD0000003001405808002010B588B09E
:102780001C216846FDF7C8FD13481249002401606A
:102790005321C0E9011442F20F71C0E903148021F2
:1027A0008161FFF726FE08B1FDF78DFE60200090E5
:1027B0006420019002200290002269460494064899
:1027C000FFF7B1FD08B1FDF77EFE0348FFF766FD98
:1027D00008B010BD00180040400900200B4810B59B
:1027E000094901605321416000214FF6FF72C0E9A1
:1027F000021201618161FFF7C9F9002803D0BDE829
:102800001040FDF760BE10BD001C0040880900208C
:1028100010B586B0002426480594049400940194D1
:10282000029422490394C0E900144FF6FF71C0E9F5
:10283000024104618461FFF77CFB08B1FDF743FEB0
:10284000049404A91A480594FFF758F908B1FDF754
:102850003AFE022000900120CDE901040A200390F5
:10286000002269461248FFF7D5FA08B1FDF72BFEA2
:1028700004200246039069460D48FFF7CBFA08B1E1
:10288000FDF721FE082269460948FFF7C3FA08B19F
:10289000FDF719FE0C2269460548FFF7BBFA002830
:1028A00001D0FDF710FE06B010BD0000000400408E
:1028B000B008002030B58BB0002407940894099428
:1028C0001C2168460A94FDF727FD1A48184902257D
:1028D000C0E9001540F2E731C0E9024180210461FE
:1028E0008161FFF753F908B1FDF7EDFD4FF480501A
:1028F000079007A90F48FFF7D9F908B1FDF7E3FDE5
:102900000C48FFF776FD08B1FDF7DDFD60208DE88E
:1029100031000022694607480494FFF704FD08B11E
:10292000FDF7D1FD0348FFF7B9FC0BB030BD000047
:1029300000400140F808002010B500220F4910485F
:1029400000F0EBFF08B1FDF7BEFD0E490C4801F0A9
:10295000F9F908B1FDF7B7FD0B49094800F0B6FDDC
:1029600008B1FDF7B0FD064801F070FA002803D069
:10297000BDE81040FDF7A7BD10BD00009800002085
:102980003048002054010020E8000020FEE7FEE768
:102990000148FEF7D7B800002C5F00202DE9F04178
:1029A00003680D4604461E6C03EB4511D1F8080B75
:1029B000D4F810E04FF400474FF0200C04F2C4426A
:1029C000BEF1010F09D0DFF898E0764539D1020455
:1029D00032D500BFC1F8087B3FE0224B5FEA007EA2
:1029E00004D59E4239D90004F4D436E05FEA806E03
:1029F00002D5C1F808CB30E010F0280F2DD19E424F
:102A000001D90004E6D405EBC50004EB8000D1F841
:102A1000101BD0F89832C1F31201591AC0F89C1259
:102A200000F51F70ADB983691BB1026911440161E2
:102A30000FE0012120680AE080060AD5C1F808CB22
:102A400007E035B9D4F8940218B90021184601F00E
:102A5000FBFDE9B22046FDF74DFF0020BDE8F08107
:102A60000A31544F0A30544F2DE9F84F0E4601EB0E
:102A7000C60100EB810481460568616DE06D3C3460
:102A8000884202D90120BDE8F88F081AE168814226
:102A900000D20846C01C870805EB46181BE000BFA3
:102AA000A0EB010AE068504500D282460AF103001B
:102AB000870899F8100000901FFA8AF3F2B22846AE
:102AC000216902F0DBF8216901EB0A002061216A2B
:102AD00001EB0A002062D8F8180980B2B84205D389
:102AE000216AA069814201D20028D9D1216AA06956
:102AF000884208D806F00F0101208840D5F8341824
:102B00008143C5F834180020BDE7000038B50446FD
:102B10001248134B0068B0FBF3F04FF47A7358433C
:102B200000906068B0F5827F0DD10B4600920022C4
:102B30008021204600F016F870B1606D40F0200052
:102B40006065032038BD009830B1401E00902068B9
:102B50008068C0430006F6D5002038BD180000206C
:102B600000366E012DE9F8431E469146884604461C
:102B7000089DFDF7BBFD401B351AFDF7B7FD074665
:102B800025480068C0F3CB30684338E0701C37D06C
:102B9000FDF7ACFDC01BA84203D215B1009860B38D
:102BA0002CE02068416821F0E00141606068B0F5E8
:102BB000827F0BD1A068B0F5004F02D0B0F5806FD6
:102BC00004D12068016821F040010160A06AB0F5DD
:102BD000005F09D12068016821F40051016020687C
:102BE000016841F400510160012084F85100002087
:102BF00084F850000320BDE8F8830025401E0090B3
:102C00002068816838EA010004D000214945BDD11F
:102C10000020F0E70121F9E7180000200178407852
:102C200041EA002070470000FFF786FE002123489C
:102C3000FFF722FC00212248FFF71EFC204902205A
:102C4000096848631D494FF482700968486300248D
:102C5000C82221460020FDF7DDFB641CE4B2062CEF
:102C6000F6D3092204210020FDF7D4FBC822052158
:102C70000020FDF7CFFB642002F03EF91148FEF77B
:102C8000D5FF104801680A6A22F00A020A62006849
:102C9000016A41F00201016200210A48FFF7C4F90C
:102CA000094C4FF48075E601A561642002F024F917
:102CB000A661642002F020F9F6E70000F808002081
:102CC00040090020B00800200000024010B550204C
:102CD00080F31188BFF34F8FBFF36F8F03F0E8FBD2
:102CE00018B104494FF080500860002080F311882B
:102CF00010BD000004ED00E030B593B0302168460F
:102D0000FDF70AFB14210CA8FDF706FB1D48002562
:102D1000016841F080510160006800F0805011901E
:102D20001948016841F4804101600068022400F400
:102D30008040119001200090000401908001CDE9B5
:102D4000064004200890A820CDE9090407200B9034
:102D50006846FEF7D5FB08B172B6FEE70CA90F2056
:102D600081E831004FF4A0500F904FF48050109044
:102D700005210CA8FEF7C4FA002801D072B6FEE7C0
:102D800013B030BD40380240007000400248016876
:102D900041F470010160704788ED00E00148FFF7E1
:102DA000C9B90000B00800200148FFF7C3B900000E
:102DB000D0090020F0B50268254C264D264E274F3D
:102DC000274B4FF0804CA04209D0604507D0A84265
:102DD00005D0B04203D0B84201D0984204D122F0CD
:102DE000700E4A6842EA0E02A0421BD0604519D01C
:102DF000A84217D0B04215D0B84213D0984211D093
:102E0000184DA8420ED0184DA8420BD0174DA8421D
:102E100008D0174DA84205D0164DA84202D0164D35
:102E2000A84203D122F44075CA682A434D6922F0B2
:102E300080022A4302608A68C2620A688262A042F3
:102E400001D0984201D10969016301214161F0BDBE
:102E5000000001400004004000080040000C004059
:102E6000000401400040014000440140004801408E
:102E700000180040001C00400020004010B501F088
:102E80001F030121046A99408C430462016A9A403D
:102E90001143016210BD10B5846842EA032224F494
:102EA0007F440A432243826010BD826822F0700290
:102EB0000A4342F00701816070470000F0B5026AE2
:102EC00022F001020262036A42688469124E24F011
:102ED00073050C682C4323F002058B682B430D4DC2
:102EE000A84201D0B04205D123F00807CB683B438C
:102EF00023F00403A84201D0B04205D14D6922F469
:102F0000407215438A692A4342608461496841637B
:102F10000362F0BD0000014000040140F0B5026A08
:102F200022F010020262026A436884690D6824F488
:102F3000E64444EA05248D6822F0200242EA0512A4
:102F40000F4D104EA84201D0B04206D1CF6822F0FA
:102F5000800242EA071222F04002A84201D0B042A9
:102F600007D14D6923F4406343EA85038D6943EA41
:102F7000850343608461496881630262F0BD00009B
:102F80000000014000040140F0B5026A22F48072A2
:102F90000262026A4368C46922F4007224F0730575
:102FA0000C68124E2C438D6842EA05220E4DA84251
:102FB00001D0B04206D1CF6822F4006242EA072273
:102FC00022F48062A84201D0B04207D14D6923F4B7
:102FD000405343EA05138D6943EA05134360C46116
:102FE0004968C1630262F0BD000001400004014075
:102FF00030B5026A22F480520262046A4268C369F0
:103000000D6823F4E64343EA05238D6824F4005455
:1030100044EA0534084DA84202D0084DA84204D124
:103020004D6922F4804242EA85124260C3614968D8
:103030000164046230BD0000000001400004014052
:1030400010B5036A046A24F001040462846924F060
:10305000F00444EA021423F00A020A438461026283
:1030600010BD000070B5046A24F001040462846994
:10307000056A154EB04214D0B0F1804F11D0134EF6
:10308000B0420ED0124EB0420BD0124EB04208D019
:10309000114EB04205D0114EB04202D0104EB04297
:1030A00003D124F00304144301E044F001041A079F
:1030B00024F0F00444EA126225F00A0301F00A0148
:1030C00019438261016270BD0000014000040040AC
:1030D00000080040000C0040000401400040014096
:1030E0000018004010B5036A23F0100303628369DF
:1030F000046A23F4704343EA023224F0A00343EA53
:1031000001118261016210BD30B5046A24F010041F
:1031100004628469056A24F4407444EA022222F4B9
:1031200070444FF6FF7202EA03322243A02425F0D6
:10313000A00304EA011119438261016230BD2DE947
:10314000F0410C46D0F8D412D0F8C82200EB81012F
:10315000D1F8C01229B304F00F0606EB860300EB8A
:1031600083050027AB694BB106EBC60602EB86026E
:10317000926CB3FBF2F602FB1632A2B1C1F81472E4
:10318000D0F8D42200EB8200D0F8C40203692BB13E
:10319000D1F80802224601F5047198470020BDE8E5
:1031A000F0810320FBE700231A462146AF6100F0BF
:1031B000AAFDF3E770B50546D0F8D40205EB800010
:1031C000D0F8C04294B1284600F07FFCC4F80C024D
:1031D000D5F8D412D4F8040205EB8101D1F8C41259
:1031E000CA6804F503719047002070BD032070BDCC
:1031F00070B5224D0446297800F0ABFB28780026F4
:1032000000F00F0000EB800004EB800086846978FA
:10321000204600F09EFB687800F00F0000EB800075
:1032200004EB8000A0F86461A978204600F091FBCF
:10323000A87800F00F0000EB800004EB800086848B
:10324000C684D4F8D40204EB8000D0F8C01299B13F
:10325000D0F8C40240688047D4F8D40204EB800060
:10326000D0F8C00200F073FFD4F8D40204EB800061
:10327000C0F8C062C4F8BC62002070BD000100202C
:1032800010B5D0F8D41200EB8100D0F8C04284B160
:10329000D0F8C41259B194F80002FF2807D08B6807
:1032A00094F8012221469847FF2084F8000200206C
:1032B00010BD032010BD00000A21018000487047A6
:1032C0000401002070B5064682210C4800F0D1FAB6
:1032D00005460121094800F0CCFA0446812107483F
:1032E00000F0C7FA0DB11021A971402104B1A180ED
:1032F00000B1818043203080004870BD1001002063
:1033000070B5064682210D4800F0B3FA054601214A
:103310000A4800F0AEFA04468121084800F0A9FAF4
:103320000DB11021A9714FF4007104B1A18000B159
:10333000818043203080014870BD000010010020D2
:1033400070B5064682210C4800F093FA054601212B
:10335000094800F08EFA04468121074800F089FAF6
:103360000DB11021A971402104B1A18000B181806B
:1033700043203080004870BD100100202DE9F04747
:1033800004464FF40775284600F0E2FE06004FF0B1
:10339000000863D02946FCF7BFFFD4F8D4023C4DA7
:1033A00004EB80004FF01009C0F8C062C4F8BC62A2
:1033B000207C4FF4007A0127F0B3402302222978C1
:1033C000204600F0EFFB2878402300F00F0000EBD0
:1033D000800004EB8000878402226978204600F098
:1033E000E1FB6878082300F00F0000EB800004EB9D
:1033F00080000322A0F86471A978204601F00F0133
:1034000001EB810104EB8101A1F82690A97800F07D
:10341000C9FBA87800F00F0000EB800004EB8000EF
:103420008784C6F80482D4F8D402474604EB8000AF
:10343000D0F8C402006800E018E006F50176804785
:103440003761776132687AB1207CF8B140236978BE
:10345000204600F0B3FB0020BDE8F087D4F8D4127A
:1034600004EB8101C1F8C0820220F5E75346022235
:103470002978204600F096FB2878534600F00F008C
:1034800000EB800004EB80008784A5E75346DEE76D
:103490000001002010B5D0F8D41200EB8101D1F862
:1034A000C01259B1027C084C002AD1F8042207D07E
:1034B0004023617800F082FB002010BD032010BD86
:1034C0004FF40073F5E700000001002039B1D0F897
:1034D000D42200EB8200C0F8C41200207047032001
:1034E0007047D0F8D42200EB8200D0F8C00218B1A7
:1034F000C0F804120020704703207047D0F8D4327F
:1035000000EB8300D0F8C00228B1C0F81022C0F848
:10351000081200207047032070472DE9FC41064641
:10352000D0F8D4020C4606EB80000021D0F8C0721F
:103530008DF80010ADF804100D4637B1217811F068
:1035400060022FD0202A4BD102E00320BDE8FC818D
:10355000E288F2B109060DD5D0F8C4026378394685
:10356000D0F808C01846E047E288072A00D90722A9
:1035700039462DE0607887F80002E088402800D3C3
:103580004020C2B287F801223946304600F058F890
:103590002BE0D0F8C40263780022866821461846E2
:1035A000B04722E0607830B101281ED00A2809D047
:1035B0000B2815D110E096F89C02032810D10222A6
:1035C00001A905E096F89C02032809D10122694669
:1035D000304600F04FF808E096F89C02032804D02B
:1035E0002146304600F021F803252846AEE710B505
:1035F000D0F8B82200245268904700B10324204636
:1036000010BD0020704700207047134610B50A46D1
:10361000002100F0D3FA002010BD134610B50A4671
:10362000002100F070FB002010BD10B50446802181
:1036300000F04EFB2046BDE81040002100F048BBE2
:1036400010B50323C0F89432C0F858211346C0F8CF
:103650005C210A46002100F0B1FA002010BD10B52F
:103660000521C0F8941200231A46194600F0A6FA64
:10367000002010BD10B50223C0F8943282611346B9
:10368000C2610A46002100F03EFB002010BD10B5CB
:103690000421C0F8941200231A46194600F033FBA7
:1036A000002010BD10B50A46024903A000F005F93C
:1036B000004810BD0C4B002043444320436F6E660E
:1036C000696700001220088000487047B800002099
:1036D00010B50A46024903A000F0EFF8004810BDFB
:1036E0000C4B002043444320496E7465726661634D
:1036F000650000000420088000487047B4000020E6
:1037000010B50A46024903A000F0D7F8004810BDE2
:103710000C4B002053544D6963726F656C65637484
:10372000726F6E696373000010B50A46024903A008
:1037300000F0C3F8004810BD0C4B002053544D332B
:1037400032205669727475616C20436F6D506F72D0
:103750007400000010B51A2008800A480168001D96
:103760000468001D0068081809D008220649FEF701
:1037700015FF0549042210312046FEF70FFF0248CD
:10378000801E10BD107AFF1FCE000020F8B5044641
:103790000020ADF8000048880D46010A08295FD2D4
:1037A000DFE801F05E0409175E5E3C45D4F8B41210
:1037B000207C0A6819E0207C02260028D4F8B80290
:1037C00005D0C16A684688470146467039E0816A7B
:1037D000F8E7C0B2062843D2DFE800F0030A10146D
:1037E000181CD4F8B402426805E0694690471CE012
:1037F000D4F8B402826892B3207CF6E7D4F8B4021D
:10380000C268F8E7D4F8B4020269F4E7D4F8B40265
:103810004269F0E7D4F8B4028269ECE7207CF0B9A1
:10382000D4F8B802416B68468847014609E0207C1D
:10383000A8B9D4F8B802016B68468847014607204A
:103840004870EA888AB1BDF8000040B1824200D9D0
:103850000246ADF800202046FFF70CFFF8BDFFE759
:1038600029462046FFF7E1FEF8E72046FFF70FFF65
:10387000F4E778B50E4642880178002504468A426E
:1038800012D9ADF800100AE0694600F00FF841784F
:10389000052904D181780546B14205D0002561880B
:1038A000BDF800209142EFD8284678BD0A880378F9
:1038B0001A440A8001780844704770B50023002834
:1038C0001ED00025044602E06D1CEDB2641C267873
:1038D000002EF9D1022404EB450414801278CA5456
:1038E0005B1C0322CA5400245B1C06E0CA545B1C08
:1038F000DAB28C54521CD3B2401C0278002AF5D1A3
:1039000070BD01004FF0000004D0012901D0022950
:1039100001D0032070470120704778B10023C0F820
:10392000B832C0F8C432C0F8D03209B1C0F8B4120D
:10393000012180F89C12027000F0CCB8032070477F
:1039400010B5D0F8C802FDF718F8BDE81040FFF731
:10395000D8BF10B5D0F8C802FCF7E9FFBDE81040A9
:10396000FFF7CFBF2DE9F04117460446002521B1EE
:1039700094F89C02032842D04CE0D4F8941204F14D
:103980001400022935D1D0E902639E4206D9F21A09
:10399000826039462046FFF740FE0FE0B34214D163
:1039A0004068984211D3D4F8981288420DD2002270
:1039B00011462046FFF731FEC4F8985200231A46FC
:1039C0001946204600F0FAF813E094F89C02032808
:1039D00008D1D4F8B802C16821B1C4F8D452C16882
:1039E000204688478021204600F072F92046FFF7E4
:1039F00036FE94F8A00268B184F8A0520AE0D4F828
:103A0000B802426932B1C4F8D452426920469047A4
:103A1000002800D10020BDE8F08170B513460446AF
:103A2000002221B194F89C02032830D03AE0D4F867
:103A3000941204F5AA70032934D1D0E902518D42C1
:103A40000AD96A1A82600846824200D302461946A1
:103A50002046FFF7DAFD25E094F8AA0210F01F00D7
:103A600003D0012802D0022800D0002294F89C0242
:103A7000032808D1D4F8B802016921B1C4F8D422CE
:103A80000169204688472046FFF701FE0AE0D4F886
:103A9000B802836933B1C4F8D422826920469047C2
:103AA000002800D1002070BD0020704710B5002410
:103AB000012180F89C12D0F8B82222B15268017915
:103AC000904700B10324204610BDD0F8C802FCF78F
:103AD00082BF000010B5017839BB15490222C1F838
:103AE0000805C0F8C8124FF0A040086004204860E4
:103AF0000020C1E90320C1E9062008624862C862CB
:103B000008630846FDF7D6FA08B1FCF7DCFC802113
:103B10000748FCF7BCFE402200210548FCF7BBFE2D
:103B2000802201210248FCF7B6FE002010BD0000F3
:103B30002C5F00200A0601F07F01D0F8C80201EBDB
:103B4000C10100EB810002D590F83E00704790F86B
:103B50007E02704710B5D0F8D42200EB8202D2F872
:103B6000B82222B190F89C32032B02D004E003204B
:103B700010BD126A02B19047002010BD10B5D0F8F8
:103B8000D42200EB8202D2F8B82222B190F89C3203
:103B9000032B02D004E0032010BD526A02B190470B
:103BA000002010BD10B51C461346D0F8C8022246AE
:103BB000FCF71AFFBDE81040FFF7A3BE10B5D0F820
:103BC000C802FCF741FFBDE81040FFF79ABE2DE99F
:103BD000F04100260125044680F89C52C4F8946206
:103BE0006660C4F8A46280F8A062D0F8B80230B170
:103BF000426822B100212046904700B103260022EE
:103C0000402311462046FFF7CDFF4027A4F864511A
:103C10003B46002280212046C4F86071FFF7C2FFB6
:103C2000A58430462762BDE8F08190F89C120429F3
:103C300003D190F89D1280F89C120020704710B5B7
:103C400090F89C12032905D1D0F8B81211B1C969B6
:103C500001B18847002010BD01740020704710B5E5
:103C6000D0F8C802FDF7F8FABDE81040FFF749BEEA
:103C700070B5044600F2AA20054600F04DF8012078
:103C8000C4F89402B4F8B002C4F8980294F8AA02F6
:103C900010F01F010AD001290ED0022912D000F025
:103CA00080012046BDE8704000F012B82946204649
:103CB000BDE8704000F0CCB829462046BDE8704011
:103CC00000F00CBA29462046BDE8704000F056B915
:103CD00010B5D0F8C802FCF7DBFEBDE81040FFF7D6
:103CE00010BE10B5D0F8C802FDF7D1FABDE81040FB
:103CF000FFF707BE90F89C1280F89D12042180F80F
:103D00009C120020704710B5D0F8C802FCF7FAFEEC
:103D1000BDE81040FFF7F5BD70B5054611F8010B81
:103D20002870087868704C1C2046FEF777FF688082
:103D3000A41C2046FEF772FFA880A01CFEF76EFFB1
:103D4000E88070BD38B504460020ADF80000A1B190
:103D5000C4F8B812D4F8D40204EB8000D0F8B8024A
:103D6000C16A19B168468847C4F8D002D4F8D802AD
:103D7000401CC4F8D802002038BD032038BD0246DC
:103D80000020D2F8B832002B02D01B68104618472A
:103D9000704700002DE9F04188462B4E89780025B8
:103DA00004463170012906D941462046FFF73DFC03
:103DB0000320BDE8F08194F89C02022702280CD071
:103DC00003281DD041462046FFF72FFC31782046BE
:103DD000FFF70DFC03252846EBE789B32046616019
:103DE000FFF7CDFF050004D041462046FFF71DFC3C
:103DF0001DE02046FFF74BFC032084F89C02EAE715
:103E0000C1B1606888421BD0C1B22046FFF7EFFB0A
:103E1000317820466160FFF7B2FF050010D04146BF
:103E20002046FFF702FC21792046FFF7E0FB84F8EB
:103E30009C72D0E784F89C7220466160FFF7D7FB44
:103E40002046FFF724FCC6E7FC000020FFF749BF2F
:103E50002DE9F0410A78002512F060020CD0202AEA
:103E600001D0402A7DD1D0F8D42200EB8202D2F8D2
:103E7000B8229268904731E04B78002201260A2B45
:103E80006FD2DFE803F041666E586E08056E2D298B
:103E9000FFF77CFC67E004468888D8B9C888C8B9B1
:103EA0004888802816D200F07F0794F89C020328E7
:103EB00010D084F89E7239462046FFF7D0FE204687
:103EC000FFF7E5FB1FB1022084F89C024BE084F869
:103ED0009C6248E0204644E0FFF75CFF054642E074
:103EE000CB88012B3DD190F89C32012B04D0022BC2
:103EF00002D0032B35D104E08260012200F10801D9
:103F000016E00122011D13E090F89C22012A03D043
:103F1000022A01D0032A24D1CA88022A21D1C660EC
:103F2000D0F8A41209B10321C160022200F10C01F2
:103F3000FFF7A0FB17E04A88012A02D0022A03D02B
:103F40000FE0C0F8A46216E08988090A80F8A01280
:103F500011E090F89C32012B08D0022B06D0032BE5
:103F600004D0FFF762FB2846BDE8F08149880129AB
:103F7000F9D1C0F8A422FFF78AFBF4E72DE9F0415C
:103F8000054608780C790E464FF0000810F06000E6
:103F90000BD0202801D040286AD121462846FFF7BF
:103FA00030FBFF2800D0D8B395E07078C8B3012863
:103FB00024D003285CD195F89C02022802D0032863
:103FC00056D10CE0002C53D0802C51D021462846ED
:103FD000FFF77EFE80212846FFF77AFE7BE070889F
:103FE00040B93CB1802C05D0C88818B92146284674
:103FF000FFF76EFE2846FFF74AFB6CE095F89C023F
:104000000228DFD0032863D1708880BB600603D00C
:1040100021462846FFF794FC2846FFF738FBBCE70B
:1040200000E00AE0C5F8D402D5F8B8028268F2B11F
:1040300031462846904780464DE095F89C0200277F
:10404000022802D0032843D113E00CB1802C3FD1C9
:10405000200604F07F0000EB800005EB800101D515
:10406000143101E001F5AA7102220F602CE032E068
:104070002EE0200604F00F0000EB800005EB80002E
:1040800009D5808C20B304F07F0000EB800005EBA5
:10409000800614360AE0B0F86401C8B104F07F006D
:1040A00000EB800005EB800606F5AA764CB1802C6B
:1040B00007D021462846FFF73DFD10B101203060B2
:1040C00000E03760022231462846FFF7D3FA02E0CB
:1040D0002846FFF7AAFA4046BDE8F08170B50546CC
:1040E000087800240E4610F0600003D0202801D08C
:1040F000402827D195F89C02012803D0022801D03E
:1041000003281FD1B088C1B201291AD8C1B22846EC
:10411000FFF779FAFF280CD058B9D5F8B8128A6899
:104120003AB1C5F8D4028A68314628469047044619
:1041300000E00324F088204307D12846FFF7A7FAC0
:1041400003E031462846FFF770FA204670BD7047FD
:10415000004870470C5D002070B50A78012302F01A
:104160000F054E78AB401B4CD0F81C58012E17D0D1
:1041700045EA0343C0F81C3800EB4210D0F8002B8E
:1041800012040BD4D0F8002B8B890979C3F30A03EE
:104190001A4344EA81410A43C0F8002B002070BD55
:1041A0009BB21D43C0F81C5800EB4210D0F80039F8
:1041B0001B04F3D4D0F800398D890979C5F30A05B9
:1041C00089042B4341EA82510B432343C0F8003951
:1041D000E4E7000000800010D0F800196FF30A0136
:1041E000C0F80019D0F8041841F48071C0F8041820
:1041F0000020704770B5044606990A9E049D0D98EC
:10420000012916D0E06840F04000E060204600F050
:104210002BF8A16B1EB321F48031A163012D07D1CE
:10422000A16841F00601A160A16841F02001A160F0
:1042300070BDA16B21F48031A163E168094A11408E
:10424000E160E16821F44011E160012803D1E068F8
:1042500040F48010E060204600F006F8DEE741F40C
:104260008031DAE7BFFFBDFF08B500220D4900929B
:10427000009B5B1C00938B420CD80369002BF7DA80
:104280000092026942F001020261009A521C0092FF
:104290008A4201D9032008BD0269D207F5D1002066
:1042A00008BD0000400D030030B54C780A780123AA
:1042B00000EB4212012C2CD0D2F8004B002C0BDA70
:1042C000D2F8004B44F00064C2F8004BD2F8004B27
:1042D00044F08044C2F8004BD0F83C580C7804F00D
:1042E0000F0403FA04F425EA0444C0F83C48D0F86B
:1042F0001C48097801F00F018B4024EA0341C0F803
:104300001C18D2F8000B19490840C2F8000B002015
:1043100030BDD2F80049002C0BDAD2F8004944F045
:104320000064C2F80049D2F8004944F08044C2F861
:104330000049D0F83C480D7805F00F0503FA05F563
:10434000ADB2AC43C0F83C48D0F81C48097801F045
:104350000F018B4099B28C43C0F81C48D2F8000979
:1043600003490840C2F80009D1E700000078F3EFE4
:10437000007833ECD0F8001E21F00301C0F8001ED5
:10438000D0F8041821F00201C0F80418002070478A
:10439000D0F8001E21F00301C0F8001ED0F8041868
:1043A00041F00201C0F80418002070472DE9F04FD9
:1043B00000250E460446DDF82CC0DDF824B0109F21
:1043C0002846294604EB8002C2F80411401C0F283D
:1043D000F8D32046C7B1806B20F40012A263A06B13
:1043E00040F40022A26308468846C4F8000ED4F8C0
:1043F00000182046C4F80018BCF1010F16D0D0F800
:10440000001841F0030116E0D0F8040840F0020261
:10441000C4F80428A06B40F40012A263A06B20F43F
:104420000022A263A06B20F48022DBE7D0F8001802
:104430000BB141F00101C0F80018102100F0EEFAB4
:1044400000B10125204600F0CBFA00B1012540461D
:10445000C4F81088C4F81488C4F81C8800214FF0F0
:1044600000694FF0904A4FF67F3314E004EB41129D
:10447000D2F800C9BCF1000F06DA11B1C2F800A9E8
:1044800004E0C4F8009901E0C2F80009C2F810097C
:10449000C2F80839491C8E42E8D8002115E000BF57
:1044A00004EB4112D2F800CBBCF1000F06DA11B1D7
:1044B000C2F800AB04E0C4F8009B01E0C2F8000BB6
:1044C000C2F8100BC2F8083B491C8E42E8D8D4F859
:1044D000101821F48072C4F81028A0616FF0804099
:1044E0006061BBF1000F03D1A06940F01000A06132
:1044F000A06909490843A0610C9818B1A06940F06F
:104500000800A061012F03D1A06904490843A061FC
:104510002846BDE8F08F000000383C8004000040D1
:10452000816821F0010181600020704770B50D782D
:104530004E78444CEBB200EB4313012E21D0D3F85C
:10454000100B6FF31200C3F8100BD3F8100B2040C0
:10455000C3F8100B886908B1C8688861C868C86169
:10456000D3F8100B40F40020C3F8100BD3F8100B55
:10457000CC69C4F312042043C3F8100B012A55D0B0
:1045800058E08E69002ED3F8106932D06FF312060E
:10459000C3F81069D3F810692640C3F810698E6912
:1045A000CC68A64200D98C61D3F8104944F40024A9
:1045B000C3F81049D3F810498E69C6F31206344384
:1045C000C3F81049012A22D000EB4512D2F8003975
:1045D00043F00443C2F800398A6932B3D0F8342872
:1045E000097801F00F03012199400A43C0F83428EB
:1045F00026E02640C3F81069D3F8104944F400249B
:10460000C3F81049D3F810496FF31204D8E7496989
:1046100019B100EB4512C2F8141900EB4510D0F89F
:10462000001941F00441C0F8001909E0086908B117
:10463000C3F8140BD3F8000B40F00440C3F8000B90
:10464000002070BDFFFF07E010B5036C134CA342C0
:1046500003D9D0F8003B002B1EDB0023C0F8103B31
:10466000D0F8103B43F40023C0F8103BD0F8103BC7
:1046700043F01803C0F8103BD0F8103B43F0C043A0
:10468000C0F8103B012907D1C0F8142BD0F8001B4B
:1046900041F08021C0F8001B002010BD0A30544FAB
:1046A0004A780B78012A00EB43100BD0D0F8002B8E
:1046B00022F40012C0F8002B0979032914D0022932
:1046C00012D017E0D0F8002922F40012C0F8002917
:1046D0000979032901D002290CD1D0F8001941F041
:1046E0008051C0F8001905E0D0F8001B41F080515E
:1046F000C0F8001B002070470A784B78D1B200EB5D
:104700004110012B12D0D0F8001B002906DB2AB182
:10471000D0F8001B21F08041C0F8001BD0F8001B2E
:1047200041F40011C0F8001B00207047D0F80019B8
:10473000002906DB2AB1D0F8001921F08041C0F829
:104740000019D0F8001941F40011C0F80019EBE786
:10475000F8B50C784F78764DE3B26FF0604600EB19
:104760004313012F27D0D3F8104B6FF31204C3F873
:10477000104BD3F8104B2C40C3F8104B8D69002D13
:1047800075D0CC6825446D1EB5FBF4F5ADB26C4315
:10479000CC61D3F8104B06EAC5452C43C3F8104B47
:1047A000D3F8104BCD69C5F312052C43C3F8104B59
:1047B000012A71D0A4E08F691FB3D3F810796FF389
:1047C0001207C3F81079D3F810792F40C3F8107985
:1047D0008F69CD682F447F1EB7FBF5F506EAC54506
:1047E000D3F810693543C3F81059D3F810598E69BE
:1047F000C6F312063543C3F810590D79012D10D0B8
:104800001BE0D3F810692E40C3F81069D3F8105993
:1048100045F40025C3F81059D3F810596FF3120569
:1048200009E0D3F8105925F0C045C3F81059D3F862
:10483000105945F00055C3F81059012A18D000EB63
:104840004413D3F8004944F00444C3F800490C79F8
:10485000012C2FD08A6962B3D0F83428097801F08E
:104860000F03012199400A43C0F834285EE036E086
:104870004A691AB100EB4413C3F8142909790129D4
:104880000FD1D0F80818C90500EB4411D1F8002960
:1048900003D442F0005202E02EE042F08052C1F810
:1048A000002900EB4410D0F8001941F00441C0F891
:1048B00000193BE0D0F80848E405D3F8004902D4D9
:1048C00044F0005401E044F08054C3F800490092E1
:1048D0000A8B93B20A78096900F0D0F926E0D3F880
:1048E000104BCD68C5F312052C43C3F8104BD3F819
:1048F000104B44F4002459E70A690AB1C3F8142B99
:10490000097901290CD1D0F80808C005D3F8000BAB
:1049100002D440F0005001E040F08050C3F8000B9A
:10492000D3F8000B40F00440C3F8000B0020F8BDA2
:10493000FFFF07E038B50022009213464D780A7851
:1049400042F2107400EB4212012D19D0D2F8005B34
:10495000002D3CDAD2F8005B45F00065C2F8005B40
:104960000A7800EB4212D2F8005B45F08045C2F8AD
:10497000005B009A521C0092A24221D9012326E03A
:10498000D2F80059002D22DAD2F8005945F000651E
:10499000C2F800590A7800EB4212D2F8005945F0EB
:1049A0008045C2F80059009A521C0092A242E5D8F4
:1049B0000A7800EB4212D2F80029002AF3DB06E065
:1049C0000A7800EB4212D2F8002B002AD1DB1846FD
:1049D00038BD816841F0010181600020704700000E
:1049E00008B500220C490092009B5B1C00938B428F
:1049F0000AD80369002BF7DA009210220261009AAC
:104A0000521C00928A4201D9032008BD0269D206D5
:104A1000F5D4002008BD0000400D030018B50023A8
:104A20000D4A0093009C641C009494420CD80469C5
:104A3000002CF7DA0093202343EA811101610099E9
:104A4000491C0091914201D9032018BD01698906D2
:104A5000F5D4002018BD0000400D0300D0F8080870
:104A600010F0060004D0022803D0062801D00F2041
:104A7000704702207047406900F001007047D0F88D
:104A80001818D0F81C08084080B27047D0F81818E1
:104A9000D0F81C080840000C704710B5D0F810384A
:104AA000D0F8342801F00F0400EB4110E24002F08E
:104AB0000102D0F8080943EAC212104010BD00EB11
:104AC0004111D1F8081BD0F814080840704741691B
:104AD00080690840704730B503460846940802F0E4
:104AE0000301002203F5805303E01D6840F8045BD6
:104AF000521CA242F9D300290BD01C680022D50019
:104B000024FA05F3491E521C090400F8013B090C64
:104B1000F5D130BD70B50446C068002520F0C04016
:104B2000E060012901D079B120E0E06840F0005058
:104B3000E0600120FBF7CAFC60696D1C10F0010FFA
:104B400010D1322DF5D30DE0E06840F08040E060F8
:104B50000120FBF7BBFC60696D1C10F0010F01D058
:104B6000322DF5D3322D01D0002070BD012070BD53
:104B7000D0F8002822F4FE62C0F80028D0F80028FF
:104B80004FF4FE6303EA01110A43C0F80028002035
:104B900070470000022A3ED1264A274B0A449A4217
:104BA00001D20F2138E0254A254B0A449A4201D20E
:104BB0000E2131E0234A244B0A449A4201D20D21AE
:104BC0002AE0224A224B0A449A4201D20C2123E0D5
:104BD000204A214B0A449A4201D20B211CE01F4A71
:104BE0001F4B0A449A4201D20A2115E01D4A1E4B6E
:104BF0000A449A420FD31D4A1D4B0A449A4201D2DD
:104C0000082109E01B4A11441B4A914201D20721A5
:104C100002E0062100E00921C26822F47052C2605D
:104C2000C2684FF4705303EA81210A43C260002036
:104C300070470000405327FF00350C00401E1BFF4B
:104C400040420F0000DC0BFF804F1200808CF9FE09
:104C500020D6130060B6E5FE60E3160000D3CEFE5A
:104C600040771B00C05BB3FEC091210000CA91FEDB
:104C700020753800E05459FEE09C410010B5029CBC
:104C800074B9DB1C9C0800EB0230002300F5805057
:104C900004E000BF51F8042B02605B1CA342F9D36F
:104CA000002010BDFEE70000ADF5047D0A4CA068B1
:104CB00000F037FE012280A8A16800F03DF9DDE98F
:104CC0008002102803D105A1684600F011F8642085
:104CD00000F012F9EBE70000000000206576656E39
:104CE000742E76616C75653A25640D0A000000002B
:104CF0000FB4084B10B504A902AA039800F02CF8D1
:104D0000044602A9002000F0D1F8204610BC5DF84E
:104D100014FB0000AD4E00080907090E002804DB53
:104D200000F1E02080F80014704700F00F0000F15F
:104D3000E02080F8141D704702E008C8121F08C167
:104D4000002AFAD170477047002001E001C1121F0C
:104D5000002AFBD1704700002DE9FF4F89B09B4628
:104D60000446002506E025280BD05A460B999047AB
:104D7000641C6D1C20780028F5D10DB02846BDE8D4
:104D8000F08F0027B8460122474900E0074314F896
:104D9000013F203B02FA03F00842F7D120782E2889
:104DA00019D114F8010F47F004072A280ED06FF02C
:104DB0002F022078A0F1300109290CD808EB8801D6
:104DC00002EB410100EB0108641CF2E70A98641C45
:104DD00050F8048B0A9020780028CED0642808D0A0
:104DE000692806D075281ED05A460B9990476D1C2D
:104DF00058E00A994FF00A0901C90A91002802DA1D
:104E000040422D2102E0390504D52B218DF82010D8
:104E1000012103E0F90704D02021F7E78A4608AE14
:104E20000DE00021FAE70A994FF00A0901C90A9139
:104E3000F7E74946FBF77BFA303106F8011D0028F9
:104E4000F7D1ADEB060000F12009780701D44FF04F
:104E50000108C84502DDA8EB090000E000208046FB
:104E6000002706E008A85A46C05D0B9990476D1CC4
:104E70007F1C5745F6DB04E030205A460B999047DB
:104E80006D1CB8F10001A8F10108F5DC05E016F889
:104E9000010B5A460B9990476D1CB9F10001A9F11D
:104EA0000109F4DC641C65E7092801000A68531C49
:104EB0000B6010707047EFF30580002800D00120D0
:104EC0007047FBF721FCFDF717FFFDF7ADFBFDF782
:104ED00031FCFDF783FCFDF7EDFCFDF799FCFDF7D8
:104EE0004DFCFDF777FB00F00EF8FEE701460020D1
:104EF000842900D0C81C704710B500B9012000F00B
:104F000043FE002010BD10B500F0A6FE002010BD2D
:104F100038B5D0E9011204683AB1C3682BB100205A
:104F20000090204600F0ADFF38BD2046BDE8384077
:104F3000002200F085BF00002DE9FF410D004FF079
:104F40000006CDE9016507461ED000240396501CDB
:104F50001FD002B11446FFF7AEFF69464FF01008AC
:104F6000E8B103AA2846091D01F0AEF9012813D0C3
:104F700000960398E8B114494FF080500860BFF3E1
:104F80004F8FBFF36F8F14E0802031462A46009088
:104F900011E04FF0FF34DEE7CDF80080E9E722466C
:104FA0002846091D01F0F4F8012808D054B140202A
:104FB00000909DE8070087E80700BDE8FF81CDF875
:104FC0000080F6E70020F3E704ED00E037B5054682
:104FD00082B000200090140000D10124FFF76BFF85
:104FE0004FF0000388B16A4603A9284601F070F823
:104FF000012811D1009890B10A494FF08050086003
:10500000BFF34F8FBFF36F8F09E0224603A92846F5
:1050100000F0AEFF012802D0FF2005B030BD002017
:10502000FBE7000004ED00E07FB50D460446416952
:10503000B0F9080081B1A16971B1FFF757FFD4E958
:1050400005128DE80700D4E900102B46226901F013
:10505000F0F9039004B070BDFFF748FF03A9CDE954
:105060000001208A2B4682B2D4E9001001F0B4F985
:10507000012801D00020EDE70398EBE72DE9F0418E
:10508000184C0F460546E6682068001D00F036FC07
:1050900038B9206890F82C1001208840216981439C
:1050A0002161681C07D137B12168BDE8F0410E4885
:1050B000091D00F085BC20683544B5424560216873
:1050C00005D2A06BBDE8F041091D00F061BC606B2A
:1050D000091D00F05DFCA06A854200D2A562BDE812
:1050E000F08100001C000020340B00202DE9F0416D
:1050F000054600F071FC2E4CA068401CA0602068A2
:105100002C4F10B1606940B32DE02560A0680128E4
:1051100029D1002606EB860007EB800000F02AFC70
:10512000761C072EF6D323488C3000F023FC214850
:10513000A03000F01FFC1F48B43000F01BFC1D48DD
:10514000C83000F017FC1B48DC3000F013FC194895
:105150008C3060631430A06305E02068E96AC06A9F
:10516000884200D82560606A401C6062E96A0120BC
:10517000226988401043206101EB810007EB800029
:10518000291D00F01DFC00F047FC606900280CD0D0
:105190002068E96AC06A884207D207494FF0805008
:1051A0000860BFF34F8FBFF36F8FBDE8F081000041
:1051B0001C000020580A002004ED00E038B500F083
:1051C0000BFC104C2068C8B90F4800F0D3FB0E4808
:1051D000143000F0CFFB0C48E060143020610A4B23
:1051E0000020C03B009003F148020C210A2000F08F
:1051F00048FE206010B105A100F090FCBDE83840E9
:1052000000F00ABC58000020080C0020546D7251B8
:105210000000000030B4026C0B46002A0BD0C168BD
:105220001144C1608468A14201D30168C16030BCEF
:105230001846FBF758B830BC70472DE9F041856B34
:10524000174604460026026C82B1C7B1E068FBF73E
:105250004AF8E168206C091AE1602268914202D2A2
:10526000A168081AE060022F16D017E02068A8B9DC
:10527000A06801F083F906460020A0600EE0606897
:10528000FBF731F8216C606808446060A1688842CF
:1052900004D32068606001E005B16D1E6D1CA5633C
:1052A0003046BDE8F08110B5044690F8510058B181
:1052B00001280CD002280FD0502080F31188BFF3B2
:1052C0004F8FBFF36F8FFEE7206B00F0B9FB2046D6
:1052D000BDE8104000F0B4BB10BD000010484FF412
:1052E0007051420706D0C01D0D4920F00700411A39
:1052F000C1F570510B4A00230144C2E9000308398B
:10530000183A21F0070111604B600B600B1AC0E9DD
:10531000001393604FF000405360506170470000ED
:10532000300C002084000020144E154CA6F1C80754
:105330004FF08058DFF84C9012E000BF00F04CFBBB
:10534000F068C568281D00F0D9FAA068401EA0606A
:105350006068401E606000F05FFB2846FFF7A3FF17
:1053600060680028EAD138680128F9D9C9F80080B6
:10537000BFF34F8FBFF36F8FF2E70000200B0020C9
:105380001C00002004ED00E00346009829B10260F3
:10539000C0E90F31012100F0A7BD0060F8E72DE959
:1053A000F0479A46DDE9098481466FF00303206BDC
:1053B00003EB82021044089E20F00707780707D00D
:1053C000502080F31188BFF34F8FBFF36F8FFEE73C
:1053D000002561B1002023180A5C83F834200A5CA0
:1053E00012B1401C1028F6D384F8435001E084F831
:1053F0003450072E00D30626E662C4E91165201D4D
:1054000000F0C3FA04F1180000F0BFFA2461C6F1FD
:1054100007006462A061E56484F850505246494632
:10542000384600F055FA2060B8F1000F01D0C8F8F6
:105430000040BDE8F087000030B5114900E011469A
:105440000A688242FBD34B685C18844203D14068EF
:1054500018444860084643681C18944209D1084C17
:10546000183C2468A24209D052681A4442600A6873
:1054700012680260814200D0086030BD0460F9E724
:105480008400002070B5002441600B4D0061914202
:1054900006D8D11A8269914206D2011D286907E017
:1054A0009A4203D2994201D3012403E0011DE86826
:1054B00000F06EFA204670BD5800002010B504467A
:1054C00000F08AFAA06B28B15FF0000400F0A4FAA3
:1054D000204610BD0124F9E730B587B0394D67E0AB
:1054E0000498002864DB069C606910B1201D00F060
:1054F00005FA03A800F0D8F8024604980A2857D203
:10550000DFE800F00505052D334A05052D3394F835
:10551000240040F0010084F824000599A069059B4F
:1055200001442046FFF7AEFF68B3216A2046884752
:1055300094F8240040073BD5002000900598A1690D
:10554000002342181946204601F030F9D8B95020FE
:1055500080F31188BFF34F8FBFF36F8FFEE714F80E
:10556000240F20F00100207022E094F8240040F085
:10557000010084F824000598A06128B18118134621
:105580002046FFF77FFF13E0502080F31188BFF320
:105590004F8FBFF36F8FFEE794F82400810703D489
:1055A000204600F04DFA03E020F0010084F82400CA
:1055B000002204A9286800F0EBFD002890D107B074
:1055C00030BD0000580000202DE9FC410F46054683
:1055D00000F086FB01A800F067F80446019818B1B6
:1055E00001F052F8BDE8FC81254EAFB1306900688A
:1055F000D0B30027291B3A46306800F0A3FA01F027
:1056000043F80028EED11F494FF080500860BFF3E7
:105610004F8FBFF36F8FE5E7A542EBD801F034F869
:10562000F0682746C068C468201D00F067F994F848
:105630002400410719D5A0692B4641193A46204656
:10564000FFF720FFA8B100200346014600902A463C
:10565000204601F0ABF860B9502080F31188BFF309
:105660004F8FBFF36F8FFEE707E020F0010084F853
:105670002400216A20468847B4E70127BAE70000E2
:105680005800002004ED00E00648416B096829B18C
:10569000416BC968C9684968816270474FF0FF3142
:1056A000FAE700001C00002070B5054600F0FAFE85
:1056B000064E0446B068844203D200F009F8012087
:1056C00000E0002028602046B46070BD5800002033
:1056D000F8B5194D20E0C068C4680668201D00F0C8
:1056E0000DF9216A2046884794F82400400713D515
:1056F000A0693044B04206D924616060211DE86889
:1057000000F046F908E000200346014600903246CA
:10571000204601F04BF838B1E86801680029DAD179
:105720002969C5E90310F8BD502080F31188BFF343
:105730004F8FBFF36F8FFEE7580000200848406886
:10574000401C4FF0500080F3118804D0BFF34F8FFE
:10575000BFF36F8FFEE7BFF34F8FBFF36F8FFEE78F
:105760008C000020074CE068016841B1C06800214E
:10577000D0F80000FFF728FFFFF7AEFEF3E70121A6
:105780000020F7E7580000202DE9F041044600F022
:1057900023F994F9455004F1240609E0606A48B100
:1057A000304600F037FF08B100F01CFA6D1E6DB2F4
:1057B000002DF3DC4FF0FF3684F8456000F02CF943
:1057C00000F00AF994F9445004F1100709E0206947
:1057D00048B1384600F01EFF08B100F003FA6D1E14
:1057E0006DB2002DF3DC84F84460BDE8F04100F0B8
:1057F00013B900002DE9F0410546002700F070FACA
:10580000324E306808B9FFF769FD706905424ED124
:10581000C5B3083568070ED005F00700C0F10800D1
:105820000544680707D0502080F31188BFF34F8FDD
:10583000BFF36F8FFEE72DB37068854237D82348DA
:10584000183001460C6801E020460C466168A94208
:1058500002D221680029F7D131688C4227D007682D
:105860002168016060680837411B10290FD9601951
:10587000420708D0502080F31188BFF34F8FBFF349
:105880006F8FFEE713E041606560FFF7D5FD61684B
:105890007068401A7060B268904200D2B06070695F
:1058A00001430020C4E90001F068401CF06000F0F2
:1058B000EBFE780707D0502080F31188BFF34F8F9D
:1058C000BFF36F8FFEE73846BDE8F0816C00002023
:1058D00010B5031F4FF080741C601B1F21F00101E5
:1058E0001960191F044B0B6014390A60091F6FF00F
:1058F000020244380A6010BD3D570008D0E9013269
:1059000001699A60D0E901235A604A68824201D154
:1059100082684A60002202610868401E08600868C8
:10592000704710B5040006D000F056F8A46B00F0E4
:1059300073F8204610BD502080F31188BFF34F8FBD
:10594000BFF36F8FFEE70000034B036003F15400C9
:10595000086080201060704790010020044B0360B5
:1059600003F1540008604FF480701060704700002D
:10597000E403002000F108014FF0FF32C0E90112FA
:10598000C160016100210160704700210161704721
:1059900030B50B685A1C02D000F1080202E002691F
:1059A00004E02246546825689D42FAD953684B604A
:1059B00099608A60516008610168491C016030BDCE
:1059C00042684A6093688B6093685960916008618F
:1059D0000168491C01607047502080F31188BFF3B3
:1059E0004F8FBFF36F8F0A494868401C48600128F9
:1059F0000CD10848006810F0FF0F07D0502080F34A
:105A00001188BFF34F8FBFF36F8FFEE77047000021
:105A10008C00002004ED00E00849486828B1401ED1
:105A2000486001D180F311887047502080F31188BD
:105A3000BFF34F8FBFF36F8FFEE700008C00002095
:105A400070B500282AD0164DA0F108046068696975
:105A5000084207D1502080F31188BFF34F8FBFF366
:105A60006F8FFEE722683AB1502080F31188BFF3B0
:105A70004F8FBFF36F8FFEE78843606000F030F90F
:105A800060686968084468602046FFF7D5FC2869AB
:105A9000401C2861BDE8704000F0F6BD70BD0000FC
:105AA0006C0000204FF0E020002101618161054978
:105AB0004FF47A720968B1FBF2F1491E4161072186
:105AC000016170471800002010B5FAF7C5FB1149B5
:105AD00010280ED300F1E02090F8F0030A789042ED
